{
	"LP/LP.sol": {
		"LP": {
			"abi": [
				{
					"inputs": [
						{
							"internalType": "contract IPokerToken",
							"name": "_poker",
							"type": "address"
						},
						{
							"internalType": "contract ILPToken",
							"name": "_lp",
							"type": "address"
						},
						{
							"internalType": "contract IBurnCoin",
							"name": "_burncoin",
							"type": "address"
						}
					],
					"stateMutability": "nonpayable",
					"type": "constructor"
				},
				{
					"anonymous": false,
					"inputs": [
						{
							"indexed": true,
							"internalType": "address",
							"name": "sender",
							"type": "address"
						},
						{
							"indexed": false,
							"internalType": "uint256",
							"name": "amount",
							"type": "uint256"
						},
						{
							"indexed": false,
							"internalType": "uint256",
							"name": "shares",
							"type": "uint256"
						},
						{
							"indexed": false,
							"internalType": "uint256",
							"name": "lastDepositedTime",
							"type": "uint256"
						}
					],
					"name": "Deposit",
					"type": "event"
				},
				{
					"anonymous": false,
					"inputs": [
						{
							"indexed": true,
							"internalType": "address",
							"name": "sender",
							"type": "address"
						},
						{
							"indexed": false,
							"internalType": "uint256",
							"name": "amount",
							"type": "uint256"
						},
						{
							"indexed": false,
							"internalType": "uint256",
							"name": "shares",
							"type": "uint256"
						}
					],
					"name": "Withdraw",
					"type": "event"
				},
				{
					"inputs": [],
					"name": "accPerShare",
					"outputs": [
						{
							"internalType": "uint256",
							"name": "",
							"type": "uint256"
						}
					],
					"stateMutability": "view",
					"type": "function"
				},
				{
					"inputs": [
						{
							"internalType": "uint256",
							"name": "_amount",
							"type": "uint256"
						}
					],
					"name": "deposit",
					"outputs": [],
					"stateMutability": "nonpayable",
					"type": "function"
				},
				{
					"inputs": [],
					"name": "getEther",
					"outputs": [
						{
							"internalType": "uint256",
							"name": "",
							"type": "uint256"
						}
					],
					"stateMutability": "view",
					"type": "function"
				},
				{
					"inputs": [],
					"name": "getPkBalance",
					"outputs": [
						{
							"internalType": "uint256",
							"name": "",
							"type": "uint256"
						}
					],
					"stateMutability": "view",
					"type": "function"
				},
				{
					"inputs": [],
					"name": "getStakingCoinPerSec",
					"outputs": [
						{
							"internalType": "uint256",
							"name": "",
							"type": "uint256"
						}
					],
					"stateMutability": "view",
					"type": "function"
				},
				{
					"inputs": [],
					"name": "getTime",
					"outputs": [
						{
							"internalType": "uint256",
							"name": "",
							"type": "uint256"
						}
					],
					"stateMutability": "view",
					"type": "function"
				},
				{
					"inputs": [],
					"name": "lastUpdateTime",
					"outputs": [
						{
							"internalType": "uint256",
							"name": "",
							"type": "uint256"
						}
					],
					"stateMutability": "view",
					"type": "function"
				},
				{
					"inputs": [],
					"name": "lpBalance",
					"outputs": [
						{
							"internalType": "uint256",
							"name": "",
							"type": "uint256"
						}
					],
					"stateMutability": "view",
					"type": "function"
				},
				{
					"inputs": [],
					"name": "myBenefits",
					"outputs": [
						{
							"internalType": "uint256",
							"name": "",
							"type": "uint256"
						}
					],
					"stateMutability": "view",
					"type": "function"
				},
				{
					"inputs": [],
					"name": "myValue",
					"outputs": [
						{
							"internalType": "uint256",
							"name": "",
							"type": "uint256"
						}
					],
					"stateMutability": "view",
					"type": "function"
				},
				{
					"inputs": [],
					"name": "newContractAddress",
					"outputs": [
						{
							"internalType": "address",
							"name": "",
							"type": "address"
						}
					],
					"stateMutability": "view",
					"type": "function"
				},
				{
					"inputs": [],
					"name": "owner",
					"outputs": [
						{
							"internalType": "address",
							"name": "",
							"type": "address"
						}
					],
					"stateMutability": "view",
					"type": "function"
				},
				{
					"inputs": [],
					"name": "pendingCoin",
					"outputs": [
						{
							"internalType": "uint256",
							"name": "",
							"type": "uint256"
						}
					],
					"stateMutability": "view",
					"type": "function"
				},
				{
					"inputs": [
						{
							"internalType": "address",
							"name": "newAddress",
							"type": "address"
						}
					],
					"name": "setFeeAddress",
					"outputs": [],
					"stateMutability": "nonpayable",
					"type": "function"
				},
				{
					"inputs": [
						{
							"internalType": "contract ILPToken",
							"name": "_lp",
							"type": "address"
						}
					],
					"name": "setLp",
					"outputs": [],
					"stateMutability": "nonpayable",
					"type": "function"
				},
				{
					"inputs": [
						{
							"internalType": "bool",
							"name": "flag",
							"type": "bool"
						}
					],
					"name": "setStakingSwitch",
					"outputs": [],
					"stateMutability": "nonpayable",
					"type": "function"
				},
				{
					"inputs": [],
					"name": "sharesPrice",
					"outputs": [
						{
							"internalType": "uint256",
							"name": "",
							"type": "uint256"
						}
					],
					"stateMutability": "view",
					"type": "function"
				},
				{
					"inputs": [],
					"name": "stakingStartTime",
					"outputs": [
						{
							"internalType": "uint256",
							"name": "",
							"type": "uint256"
						}
					],
					"stateMutability": "view",
					"type": "function"
				},
				{
					"inputs": [],
					"name": "stakingSwitch",
					"outputs": [
						{
							"internalType": "bool",
							"name": "",
							"type": "bool"
						}
					],
					"stateMutability": "view",
					"type": "function"
				},
				{
					"inputs": [],
					"name": "totalAmount",
					"outputs": [
						{
							"internalType": "uint256",
							"name": "",
							"type": "uint256"
						}
					],
					"stateMutability": "view",
					"type": "function"
				},
				{
					"inputs": [],
					"name": "totalLpFee",
					"outputs": [
						{
							"internalType": "uint256",
							"name": "",
							"type": "uint256"
						}
					],
					"stateMutability": "view",
					"type": "function"
				},
				{
					"inputs": [],
					"name": "totalShares",
					"outputs": [
						{
							"internalType": "uint256",
							"name": "",
							"type": "uint256"
						}
					],
					"stateMutability": "view",
					"type": "function"
				},
				{
					"inputs": [],
					"name": "totalStakingAmount",
					"outputs": [
						{
							"internalType": "uint256",
							"name": "",
							"type": "uint256"
						}
					],
					"stateMutability": "view",
					"type": "function"
				},
				{
					"inputs": [
						{
							"internalType": "uint256",
							"name": "amount",
							"type": "uint256"
						}
					],
					"name": "transferLpFee",
					"outputs": [],
					"stateMutability": "nonpayable",
					"type": "function"
				},
				{
					"inputs": [],
					"name": "updatePool",
					"outputs": [],
					"stateMutability": "nonpayable",
					"type": "function"
				},
				{
					"inputs": [
						{
							"internalType": "address",
							"name": "",
							"type": "address"
						}
					],
					"name": "userInfo",
					"outputs": [
						{
							"internalType": "uint256",
							"name": "shares",
							"type": "uint256"
						},
						{
							"internalType": "uint256",
							"name": "lastDepositedTime",
							"type": "uint256"
						},
						{
							"internalType": "uint256",
							"name": "lastUserActionTime",
							"type": "uint256"
						},
						{
							"internalType": "uint256",
							"name": "coinAtlastUserAction",
							"type": "uint256"
						},
						{
							"internalType": "uint256",
							"name": "coinPerShares",
							"type": "uint256"
						},
						{
							"internalType": "uint256",
							"name": "rewardDebt",
							"type": "uint256"
						},
						{
							"internalType": "uint256",
							"name": "rewards",
							"type": "uint256"
						},
						{
							"internalType": "uint256",
							"name": "amount",
							"type": "uint256"
						}
					],
					"stateMutability": "view",
					"type": "function"
				},
				{
					"inputs": [
						{
							"internalType": "uint256",
							"name": "_shares",
							"type": "uint256"
						}
					],
					"name": "withdraw",
					"outputs": [],
					"stateMutability": "nonpayable",
					"type": "function"
				},
				{
					"inputs": [],
					"name": "withdrawFeePeriod",
					"outputs": [
						{
							"internalType": "uint256",
							"name": "",
							"type": "uint256"
						}
					],
					"stateMutability": "view",
					"type": "function"
				}
			],
			"devdoc": {
				"kind": "dev",
				"methods": {},
				"version": 1
			},
			"evm": {
				"assembly": "    /* \"LP/LP.sol\":1096:10384  contract LP {\r... */\n  mstore(0x40, 0x80)\n    /* \"LP/LP.sol\":1857:1858  0 */\n  0x00\n    /* \"LP/LP.sol\":1828:1858  uint256 public accPerShare = 0 */\n  0x05\n  sstore\n    /* \"LP/LP.sol\":1893:1894  0 */\n  0x00\n    /* \"LP/LP.sol\":1865:1894  uint256 public totalLpFee = 0 */\n  0x06\n  sstore\n    /* \"LP/LP.sol\":1930:1931  0 */\n  0x00\n    /* \"LP/LP.sol\":1901:1931  uint256 public totalShares = 0 */\n  0x07\n  sstore\n    /* \"LP/LP.sol\":1967:1968  0 */\n  0x00\n    /* \"LP/LP.sol\":1938:1968  uint256 public totalAmount = 0 */\n  0x08\n  sstore\n    /* \"LP/LP.sol\":2007:2008  0 */\n  0x00\n    /* \"LP/LP.sol\":1975:2008  uint256 public lastUpdateTime = 0 */\n  0x09\n  sstore\n    /* \"LP/LP.sol\":2050:2056  7 days */\n  0x093a80\n    /* \"LP/LP.sol\":2015:2056  uint256 public withdrawFeePeriod = 7 days */\n  0x0a\n  sstore\n    /* \"LP/LP.sol\":2180:2181  0 */\n  0x00\n    /* \"LP/LP.sol\":2146:2181  uint256 public stakingStartTime = 0 */\n  0x0b\n  sstore\n    /* \"LP/LP.sol\":2216:2221  false */\n  0x00\n    /* \"LP/LP.sol\":2188:2221  bool public stakingSwitch = false */\n  0x0c\n  exp(0x0100, 0x00)\n  dup2\n  sload\n  dup2\n  0xff\n  mul\n  not\n  and\n  swap1\n  dup4\n  iszero\n  iszero\n  mul\n  or\n  swap1\n  sstore\n  pop\n    /* \"LP/LP.sol\":2247:2249  18 */\n  0x12\n    /* \"LP/LP.sol\":2228:2249  uint256 decimals = 18 */\n  0x0d\n  sstore\n    /* \"LP/LP.sol\":1284:1541  constructor(\r... */\n  callvalue\n  dup1\n  iszero\n  tag_1\n  jumpi\n  0x00\n  dup1\n  revert\ntag_1:\n  pop\n  mload(0x40)\n  sub(codesize, bytecodeSize)\n  dup1\n  bytecodeSize\n  dup4\n  codecopy\n  dup2\n  dup2\n  add\n  0x40\n  mstore\n  0x60\n  dup2\n  lt\n  iszero\n  tag_2\n  jumpi\n  0x00\n  dup1\n  revert\ntag_2:\n  dup2\n  add\n  swap1\n  dup1\n  dup1\n  mload\n  swap1\n  0x20\n  add\n  swap1\n  swap3\n  swap2\n  swap1\n  dup1\n  mload\n  swap1\n  0x20\n  add\n  swap1\n  swap3\n  swap2\n  swap1\n  dup1\n  mload\n  swap1\n  0x20\n  add\n  swap1\n  swap3\n  swap2\n  swap1\n  pop\n  pop\n  pop\n    /* \"LP/LP.sol\":1411:1417  _poker */\n  dup3\n    /* \"LP/LP.sol\":1403:1408  poker */\n  0x00\n  dup1\n    /* \"LP/LP.sol\":1403:1417  poker = _poker */\n  0x0100\n  exp\n  dup2\n  sload\n  dup2\n  0xffffffffffffffffffffffffffffffffffffffff\n  mul\n  not\n  and\n  swap1\n  dup4\n  0xffffffffffffffffffffffffffffffffffffffff\n  and\n  mul\n  or\n  swap1\n  sstore\n  pop\n    /* \"LP/LP.sol\":1436:1446  msg.sender */\n  caller\n    /* \"LP/LP.sol\":1428:1433  owner */\n  0x03\n  0x00\n    /* \"LP/LP.sol\":1428:1446  owner = msg.sender */\n  0x0100\n  exp\n  dup2\n  sload\n  dup2\n  0xffffffffffffffffffffffffffffffffffffffff\n  mul\n  not\n  and\n  swap1\n  dup4\n  0xffffffffffffffffffffffffffffffffffffffff\n  and\n  mul\n  or\n  swap1\n  sstore\n  pop\n    /* \"LP/LP.sol\":1474:1483  getTime() */\n  tag_5\n    /* \"LP/LP.sol\":1474:1481  getTime */\n  shl(0x20, tag_6)\n    /* \"LP/LP.sol\":1474:1483  getTime() */\n  0x20\n  shr\n  jump\t// in\ntag_5:\n    /* \"LP/LP.sol\":1457:1471  lastUpdateTime */\n  0x09\n    /* \"LP/LP.sol\":1457:1483  lastUpdateTime = getTime() */\n  dup2\n  swap1\n  sstore\n  pop\n    /* \"LP/LP.sol\":1505:1514  _burncoin */\n  dup1\n    /* \"LP/LP.sol\":1494:1502  burnCoin */\n  0x02\n  0x00\n    /* \"LP/LP.sol\":1494:1514  burnCoin = _burncoin */\n  0x0100\n  exp\n  dup2\n  sload\n  dup2\n  0xffffffffffffffffffffffffffffffffffffffff\n  mul\n  not\n  and\n  swap1\n  dup4\n  0xffffffffffffffffffffffffffffffffffffffff\n  and\n  mul\n  or\n  swap1\n  sstore\n  pop\n    /* \"LP/LP.sol\":1530:1533  _lp */\n  dup2\n    /* \"LP/LP.sol\":1525:1527  lp */\n  0x01\n  0x00\n    /* \"LP/LP.sol\":1525:1533  lp = _lp */\n  0x0100\n  exp\n  dup2\n  sload\n  dup2\n  0xffffffffffffffffffffffffffffffffffffffff\n  mul\n  not\n  and\n  swap1\n  dup4\n  0xffffffffffffffffffffffffffffffffffffffff\n  and\n  mul\n  or\n  swap1\n  sstore\n  pop\n    /* \"LP/LP.sol\":1284:1541  constructor(\r... */\n  pop\n  pop\n  pop\n    /* \"LP/LP.sol\":1096:10384  contract LP {\r... */\n  jump(tag_7)\n    /* \"LP/LP.sol\":8170:8248  function getTime() public view returns (uint256) {\r... */\ntag_6:\n    /* \"LP/LP.sol\":8210:8217  uint256 */\n  0x00\n    /* \"LP/LP.sol\":8237:8240  now */\n  timestamp\n    /* \"LP/LP.sol\":8230:8240  return now */\n  swap1\n  pop\n    /* \"LP/LP.sol\":8170:8248  function getTime() public view returns (uint256) {\r... */\n  swap1\n  jump\t// out\n    /* \"LP/LP.sol\":1096:10384  contract LP {\r... */\ntag_7:\n  dataSize(sub_0)\n  dup1\n  dataOffset(sub_0)\n  0x00\n  codecopy\n  0x00\n  return\nstop\n\nsub_0: assembly {\n        /* \"LP/LP.sol\":1096:10384  contract LP {\r... */\n      mstore(0x40, 0x80)\n      callvalue\n      dup1\n      iszero\n      tag_1\n      jumpi\n      0x00\n      dup1\n      revert\n    tag_1:\n      pop\n      jumpi(tag_2, lt(calldatasize, 0x04))\n      shr(0xe0, calldataload(0x00))\n      dup1\n      0x8705fcd4\n      gt\n      tag_31\n      jumpi\n      dup1\n      0xd2890a01\n      gt\n      tag_32\n      jumpi\n      dup1\n      0xe3161ddd\n      gt\n      tag_33\n      jumpi\n      dup1\n      0xe3161ddd\n      eq\n      tag_27\n      jumpi\n      dup1\n      0xe6fa445d\n      eq\n      tag_28\n      jumpi\n      dup1\n      0xf4c2baa9\n      eq\n      tag_29\n      jumpi\n      dup1\n      0xfc3e532b\n      eq\n      tag_30\n      jumpi\n      jump(tag_2)\n    tag_33:\n      dup1\n      0xd2890a01\n      eq\n      tag_24\n      jumpi\n      dup1\n      0xde0ff7c5\n      eq\n      tag_25\n      jumpi\n      dup1\n      0xdf10b4e6\n      eq\n      tag_26\n      jumpi\n      jump(tag_2)\n    tag_32:\n      dup1\n      0xb6b55f25\n      gt\n      tag_34\n      jumpi\n      dup1\n      0xb6b55f25\n      eq\n      tag_20\n      jumpi\n      dup1\n      0xb8a3b366\n      eq\n      tag_21\n      jumpi\n      dup1\n      0xc8f33c91\n      eq\n      tag_22\n      jumpi\n      dup1\n      0xd201114a\n      eq\n      tag_23\n      jumpi\n      jump(tag_2)\n    tag_34:\n      dup1\n      0x8705fcd4\n      eq\n      tag_17\n      jumpi\n      dup1\n      0x8da5cb5b\n      eq\n      tag_18\n      jumpi\n      dup1\n      0x936b6cec\n      eq\n      tag_19\n      jumpi\n      jump(tag_2)\n    tag_31:\n      dup1\n      0x557ed1ba\n      gt\n      tag_35\n      jumpi\n      dup1\n      0x6d3c832f\n      gt\n      tag_36\n      jumpi\n      dup1\n      0x6d3c832f\n      eq\n      tag_13\n      jumpi\n      dup1\n      0x77926869\n      eq\n      tag_14\n      jumpi\n      dup1\n      0x7b27c1d1\n      eq\n      tag_15\n      jumpi\n      dup1\n      0x81ad5718\n      eq\n      tag_16\n      jumpi\n      jump(tag_2)\n    tag_36:\n      dup1\n      0x557ed1ba\n      eq\n      tag_10\n      jumpi\n      dup1\n      0x6abfd183\n      eq\n      tag_11\n      jumpi\n      dup1\n      0x6af04a57\n      eq\n      tag_12\n      jumpi\n      jump(tag_2)\n    tag_35:\n      dup1\n      0x2059f615\n      gt\n      tag_37\n      jumpi\n      dup1\n      0x2059f615\n      eq\n      tag_6\n      jumpi\n      dup1\n      0x2e1a7d4d\n      eq\n      tag_7\n      jumpi\n      dup1\n      0x3a98ef39\n      eq\n      tag_8\n      jumpi\n      dup1\n      0x47f1aae7\n      eq\n      tag_9\n      jumpi\n      jump(tag_2)\n    tag_37:\n      dup1\n      0x0b26b6a8\n      eq\n      tag_3\n      jumpi\n      dup1\n      0x1959a002\n      eq\n      tag_4\n      jumpi\n      dup1\n      0x1a39d8ef\n      eq\n      tag_5\n      jumpi\n    tag_2:\n      0x00\n      dup1\n      revert\n        /* \"LP/LP.sol\":9701:9969  function transferLpFee(uint256 amount) public {\r... */\n    tag_3:\n      tag_38\n      0x04\n      dup1\n      calldatasize\n      sub\n      0x20\n      dup2\n      lt\n      iszero\n      tag_39\n      jumpi\n      0x00\n      dup1\n      revert\n    tag_39:\n      dup2\n      add\n      swap1\n      dup1\n      dup1\n      calldataload\n      swap1\n      0x20\n      add\n      swap1\n      swap3\n      swap2\n      swap1\n      pop\n      pop\n      pop\n      tag_40\n      jump\t// in\n    tag_38:\n      stop\n        /* \"LP/LP.sol\":2557:2601  mapping(address => UserInfo) public userInfo */\n    tag_4:\n      tag_41\n      0x04\n      dup1\n      calldatasize\n      sub\n      0x20\n      dup2\n      lt\n      iszero\n      tag_42\n      jumpi\n      0x00\n      dup1\n      revert\n    tag_42:\n      dup2\n      add\n      swap1\n      dup1\n      dup1\n      calldataload\n      0xffffffffffffffffffffffffffffffffffffffff\n      and\n      swap1\n      0x20\n      add\n      swap1\n      swap3\n      swap2\n      swap1\n      pop\n      pop\n      pop\n      tag_43\n      jump\t// in\n    tag_41:\n      mload(0x40)\n      dup1\n      dup10\n      dup2\n      mstore\n      0x20\n      add\n      dup9\n      dup2\n      mstore\n      0x20\n      add\n      dup8\n      dup2\n      mstore\n      0x20\n      add\n      dup7\n      dup2\n      mstore\n      0x20\n      add\n      dup6\n      dup2\n      mstore\n      0x20\n      add\n      dup5\n      dup2\n      mstore\n      0x20\n      add\n      dup4\n      dup2\n      mstore\n      0x20\n      add\n      dup3\n      dup2\n      mstore\n      0x20\n      add\n      swap9\n      pop\n      pop\n      pop\n      pop\n      pop\n      pop\n      pop\n      pop\n      pop\n      mload(0x40)\n      dup1\n      swap2\n      sub\n      swap1\n      return\n        /* \"LP/LP.sol\":1938:1968  uint256 public totalAmount = 0 */\n    tag_5:\n      tag_44\n      tag_45\n      jump\t// in\n    tag_44:\n      mload(0x40)\n      dup1\n      dup3\n      dup2\n      mstore\n      0x20\n      add\n      swap2\n      pop\n      pop\n      mload(0x40)\n      dup1\n      swap2\n      sub\n      swap1\n      return\n        /* \"LP/LP.sol\":5890:6010  function lpBalance() public view returns (uint256) {\r... */\n    tag_6:\n      tag_46\n      tag_47\n      jump\t// in\n    tag_46:\n      mload(0x40)\n      dup1\n      dup3\n      dup2\n      mstore\n      0x20\n      add\n      swap2\n      pop\n      pop\n      mload(0x40)\n      dup1\n      swap2\n      sub\n      swap1\n      return\n        /* \"LP/LP.sol\":4118:5882  function withdraw(uint256 _shares) public {\r... */\n    tag_7:\n      tag_48\n      0x04\n      dup1\n      calldatasize\n      sub\n      0x20\n      dup2\n      lt\n      iszero\n      tag_49\n      jumpi\n      0x00\n      dup1\n      revert\n    tag_49:\n      dup2\n      add\n      swap1\n      dup1\n      dup1\n      calldataload\n      swap1\n      0x20\n      add\n      swap1\n      swap3\n      swap2\n      swap1\n      pop\n      pop\n      pop\n      tag_50\n      jump\t// in\n    tag_48:\n      stop\n        /* \"LP/LP.sol\":1901:1931  uint256 public totalShares = 0 */\n    tag_8:\n      tag_51\n      tag_52\n      jump\t// in\n    tag_51:\n      mload(0x40)\n      dup1\n      dup3\n      dup2\n      mstore\n      0x20\n      add\n      swap2\n      pop\n      pop\n      mload(0x40)\n      dup1\n      swap2\n      sub\n      swap1\n      return\n        /* \"LP/LP.sol\":7514:7846  function myValue() public view returns (uint256) {\r... */\n    tag_9:\n      tag_53\n      tag_54\n      jump\t// in\n    tag_53:\n      mload(0x40)\n      dup1\n      dup3\n      dup2\n      mstore\n      0x20\n      add\n      swap2\n      pop\n      pop\n      mload(0x40)\n      dup1\n      swap2\n      sub\n      swap1\n      return\n        /* \"LP/LP.sol\":8170:8248  function getTime() public view returns (uint256) {\r... */\n    tag_10:\n      tag_55\n      tag_56\n      jump\t// in\n    tag_55:\n      mload(0x40)\n      dup1\n      dup3\n      dup2\n      mstore\n      0x20\n      add\n      swap2\n      pop\n      pop\n      mload(0x40)\n      dup1\n      swap2\n      sub\n      swap1\n      return\n        /* \"LP/LP.sol\":2146:2181  uint256 public stakingStartTime = 0 */\n    tag_11:\n      tag_57\n      tag_58\n      jump\t// in\n    tag_57:\n      mload(0x40)\n      dup1\n      dup3\n      dup2\n      mstore\n      0x20\n      add\n      swap2\n      pop\n      pop\n      mload(0x40)\n      dup1\n      swap2\n      sub\n      swap1\n      return\n        /* \"LP/LP.sol\":1242:1275  address public newContractAddress */\n    tag_12:\n      tag_59\n      tag_60\n      jump\t// in\n    tag_59:\n      mload(0x40)\n      dup1\n      dup3\n      0xffffffffffffffffffffffffffffffffffffffff\n      and\n      dup2\n      mstore\n      0x20\n      add\n      swap2\n      pop\n      pop\n      mload(0x40)\n      dup1\n      swap2\n      sub\n      swap1\n      return\n        /* \"LP/LP.sol\":1865:1894  uint256 public totalLpFee = 0 */\n    tag_13:\n      tag_61\n      tag_62\n      jump\t// in\n    tag_61:\n      mload(0x40)\n      dup1\n      dup3\n      dup2\n      mstore\n      0x20\n      add\n      swap2\n      pop\n      pop\n      mload(0x40)\n      dup1\n      swap2\n      sub\n      swap1\n      return\n        /* \"LP/LP.sol\":7854:8135  function sharesPrice() public view returns (uint256) {\r... */\n    tag_14:\n      tag_63\n      tag_64\n      jump\t// in\n    tag_63:\n      mload(0x40)\n      dup1\n      dup3\n      dup2\n      mstore\n      0x20\n      add\n      swap2\n      pop\n      pop\n      mload(0x40)\n      dup1\n      swap2\n      sub\n      swap1\n      return\n        /* \"LP/LP.sol\":8256:8366  function getPkBalance() public view returns (uint256) {\r... */\n    tag_15:\n      tag_65\n      tag_66\n      jump\t// in\n    tag_65:\n      mload(0x40)\n      dup1\n      dup3\n      dup2\n      mstore\n      0x20\n      add\n      swap2\n      pop\n      pop\n      mload(0x40)\n      dup1\n      swap2\n      sub\n      swap1\n      return\n        /* \"LP/LP.sol\":9977:10259  function setStakingSwitch(bool flag) public {\r... */\n    tag_16:\n      tag_67\n      0x04\n      dup1\n      calldatasize\n      sub\n      0x20\n      dup2\n      lt\n      iszero\n      tag_68\n      jumpi\n      0x00\n      dup1\n      revert\n    tag_68:\n      dup2\n      add\n      swap1\n      dup1\n      dup1\n      calldataload\n      iszero\n      iszero\n      swap1\n      0x20\n      add\n      swap1\n      swap3\n      swap2\n      swap1\n      pop\n      pop\n      pop\n      tag_69\n      jump\t// in\n    tag_67:\n      stop\n        /* \"LP/LP.sol\":9432:9693  function setFeeAddress(address newAddress) public {\r... */\n    tag_17:\n      tag_70\n      0x04\n      dup1\n      calldatasize\n      sub\n      0x20\n      dup2\n      lt\n      iszero\n      tag_71\n      jumpi\n      0x00\n      dup1\n      revert\n    tag_71:\n      dup2\n      add\n      swap1\n      dup1\n      dup1\n      calldataload\n      0xffffffffffffffffffffffffffffffffffffffff\n      and\n      swap1\n      0x20\n      add\n      swap1\n      swap3\n      swap2\n      swap1\n      pop\n      pop\n      pop\n      tag_72\n      jump\t// in\n    tag_70:\n      stop\n        /* \"LP/LP.sol\":1215:1235  address public owner */\n    tag_18:\n      tag_73\n      tag_74\n      jump\t// in\n    tag_73:\n      mload(0x40)\n      dup1\n      dup3\n      0xffffffffffffffffffffffffffffffffffffffff\n      and\n      dup2\n      mstore\n      0x20\n      add\n      swap2\n      pop\n      pop\n      mload(0x40)\n      dup1\n      swap2\n      sub\n      swap1\n      return\n        /* \"LP/LP.sol\":7067:7506  function myBenefits() public view returns (uint256) {\r... */\n    tag_19:\n      tag_75\n      tag_76\n      jump\t// in\n    tag_75:\n      mload(0x40)\n      dup1\n      dup3\n      dup2\n      mstore\n      0x20\n      add\n      swap2\n      pop\n      pop\n      mload(0x40)\n      dup1\n      swap2\n      sub\n      swap1\n      return\n        /* \"LP/LP.sol\":2835:4110  function deposit(uint256 _amount) public {\r... */\n    tag_20:\n      tag_77\n      0x04\n      dup1\n      calldatasize\n      sub\n      0x20\n      dup2\n      lt\n      iszero\n      tag_78\n      jumpi\n      0x00\n      dup1\n      revert\n    tag_78:\n      dup2\n      add\n      swap1\n      dup1\n      dup1\n      calldataload\n      swap1\n      0x20\n      add\n      swap1\n      swap3\n      swap2\n      swap1\n      pop\n      pop\n      pop\n      tag_79\n      jump\t// in\n    tag_77:\n      stop\n        /* \"LP/LP.sol\":8513:9424  function getStakingCoinPerSec() public view returns (uint256) {\r... */\n    tag_21:\n      tag_80\n      tag_81\n      jump\t// in\n    tag_80:\n      mload(0x40)\n      dup1\n      dup3\n      dup2\n      mstore\n      0x20\n      add\n      swap2\n      pop\n      pop\n      mload(0x40)\n      dup1\n      swap2\n      sub\n      swap1\n      return\n        /* \"LP/LP.sol\":1975:2008  uint256 public lastUpdateTime = 0 */\n    tag_22:\n      tag_82\n      tag_83\n      jump\t// in\n    tag_82:\n      mload(0x40)\n      dup1\n      dup3\n      dup2\n      mstore\n      0x20\n      add\n      swap2\n      pop\n      pop\n      mload(0x40)\n      dup1\n      swap2\n      sub\n      swap1\n      return\n        /* \"LP/LP.sol\":6938:7059  function totalStakingAmount() public view returns (uint256) {\r... */\n    tag_23:\n      tag_84\n      tag_85\n      jump\t// in\n    tag_84:\n      mload(0x40)\n      dup1\n      dup3\n      dup2\n      mstore\n      0x20\n      add\n      swap2\n      pop\n      pop\n      mload(0x40)\n      dup1\n      swap2\n      sub\n      swap1\n      return\n        /* \"LP/LP.sol\":1828:1858  uint256 public accPerShare = 0 */\n    tag_24:\n      tag_86\n      tag_87\n      jump\t// in\n    tag_86:\n      mload(0x40)\n      dup1\n      dup3\n      dup2\n      mstore\n      0x20\n      add\n      swap2\n      pop\n      pop\n      mload(0x40)\n      dup1\n      swap2\n      sub\n      swap1\n      return\n        /* \"LP/LP.sol\":8374:8471  function getEther() public view returns (uint256) {\r... */\n    tag_25:\n      tag_88\n      tag_89\n      jump\t// in\n    tag_88:\n      mload(0x40)\n      dup1\n      dup3\n      dup2\n      mstore\n      0x20\n      add\n      swap2\n      pop\n      pop\n      mload(0x40)\n      dup1\n      swap2\n      sub\n      swap1\n      return\n        /* \"LP/LP.sol\":2015:2056  uint256 public withdrawFeePeriod = 7 days */\n    tag_26:\n      tag_90\n      tag_91\n      jump\t// in\n    tag_90:\n      mload(0x40)\n      dup1\n      dup3\n      dup2\n      mstore\n      0x20\n      add\n      swap2\n      pop\n      pop\n      mload(0x40)\n      dup1\n      swap2\n      sub\n      swap1\n      return\n        /* \"LP/LP.sol\":6018:6608  function updatePool() public {\r... */\n    tag_27:\n      tag_92\n      tag_93\n      jump\t// in\n    tag_92:\n      stop\n        /* \"LP/LP.sol\":2188:2221  bool public stakingSwitch = false */\n    tag_28:\n      tag_94\n      tag_95\n      jump\t// in\n    tag_94:\n      mload(0x40)\n      dup1\n      dup3\n      iszero\n      iszero\n      dup2\n      mstore\n      0x20\n      add\n      swap2\n      pop\n      pop\n      mload(0x40)\n      dup1\n      swap2\n      sub\n      swap1\n      return\n        /* \"LP/LP.sol\":10267:10381  function setLp(ILPToken _lp) public {\r... */\n    tag_29:\n      tag_96\n      0x04\n      dup1\n      calldatasize\n      sub\n      0x20\n      dup2\n      lt\n      iszero\n      tag_97\n      jumpi\n      0x00\n      dup1\n      revert\n    tag_97:\n      dup2\n      add\n      swap1\n      dup1\n      dup1\n      calldataload\n      0xffffffffffffffffffffffffffffffffffffffff\n      and\n      swap1\n      0x20\n      add\n      swap1\n      swap3\n      swap2\n      swap1\n      pop\n      pop\n      pop\n      tag_98\n      jump\t// in\n    tag_96:\n      stop\n        /* \"LP/LP.sol\":6616:6930  function pendingCoin() external view returns (uint256) {\r... */\n    tag_30:\n      tag_99\n      tag_100\n      jump\t// in\n    tag_99:\n      mload(0x40)\n      dup1\n      dup3\n      dup2\n      mstore\n      0x20\n      add\n      swap2\n      pop\n      pop\n      mload(0x40)\n      dup1\n      swap2\n      sub\n      swap1\n      return\n        /* \"LP/LP.sol\":9701:9969  function transferLpFee(uint256 amount) public {\r... */\n    tag_40:\n        /* \"LP/LP.sol\":9780:9785  owner */\n      0x03\n      0x00\n      swap1\n      sload\n      swap1\n      0x0100\n      exp\n      swap1\n      div\n      0xffffffffffffffffffffffffffffffffffffffff\n      and\n        /* \"LP/LP.sol\":9766:9785  msg.sender == owner */\n      0xffffffffffffffffffffffffffffffffffffffff\n      and\n        /* \"LP/LP.sol\":9766:9776  msg.sender */\n      caller\n        /* \"LP/LP.sol\":9766:9785  msg.sender == owner */\n      0xffffffffffffffffffffffffffffffffffffffff\n      and\n      eq\n        /* \"LP/LP.sol\":9758:9786  require(msg.sender == owner) */\n      tag_102\n      jumpi\n      0x00\n      dup1\n      revert\n    tag_102:\n        /* \"LP/LP.sol\":9835:9836  0 */\n      0x00\n        /* \"LP/LP.sol\":9805:9837  newContractAddress != address(0) */\n      0xffffffffffffffffffffffffffffffffffffffff\n      and\n        /* \"LP/LP.sol\":9805:9823  newContractAddress */\n      0x04\n      0x00\n      swap1\n      sload\n      swap1\n      0x0100\n      exp\n      swap1\n      div\n      0xffffffffffffffffffffffffffffffffffffffff\n      and\n        /* \"LP/LP.sol\":9805:9837  newContractAddress != address(0) */\n      0xffffffffffffffffffffffffffffffffffffffff\n      and\n      eq\n      iszero\n        /* \"LP/LP.sol\":9797:9855  require(newContractAddress != address(0), \"transfer to 0\") */\n      tag_103\n      jumpi\n      mload(0x40)\n      0x08c379a000000000000000000000000000000000000000000000000000000000\n      dup2\n      mstore\n      0x04\n      add\n      dup1\n      dup1\n      0x20\n      add\n      dup3\n      dup2\n      sub\n      dup3\n      mstore\n      0x0d\n      dup2\n      mstore\n      0x20\n      add\n      dup1\n      0x7472616e7366657220746f203000000000000000000000000000000000000000\n      dup2\n      mstore\n      pop\n      0x20\n      add\n      swap2\n      pop\n      pop\n      mload(0x40)\n      dup1\n      swap2\n      sub\n      swap1\n      revert\n    tag_103:\n        /* \"LP/LP.sol\":9888:9894  amount */\n      dup1\n        /* \"LP/LP.sol\":9874:9884  totalLpFee */\n      sload(0x06)\n        /* \"LP/LP.sol\":9874:9894  totalLpFee >= amount */\n      lt\n      iszero\n        /* \"LP/LP.sol\":9866:9909  require(totalLpFee >= amount, \"not enough\") */\n      tag_104\n      jumpi\n      mload(0x40)\n      0x08c379a000000000000000000000000000000000000000000000000000000000\n      dup2\n      mstore\n      0x04\n      add\n      dup1\n      dup1\n      0x20\n      add\n      dup3\n      dup2\n      sub\n      dup3\n      mstore\n      0x0a\n      dup2\n      mstore\n      0x20\n      add\n      dup1\n      0x6e6f7420656e6f75676800000000000000000000000000000000000000000000\n      dup2\n      mstore\n      pop\n      0x20\n      add\n      swap2\n      pop\n      pop\n      mload(0x40)\n      dup1\n      swap2\n      sub\n      swap1\n      revert\n    tag_104:\n        /* \"LP/LP.sol\":9922:9924  lp */\n      0x01\n      0x00\n      swap1\n      sload\n      swap1\n      0x0100\n      exp\n      swap1\n      div\n      0xffffffffffffffffffffffffffffffffffffffff\n      and\n        /* \"LP/LP.sol\":9922:9933  lp.transfer */\n      0xffffffffffffffffffffffffffffffffffffffff\n      and\n      0xa9059cbb\n        /* \"LP/LP.sol\":9934:9952  newContractAddress */\n      0x04\n      0x00\n      swap1\n      sload\n      swap1\n      0x0100\n      exp\n      swap1\n      div\n      0xffffffffffffffffffffffffffffffffffffffff\n      and\n        /* \"LP/LP.sol\":9954:9960  amount */\n      dup4\n        /* \"LP/LP.sol\":9922:9961  lp.transfer(newContractAddress, amount) */\n      mload(0x40)\n      dup4\n      0xffffffff\n      and\n      0xe0\n      shl\n      dup2\n      mstore\n      0x04\n      add\n      dup1\n      dup4\n      0xffffffffffffffffffffffffffffffffffffffff\n      and\n      dup2\n      mstore\n      0x20\n      add\n      dup3\n      dup2\n      mstore\n      0x20\n      add\n      swap3\n      pop\n      pop\n      pop\n      0x20\n      mload(0x40)\n      dup1\n      dup4\n      sub\n      dup2\n      0x00\n      dup8\n      dup1\n      extcodesize\n      iszero\n      dup1\n      iszero\n      tag_105\n      jumpi\n      0x00\n      dup1\n      revert\n    tag_105:\n      pop\n      gas\n      call\n      iszero\n      dup1\n      iszero\n      tag_107\n      jumpi\n      returndatasize\n      0x00\n      dup1\n      returndatacopy\n      revert(0x00, returndatasize)\n    tag_107:\n      pop\n      pop\n      pop\n      pop\n      mload(0x40)\n      returndatasize\n      0x20\n      dup2\n      lt\n      iszero\n      tag_108\n      jumpi\n      0x00\n      dup1\n      revert\n    tag_108:\n      dup2\n      add\n      swap1\n      dup1\n      dup1\n      mload\n      swap1\n      0x20\n      add\n      swap1\n      swap3\n      swap2\n      swap1\n      pop\n      pop\n      pop\n      pop\n        /* \"LP/LP.sol\":9701:9969  function transferLpFee(uint256 amount) public {\r... */\n      pop\n      jump\t// out\n        /* \"LP/LP.sol\":2557:2601  mapping(address => UserInfo) public userInfo */\n    tag_43:\n      mstore(0x20, 0x0e)\n      dup1\n      0x00\n      mstore\n      keccak256(0x00, 0x40)\n      0x00\n      swap2\n      pop\n      swap1\n      pop\n      dup1\n      0x00\n      add\n      sload\n      swap1\n      dup1\n      0x01\n      add\n      sload\n      swap1\n      dup1\n      0x02\n      add\n      sload\n      swap1\n      dup1\n      0x03\n      add\n      sload\n      swap1\n      dup1\n      0x04\n      add\n      sload\n      swap1\n      dup1\n      0x05\n      add\n      sload\n      swap1\n      dup1\n      0x06\n      add\n      sload\n      swap1\n      dup1\n      0x07\n      add\n      sload\n      swap1\n      pop\n      dup9\n      jump\t// out\n        /* \"LP/LP.sol\":1938:1968  uint256 public totalAmount = 0 */\n    tag_45:\n      sload(0x08)\n      dup2\n      jump\t// out\n        /* \"LP/LP.sol\":5890:6010  function lpBalance() public view returns (uint256) {\r... */\n    tag_47:\n        /* \"LP/LP.sol\":5932:5939  uint256 */\n      0x00\n        /* \"LP/LP.sol\":5959:6002  lp.balanceOf(address(this)).sub(totalLpFee) */\n      tag_110\n        /* \"LP/LP.sol\":5991:6001  totalLpFee */\n      sload(0x06)\n        /* \"LP/LP.sol\":5959:5961  lp */\n      0x01\n      0x00\n      swap1\n      sload\n      swap1\n      0x0100\n      exp\n      swap1\n      div\n      0xffffffffffffffffffffffffffffffffffffffff\n      and\n        /* \"LP/LP.sol\":5959:5971  lp.balanceOf */\n      0xffffffffffffffffffffffffffffffffffffffff\n      and\n      0x70a08231\n        /* \"LP/LP.sol\":5980:5984  this */\n      address\n        /* \"LP/LP.sol\":5959:5986  lp.balanceOf(address(this)) */\n      mload(0x40)\n      dup3\n      0xffffffff\n      and\n      0xe0\n      shl\n      dup2\n      mstore\n      0x04\n      add\n      dup1\n      dup3\n      0xffffffffffffffffffffffffffffffffffffffff\n      and\n      dup2\n      mstore\n      0x20\n      add\n      swap2\n      pop\n      pop\n      0x20\n      mload(0x40)\n      dup1\n      dup4\n      sub\n      dup2\n      dup7\n      dup1\n      extcodesize\n      iszero\n      dup1\n      iszero\n      tag_111\n      jumpi\n      0x00\n      dup1\n      revert\n    tag_111:\n      pop\n      gas\n      staticcall\n      iszero\n      dup1\n      iszero\n      tag_113\n      jumpi\n      returndatasize\n      0x00\n      dup1\n      returndatacopy\n      revert(0x00, returndatasize)\n    tag_113:\n      pop\n      pop\n      pop\n      pop\n      mload(0x40)\n      returndatasize\n      0x20\n      dup2\n      lt\n      iszero\n      tag_114\n      jumpi\n      0x00\n      dup1\n      revert\n    tag_114:\n      dup2\n      add\n      swap1\n      dup1\n      dup1\n      mload\n      swap1\n      0x20\n      add\n      swap1\n      swap3\n      swap2\n      swap1\n      pop\n      pop\n      pop\n        /* \"LP/LP.sol\":5959:5990  lp.balanceOf(address(this)).sub */\n      tag_115\n      swap1\n        /* \"LP/LP.sol\":5959:6002  lp.balanceOf(address(this)).sub(totalLpFee) */\n      swap2\n      swap1\n      0xffffffff\n      and\n      jump\t// in\n    tag_110:\n        /* \"LP/LP.sol\":5952:6002  return lp.balanceOf(address(this)).sub(totalLpFee) */\n      swap1\n      pop\n        /* \"LP/LP.sol\":5890:6010  function lpBalance() public view returns (uint256) {\r... */\n      swap1\n      jump\t// out\n        /* \"LP/LP.sol\":4118:5882  function withdraw(uint256 _shares) public {\r... */\n    tag_50:\n        /* \"LP/LP.sol\":4171:4192  UserInfo storage user */\n      0x00\n        /* \"LP/LP.sol\":4195:4203  userInfo */\n      0x0e\n        /* \"LP/LP.sol\":4195:4215  userInfo[msg.sender] */\n      0x00\n        /* \"LP/LP.sol\":4204:4214  msg.sender */\n      caller\n        /* \"LP/LP.sol\":4195:4215  userInfo[msg.sender] */\n      0xffffffffffffffffffffffffffffffffffffffff\n      and\n      0xffffffffffffffffffffffffffffffffffffffff\n      and\n      dup2\n      mstore\n      0x20\n      add\n      swap1\n      dup2\n      mstore\n      0x20\n      add\n      0x00\n      keccak256\n        /* \"LP/LP.sol\":4171:4215  UserInfo storage user = userInfo[msg.sender] */\n      swap1\n      pop\n        /* \"LP/LP.sol\":4244:4245  0 */\n      0x00\n        /* \"LP/LP.sol\":4234:4241  _shares */\n      dup3\n        /* \"LP/LP.sol\":4234:4245  _shares > 0 */\n      gt\n        /* \"LP/LP.sol\":4226:4269  require(_shares > 0, \"Nothing to withdraw\") */\n      tag_117\n      jumpi\n      mload(0x40)\n      0x08c379a000000000000000000000000000000000000000000000000000000000\n      dup2\n      mstore\n      0x04\n      add\n      dup1\n      dup1\n      0x20\n      add\n      dup3\n      dup2\n      sub\n      dup3\n      mstore\n      0x13\n      dup2\n      mstore\n      0x20\n      add\n      dup1\n      0x4e6f7468696e6720746f20776974686472617700000000000000000000000000\n      dup2\n      mstore\n      pop\n      0x20\n      add\n      swap2\n      pop\n      pop\n      mload(0x40)\n      dup1\n      swap2\n      sub\n      swap1\n      revert\n    tag_117:\n        /* \"LP/LP.sol\":4299:4303  user */\n      dup1\n        /* \"LP/LP.sol\":4299:4310  user.shares */\n      0x00\n      add\n      sload\n        /* \"LP/LP.sol\":4288:4295  _shares */\n      dup3\n        /* \"LP/LP.sol\":4288:4310  _shares <= user.shares */\n      gt\n      iszero\n        /* \"LP/LP.sol\":4280:4346  require(_shares <= user.shares, \"Withdraw amount exceeds balance\") */\n      tag_118\n      jumpi\n      mload(0x40)\n      0x08c379a000000000000000000000000000000000000000000000000000000000\n      dup2\n      mstore\n      0x04\n      add\n      dup1\n      dup1\n      0x20\n      add\n      dup3\n      dup2\n      sub\n      dup3\n      mstore\n      0x1f\n      dup2\n      mstore\n      0x20\n      add\n      dup1\n      0x576974686472617720616d6f756e7420657863656564732062616c616e636500\n      dup2\n      mstore\n      pop\n      0x20\n      add\n      swap2\n      pop\n      pop\n      mload(0x40)\n      dup1\n      swap2\n      sub\n      swap1\n      revert\n    tag_118:\n        /* \"LP/LP.sol\":4359:4371  updatePool() */\n      tag_119\n        /* \"LP/LP.sol\":4359:4369  updatePool */\n      tag_93\n        /* \"LP/LP.sol\":4359:4371  updatePool() */\n      jump\t// in\n    tag_119:\n        /* \"LP/LP.sol\":4414:4437  uint256 userTotalAmount */\n      0x00\n        /* \"LP/LP.sol\":4441:4515  decimalMul(user.amount,accPerShare).sub(user.rewardDebt).add(user.rewards) */\n      tag_120\n        /* \"LP/LP.sol\":4502:4506  user */\n      dup3\n        /* \"LP/LP.sol\":4502:4514  user.rewards */\n      0x06\n      add\n      sload\n        /* \"LP/LP.sol\":4441:4497  decimalMul(user.amount,accPerShare).sub(user.rewardDebt) */\n      tag_121\n        /* \"LP/LP.sol\":4481:4485  user */\n      dup5\n        /* \"LP/LP.sol\":4481:4496  user.rewardDebt */\n      0x05\n      add\n      sload\n        /* \"LP/LP.sol\":4441:4476  decimalMul(user.amount,accPerShare) */\n      tag_122\n        /* \"LP/LP.sol\":4452:4456  user */\n      dup7\n        /* \"LP/LP.sol\":4452:4463  user.amount */\n      0x07\n      add\n      sload\n        /* \"LP/LP.sol\":4464:4475  accPerShare */\n      sload(0x05)\n        /* \"LP/LP.sol\":4441:4451  decimalMul */\n      tag_123\n        /* \"LP/LP.sol\":4441:4476  decimalMul(user.amount,accPerShare) */\n      jump\t// in\n    tag_122:\n        /* \"LP/LP.sol\":4441:4480  decimalMul(user.amount,accPerShare).sub */\n      tag_115\n      swap1\n        /* \"LP/LP.sol\":4441:4497  decimalMul(user.amount,accPerShare).sub(user.rewardDebt) */\n      swap2\n      swap1\n      0xffffffff\n      and\n      jump\t// in\n    tag_121:\n        /* \"LP/LP.sol\":4441:4501  decimalMul(user.amount,accPerShare).sub(user.rewardDebt).add */\n      tag_124\n      swap1\n        /* \"LP/LP.sol\":4441:4515  decimalMul(user.amount,accPerShare).sub(user.rewardDebt).add(user.rewards) */\n      swap2\n      swap1\n      0xffffffff\n      and\n      jump\t// in\n    tag_120:\n        /* \"LP/LP.sol\":4414:4515  uint256 userTotalAmount =  decimalMul(user.amount,accPerShare).sub(user.rewardDebt).add(user.rewards) */\n      swap1\n      pop\n        /* \"LP/LP.sol\":4574:4596  uint256 withdrawAmount */\n      0x00\n        /* \"LP/LP.sol\":4599:4644  userTotalAmount.mul(_shares).div(user.shares) */\n      tag_125\n        /* \"LP/LP.sol\":4632:4636  user */\n      dup4\n        /* \"LP/LP.sol\":4632:4643  user.shares */\n      0x00\n      add\n      sload\n        /* \"LP/LP.sol\":4599:4627  userTotalAmount.mul(_shares) */\n      tag_126\n        /* \"LP/LP.sol\":4619:4626  _shares */\n      dup7\n        /* \"LP/LP.sol\":4599:4614  userTotalAmount */\n      dup6\n        /* \"LP/LP.sol\":4599:4618  userTotalAmount.mul */\n      tag_127\n      swap1\n        /* \"LP/LP.sol\":4599:4627  userTotalAmount.mul(_shares) */\n      swap2\n      swap1\n      0xffffffff\n      and\n      jump\t// in\n    tag_126:\n        /* \"LP/LP.sol\":4599:4631  userTotalAmount.mul(_shares).div */\n      tag_128\n      swap1\n        /* \"LP/LP.sol\":4599:4644  userTotalAmount.mul(_shares).div(user.shares) */\n      swap2\n      swap1\n      0xffffffff\n      and\n      jump\t// in\n    tag_125:\n        /* \"LP/LP.sol\":4574:4644  uint256 withdrawAmount = userTotalAmount.mul(_shares).div(user.shares) */\n      swap1\n      pop\n        /* \"LP/LP.sol\":4657:4670  uint256 curLp */\n      0x00\n        /* \"LP/LP.sol\":4673:4714  user.amount.mul(_shares).div(user.shares) */\n      tag_129\n        /* \"LP/LP.sol\":4702:4706  user */\n      dup5\n        /* \"LP/LP.sol\":4702:4713  user.shares */\n      0x00\n      add\n      sload\n        /* \"LP/LP.sol\":4673:4697  user.amount.mul(_shares) */\n      tag_130\n        /* \"LP/LP.sol\":4689:4696  _shares */\n      dup8\n        /* \"LP/LP.sol\":4673:4677  user */\n      dup8\n        /* \"LP/LP.sol\":4673:4684  user.amount */\n      0x07\n      add\n      sload\n        /* \"LP/LP.sol\":4673:4688  user.amount.mul */\n      tag_127\n      swap1\n        /* \"LP/LP.sol\":4673:4697  user.amount.mul(_shares) */\n      swap2\n      swap1\n      0xffffffff\n      and\n      jump\t// in\n    tag_130:\n        /* \"LP/LP.sol\":4673:4701  user.amount.mul(_shares).div */\n      tag_128\n      swap1\n        /* \"LP/LP.sol\":4673:4714  user.amount.mul(_shares).div(user.shares) */\n      swap2\n      swap1\n      0xffffffff\n      and\n      jump\t// in\n    tag_129:\n        /* \"LP/LP.sol\":4657:4714  uint256 curLp = user.amount.mul(_shares).div(user.shares) */\n      swap1\n      pop\n        /* \"LP/LP.sol\":4739:4763  user.shares.sub(_shares) */\n      tag_131\n        /* \"LP/LP.sol\":4755:4762  _shares */\n      dup6\n        /* \"LP/LP.sol\":4739:4743  user */\n      dup6\n        /* \"LP/LP.sol\":4739:4750  user.shares */\n      0x00\n      add\n      sload\n        /* \"LP/LP.sol\":4739:4754  user.shares.sub */\n      tag_115\n      swap1\n        /* \"LP/LP.sol\":4739:4763  user.shares.sub(_shares) */\n      swap2\n      swap1\n      0xffffffff\n      and\n      jump\t// in\n    tag_131:\n        /* \"LP/LP.sol\":4725:4729  user */\n      dup5\n        /* \"LP/LP.sol\":4725:4736  user.shares */\n      0x00\n      add\n        /* \"LP/LP.sol\":4725:4763  user.shares = user.shares.sub(_shares) */\n      dup2\n      swap1\n      sstore\n      pop\n        /* \"LP/LP.sol\":4788:4812  totalShares.sub(_shares) */\n      tag_132\n        /* \"LP/LP.sol\":4804:4811  _shares */\n      dup6\n        /* \"LP/LP.sol\":4788:4799  totalShares */\n      sload(0x07)\n        /* \"LP/LP.sol\":4788:4803  totalShares.sub */\n      tag_115\n      swap1\n        /* \"LP/LP.sol\":4788:4812  totalShares.sub(_shares) */\n      swap2\n      swap1\n      0xffffffff\n      and\n      jump\t// in\n    tag_132:\n        /* \"LP/LP.sol\":4774:4785  totalShares */\n      0x07\n        /* \"LP/LP.sol\":4774:4812  totalShares = totalShares.sub(_shares) */\n      dup2\n      swap1\n      sstore\n      pop\n        /* \"LP/LP.sol\":4862:4876  withdrawAmount */\n      dup2\n        /* \"LP/LP.sol\":4847:4858  totalAmount */\n      sload(0x08)\n        /* \"LP/LP.sol\":4847:4876  totalAmount >= withdrawAmount */\n      lt\n      iszero\n        /* \"LP/LP.sol\":4825:4935  require(\r... */\n      tag_133\n      jumpi\n      mload(0x40)\n      0x08c379a000000000000000000000000000000000000000000000000000000000\n      dup2\n      mstore\n      0x04\n      add\n      dup1\n      dup1\n      0x20\n      add\n      dup3\n      dup2\n      sub\n      dup3\n      mstore\n      0x1f\n      dup2\n      mstore\n      0x20\n      add\n      dup1\n      0x576974686472617720616d6f756e7420657863656564732062616c616e636500\n      dup2\n      mstore\n      pop\n      0x20\n      add\n      swap2\n      pop\n      pop\n      mload(0x40)\n      dup1\n      swap2\n      sub\n      swap1\n      revert\n    tag_133:\n        /* \"LP/LP.sol\":4962:4993  totalAmount.sub(withdrawAmount) */\n      tag_134\n        /* \"LP/LP.sol\":4978:4992  withdrawAmount */\n      dup3\n        /* \"LP/LP.sol\":4962:4973  totalAmount */\n      sload(0x08)\n        /* \"LP/LP.sol\":4962:4977  totalAmount.sub */\n      tag_115\n      swap1\n        /* \"LP/LP.sol\":4962:4993  totalAmount.sub(withdrawAmount) */\n      swap2\n      swap1\n      0xffffffff\n      and\n      jump\t// in\n    tag_134:\n        /* \"LP/LP.sol\":4948:4959  totalAmount */\n      0x08\n        /* \"LP/LP.sol\":4948:4993  totalAmount = totalAmount.sub(withdrawAmount) */\n      dup2\n      swap1\n      sstore\n      pop\n        /* \"LP/LP.sol\":5053:5088  userTotalAmount.sub(withdrawAmount) */\n      tag_135\n        /* \"LP/LP.sol\":5073:5087  withdrawAmount */\n      dup3\n        /* \"LP/LP.sol\":5053:5068  userTotalAmount */\n      dup5\n        /* \"LP/LP.sol\":5053:5072  userTotalAmount.sub */\n      tag_115\n      swap1\n        /* \"LP/LP.sol\":5053:5088  userTotalAmount.sub(withdrawAmount) */\n      swap2\n      swap1\n      0xffffffff\n      and\n      jump\t// in\n    tag_135:\n        /* \"LP/LP.sol\":5038:5042  user */\n      dup5\n        /* \"LP/LP.sol\":5038:5050  user.rewards */\n      0x06\n      add\n        /* \"LP/LP.sol\":5038:5088  user.rewards = userTotalAmount.sub(withdrawAmount) */\n      dup2\n      swap1\n      sstore\n      pop\n        /* \"LP/LP.sol\":5145:5167  user.amount.sub(curLp) */\n      tag_136\n        /* \"LP/LP.sol\":5161:5166  curLp */\n      dup2\n        /* \"LP/LP.sol\":5145:5149  user */\n      dup6\n        /* \"LP/LP.sol\":5145:5156  user.amount */\n      0x07\n      add\n      sload\n        /* \"LP/LP.sol\":5145:5160  user.amount.sub */\n      tag_115\n      swap1\n        /* \"LP/LP.sol\":5145:5167  user.amount.sub(curLp) */\n      swap2\n      swap1\n      0xffffffff\n      and\n      jump\t// in\n    tag_136:\n        /* \"LP/LP.sol\":5131:5135  user */\n      dup5\n        /* \"LP/LP.sol\":5131:5142  user.amount */\n      0x07\n      add\n        /* \"LP/LP.sol\":5131:5167  user.amount = user.amount.sub(curLp) */\n      dup2\n      swap1\n      sstore\n      pop\n        /* \"LP/LP.sol\":5196:5241  user.lastDepositedTime.add(withdrawFeePeriod) */\n      tag_137\n        /* \"LP/LP.sol\":5223:5240  withdrawFeePeriod */\n      sload(0x0a)\n        /* \"LP/LP.sol\":5196:5200  user */\n      dup6\n        /* \"LP/LP.sol\":5196:5218  user.lastDepositedTime */\n      0x01\n      add\n      sload\n        /* \"LP/LP.sol\":5196:5222  user.lastDepositedTime.add */\n      tag_124\n      swap1\n        /* \"LP/LP.sol\":5196:5241  user.lastDepositedTime.add(withdrawFeePeriod) */\n      swap2\n      swap1\n      0xffffffff\n      and\n      jump\t// in\n    tag_137:\n        /* \"LP/LP.sol\":5184:5193  getTime() */\n      tag_138\n        /* \"LP/LP.sol\":5184:5191  getTime */\n      tag_56\n        /* \"LP/LP.sol\":5184:5193  getTime() */\n      jump\t// in\n    tag_138:\n        /* \"LP/LP.sol\":5184:5241  getTime() < user.lastDepositedTime.add(withdrawFeePeriod) */\n      lt\n        /* \"LP/LP.sol\":5180:5393  if (getTime() < user.lastDepositedTime.add(withdrawFeePeriod)) {\r... */\n      iszero\n      tag_139\n      jumpi\n        /* \"LP/LP.sol\":5258:5269  uint256 fee */\n      0x00\n        /* \"LP/LP.sol\":5272:5297  curLp.mul(100).div(10000) */\n      tag_140\n        /* \"LP/LP.sol\":5291:5296  10000 */\n      0x2710\n        /* \"LP/LP.sol\":5272:5286  curLp.mul(100) */\n      tag_141\n        /* \"LP/LP.sol\":5282:5285  100 */\n      0x64\n        /* \"LP/LP.sol\":5272:5277  curLp */\n      dup6\n        /* \"LP/LP.sol\":5272:5281  curLp.mul */\n      tag_127\n      swap1\n        /* \"LP/LP.sol\":5272:5286  curLp.mul(100) */\n      swap2\n      swap1\n      0xffffffff\n      and\n      jump\t// in\n    tag_141:\n        /* \"LP/LP.sol\":5272:5290  curLp.mul(100).div */\n      tag_128\n      swap1\n        /* \"LP/LP.sol\":5272:5297  curLp.mul(100).div(10000) */\n      swap2\n      swap1\n      0xffffffff\n      and\n      jump\t// in\n    tag_140:\n        /* \"LP/LP.sol\":5258:5297  uint256 fee = curLp.mul(100).div(10000) */\n      swap1\n      pop\n        /* \"LP/LP.sol\":5320:5334  curLp.sub(fee) */\n      tag_142\n        /* \"LP/LP.sol\":5330:5333  fee */\n      dup2\n        /* \"LP/LP.sol\":5320:5325  curLp */\n      dup4\n        /* \"LP/LP.sol\":5320:5329  curLp.sub */\n      tag_115\n      swap1\n        /* \"LP/LP.sol\":5320:5334  curLp.sub(fee) */\n      swap2\n      swap1\n      0xffffffff\n      and\n      jump\t// in\n    tag_142:\n        /* \"LP/LP.sol\":5312:5334  curLp = curLp.sub(fee) */\n      swap2\n      pop\n        /* \"LP/LP.sol\":5362:5381  totalLpFee.add(fee) */\n      tag_143\n        /* \"LP/LP.sol\":5377:5380  fee */\n      dup2\n        /* \"LP/LP.sol\":5362:5372  totalLpFee */\n      sload(0x06)\n        /* \"LP/LP.sol\":5362:5376  totalLpFee.add */\n      tag_124\n      swap1\n        /* \"LP/LP.sol\":5362:5381  totalLpFee.add(fee) */\n      swap2\n      swap1\n      0xffffffff\n      and\n      jump\t// in\n    tag_143:\n        /* \"LP/LP.sol\":5349:5359  totalLpFee */\n      0x06\n        /* \"LP/LP.sol\":5349:5381  totalLpFee = totalLpFee.add(fee) */\n      dup2\n      swap1\n      sstore\n      pop\n        /* \"LP/LP.sol\":5180:5393  if (getTime() < user.lastDepositedTime.add(withdrawFeePeriod)) {\r... */\n      pop\n    tag_139:\n        /* \"LP/LP.sol\":5405:5407  lp */\n      0x01\n      0x00\n      swap1\n      sload\n      swap1\n      0x0100\n      exp\n      swap1\n      div\n      0xffffffffffffffffffffffffffffffffffffffff\n      and\n        /* \"LP/LP.sol\":5405:5416  lp.transfer */\n      0xffffffffffffffffffffffffffffffffffffffff\n      and\n      0xa9059cbb\n        /* \"LP/LP.sol\":5425:5435  msg.sender */\n      caller\n        /* \"LP/LP.sol\":5438:5443  curLp */\n      dup4\n        /* \"LP/LP.sol\":5405:5444  lp.transfer(address(msg.sender), curLp) */\n      mload(0x40)\n      dup4\n      0xffffffff\n      and\n      0xe0\n      shl\n      dup2\n      mstore\n      0x04\n      add\n      dup1\n      dup4\n      0xffffffffffffffffffffffffffffffffffffffff\n      and\n      dup2\n      mstore\n      0x20\n      add\n      dup3\n      dup2\n      mstore\n      0x20\n      add\n      swap3\n      pop\n      pop\n      pop\n      0x20\n      mload(0x40)\n      dup1\n      dup4\n      sub\n      dup2\n      0x00\n      dup8\n      dup1\n      extcodesize\n      iszero\n      dup1\n      iszero\n      tag_144\n      jumpi\n      0x00\n      dup1\n      revert\n    tag_144:\n      pop\n      gas\n      call\n      iszero\n      dup1\n      iszero\n      tag_146\n      jumpi\n      returndatasize\n      0x00\n      dup1\n      returndatacopy\n      revert(0x00, returndatasize)\n    tag_146:\n      pop\n      pop\n      pop\n      pop\n      mload(0x40)\n      returndatasize\n      0x20\n      dup2\n      lt\n      iszero\n      tag_147\n      jumpi\n      0x00\n      dup1\n      revert\n    tag_147:\n      dup2\n      add\n      swap1\n      dup1\n      dup1\n      mload\n      swap1\n      0x20\n      add\n      swap1\n      swap3\n      swap2\n      swap1\n      pop\n      pop\n      pop\n      pop\n        /* \"LP/LP.sol\":5455:5460  poker */\n      0x00\n      dup1\n      sload\n      swap1\n      0x0100\n      exp\n      swap1\n      div\n      0xffffffffffffffffffffffffffffffffffffffff\n      and\n        /* \"LP/LP.sol\":5455:5469  poker.transfer */\n      0xffffffffffffffffffffffffffffffffffffffff\n      and\n      0xa9059cbb\n        /* \"LP/LP.sol\":5470:5480  msg.sender */\n      caller\n        /* \"LP/LP.sol\":5482:5496  withdrawAmount */\n      dup5\n        /* \"LP/LP.sol\":5455:5497  poker.transfer(msg.sender, withdrawAmount) */\n      mload(0x40)\n      dup4\n      0xffffffff\n      and\n      0xe0\n      shl\n      dup2\n      mstore\n      0x04\n      add\n      dup1\n      dup4\n      0xffffffffffffffffffffffffffffffffffffffff\n      and\n      dup2\n      mstore\n      0x20\n      add\n      dup3\n      dup2\n      mstore\n      0x20\n      add\n      swap3\n      pop\n      pop\n      pop\n      0x20\n      mload(0x40)\n      dup1\n      dup4\n      sub\n      dup2\n      0x00\n      dup8\n      dup1\n      extcodesize\n      iszero\n      dup1\n      iszero\n      tag_148\n      jumpi\n      0x00\n      dup1\n      revert\n    tag_148:\n      pop\n      gas\n      call\n      iszero\n      dup1\n      iszero\n      tag_150\n      jumpi\n      returndatasize\n      0x00\n      dup1\n      returndatacopy\n      revert(0x00, returndatasize)\n    tag_150:\n      pop\n      pop\n      pop\n      pop\n      mload(0x40)\n      returndatasize\n      0x20\n      dup2\n      lt\n      iszero\n      tag_151\n      jumpi\n      0x00\n      dup1\n      revert\n    tag_151:\n      dup2\n      add\n      swap1\n      dup1\n      dup1\n      mload\n      swap1\n      0x20\n      add\n      swap1\n      swap3\n      swap2\n      swap1\n      pop\n      pop\n      pop\n      pop\n        /* \"LP/LP.sol\":5528:5529  0 */\n      0x00\n        /* \"LP/LP.sol\":5514:5518  user */\n      dup5\n        /* \"LP/LP.sol\":5514:5525  user.shares */\n      0x00\n      add\n      sload\n        /* \"LP/LP.sol\":5514:5529  user.shares > 0 */\n      gt\n        /* \"LP/LP.sol\":5510:5757  if (user.shares > 0) {\r... */\n      iszero\n      tag_152\n      jumpi\n        /* \"LP/LP.sol\":5564:5599  decimalMul(user.amount,accPerShare) */\n      tag_153\n        /* \"LP/LP.sol\":5575:5579  user */\n      dup5\n        /* \"LP/LP.sol\":5575:5586  user.amount */\n      0x07\n      add\n      sload\n        /* \"LP/LP.sol\":5587:5598  accPerShare */\n      sload(0x05)\n        /* \"LP/LP.sol\":5564:5574  decimalMul */\n      tag_123\n        /* \"LP/LP.sol\":5564:5599  decimalMul(user.amount,accPerShare) */\n      jump\t// in\n    tag_153:\n        /* \"LP/LP.sol\":5546:5550  user */\n      dup5\n        /* \"LP/LP.sol\":5546:5561  user.rewardDebt */\n      0x05\n      add\n        /* \"LP/LP.sol\":5546:5599  user.rewardDebt = decimalMul(user.amount,accPerShare) */\n      dup2\n      swap1\n      sstore\n      pop\n        /* \"LP/LP.sol\":5635:5648  sharesPrice() */\n      tag_154\n        /* \"LP/LP.sol\":5635:5646  sharesPrice */\n      tag_64\n        /* \"LP/LP.sol\":5635:5648  sharesPrice() */\n      jump\t// in\n    tag_154:\n        /* \"LP/LP.sol\":5614:5618  user */\n      dup5\n        /* \"LP/LP.sol\":5614:5632  user.coinPerShares */\n      0x04\n      add\n        /* \"LP/LP.sol\":5614:5648  user.coinPerShares = sharesPrice() */\n      dup2\n      swap1\n      sstore\n      pop\n        /* \"LP/LP.sol\":5691:5695  user */\n      dup4\n        /* \"LP/LP.sol\":5691:5703  user.rewards */\n      0x06\n      add\n      sload\n        /* \"LP/LP.sol\":5663:5667  user */\n      dup5\n        /* \"LP/LP.sol\":5663:5688  user.coinAtlastUserAction */\n      0x03\n      add\n        /* \"LP/LP.sol\":5663:5703  user.coinAtlastUserAction = user.rewards */\n      dup2\n      swap1\n      sstore\n      pop\n        /* \"LP/LP.sol\":5510:5757  if (user.shares > 0) {\r... */\n      jump(tag_155)\n    tag_152:\n        /* \"LP/LP.sol\":5756:5757  0 */\n      0x00\n        /* \"LP/LP.sol\":5735:5739  user */\n      dup5\n        /* \"LP/LP.sol\":5735:5753  user.coinPerShares */\n      0x04\n      add\n        /* \"LP/LP.sol\":5735:5757  user.coinPerShares = 0 */\n      dup2\n      swap1\n      sstore\n      pop\n        /* \"LP/LP.sol\":5510:5757  if (user.shares > 0) {\r... */\n    tag_155:\n        /* \"LP/LP.sol\":5796:5811  block.timestamp */\n      timestamp\n        /* \"LP/LP.sol\":5770:5774  user */\n      dup5\n        /* \"LP/LP.sol\":5770:5793  user.lastUserActionTime */\n      0x02\n      add\n        /* \"LP/LP.sol\":5770:5811  user.lastUserActionTime = block.timestamp */\n      dup2\n      swap1\n      sstore\n      pop\n        /* \"LP/LP.sol\":5838:5848  msg.sender */\n      caller\n        /* \"LP/LP.sol\":5829:5874  Withdraw(msg.sender, withdrawAmount, _shares) */\n      0xffffffffffffffffffffffffffffffffffffffff\n      and\n      0xf279e6a1f5e320cca91135676d9cb6e44ca8a08c0b88342bcdb1144f6511b568\n        /* \"LP/LP.sol\":5850:5864  withdrawAmount */\n      dup4\n        /* \"LP/LP.sol\":5866:5873  _shares */\n      dup8\n        /* \"LP/LP.sol\":5829:5874  Withdraw(msg.sender, withdrawAmount, _shares) */\n      mload(0x40)\n      dup1\n      dup4\n      dup2\n      mstore\n      0x20\n      add\n      dup3\n      dup2\n      mstore\n      0x20\n      add\n      swap3\n      pop\n      pop\n      pop\n      mload(0x40)\n      dup1\n      swap2\n      sub\n      swap1\n      log2\n        /* \"LP/LP.sol\":4118:5882  function withdraw(uint256 _shares) public {\r... */\n      pop\n      pop\n      pop\n      pop\n      pop\n      jump\t// out\n        /* \"LP/LP.sol\":1901:1931  uint256 public totalShares = 0 */\n    tag_52:\n      sload(0x07)\n      dup2\n      jump\t// out\n        /* \"LP/LP.sol\":7514:7846  function myValue() public view returns (uint256) {\r... */\n    tag_54:\n        /* \"LP/LP.sol\":7554:7561  uint256 */\n      0x00\n        /* \"LP/LP.sol\":7574:7592  uint256 computePer */\n      dup1\n        /* \"LP/LP.sol\":7595:7652  accPerShare.add(divFloor(this.pendingCoin(),lpBalance())) */\n      tag_157\n        /* \"LP/LP.sol\":7611:7651  divFloor(this.pendingCoin(),lpBalance()) */\n      tag_158\n        /* \"LP/LP.sol\":7620:7624  this */\n      address\n        /* \"LP/LP.sol\":7620:7636  this.pendingCoin */\n      0xffffffffffffffffffffffffffffffffffffffff\n      and\n      0xfc3e532b\n        /* \"LP/LP.sol\":7620:7638  this.pendingCoin() */\n      mload(0x40)\n      dup2\n      0xffffffff\n      and\n      0xe0\n      shl\n      dup2\n      mstore\n      0x04\n      add\n      0x20\n      mload(0x40)\n      dup1\n      dup4\n      sub\n      dup2\n      dup7\n      dup1\n      extcodesize\n      iszero\n      dup1\n      iszero\n      tag_159\n      jumpi\n      0x00\n      dup1\n      revert\n    tag_159:\n      pop\n      gas\n      staticcall\n      iszero\n      dup1\n      iszero\n      tag_161\n      jumpi\n      returndatasize\n      0x00\n      dup1\n      returndatacopy\n      revert(0x00, returndatasize)\n    tag_161:\n      pop\n      pop\n      pop\n      pop\n      mload(0x40)\n      returndatasize\n      0x20\n      dup2\n      lt\n      iszero\n      tag_162\n      jumpi\n      0x00\n      dup1\n      revert\n    tag_162:\n      dup2\n      add\n      swap1\n      dup1\n      dup1\n      mload\n      swap1\n      0x20\n      add\n      swap1\n      swap3\n      swap2\n      swap1\n      pop\n      pop\n      pop\n        /* \"LP/LP.sol\":7639:7650  lpBalance() */\n      tag_163\n        /* \"LP/LP.sol\":7639:7648  lpBalance */\n      tag_47\n        /* \"LP/LP.sol\":7639:7650  lpBalance() */\n      jump\t// in\n    tag_163:\n        /* \"LP/LP.sol\":7611:7619  divFloor */\n      tag_164\n        /* \"LP/LP.sol\":7611:7651  divFloor(this.pendingCoin(),lpBalance()) */\n      jump\t// in\n    tag_158:\n        /* \"LP/LP.sol\":7595:7606  accPerShare */\n      sload(0x05)\n        /* \"LP/LP.sol\":7595:7610  accPerShare.add */\n      tag_124\n      swap1\n        /* \"LP/LP.sol\":7595:7652  accPerShare.add(divFloor(this.pendingCoin(),lpBalance())) */\n      swap2\n      swap1\n      0xffffffff\n      and\n      jump\t// in\n    tag_157:\n        /* \"LP/LP.sol\":7574:7652  uint256 computePer = accPerShare.add(divFloor(this.pendingCoin(),lpBalance())) */\n      swap1\n      pop\n        /* \"LP/LP.sol\":7663:7684  UserInfo storage user */\n      0x00\n        /* \"LP/LP.sol\":7687:7695  userInfo */\n      0x0e\n        /* \"LP/LP.sol\":7687:7707  userInfo[msg.sender] */\n      0x00\n        /* \"LP/LP.sol\":7696:7706  msg.sender */\n      caller\n        /* \"LP/LP.sol\":7687:7707  userInfo[msg.sender] */\n      0xffffffffffffffffffffffffffffffffffffffff\n      and\n      0xffffffffffffffffffffffffffffffffffffffff\n      and\n      dup2\n      mstore\n      0x20\n      add\n      swap1\n      dup2\n      mstore\n      0x20\n      add\n      0x00\n      keccak256\n        /* \"LP/LP.sol\":7663:7707  UserInfo storage user = userInfo[msg.sender] */\n      swap1\n      pop\n        /* \"LP/LP.sol\":7736:7737  0 */\n      0x00\n        /* \"LP/LP.sol\":7721:7725  user */\n      dup2\n        /* \"LP/LP.sol\":7721:7732  user.shares */\n      0x00\n      add\n      sload\n        /* \"LP/LP.sol\":7721:7737  user.shares == 0 */\n      eq\n        /* \"LP/LP.sol\":7718:7747  if(user.shares == 0) return 0 */\n      iszero\n      tag_165\n      jumpi\n        /* \"LP/LP.sol\":7746:7747  0 */\n      0x00\n        /* \"LP/LP.sol\":7739:7747  return 0 */\n      swap3\n      pop\n      pop\n      pop\n      jump(tag_156)\n        /* \"LP/LP.sol\":7718:7747  if(user.shares == 0) return 0 */\n    tag_165:\n        /* \"LP/LP.sol\":7765:7838  decimalMul(user.amount,computePer).sub(user.rewardDebt).add(user.rewards) */\n      tag_166\n        /* \"LP/LP.sol\":7825:7829  user */\n      dup2\n        /* \"LP/LP.sol\":7825:7837  user.rewards */\n      0x06\n      add\n      sload\n        /* \"LP/LP.sol\":7765:7820  decimalMul(user.amount,computePer).sub(user.rewardDebt) */\n      tag_167\n        /* \"LP/LP.sol\":7804:7808  user */\n      dup4\n        /* \"LP/LP.sol\":7804:7819  user.rewardDebt */\n      0x05\n      add\n      sload\n        /* \"LP/LP.sol\":7765:7799  decimalMul(user.amount,computePer) */\n      tag_168\n        /* \"LP/LP.sol\":7776:7780  user */\n      dup6\n        /* \"LP/LP.sol\":7776:7787  user.amount */\n      0x07\n      add\n      sload\n        /* \"LP/LP.sol\":7788:7798  computePer */\n      dup8\n        /* \"LP/LP.sol\":7765:7775  decimalMul */\n      tag_123\n        /* \"LP/LP.sol\":7765:7799  decimalMul(user.amount,computePer) */\n      jump\t// in\n    tag_168:\n        /* \"LP/LP.sol\":7765:7803  decimalMul(user.amount,computePer).sub */\n      tag_115\n      swap1\n        /* \"LP/LP.sol\":7765:7820  decimalMul(user.amount,computePer).sub(user.rewardDebt) */\n      swap2\n      swap1\n      0xffffffff\n      and\n      jump\t// in\n    tag_167:\n        /* \"LP/LP.sol\":7765:7824  decimalMul(user.amount,computePer).sub(user.rewardDebt).add */\n      tag_124\n      swap1\n        /* \"LP/LP.sol\":7765:7838  decimalMul(user.amount,computePer).sub(user.rewardDebt).add(user.rewards) */\n      swap2\n      swap1\n      0xffffffff\n      and\n      jump\t// in\n    tag_166:\n        /* \"LP/LP.sol\":7758:7838  return decimalMul(user.amount,computePer).sub(user.rewardDebt).add(user.rewards) */\n      swap3\n      pop\n      pop\n      pop\n        /* \"LP/LP.sol\":7514:7846  function myValue() public view returns (uint256) {\r... */\n    tag_156:\n      swap1\n      jump\t// out\n        /* \"LP/LP.sol\":8170:8248  function getTime() public view returns (uint256) {\r... */\n    tag_56:\n        /* \"LP/LP.sol\":8210:8217  uint256 */\n      0x00\n        /* \"LP/LP.sol\":8237:8240  now */\n      timestamp\n        /* \"LP/LP.sol\":8230:8240  return now */\n      swap1\n      pop\n        /* \"LP/LP.sol\":8170:8248  function getTime() public view returns (uint256) {\r... */\n      swap1\n      jump\t// out\n        /* \"LP/LP.sol\":2146:2181  uint256 public stakingStartTime = 0 */\n    tag_58:\n      sload(0x0b)\n      dup2\n      jump\t// out\n        /* \"LP/LP.sol\":1242:1275  address public newContractAddress */\n    tag_60:\n      0x04\n      0x00\n      swap1\n      sload\n      swap1\n      0x0100\n      exp\n      swap1\n      div\n      0xffffffffffffffffffffffffffffffffffffffff\n      and\n      dup2\n      jump\t// out\n        /* \"LP/LP.sol\":1865:1894  uint256 public totalLpFee = 0 */\n    tag_62:\n      sload(0x06)\n      dup2\n      jump\t// out\n        /* \"LP/LP.sol\":7854:8135  function sharesPrice() public view returns (uint256) {\r... */\n    tag_64:\n        /* \"LP/LP.sol\":7898:7905  uint256 */\n      0x00\n        /* \"LP/LP.sol\":7918:7929  uint256 lpb */\n      dup1\n        /* \"LP/LP.sol\":7932:7943  lpBalance() */\n      tag_171\n        /* \"LP/LP.sol\":7932:7941  lpBalance */\n      tag_47\n        /* \"LP/LP.sol\":7932:7943  lpBalance() */\n      jump\t// in\n    tag_171:\n        /* \"LP/LP.sol\":7918:7943  uint256 lpb = lpBalance() */\n      swap1\n      pop\n        /* \"LP/LP.sol\":7965:7966  0 */\n      0x00\n        /* \"LP/LP.sol\":7958:7961  lpb */\n      dup2\n        /* \"LP/LP.sol\":7958:7966  lpb == 0 */\n      eq\n        /* \"LP/LP.sol\":7954:7976  if (lpb == 0) return 0 */\n      iszero\n      tag_172\n      jumpi\n        /* \"LP/LP.sol\":7975:7976  0 */\n      0x00\n        /* \"LP/LP.sol\":7968:7976  return 0 */\n      swap2\n      pop\n      pop\n      jump(tag_170)\n        /* \"LP/LP.sol\":7954:7976  if (lpb == 0) return 0 */\n    tag_172:\n        /* \"LP/LP.sol\":7987:8005  uint256 computePer */\n      0x00\n        /* \"LP/LP.sol\":8008:8057  accPerShare.add(divFloor(this.pendingCoin(),lpb)) */\n      tag_173\n        /* \"LP/LP.sol\":8024:8056  divFloor(this.pendingCoin(),lpb) */\n      tag_174\n        /* \"LP/LP.sol\":8033:8037  this */\n      address\n        /* \"LP/LP.sol\":8033:8049  this.pendingCoin */\n      0xffffffffffffffffffffffffffffffffffffffff\n      and\n      0xfc3e532b\n        /* \"LP/LP.sol\":8033:8051  this.pendingCoin() */\n      mload(0x40)\n      dup2\n      0xffffffff\n      and\n      0xe0\n      shl\n      dup2\n      mstore\n      0x04\n      add\n      0x20\n      mload(0x40)\n      dup1\n      dup4\n      sub\n      dup2\n      dup7\n      dup1\n      extcodesize\n      iszero\n      dup1\n      iszero\n      tag_175\n      jumpi\n      0x00\n      dup1\n      revert\n    tag_175:\n      pop\n      gas\n      staticcall\n      iszero\n      dup1\n      iszero\n      tag_177\n      jumpi\n      returndatasize\n      0x00\n      dup1\n      returndatacopy\n      revert(0x00, returndatasize)\n    tag_177:\n      pop\n      pop\n      pop\n      pop\n      mload(0x40)\n      returndatasize\n      0x20\n      dup2\n      lt\n      iszero\n      tag_178\n      jumpi\n      0x00\n      dup1\n      revert\n    tag_178:\n      dup2\n      add\n      swap1\n      dup1\n      dup1\n      mload\n      swap1\n      0x20\n      add\n      swap1\n      swap3\n      swap2\n      swap1\n      pop\n      pop\n      pop\n        /* \"LP/LP.sol\":8052:8055  lpb */\n      dup5\n        /* \"LP/LP.sol\":8024:8032  divFloor */\n      tag_164\n        /* \"LP/LP.sol\":8024:8056  divFloor(this.pendingCoin(),lpb) */\n      jump\t// in\n    tag_174:\n        /* \"LP/LP.sol\":8008:8019  accPerShare */\n      sload(0x05)\n        /* \"LP/LP.sol\":8008:8023  accPerShare.add */\n      tag_124\n      swap1\n        /* \"LP/LP.sol\":8008:8057  accPerShare.add(divFloor(this.pendingCoin(),lpb)) */\n      swap2\n      swap1\n      0xffffffff\n      and\n      jump\t// in\n    tag_173:\n        /* \"LP/LP.sol\":7987:8057  uint256 computePer = accPerShare.add(divFloor(this.pendingCoin(),lpb)) */\n      swap1\n      pop\n        /* \"LP/LP.sol\":8075:8127  lpb.mul(getEther()).mul(computePer).div(totalShares) */\n      tag_179\n        /* \"LP/LP.sol\":8115:8126  totalShares */\n      sload(0x07)\n        /* \"LP/LP.sol\":8075:8110  lpb.mul(getEther()).mul(computePer) */\n      tag_180\n        /* \"LP/LP.sol\":8099:8109  computePer */\n      dup4\n        /* \"LP/LP.sol\":8075:8094  lpb.mul(getEther()) */\n      tag_181\n        /* \"LP/LP.sol\":8083:8093  getEther() */\n      tag_182\n        /* \"LP/LP.sol\":8083:8091  getEther */\n      tag_89\n        /* \"LP/LP.sol\":8083:8093  getEther() */\n      jump\t// in\n    tag_182:\n        /* \"LP/LP.sol\":8075:8078  lpb */\n      dup8\n        /* \"LP/LP.sol\":8075:8082  lpb.mul */\n      tag_127\n      swap1\n        /* \"LP/LP.sol\":8075:8094  lpb.mul(getEther()) */\n      swap2\n      swap1\n      0xffffffff\n      and\n      jump\t// in\n    tag_181:\n        /* \"LP/LP.sol\":8075:8098  lpb.mul(getEther()).mul */\n      tag_127\n      swap1\n        /* \"LP/LP.sol\":8075:8110  lpb.mul(getEther()).mul(computePer) */\n      swap2\n      swap1\n      0xffffffff\n      and\n      jump\t// in\n    tag_180:\n        /* \"LP/LP.sol\":8075:8114  lpb.mul(getEther()).mul(computePer).div */\n      tag_128\n      swap1\n        /* \"LP/LP.sol\":8075:8127  lpb.mul(getEther()).mul(computePer).div(totalShares) */\n      swap2\n      swap1\n      0xffffffff\n      and\n      jump\t// in\n    tag_179:\n        /* \"LP/LP.sol\":8068:8127  return lpb.mul(getEther()).mul(computePer).div(totalShares) */\n      swap3\n      pop\n      pop\n      pop\n        /* \"LP/LP.sol\":7854:8135  function sharesPrice() public view returns (uint256) {\r... */\n    tag_170:\n      swap1\n      jump\t// out\n        /* \"LP/LP.sol\":8256:8366  function getPkBalance() public view returns (uint256) {\r... */\n    tag_66:\n        /* \"LP/LP.sol\":8301:8308  uint256 */\n      0x00\n        /* \"LP/LP.sol\":8328:8333  poker */\n      dup1\n      0x00\n      swap1\n      sload\n      swap1\n      0x0100\n      exp\n      swap1\n      div\n      0xffffffffffffffffffffffffffffffffffffffff\n      and\n        /* \"LP/LP.sol\":8328:8343  poker.balanceOf */\n      0xffffffffffffffffffffffffffffffffffffffff\n      and\n      0x70a08231\n        /* \"LP/LP.sol\":8352:8356  this */\n      address\n        /* \"LP/LP.sol\":8328:8358  poker.balanceOf(address(this)) */\n      mload(0x40)\n      dup3\n      0xffffffff\n      and\n      0xe0\n      shl\n      dup2\n      mstore\n      0x04\n      add\n      dup1\n      dup3\n      0xffffffffffffffffffffffffffffffffffffffff\n      and\n      dup2\n      mstore\n      0x20\n      add\n      swap2\n      pop\n      pop\n      0x20\n      mload(0x40)\n      dup1\n      dup4\n      sub\n      dup2\n      dup7\n      dup1\n      extcodesize\n      iszero\n      dup1\n      iszero\n      tag_184\n      jumpi\n      0x00\n      dup1\n      revert\n    tag_184:\n      pop\n      gas\n      staticcall\n      iszero\n      dup1\n      iszero\n      tag_186\n      jumpi\n      returndatasize\n      0x00\n      dup1\n      returndatacopy\n      revert(0x00, returndatasize)\n    tag_186:\n      pop\n      pop\n      pop\n      pop\n      mload(0x40)\n      returndatasize\n      0x20\n      dup2\n      lt\n      iszero\n      tag_187\n      jumpi\n      0x00\n      dup1\n      revert\n    tag_187:\n      dup2\n      add\n      swap1\n      dup1\n      dup1\n      mload\n      swap1\n      0x20\n      add\n      swap1\n      swap3\n      swap2\n      swap1\n      pop\n      pop\n      pop\n        /* \"LP/LP.sol\":8321:8358  return poker.balanceOf(address(this)) */\n      swap1\n      pop\n        /* \"LP/LP.sol\":8256:8366  function getPkBalance() public view returns (uint256) {\r... */\n      swap1\n      jump\t// out\n        /* \"LP/LP.sol\":9977:10259  function setStakingSwitch(bool flag) public {\r... */\n    tag_69:\n        /* \"LP/LP.sol\":10050:10055  owner */\n      0x03\n      0x00\n      swap1\n      sload\n      swap1\n      0x0100\n      exp\n      swap1\n      div\n      0xffffffffffffffffffffffffffffffffffffffff\n      and\n        /* \"LP/LP.sol\":10036:10055  msg.sender == owner */\n      0xffffffffffffffffffffffffffffffffffffffff\n      and\n        /* \"LP/LP.sol\":10036:10046  msg.sender */\n      caller\n        /* \"LP/LP.sol\":10036:10055  msg.sender == owner */\n      0xffffffffffffffffffffffffffffffffffffffff\n      and\n      eq\n        /* \"LP/LP.sol\":10032:10252  if (msg.sender == owner) {\r... */\n      iszero\n      tag_189\n      jumpi\n        /* \"LP/LP.sol\":10076:10080  flag */\n      dup1\n        /* \"LP/LP.sol\":10072:10206  if (flag) {\r... */\n      iszero\n      tag_190\n      jumpi\n        /* \"LP/LP.sol\":10120:10129  getTime() */\n      tag_191\n        /* \"LP/LP.sol\":10120:10127  getTime */\n      tag_56\n        /* \"LP/LP.sol\":10120:10129  getTime() */\n      jump\t// in\n    tag_191:\n        /* \"LP/LP.sol\":10101:10117  stakingStartTime */\n      0x0b\n        /* \"LP/LP.sol\":10101:10129  stakingStartTime = getTime() */\n      dup2\n      swap1\n      sstore\n      pop\n        /* \"LP/LP.sol\":10072:10206  if (flag) {\r... */\n      jump(tag_192)\n    tag_190:\n        /* \"LP/LP.sol\":10189:10190  0 */\n      0x00\n        /* \"LP/LP.sol\":10170:10186  stakingStartTime */\n      0x0b\n        /* \"LP/LP.sol\":10170:10190  stakingStartTime = 0 */\n      dup2\n      swap1\n      sstore\n      pop\n        /* \"LP/LP.sol\":10072:10206  if (flag) {\r... */\n    tag_192:\n        /* \"LP/LP.sol\":10236:10240  flag */\n      dup1\n        /* \"LP/LP.sol\":10220:10233  stakingSwitch */\n      0x0c\n      0x00\n        /* \"LP/LP.sol\":10220:10240  stakingSwitch = flag */\n      0x0100\n      exp\n      dup2\n      sload\n      dup2\n      0xff\n      mul\n      not\n      and\n      swap1\n      dup4\n      iszero\n      iszero\n      mul\n      or\n      swap1\n      sstore\n      pop\n        /* \"LP/LP.sol\":10032:10252  if (msg.sender == owner) {\r... */\n    tag_189:\n        /* \"LP/LP.sol\":9977:10259  function setStakingSwitch(bool flag) public {\r... */\n      pop\n      jump\t// out\n        /* \"LP/LP.sol\":9432:9693  function setFeeAddress(address newAddress) public {\r... */\n    tag_72:\n        /* \"LP/LP.sol\":9515:9520  owner */\n      0x03\n      0x00\n      swap1\n      sload\n      swap1\n      0x0100\n      exp\n      swap1\n      div\n      0xffffffffffffffffffffffffffffffffffffffff\n      and\n        /* \"LP/LP.sol\":9501:9520  msg.sender == owner */\n      0xffffffffffffffffffffffffffffffffffffffff\n      and\n        /* \"LP/LP.sol\":9501:9511  msg.sender */\n      caller\n        /* \"LP/LP.sol\":9501:9520  msg.sender == owner */\n      0xffffffffffffffffffffffffffffffffffffffff\n      and\n      eq\n        /* \"LP/LP.sol\":9493:9521  require(msg.sender == owner) */\n      tag_194\n      jumpi\n      0x00\n      dup1\n      revert\n    tag_194:\n        /* \"LP/LP.sol\":9562:9563  0 */\n      0x00\n        /* \"LP/LP.sol\":9540:9564  newAddress != address(0) */\n      0xffffffffffffffffffffffffffffffffffffffff\n      and\n        /* \"LP/LP.sol\":9540:9550  newAddress */\n      dup2\n        /* \"LP/LP.sol\":9540:9564  newAddress != address(0) */\n      0xffffffffffffffffffffffffffffffffffffffff\n      and\n      eq\n      iszero\n        /* \"LP/LP.sol\":9532:9577  require(newAddress != address(0), \"set to 0\") */\n      tag_195\n      jumpi\n      mload(0x40)\n      0x08c379a000000000000000000000000000000000000000000000000000000000\n      dup2\n      mstore\n      0x04\n      add\n      dup1\n      dup1\n      0x20\n      add\n      dup3\n      dup2\n      sub\n      dup3\n      mstore\n      0x08\n      dup2\n      mstore\n      0x20\n      add\n      dup1\n      0x73657420746f2030000000000000000000000000000000000000000000000000\n      dup2\n      mstore\n      pop\n      0x20\n      add\n      swap2\n      pop\n      pop\n      mload(0x40)\n      dup1\n      swap2\n      sub\n      swap1\n      revert\n    tag_195:\n        /* \"LP/LP.sol\":9618:9624  0xdead */\n      0xdead\n        /* \"LP/LP.sol\":9596:9625  newAddress != address(0xdead) */\n      0xffffffffffffffffffffffffffffffffffffffff\n      and\n        /* \"LP/LP.sol\":9596:9606  newAddress */\n      dup2\n        /* \"LP/LP.sol\":9596:9625  newAddress != address(0xdead) */\n      0xffffffffffffffffffffffffffffffffffffffff\n      and\n      eq\n      iszero\n        /* \"LP/LP.sol\":9588:9643  require(newAddress != address(0xdead), \"set to 0xdead\") */\n      tag_196\n      jumpi\n      mload(0x40)\n      0x08c379a000000000000000000000000000000000000000000000000000000000\n      dup2\n      mstore\n      0x04\n      add\n      dup1\n      dup1\n      0x20\n      add\n      dup3\n      dup2\n      sub\n      dup3\n      mstore\n      0x0d\n      dup2\n      mstore\n      0x20\n      add\n      dup1\n      0x73657420746f2030786465616400000000000000000000000000000000000000\n      dup2\n      mstore\n      pop\n      0x20\n      add\n      swap2\n      pop\n      pop\n      mload(0x40)\n      dup1\n      swap2\n      sub\n      swap1\n      revert\n    tag_196:\n        /* \"LP/LP.sol\":9675:9685  newAddress */\n      dup1\n        /* \"LP/LP.sol\":9654:9672  newContractAddress */\n      0x04\n      0x00\n        /* \"LP/LP.sol\":9654:9685  newContractAddress = newAddress */\n      0x0100\n      exp\n      dup2\n      sload\n      dup2\n      0xffffffffffffffffffffffffffffffffffffffff\n      mul\n      not\n      and\n      swap1\n      dup4\n      0xffffffffffffffffffffffffffffffffffffffff\n      and\n      mul\n      or\n      swap1\n      sstore\n      pop\n        /* \"LP/LP.sol\":9432:9693  function setFeeAddress(address newAddress) public {\r... */\n      pop\n      jump\t// out\n        /* \"LP/LP.sol\":1215:1235  address public owner */\n    tag_74:\n      0x03\n      0x00\n      swap1\n      sload\n      swap1\n      0x0100\n      exp\n      swap1\n      div\n      0xffffffffffffffffffffffffffffffffffffffff\n      and\n      dup2\n      jump\t// out\n        /* \"LP/LP.sol\":7067:7506  function myBenefits() public view returns (uint256) {\r... */\n    tag_76:\n        /* \"LP/LP.sol\":7110:7117  uint256 */\n      0x00\n        /* \"LP/LP.sol\":7149:7150  0 */\n      dup1\n        /* \"LP/LP.sol\":7134:7145  totalShares */\n      sload(0x07)\n        /* \"LP/LP.sol\":7134:7150  totalShares == 0 */\n      eq\n        /* \"LP/LP.sol\":7130:7174  if (totalShares == 0) \r... */\n      iszero\n      tag_198\n      jumpi\n        /* \"LP/LP.sol\":7173:7174  0 */\n      0x00\n        /* \"LP/LP.sol\":7166:7174  return 0 */\n      swap1\n      pop\n      jump(tag_197)\n        /* \"LP/LP.sol\":7130:7174  if (totalShares == 0) \r... */\n    tag_198:\n        /* \"LP/LP.sol\":7185:7206  UserInfo storage user */\n      0x00\n        /* \"LP/LP.sol\":7209:7217  userInfo */\n      0x0e\n        /* \"LP/LP.sol\":7209:7229  userInfo[msg.sender] */\n      0x00\n        /* \"LP/LP.sol\":7218:7228  msg.sender */\n      caller\n        /* \"LP/LP.sol\":7209:7229  userInfo[msg.sender] */\n      0xffffffffffffffffffffffffffffffffffffffff\n      and\n      0xffffffffffffffffffffffffffffffffffffffff\n      and\n      dup2\n      mstore\n      0x20\n      add\n      swap1\n      dup2\n      mstore\n      0x20\n      add\n      0x00\n      keccak256\n        /* \"LP/LP.sol\":7185:7229  UserInfo storage user = userInfo[msg.sender] */\n      swap1\n      pop\n        /* \"LP/LP.sol\":7240:7258  uint256 computePer */\n      0x00\n        /* \"LP/LP.sol\":7261:7318  accPerShare.add(divFloor(this.pendingCoin(),lpBalance())) */\n      tag_199\n        /* \"LP/LP.sol\":7277:7317  divFloor(this.pendingCoin(),lpBalance()) */\n      tag_200\n        /* \"LP/LP.sol\":7286:7290  this */\n      address\n        /* \"LP/LP.sol\":7286:7302  this.pendingCoin */\n      0xffffffffffffffffffffffffffffffffffffffff\n      and\n      0xfc3e532b\n        /* \"LP/LP.sol\":7286:7304  this.pendingCoin() */\n      mload(0x40)\n      dup2\n      0xffffffff\n      and\n      0xe0\n      shl\n      dup2\n      mstore\n      0x04\n      add\n      0x20\n      mload(0x40)\n      dup1\n      dup4\n      sub\n      dup2\n      dup7\n      dup1\n      extcodesize\n      iszero\n      dup1\n      iszero\n      tag_201\n      jumpi\n      0x00\n      dup1\n      revert\n    tag_201:\n      pop\n      gas\n      staticcall\n      iszero\n      dup1\n      iszero\n      tag_203\n      jumpi\n      returndatasize\n      0x00\n      dup1\n      returndatacopy\n      revert(0x00, returndatasize)\n    tag_203:\n      pop\n      pop\n      pop\n      pop\n      mload(0x40)\n      returndatasize\n      0x20\n      dup2\n      lt\n      iszero\n      tag_204\n      jumpi\n      0x00\n      dup1\n      revert\n    tag_204:\n      dup2\n      add\n      swap1\n      dup1\n      dup1\n      mload\n      swap1\n      0x20\n      add\n      swap1\n      swap3\n      swap2\n      swap1\n      pop\n      pop\n      pop\n        /* \"LP/LP.sol\":7305:7316  lpBalance() */\n      tag_205\n        /* \"LP/LP.sol\":7305:7314  lpBalance */\n      tag_47\n        /* \"LP/LP.sol\":7305:7316  lpBalance() */\n      jump\t// in\n    tag_205:\n        /* \"LP/LP.sol\":7277:7285  divFloor */\n      tag_164\n        /* \"LP/LP.sol\":7277:7317  divFloor(this.pendingCoin(),lpBalance()) */\n      jump\t// in\n    tag_200:\n        /* \"LP/LP.sol\":7261:7272  accPerShare */\n      sload(0x05)\n        /* \"LP/LP.sol\":7261:7276  accPerShare.add */\n      tag_124\n      swap1\n        /* \"LP/LP.sol\":7261:7318  accPerShare.add(divFloor(this.pendingCoin(),lpBalance())) */\n      swap2\n      swap1\n      0xffffffff\n      and\n      jump\t// in\n    tag_199:\n        /* \"LP/LP.sol\":7240:7318  uint256 computePer = accPerShare.add(divFloor(this.pendingCoin(),lpBalance())) */\n      swap1\n      pop\n        /* \"LP/LP.sol\":7329:7340  uint256 ben */\n      0x00\n        /* \"LP/LP.sol\":7343:7377  decimalMul(user.amount,computePer) */\n      tag_206\n        /* \"LP/LP.sol\":7354:7358  user */\n      dup4\n        /* \"LP/LP.sol\":7354:7365  user.amount */\n      0x07\n      add\n      sload\n        /* \"LP/LP.sol\":7366:7376  computePer */\n      dup4\n        /* \"LP/LP.sol\":7343:7353  decimalMul */\n      tag_123\n        /* \"LP/LP.sol\":7343:7377  decimalMul(user.amount,computePer) */\n      jump\t// in\n    tag_206:\n        /* \"LP/LP.sol\":7329:7377  uint256 ben = decimalMul(user.amount,computePer) */\n      swap1\n      pop\n        /* \"LP/LP.sol\":7400:7404  user */\n      dup3\n        /* \"LP/LP.sol\":7400:7415  user.rewardDebt */\n      0x05\n      add\n      sload\n        /* \"LP/LP.sol\":7394:7397  ben */\n      dup2\n        /* \"LP/LP.sol\":7394:7415  ben > user.rewardDebt */\n      gt\n        /* \"LP/LP.sol\":7390:7498  if (ben > user.rewardDebt)\r... */\n      iszero\n      tag_207\n      jumpi\n        /* \"LP/LP.sol\":7437:7461  ben.sub(user.rewardDebt) */\n      tag_208\n        /* \"LP/LP.sol\":7445:7449  user */\n      dup4\n        /* \"LP/LP.sol\":7445:7460  user.rewardDebt */\n      0x05\n      add\n      sload\n        /* \"LP/LP.sol\":7437:7440  ben */\n      dup3\n        /* \"LP/LP.sol\":7437:7444  ben.sub */\n      tag_115\n      swap1\n        /* \"LP/LP.sol\":7437:7461  ben.sub(user.rewardDebt) */\n      swap2\n      swap1\n      0xffffffff\n      and\n      jump\t// in\n    tag_208:\n        /* \"LP/LP.sol\":7430:7461  return ben.sub(user.rewardDebt) */\n      swap4\n      pop\n      pop\n      pop\n      pop\n      jump(tag_197)\n        /* \"LP/LP.sol\":7390:7498  if (ben > user.rewardDebt)\r... */\n    tag_207:\n        /* \"LP/LP.sol\":7497:7498  0 */\n      0x00\n        /* \"LP/LP.sol\":7490:7498  return 0 */\n      swap4\n      pop\n      pop\n      pop\n      pop\n        /* \"LP/LP.sol\":7067:7506  function myBenefits() public view returns (uint256) {\r... */\n    tag_197:\n      swap1\n      jump\t// out\n        /* \"LP/LP.sol\":2835:4110  function deposit(uint256 _amount) public {\r... */\n    tag_79:\n        /* \"LP/LP.sol\":2905:2906  0 */\n      0x00\n        /* \"LP/LP.sol\":2895:2902  _amount */\n      dup2\n        /* \"LP/LP.sol\":2895:2906  _amount > 0 */\n      gt\n        /* \"LP/LP.sol\":2887:2929  require(_amount > 0, \"Nothing to deposit\") */\n      tag_211\n      jumpi\n      mload(0x40)\n      0x08c379a000000000000000000000000000000000000000000000000000000000\n      dup2\n      mstore\n      0x04\n      add\n      dup1\n      dup1\n      0x20\n      add\n      dup3\n      dup2\n      sub\n      dup3\n      mstore\n      0x12\n      dup2\n      mstore\n      0x20\n      add\n      dup1\n      0x4e6f7468696e6720746f206465706f7369740000000000000000000000000000\n      dup2\n      mstore\n      pop\n      0x20\n      add\n      swap2\n      pop\n      pop\n      mload(0x40)\n      dup1\n      swap2\n      sub\n      swap1\n      revert\n    tag_211:\n        /* \"LP/LP.sol\":2942:2954  updatePool() */\n      tag_212\n        /* \"LP/LP.sol\":2942:2952  updatePool */\n      tag_93\n        /* \"LP/LP.sol\":2942:2954  updatePool() */\n      jump\t// in\n    tag_212:\n        /* \"LP/LP.sol\":2965:2976  uint256 bal */\n      0x00\n        /* \"LP/LP.sol\":2979:2990  lpBalance() */\n      tag_213\n        /* \"LP/LP.sol\":2979:2988  lpBalance */\n      tag_47\n        /* \"LP/LP.sol\":2979:2990  lpBalance() */\n      jump\t// in\n    tag_213:\n        /* \"LP/LP.sol\":2965:2990  uint256 bal = lpBalance() */\n      swap1\n      pop\n        /* \"LP/LP.sol\":3003:3024  UserInfo storage user */\n      0x00\n        /* \"LP/LP.sol\":3027:3035  userInfo */\n      0x0e\n        /* \"LP/LP.sol\":3027:3047  userInfo[msg.sender] */\n      0x00\n        /* \"LP/LP.sol\":3036:3046  msg.sender */\n      caller\n        /* \"LP/LP.sol\":3027:3047  userInfo[msg.sender] */\n      0xffffffffffffffffffffffffffffffffffffffff\n      and\n      0xffffffffffffffffffffffffffffffffffffffff\n      and\n      dup2\n      mstore\n      0x20\n      add\n      swap1\n      dup2\n      mstore\n      0x20\n      add\n      0x00\n      keccak256\n        /* \"LP/LP.sol\":3003:3047  UserInfo storage user = userInfo[msg.sender] */\n      swap1\n      pop\n        /* \"LP/LP.sol\":3078:3079  0 */\n      0x00\n        /* \"LP/LP.sol\":3064:3068  user */\n      dup2\n        /* \"LP/LP.sol\":3064:3075  user.amount */\n      0x07\n      add\n      sload\n        /* \"LP/LP.sol\":3064:3079  user.amount > 0 */\n      gt\n        /* \"LP/LP.sol\":3060:3369  if (user.amount > 0) {\r... */\n      iszero\n      tag_214\n      jumpi\n        /* \"LP/LP.sol\":3096:3111  uint256 pending */\n      0x00\n        /* \"LP/LP.sol\":3114:3203  decimalMul(user.amount, accPerShare).sub(\r... */\n      tag_215\n        /* \"LP/LP.sol\":3173:3177  user */\n      dup3\n        /* \"LP/LP.sol\":3173:3188  user.rewardDebt */\n      0x05\n      add\n      sload\n        /* \"LP/LP.sol\":3114:3150  decimalMul(user.amount, accPerShare) */\n      tag_216\n        /* \"LP/LP.sol\":3125:3129  user */\n      dup5\n        /* \"LP/LP.sol\":3125:3136  user.amount */\n      0x07\n      add\n      sload\n        /* \"LP/LP.sol\":3138:3149  accPerShare */\n      sload(0x05)\n        /* \"LP/LP.sol\":3114:3124  decimalMul */\n      tag_123\n        /* \"LP/LP.sol\":3114:3150  decimalMul(user.amount, accPerShare) */\n      jump\t// in\n    tag_216:\n        /* \"LP/LP.sol\":3114:3154  decimalMul(user.amount, accPerShare).sub */\n      tag_115\n      swap1\n        /* \"LP/LP.sol\":3114:3203  decimalMul(user.amount, accPerShare).sub(\r... */\n      swap2\n      swap1\n      0xffffffff\n      and\n      jump\t// in\n    tag_215:\n        /* \"LP/LP.sol\":3096:3203  uint256 pending = decimalMul(user.amount, accPerShare).sub(\r... */\n      swap1\n      pop\n        /* \"LP/LP.sol\":3288:3313  user.rewards.add(pending) */\n      tag_217\n        /* \"LP/LP.sol\":3305:3312  pending */\n      dup2\n        /* \"LP/LP.sol\":3288:3292  user */\n      dup4\n        /* \"LP/LP.sol\":3288:3300  user.rewards */\n      0x06\n      add\n      sload\n        /* \"LP/LP.sol\":3288:3304  user.rewards.add */\n      tag_124\n      swap1\n        /* \"LP/LP.sol\":3288:3313  user.rewards.add(pending) */\n      swap2\n      swap1\n      0xffffffff\n      and\n      jump\t// in\n    tag_217:\n        /* \"LP/LP.sol\":3273:3277  user */\n      dup3\n        /* \"LP/LP.sol\":3273:3285  user.rewards */\n      0x06\n      add\n        /* \"LP/LP.sol\":3273:3313  user.rewards = user.rewards.add(pending) */\n      dup2\n      swap1\n      sstore\n      pop\n        /* \"LP/LP.sol\":3060:3369  if (user.amount > 0) {\r... */\n      pop\n      jump(tag_218)\n    tag_214:\n        /* \"LP/LP.sol\":3368:3369  0 */\n      0x00\n        /* \"LP/LP.sol\":3353:3357  user */\n      dup2\n        /* \"LP/LP.sol\":3353:3365  user.rewards */\n      0x06\n      add\n        /* \"LP/LP.sol\":3353:3369  user.rewards = 0 */\n      dup2\n      swap1\n      sstore\n      pop\n        /* \"LP/LP.sol\":3060:3369  if (user.amount > 0) {\r... */\n    tag_218:\n        /* \"LP/LP.sol\":3382:3384  lp */\n      0x01\n      0x00\n      swap1\n      sload\n      swap1\n      0x0100\n      exp\n      swap1\n      div\n      0xffffffffffffffffffffffffffffffffffffffff\n      and\n        /* \"LP/LP.sol\":3382:3397  lp.transferFrom */\n      0xffffffffffffffffffffffffffffffffffffffff\n      and\n      0x23b872dd\n        /* \"LP/LP.sol\":3398:3408  msg.sender */\n      caller\n        /* \"LP/LP.sol\":3418:3422  this */\n      address\n        /* \"LP/LP.sol\":3425:3432  _amount */\n      dup7\n        /* \"LP/LP.sol\":3382:3433  lp.transferFrom(msg.sender, address(this), _amount) */\n      mload(0x40)\n      dup5\n      0xffffffff\n      and\n      0xe0\n      shl\n      dup2\n      mstore\n      0x04\n      add\n      dup1\n      dup5\n      0xffffffffffffffffffffffffffffffffffffffff\n      and\n      dup2\n      mstore\n      0x20\n      add\n      dup4\n      0xffffffffffffffffffffffffffffffffffffffff\n      and\n      dup2\n      mstore\n      0x20\n      add\n      dup3\n      dup2\n      mstore\n      0x20\n      add\n      swap4\n      pop\n      pop\n      pop\n      pop\n      0x20\n      mload(0x40)\n      dup1\n      dup4\n      sub\n      dup2\n      0x00\n      dup8\n      dup1\n      extcodesize\n      iszero\n      dup1\n      iszero\n      tag_219\n      jumpi\n      0x00\n      dup1\n      revert\n    tag_219:\n      pop\n      gas\n      call\n      iszero\n      dup1\n      iszero\n      tag_221\n      jumpi\n      returndatasize\n      0x00\n      dup1\n      returndatacopy\n      revert(0x00, returndatasize)\n    tag_221:\n      pop\n      pop\n      pop\n      pop\n      mload(0x40)\n      returndatasize\n      0x20\n      dup2\n      lt\n      iszero\n      tag_222\n      jumpi\n      0x00\n      dup1\n      revert\n    tag_222:\n      dup2\n      add\n      swap1\n      dup1\n      dup1\n      mload\n      swap1\n      0x20\n      add\n      swap1\n      swap3\n      swap2\n      swap1\n      pop\n      pop\n      pop\n      pop\n        /* \"LP/LP.sol\":3446:3467  uint256 currentShares */\n      0x00\n        /* \"LP/LP.sol\":3501:3502  0 */\n      dup1\n        /* \"LP/LP.sol\":3486:3497  totalShares */\n      sload(0x07)\n        /* \"LP/LP.sol\":3486:3502  totalShares != 0 */\n      eq\n        /* \"LP/LP.sol\":3482:3654  if (totalShares != 0) {\r... */\n      tag_223\n      jumpi\n        /* \"LP/LP.sol\":3535:3570  (_amount.mul(totalShares)).div(bal) */\n      tag_224\n        /* \"LP/LP.sol\":3566:3569  bal */\n      dup4\n        /* \"LP/LP.sol\":3536:3560  _amount.mul(totalShares) */\n      tag_225\n        /* \"LP/LP.sol\":3548:3559  totalShares */\n      sload(0x07)\n        /* \"LP/LP.sol\":3536:3543  _amount */\n      dup8\n        /* \"LP/LP.sol\":3536:3547  _amount.mul */\n      tag_127\n      swap1\n        /* \"LP/LP.sol\":3536:3560  _amount.mul(totalShares) */\n      swap2\n      swap1\n      0xffffffff\n      and\n      jump\t// in\n    tag_225:\n        /* \"LP/LP.sol\":3535:3565  (_amount.mul(totalShares)).div */\n      tag_128\n      swap1\n        /* \"LP/LP.sol\":3535:3570  (_amount.mul(totalShares)).div(bal) */\n      swap2\n      swap1\n      0xffffffff\n      and\n      jump\t// in\n    tag_224:\n        /* \"LP/LP.sol\":3519:3570  currentShares = (_amount.mul(totalShares)).div(bal) */\n      swap1\n      pop\n        /* \"LP/LP.sol\":3482:3654  if (totalShares != 0) {\r... */\n      jump(tag_226)\n    tag_223:\n        /* \"LP/LP.sol\":3619:3642  _amount.mul(getEther()) */\n      tag_227\n        /* \"LP/LP.sol\":3631:3641  getEther() */\n      tag_228\n        /* \"LP/LP.sol\":3631:3639  getEther */\n      tag_89\n        /* \"LP/LP.sol\":3631:3641  getEther() */\n      jump\t// in\n    tag_228:\n        /* \"LP/LP.sol\":3619:3626  _amount */\n      dup6\n        /* \"LP/LP.sol\":3619:3630  _amount.mul */\n      tag_127\n      swap1\n        /* \"LP/LP.sol\":3619:3642  _amount.mul(getEther()) */\n      swap2\n      swap1\n      0xffffffff\n      and\n      jump\t// in\n    tag_227:\n        /* \"LP/LP.sol\":3603:3642  currentShares = _amount.mul(getEther()) */\n      swap1\n      pop\n        /* \"LP/LP.sol\":3482:3654  if (totalShares != 0) {\r... */\n    tag_226:\n        /* \"LP/LP.sol\":3680:3710  user.shares.add(currentShares) */\n      tag_229\n        /* \"LP/LP.sol\":3696:3709  currentShares */\n      dup2\n        /* \"LP/LP.sol\":3680:3684  user */\n      dup4\n        /* \"LP/LP.sol\":3680:3691  user.shares */\n      0x00\n      add\n      sload\n        /* \"LP/LP.sol\":3680:3695  user.shares.add */\n      tag_124\n      swap1\n        /* \"LP/LP.sol\":3680:3710  user.shares.add(currentShares) */\n      swap2\n      swap1\n      0xffffffff\n      and\n      jump\t// in\n    tag_229:\n        /* \"LP/LP.sol\":3666:3670  user */\n      dup3\n        /* \"LP/LP.sol\":3666:3677  user.shares */\n      0x00\n      add\n        /* \"LP/LP.sol\":3666:3710  user.shares = user.shares.add(currentShares) */\n      dup2\n      swap1\n      sstore\n      pop\n        /* \"LP/LP.sol\":3735:3765  totalShares.add(currentShares) */\n      tag_230\n        /* \"LP/LP.sol\":3751:3764  currentShares */\n      dup2\n        /* \"LP/LP.sol\":3735:3746  totalShares */\n      sload(0x07)\n        /* \"LP/LP.sol\":3735:3750  totalShares.add */\n      tag_124\n      swap1\n        /* \"LP/LP.sol\":3735:3765  totalShares.add(currentShares) */\n      swap2\n      swap1\n      0xffffffff\n      and\n      jump\t// in\n    tag_230:\n        /* \"LP/LP.sol\":3721:3732  totalShares */\n      0x07\n        /* \"LP/LP.sol\":3721:3765  totalShares = totalShares.add(currentShares) */\n      dup2\n      swap1\n      sstore\n      pop\n        /* \"LP/LP.sol\":3804:3808  user */\n      dup2\n        /* \"LP/LP.sol\":3804:3816  user.rewards */\n      0x06\n      add\n      sload\n        /* \"LP/LP.sol\":3776:3780  user */\n      dup3\n        /* \"LP/LP.sol\":3776:3801  user.coinAtlastUserAction */\n      0x03\n      add\n        /* \"LP/LP.sol\":3776:3816  user.coinAtlastUserAction = user.rewards */\n      dup2\n      swap1\n      sstore\n      pop\n        /* \"LP/LP.sol\":3843:3867  user.amount.add(_amount) */\n      tag_231\n        /* \"LP/LP.sol\":3859:3866  _amount */\n      dup5\n        /* \"LP/LP.sol\":3843:3847  user */\n      dup4\n        /* \"LP/LP.sol\":3843:3854  user.amount */\n      0x07\n      add\n      sload\n        /* \"LP/LP.sol\":3843:3858  user.amount.add */\n      tag_124\n      swap1\n        /* \"LP/LP.sol\":3843:3867  user.amount.add(_amount) */\n      swap2\n      swap1\n      0xffffffff\n      and\n      jump\t// in\n    tag_231:\n        /* \"LP/LP.sol\":3829:3833  user */\n      dup3\n        /* \"LP/LP.sol\":3829:3840  user.amount */\n      0x07\n      add\n        /* \"LP/LP.sol\":3829:3867  user.amount = user.amount.add(_amount) */\n      dup2\n      swap1\n      sstore\n      pop\n        /* \"LP/LP.sol\":3896:3931  decimalMul(user.amount,accPerShare) */\n      tag_232\n        /* \"LP/LP.sol\":3907:3911  user */\n      dup3\n        /* \"LP/LP.sol\":3907:3918  user.amount */\n      0x07\n      add\n      sload\n        /* \"LP/LP.sol\":3919:3930  accPerShare */\n      sload(0x05)\n        /* \"LP/LP.sol\":3896:3906  decimalMul */\n      tag_123\n        /* \"LP/LP.sol\":3896:3931  decimalMul(user.amount,accPerShare) */\n      jump\t// in\n    tag_232:\n        /* \"LP/LP.sol\":3878:3882  user */\n      dup3\n        /* \"LP/LP.sol\":3878:3893  user.rewardDebt */\n      0x05\n      add\n        /* \"LP/LP.sol\":3878:3931  user.rewardDebt = decimalMul(user.amount,accPerShare) */\n      dup2\n      swap1\n      sstore\n      pop\n        /* \"LP/LP.sol\":3970:3979  getTime() */\n      tag_233\n        /* \"LP/LP.sol\":3970:3977  getTime */\n      tag_56\n        /* \"LP/LP.sol\":3970:3979  getTime() */\n      jump\t// in\n    tag_233:\n        /* \"LP/LP.sol\":3944:3948  user */\n      dup3\n        /* \"LP/LP.sol\":3944:3967  user.lastUserActionTime */\n      0x02\n      add\n        /* \"LP/LP.sol\":3944:3979  user.lastUserActionTime = getTime() */\n      dup2\n      swap1\n      sstore\n      pop\n        /* \"LP/LP.sol\":4015:4024  getTime() */\n      tag_234\n        /* \"LP/LP.sol\":4015:4022  getTime */\n      tag_56\n        /* \"LP/LP.sol\":4015:4024  getTime() */\n      jump\t// in\n    tag_234:\n        /* \"LP/LP.sol\":3990:3994  user */\n      dup3\n        /* \"LP/LP.sol\":3990:4012  user.lastDepositedTime */\n      0x01\n      add\n        /* \"LP/LP.sol\":3990:4024  user.lastDepositedTime = getTime() */\n      dup2\n      swap1\n      sstore\n      pop\n        /* \"LP/LP.sol\":4050:4060  msg.sender */\n      caller\n        /* \"LP/LP.sol\":4042:4102  Deposit(msg.sender, _amount, currentShares, block.timestamp) */\n      0xffffffffffffffffffffffffffffffffffffffff\n      and\n      0x36af321ec8d3c75236829c5317affd40ddb308863a1236d2d277a4025cccee1e\n        /* \"LP/LP.sol\":4062:4069  _amount */\n      dup6\n        /* \"LP/LP.sol\":4071:4084  currentShares */\n      dup4\n        /* \"LP/LP.sol\":4086:4101  block.timestamp */\n      timestamp\n        /* \"LP/LP.sol\":4042:4102  Deposit(msg.sender, _amount, currentShares, block.timestamp) */\n      mload(0x40)\n      dup1\n      dup5\n      dup2\n      mstore\n      0x20\n      add\n      dup4\n      dup2\n      mstore\n      0x20\n      add\n      dup3\n      dup2\n      mstore\n      0x20\n      add\n      swap4\n      pop\n      pop\n      pop\n      pop\n      mload(0x40)\n      dup1\n      swap2\n      sub\n      swap1\n      log2\n        /* \"LP/LP.sol\":2835:4110  function deposit(uint256 _amount) public {\r... */\n      pop\n      pop\n      pop\n      pop\n      jump\t// out\n        /* \"LP/LP.sol\":8513:9424  function getStakingCoinPerSec() public view returns (uint256) {\r... */\n    tag_81:\n        /* \"LP/LP.sol\":8566:8573  uint256 */\n      0x00\n        /* \"LP/LP.sol\":8586:8597  uint256 sec */\n      dup1\n        /* \"LP/LP.sol\":8600:8609  24 * 3600 */\n      0x015180\n        /* \"LP/LP.sol\":8586:8609  uint256 sec = 24 * 3600 */\n      swap1\n      pop\n        /* \"LP/LP.sol\":8620:8635  uint256 curTime */\n      0x00\n        /* \"LP/LP.sol\":8638:8647  getTime() */\n      tag_236\n        /* \"LP/LP.sol\":8638:8645  getTime */\n      tag_56\n        /* \"LP/LP.sol\":8638:8647  getTime() */\n      jump\t// in\n    tag_236:\n        /* \"LP/LP.sol\":8620:8647  uint256 curTime = getTime() */\n      swap1\n      pop\n        /* \"LP/LP.sol\":8658:8670  uint256 coin */\n      0x00\n        /* \"LP/LP.sol\":8673:8674  1 */\n      0x01\n        /* \"LP/LP.sol\":8658:8674  uint256 coin = 1 */\n      swap1\n      pop\n        /* \"LP/LP.sol\":8708:8713  false */\n      0x00\n        /* \"LP/LP.sol\":8691:8713  stakingSwitch == false */\n      iszero\n      iszero\n        /* \"LP/LP.sol\":8691:8704  stakingSwitch */\n      0x0c\n      0x00\n      swap1\n      sload\n      swap1\n      0x0100\n      exp\n      swap1\n      div\n      0xff\n      and\n        /* \"LP/LP.sol\":8691:8713  stakingSwitch == false */\n      iszero\n      iszero\n      eq\n        /* \"LP/LP.sol\":8687:8859  if (stakingSwitch == false) {\r... */\n      iszero\n      tag_237\n      jumpi\n        /* \"LP/LP.sol\":8730:8745  uint256 maxCoin */\n      0x00\n        /* \"LP/LP.sol\":8748:8754  122300 */\n      0x01ddbc\n        /* \"LP/LP.sol\":8730:8754  uint256 maxCoin = 122300 */\n      swap1\n      pop\n        /* \"LP/LP.sol\":8776:8821  maxCoin.mul((10**uint256(decimals))).div(sec) */\n      tag_238\n        /* \"LP/LP.sol\":8817:8820  sec */\n      dup5\n        /* \"LP/LP.sol\":8776:8812  maxCoin.mul((10**uint256(decimals))) */\n      tag_239\n        /* \"LP/LP.sol\":8801:8809  decimals */\n      sload(0x0d)\n        /* \"LP/LP.sol\":8789:8791  10 */\n      0x0a\n        /* \"LP/LP.sol\":8789:8810  10**uint256(decimals) */\n      exp\n        /* \"LP/LP.sol\":8776:8783  maxCoin */\n      dup5\n        /* \"LP/LP.sol\":8776:8787  maxCoin.mul */\n      tag_127\n      swap1\n        /* \"LP/LP.sol\":8776:8812  maxCoin.mul((10**uint256(decimals))) */\n      swap2\n      swap1\n      0xffffffff\n      and\n      jump\t// in\n    tag_239:\n        /* \"LP/LP.sol\":8776:8816  maxCoin.mul((10**uint256(decimals))).div */\n      tag_128\n      swap1\n        /* \"LP/LP.sol\":8776:8821  maxCoin.mul((10**uint256(decimals))).div(sec) */\n      swap2\n      swap1\n      0xffffffff\n      and\n      jump\t// in\n    tag_238:\n        /* \"LP/LP.sol\":8769:8821  coin = maxCoin.mul((10**uint256(decimals))).div(sec) */\n      swap2\n      pop\n        /* \"LP/LP.sol\":8843:8847  coin */\n      dup2\n        /* \"LP/LP.sol\":8836:8847  return coin */\n      swap5\n      pop\n      pop\n      pop\n      pop\n      pop\n      jump(tag_235)\n        /* \"LP/LP.sol\":8687:8859  if (stakingSwitch == false) {\r... */\n    tag_237:\n        /* \"LP/LP.sol\":8935:8941  60 * 5 */\n      0x012c\n        /* \"LP/LP.sol\":8916:8932  stakingStartTime */\n      sload(0x0b)\n        /* \"LP/LP.sol\":8916:8941  stakingStartTime + 60 * 5 */\n      add\n        /* \"LP/LP.sol\":8905:8912  curTime */\n      dup3\n        /* \"LP/LP.sol\":8905:8942  curTime < (stakingStartTime + 60 * 5) */\n      lt\n        /* \"LP/LP.sol\":8901:9395  if (curTime < (stakingStartTime + 60 * 5)) {\r... */\n      iszero\n      tag_240\n      jumpi\n        /* \"LP/LP.sol\":8959:8974  uint256 maxCoin */\n      0x00\n        /* \"LP/LP.sol\":8977:8984  2800000 */\n      0x2ab980\n        /* \"LP/LP.sol\":8959:8984  uint256 maxCoin = 2800000 */\n      swap1\n      pop\n        /* \"LP/LP.sol\":9006:9051  maxCoin.mul((10**uint256(decimals))).div(sec) */\n      tag_241\n        /* \"LP/LP.sol\":9047:9050  sec */\n      dup5\n        /* \"LP/LP.sol\":9006:9042  maxCoin.mul((10**uint256(decimals))) */\n      tag_242\n        /* \"LP/LP.sol\":9031:9039  decimals */\n      sload(0x0d)\n        /* \"LP/LP.sol\":9019:9021  10 */\n      0x0a\n        /* \"LP/LP.sol\":9019:9040  10**uint256(decimals) */\n      exp\n        /* \"LP/LP.sol\":9006:9013  maxCoin */\n      dup5\n        /* \"LP/LP.sol\":9006:9017  maxCoin.mul */\n      tag_127\n      swap1\n        /* \"LP/LP.sol\":9006:9042  maxCoin.mul((10**uint256(decimals))) */\n      swap2\n      swap1\n      0xffffffff\n      and\n      jump\t// in\n    tag_242:\n        /* \"LP/LP.sol\":9006:9046  maxCoin.mul((10**uint256(decimals))).div */\n      tag_128\n      swap1\n        /* \"LP/LP.sol\":9006:9051  maxCoin.mul((10**uint256(decimals))).div(sec) */\n      swap2\n      swap1\n      0xffffffff\n      and\n      jump\t// in\n    tag_241:\n        /* \"LP/LP.sol\":8999:9051  coin = maxCoin.mul((10**uint256(decimals))).div(sec) */\n      swap2\n      pop\n        /* \"LP/LP.sol\":8901:9395  if (curTime < (stakingStartTime + 60 * 5)) {\r... */\n      pop\n      jump(tag_243)\n    tag_240:\n        /* \"LP/LP.sol\":9142:9149  60 * 10 */\n      0x0258\n        /* \"LP/LP.sol\":9123:9139  stakingStartTime */\n      sload(0x0b)\n        /* \"LP/LP.sol\":9123:9149  stakingStartTime + 60 * 10 */\n      add\n        /* \"LP/LP.sol\":9112:9119  curTime */\n      dup3\n        /* \"LP/LP.sol\":9112:9150  curTime < (stakingStartTime + 60 * 10) */\n      lt\n        /* \"LP/LP.sol\":9108:9395  if (curTime < (stakingStartTime + 60 * 10)) {\r... */\n      iszero\n      tag_244\n      jumpi\n        /* \"LP/LP.sol\":9167:9182  uint256 maxCoin */\n      0x00\n        /* \"LP/LP.sol\":9185:9192  1400000 */\n      0x155cc0\n        /* \"LP/LP.sol\":9167:9192  uint256 maxCoin = 1400000 */\n      swap1\n      pop\n        /* \"LP/LP.sol\":9214:9259  maxCoin.mul((10**uint256(decimals))).div(sec) */\n      tag_245\n        /* \"LP/LP.sol\":9255:9258  sec */\n      dup5\n        /* \"LP/LP.sol\":9214:9250  maxCoin.mul((10**uint256(decimals))) */\n      tag_246\n        /* \"LP/LP.sol\":9239:9247  decimals */\n      sload(0x0d)\n        /* \"LP/LP.sol\":9227:9229  10 */\n      0x0a\n        /* \"LP/LP.sol\":9227:9248  10**uint256(decimals) */\n      exp\n        /* \"LP/LP.sol\":9214:9221  maxCoin */\n      dup5\n        /* \"LP/LP.sol\":9214:9225  maxCoin.mul */\n      tag_127\n      swap1\n        /* \"LP/LP.sol\":9214:9250  maxCoin.mul((10**uint256(decimals))) */\n      swap2\n      swap1\n      0xffffffff\n      and\n      jump\t// in\n    tag_246:\n        /* \"LP/LP.sol\":9214:9254  maxCoin.mul((10**uint256(decimals))).div */\n      tag_128\n      swap1\n        /* \"LP/LP.sol\":9214:9259  maxCoin.mul((10**uint256(decimals))).div(sec) */\n      swap2\n      swap1\n      0xffffffff\n      and\n      jump\t// in\n    tag_245:\n        /* \"LP/LP.sol\":9207:9259  coin = maxCoin.mul((10**uint256(decimals))).div(sec) */\n      swap2\n      pop\n        /* \"LP/LP.sol\":9108:9395  if (curTime < (stakingStartTime + 60 * 10)) {\r... */\n      pop\n      jump(tag_247)\n    tag_244:\n        /* \"LP/LP.sol\":9292:9307  uint256 maxCoin */\n      0x00\n        /* \"LP/LP.sol\":9310:9316  122300 */\n      0x01ddbc\n        /* \"LP/LP.sol\":9292:9316  uint256 maxCoin = 122300 */\n      swap1\n      pop\n        /* \"LP/LP.sol\":9338:9383  maxCoin.mul((10**uint256(decimals))).div(sec) */\n      tag_248\n        /* \"LP/LP.sol\":9379:9382  sec */\n      dup5\n        /* \"LP/LP.sol\":9338:9374  maxCoin.mul((10**uint256(decimals))) */\n      tag_249\n        /* \"LP/LP.sol\":9363:9371  decimals */\n      sload(0x0d)\n        /* \"LP/LP.sol\":9351:9353  10 */\n      0x0a\n        /* \"LP/LP.sol\":9351:9372  10**uint256(decimals) */\n      exp\n        /* \"LP/LP.sol\":9338:9345  maxCoin */\n      dup5\n        /* \"LP/LP.sol\":9338:9349  maxCoin.mul */\n      tag_127\n      swap1\n        /* \"LP/LP.sol\":9338:9374  maxCoin.mul((10**uint256(decimals))) */\n      swap2\n      swap1\n      0xffffffff\n      and\n      jump\t// in\n    tag_249:\n        /* \"LP/LP.sol\":9338:9378  maxCoin.mul((10**uint256(decimals))).div */\n      tag_128\n      swap1\n        /* \"LP/LP.sol\":9338:9383  maxCoin.mul((10**uint256(decimals))).div(sec) */\n      swap2\n      swap1\n      0xffffffff\n      and\n      jump\t// in\n    tag_248:\n        /* \"LP/LP.sol\":9331:9383  coin = maxCoin.mul((10**uint256(decimals))).div(sec) */\n      swap2\n      pop\n        /* \"LP/LP.sol\":9108:9395  if (curTime < (stakingStartTime + 60 * 10)) {\r... */\n      pop\n    tag_247:\n        /* \"LP/LP.sol\":8901:9395  if (curTime < (stakingStartTime + 60 * 5)) {\r... */\n    tag_243:\n        /* \"LP/LP.sol\":9412:9416  coin */\n      dup1\n        /* \"LP/LP.sol\":9405:9416  return coin */\n      swap4\n      pop\n      pop\n      pop\n      pop\n        /* \"LP/LP.sol\":8513:9424  function getStakingCoinPerSec() public view returns (uint256) {\r... */\n    tag_235:\n      swap1\n      jump\t// out\n        /* \"LP/LP.sol\":1975:2008  uint256 public lastUpdateTime = 0 */\n    tag_83:\n      sload(0x09)\n      dup2\n      jump\t// out\n        /* \"LP/LP.sol\":6938:7059  function totalStakingAmount() public view returns (uint256) {\r... */\n    tag_85:\n        /* \"LP/LP.sol\":6989:6996  uint256 */\n      0x00\n        /* \"LP/LP.sol\":7016:7051  this.pendingCoin().add(totalAmount) */\n      tag_251\n        /* \"LP/LP.sol\":7039:7050  totalAmount */\n      sload(0x08)\n        /* \"LP/LP.sol\":7016:7020  this */\n      address\n        /* \"LP/LP.sol\":7016:7032  this.pendingCoin */\n      0xffffffffffffffffffffffffffffffffffffffff\n      and\n      0xfc3e532b\n        /* \"LP/LP.sol\":7016:7034  this.pendingCoin() */\n      mload(0x40)\n      dup2\n      0xffffffff\n      and\n      0xe0\n      shl\n      dup2\n      mstore\n      0x04\n      add\n      0x20\n      mload(0x40)\n      dup1\n      dup4\n      sub\n      dup2\n      dup7\n      dup1\n      extcodesize\n      iszero\n      dup1\n      iszero\n      tag_252\n      jumpi\n      0x00\n      dup1\n      revert\n    tag_252:\n      pop\n      gas\n      staticcall\n      iszero\n      dup1\n      iszero\n      tag_254\n      jumpi\n      returndatasize\n      0x00\n      dup1\n      returndatacopy\n      revert(0x00, returndatasize)\n    tag_254:\n      pop\n      pop\n      pop\n      pop\n      mload(0x40)\n      returndatasize\n      0x20\n      dup2\n      lt\n      iszero\n      tag_255\n      jumpi\n      0x00\n      dup1\n      revert\n    tag_255:\n      dup2\n      add\n      swap1\n      dup1\n      dup1\n      mload\n      swap1\n      0x20\n      add\n      swap1\n      swap3\n      swap2\n      swap1\n      pop\n      pop\n      pop\n        /* \"LP/LP.sol\":7016:7038  this.pendingCoin().add */\n      tag_124\n      swap1\n        /* \"LP/LP.sol\":7016:7051  this.pendingCoin().add(totalAmount) */\n      swap2\n      swap1\n      0xffffffff\n      and\n      jump\t// in\n    tag_251:\n        /* \"LP/LP.sol\":7009:7051  return this.pendingCoin().add(totalAmount) */\n      swap1\n      pop\n        /* \"LP/LP.sol\":6938:7059  function totalStakingAmount() public view returns (uint256) {\r... */\n      swap1\n      jump\t// out\n        /* \"LP/LP.sol\":1828:1858  uint256 public accPerShare = 0 */\n    tag_87:\n      sload(0x05)\n      dup2\n      jump\t// out\n        /* \"LP/LP.sol\":8374:8471  function getEther() public view returns (uint256) {\r... */\n    tag_89:\n        /* \"LP/LP.sol\":8415:8422  uint256 */\n      0x00\n        /* \"LP/LP.sol\":8454:8462  decimals */\n      sload(0x0d)\n        /* \"LP/LP.sol\":8442:8444  10 */\n      0x0a\n        /* \"LP/LP.sol\":8442:8463  10**uint256(decimals) */\n      exp\n        /* \"LP/LP.sol\":8435:8463  return 10**uint256(decimals) */\n      swap1\n      pop\n        /* \"LP/LP.sol\":8374:8471  function getEther() public view returns (uint256) {\r... */\n      swap1\n      jump\t// out\n        /* \"LP/LP.sol\":2015:2056  uint256 public withdrawFeePeriod = 7 days */\n    tag_91:\n      sload(0x0a)\n      dup2\n      jump\t// out\n        /* \"LP/LP.sol\":6018:6608  function updatePool() public {\r... */\n    tag_93:\n        /* \"LP/LP.sol\":6058:6073  uint256 curTime */\n      0x00\n        /* \"LP/LP.sol\":6076:6085  getTime() */\n      tag_258\n        /* \"LP/LP.sol\":6076:6083  getTime */\n      tag_56\n        /* \"LP/LP.sol\":6076:6085  getTime() */\n      jump\t// in\n    tag_258:\n        /* \"LP/LP.sol\":6058:6085  uint256 curTime = getTime() */\n      swap1\n      pop\n        /* \"LP/LP.sol\":6111:6125  lastUpdateTime */\n      sload(0x09)\n        /* \"LP/LP.sol\":6100:6107  curTime */\n      dup2\n        /* \"LP/LP.sol\":6100:6125  curTime <= lastUpdateTime */\n      gt\n        /* \"LP/LP.sol\":6096:6160  if (curTime <= lastUpdateTime) {\r... */\n      tag_259\n      jumpi\n        /* \"LP/LP.sol\":6142:6149  return; */\n      pop\n      jump(tag_257)\n        /* \"LP/LP.sol\":6096:6160  if (curTime <= lastUpdateTime) {\r... */\n    tag_259:\n        /* \"LP/LP.sol\":6170:6181  uint256 lpb */\n      0x00\n        /* \"LP/LP.sol\":6184:6195  lpBalance() */\n      tag_260\n        /* \"LP/LP.sol\":6184:6193  lpBalance */\n      tag_47\n        /* \"LP/LP.sol\":6184:6195  lpBalance() */\n      jump\t// in\n    tag_260:\n        /* \"LP/LP.sol\":6170:6195  uint256 lpb = lpBalance() */\n      swap1\n      pop\n        /* \"LP/LP.sol\":6217:6218  0 */\n      0x00\n        /* \"LP/LP.sol\":6210:6213  lpb */\n      dup2\n        /* \"LP/LP.sol\":6210:6218  lpb <= 0 */\n      gt\n        /* \"LP/LP.sol\":6206:6292  if (lpb <= 0) {\r... */\n      tag_261\n      jumpi\n        /* \"LP/LP.sol\":6252:6259  curTime */\n      dup2\n        /* \"LP/LP.sol\":6235:6249  lastUpdateTime */\n      0x09\n        /* \"LP/LP.sol\":6235:6259  lastUpdateTime = curTime */\n      dup2\n      swap1\n      sstore\n      pop\n        /* \"LP/LP.sol\":6274:6281  return; */\n      pop\n      pop\n      jump(tag_257)\n        /* \"LP/LP.sol\":6206:6292  if (lpb <= 0) {\r... */\n    tag_261:\n        /* \"LP/LP.sol\":6304:6322  uint256 multiplier */\n      0x00\n        /* \"LP/LP.sol\":6331:6345  lastUpdateTime */\n      sload(0x09)\n        /* \"LP/LP.sol\":6325:6328  now */\n      timestamp\n        /* \"LP/LP.sol\":6325:6345  now - lastUpdateTime */\n      sub\n        /* \"LP/LP.sol\":6304:6345  uint256 multiplier = now - lastUpdateTime */\n      swap1\n      pop\n        /* \"LP/LP.sol\":6356:6370  uint256 reward */\n      0x00\n        /* \"LP/LP.sol\":6373:6411  multiplier.mul(getStakingCoinPerSec()) */\n      tag_262\n        /* \"LP/LP.sol\":6388:6410  getStakingCoinPerSec() */\n      tag_263\n        /* \"LP/LP.sol\":6388:6408  getStakingCoinPerSec */\n      tag_81\n        /* \"LP/LP.sol\":6388:6410  getStakingCoinPerSec() */\n      jump\t// in\n    tag_263:\n        /* \"LP/LP.sol\":6373:6383  multiplier */\n      dup4\n        /* \"LP/LP.sol\":6373:6387  multiplier.mul */\n      tag_127\n      swap1\n        /* \"LP/LP.sol\":6373:6411  multiplier.mul(getStakingCoinPerSec()) */\n      swap2\n      swap1\n      0xffffffff\n      and\n      jump\t// in\n    tag_262:\n        /* \"LP/LP.sol\":6356:6411  uint256 reward = multiplier.mul(getStakingCoinPerSec()) */\n      swap1\n      pop\n        /* \"LP/LP.sol\":6439:6446  curTime */\n      dup4\n        /* \"LP/LP.sol\":6422:6436  lastUpdateTime */\n      0x09\n        /* \"LP/LP.sol\":6422:6446  lastUpdateTime = curTime */\n      dup2\n      swap1\n      sstore\n      pop\n        /* \"LP/LP.sol\":6471:6494  totalAmount.add(reward) */\n      tag_264\n        /* \"LP/LP.sol\":6487:6493  reward */\n      dup2\n        /* \"LP/LP.sol\":6471:6482  totalAmount */\n      sload(0x08)\n        /* \"LP/LP.sol\":6471:6486  totalAmount.add */\n      tag_124\n      swap1\n        /* \"LP/LP.sol\":6471:6494  totalAmount.add(reward) */\n      swap2\n      swap1\n      0xffffffff\n      and\n      jump\t// in\n    tag_264:\n        /* \"LP/LP.sol\":6457:6468  totalAmount */\n      0x08\n        /* \"LP/LP.sol\":6457:6494  totalAmount = totalAmount.add(reward) */\n      dup2\n      swap1\n      sstore\n      pop\n        /* \"LP/LP.sol\":6519:6556  accPerShare.add(divFloor(reward,lpb)) */\n      tag_265\n        /* \"LP/LP.sol\":6535:6555  divFloor(reward,lpb) */\n      tag_266\n        /* \"LP/LP.sol\":6544:6550  reward */\n      dup3\n        /* \"LP/LP.sol\":6551:6554  lpb */\n      dup6\n        /* \"LP/LP.sol\":6535:6543  divFloor */\n      tag_164\n        /* \"LP/LP.sol\":6535:6555  divFloor(reward,lpb) */\n      jump\t// in\n    tag_266:\n        /* \"LP/LP.sol\":6519:6530  accPerShare */\n      sload(0x05)\n        /* \"LP/LP.sol\":6519:6534  accPerShare.add */\n      tag_124\n      swap1\n        /* \"LP/LP.sol\":6519:6556  accPerShare.add(divFloor(reward,lpb)) */\n      swap2\n      swap1\n      0xffffffff\n      and\n      jump\t// in\n    tag_265:\n        /* \"LP/LP.sol\":6505:6516  accPerShare */\n      0x05\n        /* \"LP/LP.sol\":6505:6556  accPerShare = accPerShare.add(divFloor(reward,lpb)) */\n      dup2\n      swap1\n      sstore\n      pop\n        /* \"LP/LP.sol\":6567:6572  poker */\n      0x00\n      dup1\n      sload\n      swap1\n      0x0100\n      exp\n      swap1\n      div\n      0xffffffffffffffffffffffffffffffffffffffff\n      and\n        /* \"LP/LP.sol\":6567:6577  poker.mint */\n      0xffffffffffffffffffffffffffffffffffffffff\n      and\n      0x40c10f19\n        /* \"LP/LP.sol\":6586:6590  this */\n      address\n        /* \"LP/LP.sol\":6593:6599  reward */\n      dup4\n        /* \"LP/LP.sol\":6567:6600  poker.mint(address(this), reward) */\n      mload(0x40)\n      dup4\n      0xffffffff\n      and\n      0xe0\n      shl\n      dup2\n      mstore\n      0x04\n      add\n      dup1\n      dup4\n      0xffffffffffffffffffffffffffffffffffffffff\n      and\n      dup2\n      mstore\n      0x20\n      add\n      dup3\n      dup2\n      mstore\n      0x20\n      add\n      swap3\n      pop\n      pop\n      pop\n      0x00\n      mload(0x40)\n      dup1\n      dup4\n      sub\n      dup2\n      0x00\n      dup8\n      dup1\n      extcodesize\n      iszero\n      dup1\n      iszero\n      tag_267\n      jumpi\n      0x00\n      dup1\n      revert\n    tag_267:\n      pop\n      gas\n      call\n      iszero\n      dup1\n      iszero\n      tag_269\n      jumpi\n      returndatasize\n      0x00\n      dup1\n      returndatacopy\n      revert(0x00, returndatasize)\n    tag_269:\n      pop\n      pop\n      pop\n      pop\n        /* \"LP/LP.sol\":6018:6608  function updatePool() public {\r... */\n      pop\n      pop\n      pop\n      pop\n    tag_257:\n      jump\t// out\n        /* \"LP/LP.sol\":2188:2221  bool public stakingSwitch = false */\n    tag_95:\n      0x0c\n      0x00\n      swap1\n      sload\n      swap1\n      0x0100\n      exp\n      swap1\n      div\n      0xff\n      and\n      dup2\n      jump\t// out\n        /* \"LP/LP.sol\":10267:10381  function setLp(ILPToken _lp) public {\r... */\n    tag_98:\n        /* \"LP/LP.sol\":10332:10337  owner */\n      0x03\n      0x00\n      swap1\n      sload\n      swap1\n      0x0100\n      exp\n      swap1\n      div\n      0xffffffffffffffffffffffffffffffffffffffff\n      and\n        /* \"LP/LP.sol\":10318:10337  msg.sender == owner */\n      0xffffffffffffffffffffffffffffffffffffffff\n      and\n        /* \"LP/LP.sol\":10318:10328  msg.sender */\n      caller\n        /* \"LP/LP.sol\":10318:10337  msg.sender == owner */\n      0xffffffffffffffffffffffffffffffffffffffff\n      and\n      eq\n        /* \"LP/LP.sol\":10314:10374  if (msg.sender == owner) {\r... */\n      iszero\n      tag_271\n      jumpi\n        /* \"LP/LP.sol\":10359:10362  _lp */\n      dup1\n        /* \"LP/LP.sol\":10354:10356  lp */\n      0x01\n      0x00\n        /* \"LP/LP.sol\":10354:10362  lp = _lp */\n      0x0100\n      exp\n      dup2\n      sload\n      dup2\n      0xffffffffffffffffffffffffffffffffffffffff\n      mul\n      not\n      and\n      swap1\n      dup4\n      0xffffffffffffffffffffffffffffffffffffffff\n      and\n      mul\n      or\n      swap1\n      sstore\n      pop\n        /* \"LP/LP.sol\":10314:10374  if (msg.sender == owner) {\r... */\n    tag_271:\n        /* \"LP/LP.sol\":10267:10381  function setLp(ILPToken _lp) public {\r... */\n      pop\n      jump\t// out\n        /* \"LP/LP.sol\":6616:6930  function pendingCoin() external view returns (uint256) {\r... */\n    tag_100:\n        /* \"LP/LP.sol\":6662:6669  uint256 */\n      0x00\n        /* \"LP/LP.sol\":6682:6697  uint256 curTime */\n      dup1\n        /* \"LP/LP.sol\":6700:6709  getTime() */\n      tag_273\n        /* \"LP/LP.sol\":6700:6707  getTime */\n      tag_56\n        /* \"LP/LP.sol\":6700:6709  getTime() */\n      jump\t// in\n    tag_273:\n        /* \"LP/LP.sol\":6682:6709  uint256 curTime = getTime() */\n      swap1\n      pop\n        /* \"LP/LP.sol\":6739:6740  0 */\n      0x00\n        /* \"LP/LP.sol\":6724:6735  lpBalance() */\n      tag_274\n        /* \"LP/LP.sol\":6724:6733  lpBalance */\n      tag_47\n        /* \"LP/LP.sol\":6724:6735  lpBalance() */\n      jump\t// in\n    tag_274:\n        /* \"LP/LP.sol\":6724:6740  lpBalance() <= 0 */\n      gt\n        /* \"LP/LP.sol\":6720:6777  if (lpBalance() <= 0) {\r... */\n      tag_275\n      jumpi\n        /* \"LP/LP.sol\":6764:6765  0 */\n      0x00\n        /* \"LP/LP.sol\":6757:6765  return 0 */\n      swap2\n      pop\n      pop\n      jump(tag_272)\n        /* \"LP/LP.sol\":6720:6777  if (lpBalance() <= 0) {\r... */\n    tag_275:\n        /* \"LP/LP.sol\":6787:6805  uint256 multiplier */\n      0x00\n        /* \"LP/LP.sol\":6818:6832  lastUpdateTime */\n      sload(0x09)\n        /* \"LP/LP.sol\":6808:6815  curTime */\n      dup3\n        /* \"LP/LP.sol\":6808:6832  curTime - lastUpdateTime */\n      sub\n        /* \"LP/LP.sol\":6787:6832  uint256 multiplier = curTime - lastUpdateTime */\n      swap1\n      pop\n        /* \"LP/LP.sol\":6843:6857  uint256 reward */\n      0x00\n        /* \"LP/LP.sol\":6860:6898  multiplier.mul(getStakingCoinPerSec()) */\n      tag_276\n        /* \"LP/LP.sol\":6875:6897  getStakingCoinPerSec() */\n      tag_277\n        /* \"LP/LP.sol\":6875:6895  getStakingCoinPerSec */\n      tag_81\n        /* \"LP/LP.sol\":6875:6897  getStakingCoinPerSec() */\n      jump\t// in\n    tag_277:\n        /* \"LP/LP.sol\":6860:6870  multiplier */\n      dup4\n        /* \"LP/LP.sol\":6860:6874  multiplier.mul */\n      tag_127\n      swap1\n        /* \"LP/LP.sol\":6860:6898  multiplier.mul(getStakingCoinPerSec()) */\n      swap2\n      swap1\n      0xffffffff\n      and\n      jump\t// in\n    tag_276:\n        /* \"LP/LP.sol\":6843:6898  uint256 reward = multiplier.mul(getStakingCoinPerSec()) */\n      swap1\n      pop\n        /* \"LP/LP.sol\":6916:6922  reward */\n      dup1\n        /* \"LP/LP.sol\":6909:6922  return reward */\n      swap4\n      pop\n      pop\n      pop\n      pop\n        /* \"LP/LP.sol\":6616:6930  function pendingCoin() external view returns (uint256) {\r... */\n    tag_272:\n      swap1\n      jump\t// out\n        /* \"_lib/SafeMath.sol\":773:957  function sub(uint256 a, uint256 b) internal pure returns (uint256) {\r... */\n    tag_115:\n        /* \"_lib/SafeMath.sol\":831:838  uint256 */\n      0x00\n        /* \"_lib/SafeMath.sol\":864:865  a */\n      dup3\n        /* \"_lib/SafeMath.sol\":859:860  b */\n      dup3\n        /* \"_lib/SafeMath.sol\":859:865  b <= a */\n      gt\n      iszero\n        /* \"_lib/SafeMath.sol\":851:900  require(b <= a, \"SafeMath: subtraction overflow\") */\n      tag_279\n      jumpi\n      mload(0x40)\n      0x08c379a000000000000000000000000000000000000000000000000000000000\n      dup2\n      mstore\n      0x04\n      add\n      dup1\n      dup1\n      0x20\n      add\n      dup3\n      dup2\n      sub\n      dup3\n      mstore\n      0x1e\n      dup2\n      mstore\n      0x20\n      add\n      dup1\n      0x536166654d6174683a207375627472616374696f6e206f766572666c6f770000\n      dup2\n      mstore\n      pop\n      0x20\n      add\n      swap2\n      pop\n      pop\n      mload(0x40)\n      dup1\n      swap2\n      sub\n      swap1\n      revert\n    tag_279:\n        /* \"_lib/SafeMath.sol\":911:920  uint256 c */\n      0x00\n        /* \"_lib/SafeMath.sol\":927:928  b */\n      dup3\n        /* \"_lib/SafeMath.sol\":923:924  a */\n      dup5\n        /* \"_lib/SafeMath.sol\":923:928  a - b */\n      sub\n        /* \"_lib/SafeMath.sol\":911:928  uint256 c = a - b */\n      swap1\n      pop\n        /* \"_lib/SafeMath.sol\":948:949  c */\n      dup1\n        /* \"_lib/SafeMath.sol\":941:949  return c */\n      swap2\n      pop\n      pop\n        /* \"_lib/SafeMath.sol\":773:957  function sub(uint256 a, uint256 b) internal pure returns (uint256) {\r... */\n      swap3\n      swap2\n      pop\n      pop\n      jump\t// out\n        /* \"LP/LP.sol\":2425:2549  function decimalMul(uint256 target, uint256 d) internal pure returns (uint256) {\r... */\n    tag_123:\n        /* \"LP/LP.sol\":2495:2502  uint256 */\n      0x00\n        /* \"LP/LP.sol\":2281:2287  10**18 */\n      0x0de0b6b3a7640000\n        /* \"LP/LP.sol\":2522:2535  target.mul(d) */\n      tag_281\n        /* \"LP/LP.sol\":2533:2534  d */\n      dup4\n        /* \"LP/LP.sol\":2522:2528  target */\n      dup6\n        /* \"LP/LP.sol\":2522:2532  target.mul */\n      tag_127\n      swap1\n        /* \"LP/LP.sol\":2522:2535  target.mul(d) */\n      swap2\n      swap1\n      0xffffffff\n      and\n      jump\t// in\n    tag_281:\n        /* \"LP/LP.sol\":2522:2541  target.mul(d) / ONE */\n      dup2\n      tag_282\n      jumpi\n      invalid\n    tag_282:\n      div\n        /* \"LP/LP.sol\":2515:2541  return target.mul(d) / ONE */\n      swap1\n      pop\n        /* \"LP/LP.sol\":2425:2549  function decimalMul(uint256 target, uint256 d) internal pure returns (uint256) {\r... */\n      swap3\n      swap2\n      pop\n      pop\n      jump\t// out\n        /* \"_lib/SafeMath.sol\":317:498  function add(uint256 a, uint256 b) internal pure returns (uint256) {\r... */\n    tag_124:\n        /* \"_lib/SafeMath.sol\":375:382  uint256 */\n      0x00\n        /* \"_lib/SafeMath.sol\":395:404  uint256 c */\n      dup1\n        /* \"_lib/SafeMath.sol\":411:412  b */\n      dup3\n        /* \"_lib/SafeMath.sol\":407:408  a */\n      dup5\n        /* \"_lib/SafeMath.sol\":407:412  a + b */\n      add\n        /* \"_lib/SafeMath.sol\":395:412  uint256 c = a + b */\n      swap1\n      pop\n        /* \"_lib/SafeMath.sol\":436:437  a */\n      dup4\n        /* \"_lib/SafeMath.sol\":431:432  c */\n      dup2\n        /* \"_lib/SafeMath.sol\":431:437  c >= a */\n      lt\n      iszero\n        /* \"_lib/SafeMath.sol\":423:469  require(c >= a, \"SafeMath: addition overflow\") */\n      tag_284\n      jumpi\n      mload(0x40)\n      0x08c379a000000000000000000000000000000000000000000000000000000000\n      dup2\n      mstore\n      0x04\n      add\n      dup1\n      dup1\n      0x20\n      add\n      dup3\n      dup2\n      sub\n      dup3\n      mstore\n      0x1b\n      dup2\n      mstore\n      0x20\n      add\n      dup1\n      0x536166654d6174683a206164646974696f6e206f766572666c6f770000000000\n      dup2\n      mstore\n      pop\n      0x20\n      add\n      swap2\n      pop\n      pop\n      mload(0x40)\n      dup1\n      swap2\n      sub\n      swap1\n      revert\n    tag_284:\n        /* \"_lib/SafeMath.sol\":489:490  c */\n      dup1\n        /* \"_lib/SafeMath.sol\":482:490  return c */\n      swap2\n      pop\n      pop\n        /* \"_lib/SafeMath.sol\":317:498  function add(uint256 a, uint256 b) internal pure returns (uint256) {\r... */\n      swap3\n      swap2\n      pop\n      pop\n      jump\t// out\n        /* \"_lib/SafeMath.sol\":1208:1678  function mul(uint256 a, uint256 b) internal pure returns (uint256) {\r... */\n    tag_127:\n        /* \"_lib/SafeMath.sol\":1266:1273  uint256 */\n      0x00\n        /* \"_lib/SafeMath.sol\":1515:1516  0 */\n      dup1\n        /* \"_lib/SafeMath.sol\":1510:1511  a */\n      dup4\n        /* \"_lib/SafeMath.sol\":1510:1516  a == 0 */\n      eq\n        /* \"_lib/SafeMath.sol\":1506:1553  if (a == 0) {\r... */\n      iszero\n      tag_286\n      jumpi\n        /* \"_lib/SafeMath.sol\":1540:1541  0 */\n      0x00\n        /* \"_lib/SafeMath.sol\":1533:1541  return 0 */\n      swap1\n      pop\n      jump(tag_285)\n        /* \"_lib/SafeMath.sol\":1506:1553  if (a == 0) {\r... */\n    tag_286:\n        /* \"_lib/SafeMath.sol\":1565:1574  uint256 c */\n      0x00\n        /* \"_lib/SafeMath.sol\":1581:1582  b */\n      dup3\n        /* \"_lib/SafeMath.sol\":1577:1578  a */\n      dup5\n        /* \"_lib/SafeMath.sol\":1577:1582  a * b */\n      mul\n        /* \"_lib/SafeMath.sol\":1565:1582  uint256 c = a * b */\n      swap1\n      pop\n        /* \"_lib/SafeMath.sol\":1610:1611  b */\n      dup3\n        /* \"_lib/SafeMath.sol\":1605:1606  a */\n      dup5\n        /* \"_lib/SafeMath.sol\":1601:1602  c */\n      dup3\n        /* \"_lib/SafeMath.sol\":1601:1606  c / a */\n      dup2\n      tag_287\n      jumpi\n      invalid\n    tag_287:\n      div\n        /* \"_lib/SafeMath.sol\":1601:1611  c / a == b */\n      eq\n        /* \"_lib/SafeMath.sol\":1593:1649  require(c / a == b, \"SafeMath: multiplication overflow\") */\n      tag_288\n      jumpi\n      mload(0x40)\n      0x08c379a000000000000000000000000000000000000000000000000000000000\n      dup2\n      mstore\n      0x04\n      add\n      dup1\n      dup1\n      0x20\n      add\n      dup3\n      dup2\n      sub\n      dup3\n      mstore\n      0x21\n      dup2\n      mstore\n      0x20\n      add\n      dup1\n      data_9113bb53c2876a3805b2c9242029423fc540a728243ce887ab24c82cf119fba3\n      0x21\n      swap2\n      codecopy\n      0x40\n      add\n      swap2\n      pop\n      pop\n      mload(0x40)\n      dup1\n      swap2\n      sub\n      swap1\n      revert\n    tag_288:\n        /* \"_lib/SafeMath.sol\":1669:1670  c */\n      dup1\n        /* \"_lib/SafeMath.sol\":1662:1670  return c */\n      swap2\n      pop\n      pop\n        /* \"_lib/SafeMath.sol\":1208:1678  function mul(uint256 a, uint256 b) internal pure returns (uint256) {\r... */\n    tag_285:\n      swap3\n      swap2\n      pop\n      pop\n      jump\t// out\n        /* \"_lib/SafeMath.sol\":2146:2479  function div(uint256 a, uint256 b) internal pure returns (uint256) {\r... */\n    tag_128:\n        /* \"_lib/SafeMath.sol\":2204:2211  uint256 */\n      0x00\n        /* \"_lib/SafeMath.sol\":2303:2304  0 */\n      dup1\n        /* \"_lib/SafeMath.sol\":2299:2300  b */\n      dup3\n        /* \"_lib/SafeMath.sol\":2299:2304  b > 0 */\n      gt\n        /* \"_lib/SafeMath.sol\":2291:2335  require(b > 0, \"SafeMath: division by zero\") */\n      tag_290\n      jumpi\n      mload(0x40)\n      0x08c379a000000000000000000000000000000000000000000000000000000000\n      dup2\n      mstore\n      0x04\n      add\n      dup1\n      dup1\n      0x20\n      add\n      dup3\n      dup2\n      sub\n      dup3\n      mstore\n      0x1a\n      dup2\n      mstore\n      0x20\n      add\n      dup1\n      0x536166654d6174683a206469766973696f6e206279207a65726f000000000000\n      dup2\n      mstore\n      pop\n      0x20\n      add\n      swap2\n      pop\n      pop\n      mload(0x40)\n      dup1\n      swap2\n      sub\n      swap1\n      revert\n    tag_290:\n        /* \"_lib/SafeMath.sol\":2346:2355  uint256 c */\n      0x00\n        /* \"_lib/SafeMath.sol\":2362:2363  b */\n      dup3\n        /* \"_lib/SafeMath.sol\":2358:2359  a */\n      dup5\n        /* \"_lib/SafeMath.sol\":2358:2363  a / b */\n      dup2\n      tag_291\n      jumpi\n      invalid\n    tag_291:\n      div\n        /* \"_lib/SafeMath.sol\":2346:2363  uint256 c = a / b */\n      swap1\n      pop\n        /* \"_lib/SafeMath.sol\":2470:2471  c */\n      dup1\n        /* \"_lib/SafeMath.sol\":2463:2471  return c */\n      swap2\n      pop\n      pop\n        /* \"_lib/SafeMath.sol\":2146:2479  function div(uint256 a, uint256 b) internal pure returns (uint256) {\r... */\n      swap3\n      swap2\n      pop\n      pop\n      jump\t// out\n        /* \"LP/LP.sol\":2294:2419  function divFloor(uint256 target, uint256 d) internal pure returns (uint256) {\r... */\n    tag_164:\n        /* \"LP/LP.sol\":2362:2369  uint256 */\n      0x00\n        /* \"LP/LP.sol\":2389:2411  target.mul(ONE).div(d) */\n      tag_293\n        /* \"LP/LP.sol\":2409:2410  d */\n      dup3\n        /* \"LP/LP.sol\":2389:2404  target.mul(ONE) */\n      tag_294\n        /* \"LP/LP.sol\":2281:2287  10**18 */\n      0x0de0b6b3a7640000\n        /* \"LP/LP.sol\":2389:2395  target */\n      dup7\n        /* \"LP/LP.sol\":2389:2399  target.mul */\n      tag_127\n      swap1\n        /* \"LP/LP.sol\":2389:2404  target.mul(ONE) */\n      swap2\n      swap1\n      0xffffffff\n      and\n      jump\t// in\n    tag_294:\n        /* \"LP/LP.sol\":2389:2408  target.mul(ONE).div */\n      tag_128\n      swap1\n        /* \"LP/LP.sol\":2389:2411  target.mul(ONE).div(d) */\n      swap2\n      swap1\n      0xffffffff\n      and\n      jump\t// in\n    tag_293:\n        /* \"LP/LP.sol\":2382:2411  return target.mul(ONE).div(d) */\n      swap1\n      pop\n        /* \"LP/LP.sol\":2294:2419  function divFloor(uint256 target, uint256 d) internal pure returns (uint256) {\r... */\n      swap3\n      swap2\n      pop\n      pop\n      jump\t// out\n    stop\n    data_9113bb53c2876a3805b2c9242029423fc540a728243ce887ab24c82cf119fba3 536166654d6174683a206d756c7469706c69636174696f6e206f766572666c6f77\n\n    auxdata: 0xa26469706673582212204bf5e2c7d008fb9482ac42cb4a3af994e6aa6163c699b03f871ff510a0bee3a864736f6c634300060c0033\n}\n",
				"bytecode": {
					"linkReferences": {},
					"object": "60806040526000600555600060065560006007556000600855600060095562093a80600a556000600b556000600c60006101000a81548160ff0219169083151502179055506012600d5534801561005557600080fd5b5060405161236c38038061236c8339818101604052606081101561007857600080fd5b81019080805190602001909291908051906020019092919080519060200190929190505050826000806101000a81548173ffffffffffffffffffffffffffffffffffffffff021916908373ffffffffffffffffffffffffffffffffffffffff16021790555033600360006101000a81548173ffffffffffffffffffffffffffffffffffffffff021916908373ffffffffffffffffffffffffffffffffffffffff16021790555061012c6101bc60201b60201c565b60098190555080600260006101000a81548173ffffffffffffffffffffffffffffffffffffffff021916908373ffffffffffffffffffffffffffffffffffffffff16021790555081600160006101000a81548173ffffffffffffffffffffffffffffffffffffffff021916908373ffffffffffffffffffffffffffffffffffffffff1602179055505050506101c4565b600042905090565b612199806101d36000396000f3fe608060405234801561001057600080fd5b50600436106101c45760003560e01c80638705fcd4116100f9578063d2890a0111610097578063e3161ddd11610071578063e3161ddd14610598578063e6fa445d146105a2578063f4c2baa9146105c2578063fc3e532b14610606576101c4565b8063d2890a011461053e578063de0ff7c51461055c578063df10b4e61461057a576101c4565b8063b6b55f25116100d3578063b6b55f25146104b6578063b8a3b366146104e4578063c8f33c9114610502578063d201114a14610520576101c4565b80638705fcd4146104205780638da5cb5b14610464578063936b6cec14610498576101c4565b8063557ed1ba116101665780636d3c832f116101405780636d3c832f1461039657806377926869146103b45780637b27c1d1146103d257806381ad5718146103f0576101c4565b8063557ed1ba146103265780636abfd183146103445780636af04a5714610362576101c4565b80632059f615116101a25780632059f6151461029e5780632e1a7d4d146102bc5780633a98ef39146102ea57806347f1aae714610308576101c4565b80630b26b6a8146101c95780631959a002146101f75780631a39d8ef14610280575b600080fd5b6101f5600480360360208110156101df57600080fd5b8101908080359060200190929190505050610624565b005b6102396004803603602081101561020d57600080fd5b81019080803573ffffffffffffffffffffffffffffffffffffffff1690602001909291905050506108af565b604051808981526020018881526020018781526020018681526020018581526020018481526020018381526020018281526020019850505050505050505060405180910390f35b6102886108f7565b6040518082815260200191505060405180910390f35b6102a66108fd565b6040518082815260200191505060405180910390f35b6102e8600480360360208110156102d257600080fd5b81019080803590602001909291905050506109dc565b005b6102f2610f95565b6040518082815260200191505060405180910390f35b610310610f9b565b6040518082815260200191505060405180910390f35b61032e6110e2565b6040518082815260200191505060405180910390f35b61034c6110ea565b6040518082815260200191505060405180910390f35b61036a6110f0565b604051808273ffffffffffffffffffffffffffffffffffffffff16815260200191505060405180910390f35b61039e611116565b6040518082815260200191505060405180910390f35b6103bc61111c565b6040518082815260200191505060405180910390f35b6103da611226565b6040518082815260200191505060405180910390f35b61041e6004803603602081101561040657600080fd5b810190808035151590602001909291905050506112f0565b005b6104626004803603602081101561043657600080fd5b81019080803573ffffffffffffffffffffffffffffffffffffffff169060200190929190505050611386565b005b61046c61156b565b604051808273ffffffffffffffffffffffffffffffffffffffff16815260200191505060405180910390f35b6104a0611591565b6040518082815260200191505060405180910390f35b6104e2600480360360208110156104cc57600080fd5b81019080803590602001909291905050506116dc565b005b6104ec611a55565b6040518082815260200191505060405180910390f35b61050a611b9d565b6040518082815260200191505060405180910390f35b610528611ba3565b6040518082815260200191505060405180910390f35b610546611c3f565b6040518082815260200191505060405180910390f35b610564611c45565b6040518082815260200191505060405180910390f35b610582611c52565b6040518082815260200191505060405180910390f35b6105a0611c58565b005b6105aa611db2565b60405180821515815260200191505060405180910390f35b610604600480360360208110156105d857600080fd5b81019080803573ffffffffffffffffffffffffffffffffffffffff169060200190929190505050611dc5565b005b61060e611e60565b6040518082815260200191505060405180910390f35b600360009054906101000a900473ffffffffffffffffffffffffffffffffffffffff1673ffffffffffffffffffffffffffffffffffffffff163373ffffffffffffffffffffffffffffffffffffffff161461067e57600080fd5b600073ffffffffffffffffffffffffffffffffffffffff16600460009054906101000a900473ffffffffffffffffffffffffffffffffffffffff1673ffffffffffffffffffffffffffffffffffffffff161415610743576040517f08c379a000000000000000000000000000000000000000000000000000000000815260040180806020018281038252600d8152602001807f7472616e7366657220746f20300000000000000000000000000000000000000081525060200191505060405180910390fd5b8060065410156107bb576040517f08c379a000000000000000000000000000000000000000000000000000000000815260040180806020018281038252600a8152602001807f6e6f7420656e6f7567680000000000000000000000000000000000000000000081525060200191505060405180910390fd5b600160009054906101000a900473ffffffffffffffffffffffffffffffffffffffff1673ffffffffffffffffffffffffffffffffffffffff1663a9059cbb600460009054906101000a900473ffffffffffffffffffffffffffffffffffffffff16836040518363ffffffff1660e01b8152600401808373ffffffffffffffffffffffffffffffffffffffff16815260200182815260200192505050602060405180830381600087803b15801561087057600080fd5b505af1158015610884573d6000803e3d6000fd5b505050506040513d602081101561089a57600080fd5b81019080805190602001909291905050505050565b600e6020528060005260406000206000915090508060000154908060010154908060020154908060030154908060040154908060050154908060060154908060070154905088565b60085481565b60006109d7600654600160009054906101000a900473ffffffffffffffffffffffffffffffffffffffff1673ffffffffffffffffffffffffffffffffffffffff166370a08231306040518263ffffffff1660e01b8152600401808273ffffffffffffffffffffffffffffffffffffffff16815260200191505060206040518083038186803b15801561098e57600080fd5b505afa1580156109a2573d6000803e3d6000fd5b505050506040513d60208110156109b857600080fd5b8101908080519060200190929190505050611eb790919063ffffffff16565b905090565b6000600e60003373ffffffffffffffffffffffffffffffffffffffff1673ffffffffffffffffffffffffffffffffffffffff168152602001908152602001600020905060008211610a95576040517f08c379a00000000000000000000000000000000000000000000000000000000081526004018080602001828103825260138152602001807f4e6f7468696e6720746f2077697468647261770000000000000000000000000081525060200191505060405180910390fd5b8060000154821115610b0f576040517f08c379a000000000000000000000000000000000000000000000000000000000815260040180806020018281038252601f8152602001807f576974686472617720616d6f756e7420657863656564732062616c616e63650081525060200191505060405180910390fd5b610b17611c58565b6000610b558260060154610b478460050154610b398660070154600554611f40565b611eb790919063ffffffff16565b611f6e90919063ffffffff16565b90506000610b828360000154610b748685611ff690919063ffffffff16565b61207c90919063ffffffff16565b90506000610bb38460000154610ba5878760070154611ff690919063ffffffff16565b61207c90919063ffffffff16565b9050610bcc858560000154611eb790919063ffffffff16565b8460000181905550610be985600754611eb790919063ffffffff16565b600781905550816008541015610c67576040517f08c379a000000000000000000000000000000000000000000000000000000000815260040180806020018281038252601f8152602001807f576974686472617720616d6f756e7420657863656564732062616c616e63650081525060200191505060405180910390fd5b610c7c82600854611eb790919063ffffffff16565b600881905550610c958284611eb790919063ffffffff16565b8460060181905550610cb4818560070154611eb790919063ffffffff16565b8460070181905550610cd5600a548560010154611f6e90919063ffffffff16565b610cdd6110e2565b1015610d41576000610d0d612710610cff606485611ff690919063ffffffff16565b61207c90919063ffffffff16565b9050610d228183611eb790919063ffffffff16565b9150610d3981600654611f6e90919063ffffffff16565b600681905550505b600160009054906101000a900473ffffffffffffffffffffffffffffffffffffffff1673ffffffffffffffffffffffffffffffffffffffff1663a9059cbb33836040518363ffffffff1660e01b8152600401808373ffffffffffffffffffffffffffffffffffffffff16815260200182815260200192505050602060405180830381600087803b158015610dd457600080fd5b505af1158015610de8573d6000803e3d6000fd5b505050506040513d6020811015610dfe57600080fd5b81019080805190602001909291905050505060008054906101000a900473ffffffffffffffffffffffffffffffffffffffff1673ffffffffffffffffffffffffffffffffffffffff1663a9059cbb33846040518363ffffffff1660e01b8152600401808373ffffffffffffffffffffffffffffffffffffffff16815260200182815260200192505050602060405180830381600087803b158015610ea157600080fd5b505af1158015610eb5573d6000803e3d6000fd5b505050506040513d6020811015610ecb57600080fd5b810190808051906020019092919050505050600084600001541115610f2457610efa8460070154600554611f40565b8460050181905550610f0a61111c565b846004018190555083600601548460030181905550610f2f565b600084600401819055505b4284600201819055503373ffffffffffffffffffffffffffffffffffffffff167ff279e6a1f5e320cca91135676d9cb6e44ca8a08c0b88342bcdb1144f6511b5688387604051808381526020018281526020019250505060405180910390a25050505050565b60075481565b6000806110436110323073ffffffffffffffffffffffffffffffffffffffff1663fc3e532b6040518163ffffffff1660e01b815260040160206040518083038186803b158015610fea57600080fd5b505afa158015610ffe573d6000803e3d6000fd5b505050506040513d602081101561101457600080fd5b810190808051906020019092919050505061102d6108fd565b61210b565b600554611f6e90919063ffffffff16565b90506000600e60003373ffffffffffffffffffffffffffffffffffffffff1673ffffffffffffffffffffffffffffffffffffffff16815260200190815260200160002090506000816000015414156110a0576000925050506110df565b6110da81600601546110cc83600501546110be856007015487611f40565b611eb790919063ffffffff16565b611f6e90919063ffffffff16565b925050505b90565b600042905090565b600b5481565b600460009054906101000a900473ffffffffffffffffffffffffffffffffffffffff1681565b60065481565b6000806111276108fd565b9050600081141561113c576000915050611223565b60006111dc6111cb3073ffffffffffffffffffffffffffffffffffffffff1663fc3e532b6040518163ffffffff1660e01b815260040160206040518083038186803b15801561118a57600080fd5b505afa15801561119e573d6000803e3d6000fd5b505050506040513d60208110156111b457600080fd5b81019080805190602001909291905050508461210b565b600554611f6e90919063ffffffff16565b905061121e600754611210836112026111f3611c45565b87611ff690919063ffffffff16565b611ff690919063ffffffff16565b61207c90919063ffffffff16565b925050505b90565b60008060009054906101000a900473ffffffffffffffffffffffffffffffffffffffff1673ffffffffffffffffffffffffffffffffffffffff166370a08231306040518263ffffffff1660e01b8152600401808273ffffffffffffffffffffffffffffffffffffffff16815260200191505060206040518083038186803b1580156112b057600080fd5b505afa1580156112c4573d6000803e3d6000fd5b505050506040513d60208110156112da57600080fd5b8101908080519060200190929190505050905090565b600360009054906101000a900473ffffffffffffffffffffffffffffffffffffffff1673ffffffffffffffffffffffffffffffffffffffff163373ffffffffffffffffffffffffffffffffffffffff16141561138357801561135f576113546110e2565b600b81905550611368565b6000600b819055505b80600c60006101000a81548160ff0219169083151502179055505b50565b600360009054906101000a900473ffffffffffffffffffffffffffffffffffffffff1673ffffffffffffffffffffffffffffffffffffffff163373ffffffffffffffffffffffffffffffffffffffff16146113e057600080fd5b600073ffffffffffffffffffffffffffffffffffffffff168173ffffffffffffffffffffffffffffffffffffffff161415611483576040517f08c379a00000000000000000000000000000000000000000000000000000000081526004018080602001828103825260088152602001807f73657420746f203000000000000000000000000000000000000000000000000081525060200191505060405180910390fd5b61dead73ffffffffffffffffffffffffffffffffffffffff168173ffffffffffffffffffffffffffffffffffffffff161415611527576040517f08c379a000000000000000000000000000000000000000000000000000000000815260040180806020018281038252600d8152602001807f73657420746f203078646561640000000000000000000000000000000000000081525060200191505060405180910390fd5b80600460006101000a81548173ffffffffffffffffffffffffffffffffffffffff021916908373ffffffffffffffffffffffffffffffffffffffff16021790555050565b600360009054906101000a900473ffffffffffffffffffffffffffffffffffffffff1681565b60008060075414156115a657600090506116d9565b6000600e60003373ffffffffffffffffffffffffffffffffffffffff1673ffffffffffffffffffffffffffffffffffffffff1681526020019081526020016000209050600061169061167f3073ffffffffffffffffffffffffffffffffffffffff1663fc3e532b6040518163ffffffff1660e01b815260040160206040518083038186803b15801561163757600080fd5b505afa15801561164b573d6000803e3d6000fd5b505050506040513d602081101561166157600080fd5b810190808051906020019092919050505061167a6108fd565b61210b565b600554611f6e90919063ffffffff16565b905060006116a2836007015483611f40565b905082600501548111156116d1576116c7836005015482611eb790919063ffffffff16565b93505050506116d9565b600093505050505b90565b60008111611752576040517f08c379a00000000000000000000000000000000000000000000000000000000081526004018080602001828103825260128152602001807f4e6f7468696e6720746f206465706f736974000000000000000000000000000081525060200191505060405180910390fd5b61175a611c58565b60006117646108fd565b90506000600e60003373ffffffffffffffffffffffffffffffffffffffff1673ffffffffffffffffffffffffffffffffffffffff16815260200190815260200160002090506000816007015411156118055760006117de82600501546117d08460070154600554611f40565b611eb790919063ffffffff16565b90506117f7818360060154611f6e90919063ffffffff16565b826006018190555050611810565b600081600601819055505b600160009054906101000a900473ffffffffffffffffffffffffffffffffffffffff1673ffffffffffffffffffffffffffffffffffffffff166323b872dd3330866040518463ffffffff1660e01b8152600401808473ffffffffffffffffffffffffffffffffffffffff1681526020018373ffffffffffffffffffffffffffffffffffffffff1681526020018281526020019350505050602060405180830381600087803b1580156118c157600080fd5b505af11580156118d5573d6000803e3d6000fd5b505050506040513d60208110156118eb57600080fd5b810190808051906020019092919050505050600080600754146119365761192f8361192160075487611ff690919063ffffffff16565b61207c90919063ffffffff16565b9050611953565b611950611941611c45565b85611ff690919063ffffffff16565b90505b61196a818360000154611f6e90919063ffffffff16565b826000018190555061198781600754611f6e90919063ffffffff16565b600781905550816006015482600301819055506119b1848360070154611f6e90919063ffffffff16565b82600701819055506119c98260070154600554611f40565b82600501819055506119d96110e2565b82600201819055506119e96110e2565b82600101819055503373ffffffffffffffffffffffffffffffffffffffff167f36af321ec8d3c75236829c5317affd40ddb308863a1236d2d277a4025cccee1e85834260405180848152602001838152602001828152602001935050505060405180910390a250505050565b6000806201518090506000611a686110e2565b905060006001905060001515600c60009054906101000a900460ff1615151415611acc5760006201ddbc9050611abe84611ab0600d54600a0a84611ff690919063ffffffff16565b61207c90919063ffffffff16565b915081945050505050611b9a565b61012c600b5401821015611b14576000622ab9809050611b0c84611afe600d54600a0a84611ff690919063ffffffff16565b61207c90919063ffffffff16565b915050611b93565b610258600b5401821015611b5c57600062155cc09050611b5484611b46600d54600a0a84611ff690919063ffffffff16565b61207c90919063ffffffff16565b915050611b92565b60006201ddbc9050611b8e84611b80600d54600a0a84611ff690919063ffffffff16565b61207c90919063ffffffff16565b9150505b5b8093505050505b90565b60095481565b6000611c3a6008543073ffffffffffffffffffffffffffffffffffffffff1663fc3e532b6040518163ffffffff1660e01b815260040160206040518083038186803b158015611bf157600080fd5b505afa158015611c05573d6000803e3d6000fd5b505050506040513d6020811015611c1b57600080fd5b8101908080519060200190929190505050611f6e90919063ffffffff16565b905090565b60055481565b6000600d54600a0a905090565b600a5481565b6000611c626110e2565b90506009548111611c735750611db0565b6000611c7d6108fd565b905060008111611c9557816009819055505050611db0565b6000600954420390506000611cba611cab611a55565b83611ff690919063ffffffff16565b905083600981905550611cd881600854611f6e90919063ffffffff16565b600881905550611cfc611ceb828561210b565b600554611f6e90919063ffffffff16565b60058190555060008054906101000a900473ffffffffffffffffffffffffffffffffffffffff1673ffffffffffffffffffffffffffffffffffffffff166340c10f1930836040518363ffffffff1660e01b8152600401808373ffffffffffffffffffffffffffffffffffffffff16815260200182815260200192505050600060405180830381600087803b158015611d9357600080fd5b505af1158015611da7573d6000803e3d6000fd5b50505050505050505b565b600c60009054906101000a900460ff1681565b600360009054906101000a900473ffffffffffffffffffffffffffffffffffffffff1673ffffffffffffffffffffffffffffffffffffffff163373ffffffffffffffffffffffffffffffffffffffff161415611e5d5780600160006101000a81548173ffffffffffffffffffffffffffffffffffffffff021916908373ffffffffffffffffffffffffffffffffffffffff1602179055505b50565b600080611e6b6110e2565b90506000611e776108fd565b11611e86576000915050611eb4565b6000600954820390506000611eab611e9c611a55565b83611ff690919063ffffffff16565b90508093505050505b90565b600082821115611f2f576040517f08c379a000000000000000000000000000000000000000000000000000000000815260040180806020018281038252601e8152602001807f536166654d6174683a207375627472616374696f6e206f766572666c6f77000081525060200191505060405180910390fd5b600082840390508091505092915050565b6000670de0b6b3a7640000611f5e8385611ff690919063ffffffff16565b81611f6557fe5b04905092915050565b600080828401905083811015611fec576040517f08c379a000000000000000000000000000000000000000000000000000000000815260040180806020018281038252601b8152602001807f536166654d6174683a206164646974696f6e206f766572666c6f77000000000081525060200191505060405180910390fd5b8091505092915050565b6000808314156120095760009050612076565b600082840290508284828161201a57fe5b0414612071576040517f08c379a00000000000000000000000000000000000000000000000000000000081526004018080602001828103825260218152602001806121436021913960400191505060405180910390fd5b809150505b92915050565b60008082116120f3576040517f08c379a000000000000000000000000000000000000000000000000000000000815260040180806020018281038252601a8152602001807f536166654d6174683a206469766973696f6e206279207a65726f00000000000081525060200191505060405180910390fd5b60008284816120fe57fe5b0490508091505092915050565b600061213a8261212c670de0b6b3a764000086611ff690919063ffffffff16565b61207c90919063ffffffff16565b90509291505056fe536166654d6174683a206d756c7469706c69636174696f6e206f766572666c6f77a26469706673582212204bf5e2c7d008fb9482ac42cb4a3af994e6aa6163c699b03f871ff510a0bee3a864736f6c634300060c0033",
					"opcodes": "PUSH1 0x80 PUSH1 0x40 MSTORE PUSH1 0x0 PUSH1 0x5 SSTORE PUSH1 0x0 PUSH1 0x6 SSTORE PUSH1 0x0 PUSH1 0x7 SSTORE PUSH1 0x0 PUSH1 0x8 SSTORE PUSH1 0x0 PUSH1 0x9 SSTORE PUSH3 0x93A80 PUSH1 0xA SSTORE PUSH1 0x0 PUSH1 0xB SSTORE PUSH1 0x0 PUSH1 0xC PUSH1 0x0 PUSH2 0x100 EXP DUP2 SLOAD DUP2 PUSH1 0xFF MUL NOT AND SWAP1 DUP4 ISZERO ISZERO MUL OR SWAP1 SSTORE POP PUSH1 0x12 PUSH1 0xD SSTORE CALLVALUE DUP1 ISZERO PUSH2 0x55 JUMPI PUSH1 0x0 DUP1 REVERT JUMPDEST POP PUSH1 0x40 MLOAD PUSH2 0x236C CODESIZE SUB DUP1 PUSH2 0x236C DUP4 CODECOPY DUP2 DUP2 ADD PUSH1 0x40 MSTORE PUSH1 0x60 DUP2 LT ISZERO PUSH2 0x78 JUMPI PUSH1 0x0 DUP1 REVERT JUMPDEST DUP2 ADD SWAP1 DUP1 DUP1 MLOAD SWAP1 PUSH1 0x20 ADD SWAP1 SWAP3 SWAP2 SWAP1 DUP1 MLOAD SWAP1 PUSH1 0x20 ADD SWAP1 SWAP3 SWAP2 SWAP1 DUP1 MLOAD SWAP1 PUSH1 0x20 ADD SWAP1 SWAP3 SWAP2 SWAP1 POP POP POP DUP3 PUSH1 0x0 DUP1 PUSH2 0x100 EXP DUP2 SLOAD DUP2 PUSH20 0xFFFFFFFFFFFFFFFFFFFFFFFFFFFFFFFFFFFFFFFF MUL NOT AND SWAP1 DUP4 PUSH20 0xFFFFFFFFFFFFFFFFFFFFFFFFFFFFFFFFFFFFFFFF AND MUL OR SWAP1 SSTORE POP CALLER PUSH1 0x3 PUSH1 0x0 PUSH2 0x100 EXP DUP2 SLOAD DUP2 PUSH20 0xFFFFFFFFFFFFFFFFFFFFFFFFFFFFFFFFFFFFFFFF MUL NOT AND SWAP1 DUP4 PUSH20 0xFFFFFFFFFFFFFFFFFFFFFFFFFFFFFFFFFFFFFFFF AND MUL OR SWAP1 SSTORE POP PUSH2 0x12C PUSH2 0x1BC PUSH1 0x20 SHL PUSH1 0x20 SHR JUMP JUMPDEST PUSH1 0x9 DUP2 SWAP1 SSTORE POP DUP1 PUSH1 0x2 PUSH1 0x0 PUSH2 0x100 EXP DUP2 SLOAD DUP2 PUSH20 0xFFFFFFFFFFFFFFFFFFFFFFFFFFFFFFFFFFFFFFFF MUL NOT AND SWAP1 DUP4 PUSH20 0xFFFFFFFFFFFFFFFFFFFFFFFFFFFFFFFFFFFFFFFF AND MUL OR SWAP1 SSTORE POP DUP2 PUSH1 0x1 PUSH1 0x0 PUSH2 0x100 EXP DUP2 SLOAD DUP2 PUSH20 0xFFFFFFFFFFFFFFFFFFFFFFFFFFFFFFFFFFFFFFFF MUL NOT AND SWAP1 DUP4 PUSH20 0xFFFFFFFFFFFFFFFFFFFFFFFFFFFFFFFFFFFFFFFF AND MUL OR SWAP1 SSTORE POP POP POP POP PUSH2 0x1C4 JUMP JUMPDEST PUSH1 0x0 TIMESTAMP SWAP1 POP SWAP1 JUMP JUMPDEST PUSH2 0x2199 DUP1 PUSH2 0x1D3 PUSH1 0x0 CODECOPY PUSH1 0x0 RETURN INVALID PUSH1 0x80 PUSH1 0x40 MSTORE CALLVALUE DUP1 ISZERO PUSH2 0x10 JUMPI PUSH1 0x0 DUP1 REVERT JUMPDEST POP PUSH1 0x4 CALLDATASIZE LT PUSH2 0x1C4 JUMPI PUSH1 0x0 CALLDATALOAD PUSH1 0xE0 SHR DUP1 PUSH4 0x8705FCD4 GT PUSH2 0xF9 JUMPI DUP1 PUSH4 0xD2890A01 GT PUSH2 0x97 JUMPI DUP1 PUSH4 0xE3161DDD GT PUSH2 0x71 JUMPI DUP1 PUSH4 0xE3161DDD EQ PUSH2 0x598 JUMPI DUP1 PUSH4 0xE6FA445D EQ PUSH2 0x5A2 JUMPI DUP1 PUSH4 0xF4C2BAA9 EQ PUSH2 0x5C2 JUMPI DUP1 PUSH4 0xFC3E532B EQ PUSH2 0x606 JUMPI PUSH2 0x1C4 JUMP JUMPDEST DUP1 PUSH4 0xD2890A01 EQ PUSH2 0x53E JUMPI DUP1 PUSH4 0xDE0FF7C5 EQ PUSH2 0x55C JUMPI DUP1 PUSH4 0xDF10B4E6 EQ PUSH2 0x57A JUMPI PUSH2 0x1C4 JUMP JUMPDEST DUP1 PUSH4 0xB6B55F25 GT PUSH2 0xD3 JUMPI DUP1 PUSH4 0xB6B55F25 EQ PUSH2 0x4B6 JUMPI DUP1 PUSH4 0xB8A3B366 EQ PUSH2 0x4E4 JUMPI DUP1 PUSH4 0xC8F33C91 EQ PUSH2 0x502 JUMPI DUP1 PUSH4 0xD201114A EQ PUSH2 0x520 JUMPI PUSH2 0x1C4 JUMP JUMPDEST DUP1 PUSH4 0x8705FCD4 EQ PUSH2 0x420 JUMPI DUP1 PUSH4 0x8DA5CB5B EQ PUSH2 0x464 JUMPI DUP1 PUSH4 0x936B6CEC EQ PUSH2 0x498 JUMPI PUSH2 0x1C4 JUMP JUMPDEST DUP1 PUSH4 0x557ED1BA GT PUSH2 0x166 JUMPI DUP1 PUSH4 0x6D3C832F GT PUSH2 0x140 JUMPI DUP1 PUSH4 0x6D3C832F EQ PUSH2 0x396 JUMPI DUP1 PUSH4 0x77926869 EQ PUSH2 0x3B4 JUMPI DUP1 PUSH4 0x7B27C1D1 EQ PUSH2 0x3D2 JUMPI DUP1 PUSH4 0x81AD5718 EQ PUSH2 0x3F0 JUMPI PUSH2 0x1C4 JUMP JUMPDEST DUP1 PUSH4 0x557ED1BA EQ PUSH2 0x326 JUMPI DUP1 PUSH4 0x6ABFD183 EQ PUSH2 0x344 JUMPI DUP1 PUSH4 0x6AF04A57 EQ PUSH2 0x362 JUMPI PUSH2 0x1C4 JUMP JUMPDEST DUP1 PUSH4 0x2059F615 GT PUSH2 0x1A2 JUMPI DUP1 PUSH4 0x2059F615 EQ PUSH2 0x29E JUMPI DUP1 PUSH4 0x2E1A7D4D EQ PUSH2 0x2BC JUMPI DUP1 PUSH4 0x3A98EF39 EQ PUSH2 0x2EA JUMPI DUP1 PUSH4 0x47F1AAE7 EQ PUSH2 0x308 JUMPI PUSH2 0x1C4 JUMP JUMPDEST DUP1 PUSH4 0xB26B6A8 EQ PUSH2 0x1C9 JUMPI DUP1 PUSH4 0x1959A002 EQ PUSH2 0x1F7 JUMPI DUP1 PUSH4 0x1A39D8EF EQ PUSH2 0x280 JUMPI JUMPDEST PUSH1 0x0 DUP1 REVERT JUMPDEST PUSH2 0x1F5 PUSH1 0x4 DUP1 CALLDATASIZE SUB PUSH1 0x20 DUP2 LT ISZERO PUSH2 0x1DF JUMPI PUSH1 0x0 DUP1 REVERT JUMPDEST DUP2 ADD SWAP1 DUP1 DUP1 CALLDATALOAD SWAP1 PUSH1 0x20 ADD SWAP1 SWAP3 SWAP2 SWAP1 POP POP POP PUSH2 0x624 JUMP JUMPDEST STOP JUMPDEST PUSH2 0x239 PUSH1 0x4 DUP1 CALLDATASIZE SUB PUSH1 0x20 DUP2 LT ISZERO PUSH2 0x20D JUMPI PUSH1 0x0 DUP1 REVERT JUMPDEST DUP2 ADD SWAP1 DUP1 DUP1 CALLDATALOAD PUSH20 0xFFFFFFFFFFFFFFFFFFFFFFFFFFFFFFFFFFFFFFFF AND SWAP1 PUSH1 0x20 ADD SWAP1 SWAP3 SWAP2 SWAP1 POP POP POP PUSH2 0x8AF JUMP JUMPDEST PUSH1 0x40 MLOAD DUP1 DUP10 DUP2 MSTORE PUSH1 0x20 ADD DUP9 DUP2 MSTORE PUSH1 0x20 ADD DUP8 DUP2 MSTORE PUSH1 0x20 ADD DUP7 DUP2 MSTORE PUSH1 0x20 ADD DUP6 DUP2 MSTORE PUSH1 0x20 ADD DUP5 DUP2 MSTORE PUSH1 0x20 ADD DUP4 DUP2 MSTORE PUSH1 0x20 ADD DUP3 DUP2 MSTORE PUSH1 0x20 ADD SWAP9 POP POP POP POP POP POP POP POP POP PUSH1 0x40 MLOAD DUP1 SWAP2 SUB SWAP1 RETURN JUMPDEST PUSH2 0x288 PUSH2 0x8F7 JUMP JUMPDEST PUSH1 0x40 MLOAD DUP1 DUP3 DUP2 MSTORE PUSH1 0x20 ADD SWAP2 POP POP PUSH1 0x40 MLOAD DUP1 SWAP2 SUB SWAP1 RETURN JUMPDEST PUSH2 0x2A6 PUSH2 0x8FD JUMP JUMPDEST PUSH1 0x40 MLOAD DUP1 DUP3 DUP2 MSTORE PUSH1 0x20 ADD SWAP2 POP POP PUSH1 0x40 MLOAD DUP1 SWAP2 SUB SWAP1 RETURN JUMPDEST PUSH2 0x2E8 PUSH1 0x4 DUP1 CALLDATASIZE SUB PUSH1 0x20 DUP2 LT ISZERO PUSH2 0x2D2 JUMPI PUSH1 0x0 DUP1 REVERT JUMPDEST DUP2 ADD SWAP1 DUP1 DUP1 CALLDATALOAD SWAP1 PUSH1 0x20 ADD SWAP1 SWAP3 SWAP2 SWAP1 POP POP POP PUSH2 0x9DC JUMP JUMPDEST STOP JUMPDEST PUSH2 0x2F2 PUSH2 0xF95 JUMP JUMPDEST PUSH1 0x40 MLOAD DUP1 DUP3 DUP2 MSTORE PUSH1 0x20 ADD SWAP2 POP POP PUSH1 0x40 MLOAD DUP1 SWAP2 SUB SWAP1 RETURN JUMPDEST PUSH2 0x310 PUSH2 0xF9B JUMP JUMPDEST PUSH1 0x40 MLOAD DUP1 DUP3 DUP2 MSTORE PUSH1 0x20 ADD SWAP2 POP POP PUSH1 0x40 MLOAD DUP1 SWAP2 SUB SWAP1 RETURN JUMPDEST PUSH2 0x32E PUSH2 0x10E2 JUMP JUMPDEST PUSH1 0x40 MLOAD DUP1 DUP3 DUP2 MSTORE PUSH1 0x20 ADD SWAP2 POP POP PUSH1 0x40 MLOAD DUP1 SWAP2 SUB SWAP1 RETURN JUMPDEST PUSH2 0x34C PUSH2 0x10EA JUMP JUMPDEST PUSH1 0x40 MLOAD DUP1 DUP3 DUP2 MSTORE PUSH1 0x20 ADD SWAP2 POP POP PUSH1 0x40 MLOAD DUP1 SWAP2 SUB SWAP1 RETURN JUMPDEST PUSH2 0x36A PUSH2 0x10F0 JUMP JUMPDEST PUSH1 0x40 MLOAD DUP1 DUP3 PUSH20 0xFFFFFFFFFFFFFFFFFFFFFFFFFFFFFFFFFFFFFFFF AND DUP2 MSTORE PUSH1 0x20 ADD SWAP2 POP POP PUSH1 0x40 MLOAD DUP1 SWAP2 SUB SWAP1 RETURN JUMPDEST PUSH2 0x39E PUSH2 0x1116 JUMP JUMPDEST PUSH1 0x40 MLOAD DUP1 DUP3 DUP2 MSTORE PUSH1 0x20 ADD SWAP2 POP POP PUSH1 0x40 MLOAD DUP1 SWAP2 SUB SWAP1 RETURN JUMPDEST PUSH2 0x3BC PUSH2 0x111C JUMP JUMPDEST PUSH1 0x40 MLOAD DUP1 DUP3 DUP2 MSTORE PUSH1 0x20 ADD SWAP2 POP POP PUSH1 0x40 MLOAD DUP1 SWAP2 SUB SWAP1 RETURN JUMPDEST PUSH2 0x3DA PUSH2 0x1226 JUMP JUMPDEST PUSH1 0x40 MLOAD DUP1 DUP3 DUP2 MSTORE PUSH1 0x20 ADD SWAP2 POP POP PUSH1 0x40 MLOAD DUP1 SWAP2 SUB SWAP1 RETURN JUMPDEST PUSH2 0x41E PUSH1 0x4 DUP1 CALLDATASIZE SUB PUSH1 0x20 DUP2 LT ISZERO PUSH2 0x406 JUMPI PUSH1 0x0 DUP1 REVERT JUMPDEST DUP2 ADD SWAP1 DUP1 DUP1 CALLDATALOAD ISZERO ISZERO SWAP1 PUSH1 0x20 ADD SWAP1 SWAP3 SWAP2 SWAP1 POP POP POP PUSH2 0x12F0 JUMP JUMPDEST STOP JUMPDEST PUSH2 0x462 PUSH1 0x4 DUP1 CALLDATASIZE SUB PUSH1 0x20 DUP2 LT ISZERO PUSH2 0x436 JUMPI PUSH1 0x0 DUP1 REVERT JUMPDEST DUP2 ADD SWAP1 DUP1 DUP1 CALLDATALOAD PUSH20 0xFFFFFFFFFFFFFFFFFFFFFFFFFFFFFFFFFFFFFFFF AND SWAP1 PUSH1 0x20 ADD SWAP1 SWAP3 SWAP2 SWAP1 POP POP POP PUSH2 0x1386 JUMP JUMPDEST STOP JUMPDEST PUSH2 0x46C PUSH2 0x156B JUMP JUMPDEST PUSH1 0x40 MLOAD DUP1 DUP3 PUSH20 0xFFFFFFFFFFFFFFFFFFFFFFFFFFFFFFFFFFFFFFFF AND DUP2 MSTORE PUSH1 0x20 ADD SWAP2 POP POP PUSH1 0x40 MLOAD DUP1 SWAP2 SUB SWAP1 RETURN JUMPDEST PUSH2 0x4A0 PUSH2 0x1591 JUMP JUMPDEST PUSH1 0x40 MLOAD DUP1 DUP3 DUP2 MSTORE PUSH1 0x20 ADD SWAP2 POP POP PUSH1 0x40 MLOAD DUP1 SWAP2 SUB SWAP1 RETURN JUMPDEST PUSH2 0x4E2 PUSH1 0x4 DUP1 CALLDATASIZE SUB PUSH1 0x20 DUP2 LT ISZERO PUSH2 0x4CC JUMPI PUSH1 0x0 DUP1 REVERT JUMPDEST DUP2 ADD SWAP1 DUP1 DUP1 CALLDATALOAD SWAP1 PUSH1 0x20 ADD SWAP1 SWAP3 SWAP2 SWAP1 POP POP POP PUSH2 0x16DC JUMP JUMPDEST STOP JUMPDEST PUSH2 0x4EC PUSH2 0x1A55 JUMP JUMPDEST PUSH1 0x40 MLOAD DUP1 DUP3 DUP2 MSTORE PUSH1 0x20 ADD SWAP2 POP POP PUSH1 0x40 MLOAD DUP1 SWAP2 SUB SWAP1 RETURN JUMPDEST PUSH2 0x50A PUSH2 0x1B9D JUMP JUMPDEST PUSH1 0x40 MLOAD DUP1 DUP3 DUP2 MSTORE PUSH1 0x20 ADD SWAP2 POP POP PUSH1 0x40 MLOAD DUP1 SWAP2 SUB SWAP1 RETURN JUMPDEST PUSH2 0x528 PUSH2 0x1BA3 JUMP JUMPDEST PUSH1 0x40 MLOAD DUP1 DUP3 DUP2 MSTORE PUSH1 0x20 ADD SWAP2 POP POP PUSH1 0x40 MLOAD DUP1 SWAP2 SUB SWAP1 RETURN JUMPDEST PUSH2 0x546 PUSH2 0x1C3F JUMP JUMPDEST PUSH1 0x40 MLOAD DUP1 DUP3 DUP2 MSTORE PUSH1 0x20 ADD SWAP2 POP POP PUSH1 0x40 MLOAD DUP1 SWAP2 SUB SWAP1 RETURN JUMPDEST PUSH2 0x564 PUSH2 0x1C45 JUMP JUMPDEST PUSH1 0x40 MLOAD DUP1 DUP3 DUP2 MSTORE PUSH1 0x20 ADD SWAP2 POP POP PUSH1 0x40 MLOAD DUP1 SWAP2 SUB SWAP1 RETURN JUMPDEST PUSH2 0x582 PUSH2 0x1C52 JUMP JUMPDEST PUSH1 0x40 MLOAD DUP1 DUP3 DUP2 MSTORE PUSH1 0x20 ADD SWAP2 POP POP PUSH1 0x40 MLOAD DUP1 SWAP2 SUB SWAP1 RETURN JUMPDEST PUSH2 0x5A0 PUSH2 0x1C58 JUMP JUMPDEST STOP JUMPDEST PUSH2 0x5AA PUSH2 0x1DB2 JUMP JUMPDEST PUSH1 0x40 MLOAD DUP1 DUP3 ISZERO ISZERO DUP2 MSTORE PUSH1 0x20 ADD SWAP2 POP POP PUSH1 0x40 MLOAD DUP1 SWAP2 SUB SWAP1 RETURN JUMPDEST PUSH2 0x604 PUSH1 0x4 DUP1 CALLDATASIZE SUB PUSH1 0x20 DUP2 LT ISZERO PUSH2 0x5D8 JUMPI PUSH1 0x0 DUP1 REVERT JUMPDEST DUP2 ADD SWAP1 DUP1 DUP1 CALLDATALOAD PUSH20 0xFFFFFFFFFFFFFFFFFFFFFFFFFFFFFFFFFFFFFFFF AND SWAP1 PUSH1 0x20 ADD SWAP1 SWAP3 SWAP2 SWAP1 POP POP POP PUSH2 0x1DC5 JUMP JUMPDEST STOP JUMPDEST PUSH2 0x60E PUSH2 0x1E60 JUMP JUMPDEST PUSH1 0x40 MLOAD DUP1 DUP3 DUP2 MSTORE PUSH1 0x20 ADD SWAP2 POP POP PUSH1 0x40 MLOAD DUP1 SWAP2 SUB SWAP1 RETURN JUMPDEST PUSH1 0x3 PUSH1 0x0 SWAP1 SLOAD SWAP1 PUSH2 0x100 EXP SWAP1 DIV PUSH20 0xFFFFFFFFFFFFFFFFFFFFFFFFFFFFFFFFFFFFFFFF AND PUSH20 0xFFFFFFFFFFFFFFFFFFFFFFFFFFFFFFFFFFFFFFFF AND CALLER PUSH20 0xFFFFFFFFFFFFFFFFFFFFFFFFFFFFFFFFFFFFFFFF AND EQ PUSH2 0x67E JUMPI PUSH1 0x0 DUP1 REVERT JUMPDEST PUSH1 0x0 PUSH20 0xFFFFFFFFFFFFFFFFFFFFFFFFFFFFFFFFFFFFFFFF AND PUSH1 0x4 PUSH1 0x0 SWAP1 SLOAD SWAP1 PUSH2 0x100 EXP SWAP1 DIV PUSH20 0xFFFFFFFFFFFFFFFFFFFFFFFFFFFFFFFFFFFFFFFF AND PUSH20 0xFFFFFFFFFFFFFFFFFFFFFFFFFFFFFFFFFFFFFFFF AND EQ ISZERO PUSH2 0x743 JUMPI PUSH1 0x40 MLOAD PUSH32 0x8C379A000000000000000000000000000000000000000000000000000000000 DUP2 MSTORE PUSH1 0x4 ADD DUP1 DUP1 PUSH1 0x20 ADD DUP3 DUP2 SUB DUP3 MSTORE PUSH1 0xD DUP2 MSTORE PUSH1 0x20 ADD DUP1 PUSH32 0x7472616E7366657220746F203000000000000000000000000000000000000000 DUP2 MSTORE POP PUSH1 0x20 ADD SWAP2 POP POP PUSH1 0x40 MLOAD DUP1 SWAP2 SUB SWAP1 REVERT JUMPDEST DUP1 PUSH1 0x6 SLOAD LT ISZERO PUSH2 0x7BB JUMPI PUSH1 0x40 MLOAD PUSH32 0x8C379A000000000000000000000000000000000000000000000000000000000 DUP2 MSTORE PUSH1 0x4 ADD DUP1 DUP1 PUSH1 0x20 ADD DUP3 DUP2 SUB DUP3 MSTORE PUSH1 0xA DUP2 MSTORE PUSH1 0x20 ADD DUP1 PUSH32 0x6E6F7420656E6F75676800000000000000000000000000000000000000000000 DUP2 MSTORE POP PUSH1 0x20 ADD SWAP2 POP POP PUSH1 0x40 MLOAD DUP1 SWAP2 SUB SWAP1 REVERT JUMPDEST PUSH1 0x1 PUSH1 0x0 SWAP1 SLOAD SWAP1 PUSH2 0x100 EXP SWAP1 DIV PUSH20 0xFFFFFFFFFFFFFFFFFFFFFFFFFFFFFFFFFFFFFFFF AND PUSH20 0xFFFFFFFFFFFFFFFFFFFFFFFFFFFFFFFFFFFFFFFF AND PUSH4 0xA9059CBB PUSH1 0x4 PUSH1 0x0 SWAP1 SLOAD SWAP1 PUSH2 0x100 EXP SWAP1 DIV PUSH20 0xFFFFFFFFFFFFFFFFFFFFFFFFFFFFFFFFFFFFFFFF AND DUP4 PUSH1 0x40 MLOAD DUP4 PUSH4 0xFFFFFFFF AND PUSH1 0xE0 SHL DUP2 MSTORE PUSH1 0x4 ADD DUP1 DUP4 PUSH20 0xFFFFFFFFFFFFFFFFFFFFFFFFFFFFFFFFFFFFFFFF AND DUP2 MSTORE PUSH1 0x20 ADD DUP3 DUP2 MSTORE PUSH1 0x20 ADD SWAP3 POP POP POP PUSH1 0x20 PUSH1 0x40 MLOAD DUP1 DUP4 SUB DUP2 PUSH1 0x0 DUP8 DUP1 EXTCODESIZE ISZERO DUP1 ISZERO PUSH2 0x870 JUMPI PUSH1 0x0 DUP1 REVERT JUMPDEST POP GAS CALL ISZERO DUP1 ISZERO PUSH2 0x884 JUMPI RETURNDATASIZE PUSH1 0x0 DUP1 RETURNDATACOPY RETURNDATASIZE PUSH1 0x0 REVERT JUMPDEST POP POP POP POP PUSH1 0x40 MLOAD RETURNDATASIZE PUSH1 0x20 DUP2 LT ISZERO PUSH2 0x89A JUMPI PUSH1 0x0 DUP1 REVERT JUMPDEST DUP2 ADD SWAP1 DUP1 DUP1 MLOAD SWAP1 PUSH1 0x20 ADD SWAP1 SWAP3 SWAP2 SWAP1 POP POP POP POP POP JUMP JUMPDEST PUSH1 0xE PUSH1 0x20 MSTORE DUP1 PUSH1 0x0 MSTORE PUSH1 0x40 PUSH1 0x0 KECCAK256 PUSH1 0x0 SWAP2 POP SWAP1 POP DUP1 PUSH1 0x0 ADD SLOAD SWAP1 DUP1 PUSH1 0x1 ADD SLOAD SWAP1 DUP1 PUSH1 0x2 ADD SLOAD SWAP1 DUP1 PUSH1 0x3 ADD SLOAD SWAP1 DUP1 PUSH1 0x4 ADD SLOAD SWAP1 DUP1 PUSH1 0x5 ADD SLOAD SWAP1 DUP1 PUSH1 0x6 ADD SLOAD SWAP1 DUP1 PUSH1 0x7 ADD SLOAD SWAP1 POP DUP9 JUMP JUMPDEST PUSH1 0x8 SLOAD DUP2 JUMP JUMPDEST PUSH1 0x0 PUSH2 0x9D7 PUSH1 0x6 SLOAD PUSH1 0x1 PUSH1 0x0 SWAP1 SLOAD SWAP1 PUSH2 0x100 EXP SWAP1 DIV PUSH20 0xFFFFFFFFFFFFFFFFFFFFFFFFFFFFFFFFFFFFFFFF AND PUSH20 0xFFFFFFFFFFFFFFFFFFFFFFFFFFFFFFFFFFFFFFFF AND PUSH4 0x70A08231 ADDRESS PUSH1 0x40 MLOAD DUP3 PUSH4 0xFFFFFFFF AND PUSH1 0xE0 SHL DUP2 MSTORE PUSH1 0x4 ADD DUP1 DUP3 PUSH20 0xFFFFFFFFFFFFFFFFFFFFFFFFFFFFFFFFFFFFFFFF AND DUP2 MSTORE PUSH1 0x20 ADD SWAP2 POP POP PUSH1 0x20 PUSH1 0x40 MLOAD DUP1 DUP4 SUB DUP2 DUP7 DUP1 EXTCODESIZE ISZERO DUP1 ISZERO PUSH2 0x98E JUMPI PUSH1 0x0 DUP1 REVERT JUMPDEST POP GAS STATICCALL ISZERO DUP1 ISZERO PUSH2 0x9A2 JUMPI RETURNDATASIZE PUSH1 0x0 DUP1 RETURNDATACOPY RETURNDATASIZE PUSH1 0x0 REVERT JUMPDEST POP POP POP POP PUSH1 0x40 MLOAD RETURNDATASIZE PUSH1 0x20 DUP2 LT ISZERO PUSH2 0x9B8 JUMPI PUSH1 0x0 DUP1 REVERT JUMPDEST DUP2 ADD SWAP1 DUP1 DUP1 MLOAD SWAP1 PUSH1 0x20 ADD SWAP1 SWAP3 SWAP2 SWAP1 POP POP POP PUSH2 0x1EB7 SWAP1 SWAP2 SWAP1 PUSH4 0xFFFFFFFF AND JUMP JUMPDEST SWAP1 POP SWAP1 JUMP JUMPDEST PUSH1 0x0 PUSH1 0xE PUSH1 0x0 CALLER PUSH20 0xFFFFFFFFFFFFFFFFFFFFFFFFFFFFFFFFFFFFFFFF AND PUSH20 0xFFFFFFFFFFFFFFFFFFFFFFFFFFFFFFFFFFFFFFFF AND DUP2 MSTORE PUSH1 0x20 ADD SWAP1 DUP2 MSTORE PUSH1 0x20 ADD PUSH1 0x0 KECCAK256 SWAP1 POP PUSH1 0x0 DUP3 GT PUSH2 0xA95 JUMPI PUSH1 0x40 MLOAD PUSH32 0x8C379A000000000000000000000000000000000000000000000000000000000 DUP2 MSTORE PUSH1 0x4 ADD DUP1 DUP1 PUSH1 0x20 ADD DUP3 DUP2 SUB DUP3 MSTORE PUSH1 0x13 DUP2 MSTORE PUSH1 0x20 ADD DUP1 PUSH32 0x4E6F7468696E6720746F20776974686472617700000000000000000000000000 DUP2 MSTORE POP PUSH1 0x20 ADD SWAP2 POP POP PUSH1 0x40 MLOAD DUP1 SWAP2 SUB SWAP1 REVERT JUMPDEST DUP1 PUSH1 0x0 ADD SLOAD DUP3 GT ISZERO PUSH2 0xB0F JUMPI PUSH1 0x40 MLOAD PUSH32 0x8C379A000000000000000000000000000000000000000000000000000000000 DUP2 MSTORE PUSH1 0x4 ADD DUP1 DUP1 PUSH1 0x20 ADD DUP3 DUP2 SUB DUP3 MSTORE PUSH1 0x1F DUP2 MSTORE PUSH1 0x20 ADD DUP1 PUSH32 0x576974686472617720616D6F756E7420657863656564732062616C616E636500 DUP2 MSTORE POP PUSH1 0x20 ADD SWAP2 POP POP PUSH1 0x40 MLOAD DUP1 SWAP2 SUB SWAP1 REVERT JUMPDEST PUSH2 0xB17 PUSH2 0x1C58 JUMP JUMPDEST PUSH1 0x0 PUSH2 0xB55 DUP3 PUSH1 0x6 ADD SLOAD PUSH2 0xB47 DUP5 PUSH1 0x5 ADD SLOAD PUSH2 0xB39 DUP7 PUSH1 0x7 ADD SLOAD PUSH1 0x5 SLOAD PUSH2 0x1F40 JUMP JUMPDEST PUSH2 0x1EB7 SWAP1 SWAP2 SWAP1 PUSH4 0xFFFFFFFF AND JUMP JUMPDEST PUSH2 0x1F6E SWAP1 SWAP2 SWAP1 PUSH4 0xFFFFFFFF AND JUMP JUMPDEST SWAP1 POP PUSH1 0x0 PUSH2 0xB82 DUP4 PUSH1 0x0 ADD SLOAD PUSH2 0xB74 DUP7 DUP6 PUSH2 0x1FF6 SWAP1 SWAP2 SWAP1 PUSH4 0xFFFFFFFF AND JUMP JUMPDEST PUSH2 0x207C SWAP1 SWAP2 SWAP1 PUSH4 0xFFFFFFFF AND JUMP JUMPDEST SWAP1 POP PUSH1 0x0 PUSH2 0xBB3 DUP5 PUSH1 0x0 ADD SLOAD PUSH2 0xBA5 DUP8 DUP8 PUSH1 0x7 ADD SLOAD PUSH2 0x1FF6 SWAP1 SWAP2 SWAP1 PUSH4 0xFFFFFFFF AND JUMP JUMPDEST PUSH2 0x207C SWAP1 SWAP2 SWAP1 PUSH4 0xFFFFFFFF AND JUMP JUMPDEST SWAP1 POP PUSH2 0xBCC DUP6 DUP6 PUSH1 0x0 ADD SLOAD PUSH2 0x1EB7 SWAP1 SWAP2 SWAP1 PUSH4 0xFFFFFFFF AND JUMP JUMPDEST DUP5 PUSH1 0x0 ADD DUP2 SWAP1 SSTORE POP PUSH2 0xBE9 DUP6 PUSH1 0x7 SLOAD PUSH2 0x1EB7 SWAP1 SWAP2 SWAP1 PUSH4 0xFFFFFFFF AND JUMP JUMPDEST PUSH1 0x7 DUP2 SWAP1 SSTORE POP DUP2 PUSH1 0x8 SLOAD LT ISZERO PUSH2 0xC67 JUMPI PUSH1 0x40 MLOAD PUSH32 0x8C379A000000000000000000000000000000000000000000000000000000000 DUP2 MSTORE PUSH1 0x4 ADD DUP1 DUP1 PUSH1 0x20 ADD DUP3 DUP2 SUB DUP3 MSTORE PUSH1 0x1F DUP2 MSTORE PUSH1 0x20 ADD DUP1 PUSH32 0x576974686472617720616D6F756E7420657863656564732062616C616E636500 DUP2 MSTORE POP PUSH1 0x20 ADD SWAP2 POP POP PUSH1 0x40 MLOAD DUP1 SWAP2 SUB SWAP1 REVERT JUMPDEST PUSH2 0xC7C DUP3 PUSH1 0x8 SLOAD PUSH2 0x1EB7 SWAP1 SWAP2 SWAP1 PUSH4 0xFFFFFFFF AND JUMP JUMPDEST PUSH1 0x8 DUP2 SWAP1 SSTORE POP PUSH2 0xC95 DUP3 DUP5 PUSH2 0x1EB7 SWAP1 SWAP2 SWAP1 PUSH4 0xFFFFFFFF AND JUMP JUMPDEST DUP5 PUSH1 0x6 ADD DUP2 SWAP1 SSTORE POP PUSH2 0xCB4 DUP2 DUP6 PUSH1 0x7 ADD SLOAD PUSH2 0x1EB7 SWAP1 SWAP2 SWAP1 PUSH4 0xFFFFFFFF AND JUMP JUMPDEST DUP5 PUSH1 0x7 ADD DUP2 SWAP1 SSTORE POP PUSH2 0xCD5 PUSH1 0xA SLOAD DUP6 PUSH1 0x1 ADD SLOAD PUSH2 0x1F6E SWAP1 SWAP2 SWAP1 PUSH4 0xFFFFFFFF AND JUMP JUMPDEST PUSH2 0xCDD PUSH2 0x10E2 JUMP JUMPDEST LT ISZERO PUSH2 0xD41 JUMPI PUSH1 0x0 PUSH2 0xD0D PUSH2 0x2710 PUSH2 0xCFF PUSH1 0x64 DUP6 PUSH2 0x1FF6 SWAP1 SWAP2 SWAP1 PUSH4 0xFFFFFFFF AND JUMP JUMPDEST PUSH2 0x207C SWAP1 SWAP2 SWAP1 PUSH4 0xFFFFFFFF AND JUMP JUMPDEST SWAP1 POP PUSH2 0xD22 DUP2 DUP4 PUSH2 0x1EB7 SWAP1 SWAP2 SWAP1 PUSH4 0xFFFFFFFF AND JUMP JUMPDEST SWAP2 POP PUSH2 0xD39 DUP2 PUSH1 0x6 SLOAD PUSH2 0x1F6E SWAP1 SWAP2 SWAP1 PUSH4 0xFFFFFFFF AND JUMP JUMPDEST PUSH1 0x6 DUP2 SWAP1 SSTORE POP POP JUMPDEST PUSH1 0x1 PUSH1 0x0 SWAP1 SLOAD SWAP1 PUSH2 0x100 EXP SWAP1 DIV PUSH20 0xFFFFFFFFFFFFFFFFFFFFFFFFFFFFFFFFFFFFFFFF AND PUSH20 0xFFFFFFFFFFFFFFFFFFFFFFFFFFFFFFFFFFFFFFFF AND PUSH4 0xA9059CBB CALLER DUP4 PUSH1 0x40 MLOAD DUP4 PUSH4 0xFFFFFFFF AND PUSH1 0xE0 SHL DUP2 MSTORE PUSH1 0x4 ADD DUP1 DUP4 PUSH20 0xFFFFFFFFFFFFFFFFFFFFFFFFFFFFFFFFFFFFFFFF AND DUP2 MSTORE PUSH1 0x20 ADD DUP3 DUP2 MSTORE PUSH1 0x20 ADD SWAP3 POP POP POP PUSH1 0x20 PUSH1 0x40 MLOAD DUP1 DUP4 SUB DUP2 PUSH1 0x0 DUP8 DUP1 EXTCODESIZE ISZERO DUP1 ISZERO PUSH2 0xDD4 JUMPI PUSH1 0x0 DUP1 REVERT JUMPDEST POP GAS CALL ISZERO DUP1 ISZERO PUSH2 0xDE8 JUMPI RETURNDATASIZE PUSH1 0x0 DUP1 RETURNDATACOPY RETURNDATASIZE PUSH1 0x0 REVERT JUMPDEST POP POP POP POP PUSH1 0x40 MLOAD RETURNDATASIZE PUSH1 0x20 DUP2 LT ISZERO PUSH2 0xDFE JUMPI PUSH1 0x0 DUP1 REVERT JUMPDEST DUP2 ADD SWAP1 DUP1 DUP1 MLOAD SWAP1 PUSH1 0x20 ADD SWAP1 SWAP3 SWAP2 SWAP1 POP POP POP POP PUSH1 0x0 DUP1 SLOAD SWAP1 PUSH2 0x100 EXP SWAP1 DIV PUSH20 0xFFFFFFFFFFFFFFFFFFFFFFFFFFFFFFFFFFFFFFFF AND PUSH20 0xFFFFFFFFFFFFFFFFFFFFFFFFFFFFFFFFFFFFFFFF AND PUSH4 0xA9059CBB CALLER DUP5 PUSH1 0x40 MLOAD DUP4 PUSH4 0xFFFFFFFF AND PUSH1 0xE0 SHL DUP2 MSTORE PUSH1 0x4 ADD DUP1 DUP4 PUSH20 0xFFFFFFFFFFFFFFFFFFFFFFFFFFFFFFFFFFFFFFFF AND DUP2 MSTORE PUSH1 0x20 ADD DUP3 DUP2 MSTORE PUSH1 0x20 ADD SWAP3 POP POP POP PUSH1 0x20 PUSH1 0x40 MLOAD DUP1 DUP4 SUB DUP2 PUSH1 0x0 DUP8 DUP1 EXTCODESIZE ISZERO DUP1 ISZERO PUSH2 0xEA1 JUMPI PUSH1 0x0 DUP1 REVERT JUMPDEST POP GAS CALL ISZERO DUP1 ISZERO PUSH2 0xEB5 JUMPI RETURNDATASIZE PUSH1 0x0 DUP1 RETURNDATACOPY RETURNDATASIZE PUSH1 0x0 REVERT JUMPDEST POP POP POP POP PUSH1 0x40 MLOAD RETURNDATASIZE PUSH1 0x20 DUP2 LT ISZERO PUSH2 0xECB JUMPI PUSH1 0x0 DUP1 REVERT JUMPDEST DUP2 ADD SWAP1 DUP1 DUP1 MLOAD SWAP1 PUSH1 0x20 ADD SWAP1 SWAP3 SWAP2 SWAP1 POP POP POP POP PUSH1 0x0 DUP5 PUSH1 0x0 ADD SLOAD GT ISZERO PUSH2 0xF24 JUMPI PUSH2 0xEFA DUP5 PUSH1 0x7 ADD SLOAD PUSH1 0x5 SLOAD PUSH2 0x1F40 JUMP JUMPDEST DUP5 PUSH1 0x5 ADD DUP2 SWAP1 SSTORE POP PUSH2 0xF0A PUSH2 0x111C JUMP JUMPDEST DUP5 PUSH1 0x4 ADD DUP2 SWAP1 SSTORE POP DUP4 PUSH1 0x6 ADD SLOAD DUP5 PUSH1 0x3 ADD DUP2 SWAP1 SSTORE POP PUSH2 0xF2F JUMP JUMPDEST PUSH1 0x0 DUP5 PUSH1 0x4 ADD DUP2 SWAP1 SSTORE POP JUMPDEST TIMESTAMP DUP5 PUSH1 0x2 ADD DUP2 SWAP1 SSTORE POP CALLER PUSH20 0xFFFFFFFFFFFFFFFFFFFFFFFFFFFFFFFFFFFFFFFF AND PUSH32 0xF279E6A1F5E320CCA91135676D9CB6E44CA8A08C0B88342BCDB1144F6511B568 DUP4 DUP8 PUSH1 0x40 MLOAD DUP1 DUP4 DUP2 MSTORE PUSH1 0x20 ADD DUP3 DUP2 MSTORE PUSH1 0x20 ADD SWAP3 POP POP POP PUSH1 0x40 MLOAD DUP1 SWAP2 SUB SWAP1 LOG2 POP POP POP POP POP JUMP JUMPDEST PUSH1 0x7 SLOAD DUP2 JUMP JUMPDEST PUSH1 0x0 DUP1 PUSH2 0x1043 PUSH2 0x1032 ADDRESS PUSH20 0xFFFFFFFFFFFFFFFFFFFFFFFFFFFFFFFFFFFFFFFF AND PUSH4 0xFC3E532B PUSH1 0x40 MLOAD DUP2 PUSH4 0xFFFFFFFF AND PUSH1 0xE0 SHL DUP2 MSTORE PUSH1 0x4 ADD PUSH1 0x20 PUSH1 0x40 MLOAD DUP1 DUP4 SUB DUP2 DUP7 DUP1 EXTCODESIZE ISZERO DUP1 ISZERO PUSH2 0xFEA JUMPI PUSH1 0x0 DUP1 REVERT JUMPDEST POP GAS STATICCALL ISZERO DUP1 ISZERO PUSH2 0xFFE JUMPI RETURNDATASIZE PUSH1 0x0 DUP1 RETURNDATACOPY RETURNDATASIZE PUSH1 0x0 REVERT JUMPDEST POP POP POP POP PUSH1 0x40 MLOAD RETURNDATASIZE PUSH1 0x20 DUP2 LT ISZERO PUSH2 0x1014 JUMPI PUSH1 0x0 DUP1 REVERT JUMPDEST DUP2 ADD SWAP1 DUP1 DUP1 MLOAD SWAP1 PUSH1 0x20 ADD SWAP1 SWAP3 SWAP2 SWAP1 POP POP POP PUSH2 0x102D PUSH2 0x8FD JUMP JUMPDEST PUSH2 0x210B JUMP JUMPDEST PUSH1 0x5 SLOAD PUSH2 0x1F6E SWAP1 SWAP2 SWAP1 PUSH4 0xFFFFFFFF AND JUMP JUMPDEST SWAP1 POP PUSH1 0x0 PUSH1 0xE PUSH1 0x0 CALLER PUSH20 0xFFFFFFFFFFFFFFFFFFFFFFFFFFFFFFFFFFFFFFFF AND PUSH20 0xFFFFFFFFFFFFFFFFFFFFFFFFFFFFFFFFFFFFFFFF AND DUP2 MSTORE PUSH1 0x20 ADD SWAP1 DUP2 MSTORE PUSH1 0x20 ADD PUSH1 0x0 KECCAK256 SWAP1 POP PUSH1 0x0 DUP2 PUSH1 0x0 ADD SLOAD EQ ISZERO PUSH2 0x10A0 JUMPI PUSH1 0x0 SWAP3 POP POP POP PUSH2 0x10DF JUMP JUMPDEST PUSH2 0x10DA DUP2 PUSH1 0x6 ADD SLOAD PUSH2 0x10CC DUP4 PUSH1 0x5 ADD SLOAD PUSH2 0x10BE DUP6 PUSH1 0x7 ADD SLOAD DUP8 PUSH2 0x1F40 JUMP JUMPDEST PUSH2 0x1EB7 SWAP1 SWAP2 SWAP1 PUSH4 0xFFFFFFFF AND JUMP JUMPDEST PUSH2 0x1F6E SWAP1 SWAP2 SWAP1 PUSH4 0xFFFFFFFF AND JUMP JUMPDEST SWAP3 POP POP POP JUMPDEST SWAP1 JUMP JUMPDEST PUSH1 0x0 TIMESTAMP SWAP1 POP SWAP1 JUMP JUMPDEST PUSH1 0xB SLOAD DUP2 JUMP JUMPDEST PUSH1 0x4 PUSH1 0x0 SWAP1 SLOAD SWAP1 PUSH2 0x100 EXP SWAP1 DIV PUSH20 0xFFFFFFFFFFFFFFFFFFFFFFFFFFFFFFFFFFFFFFFF AND DUP2 JUMP JUMPDEST PUSH1 0x6 SLOAD DUP2 JUMP JUMPDEST PUSH1 0x0 DUP1 PUSH2 0x1127 PUSH2 0x8FD JUMP JUMPDEST SWAP1 POP PUSH1 0x0 DUP2 EQ ISZERO PUSH2 0x113C JUMPI PUSH1 0x0 SWAP2 POP POP PUSH2 0x1223 JUMP JUMPDEST PUSH1 0x0 PUSH2 0x11DC PUSH2 0x11CB ADDRESS PUSH20 0xFFFFFFFFFFFFFFFFFFFFFFFFFFFFFFFFFFFFFFFF AND PUSH4 0xFC3E532B PUSH1 0x40 MLOAD DUP2 PUSH4 0xFFFFFFFF AND PUSH1 0xE0 SHL DUP2 MSTORE PUSH1 0x4 ADD PUSH1 0x20 PUSH1 0x40 MLOAD DUP1 DUP4 SUB DUP2 DUP7 DUP1 EXTCODESIZE ISZERO DUP1 ISZERO PUSH2 0x118A JUMPI PUSH1 0x0 DUP1 REVERT JUMPDEST POP GAS STATICCALL ISZERO DUP1 ISZERO PUSH2 0x119E JUMPI RETURNDATASIZE PUSH1 0x0 DUP1 RETURNDATACOPY RETURNDATASIZE PUSH1 0x0 REVERT JUMPDEST POP POP POP POP PUSH1 0x40 MLOAD RETURNDATASIZE PUSH1 0x20 DUP2 LT ISZERO PUSH2 0x11B4 JUMPI PUSH1 0x0 DUP1 REVERT JUMPDEST DUP2 ADD SWAP1 DUP1 DUP1 MLOAD SWAP1 PUSH1 0x20 ADD SWAP1 SWAP3 SWAP2 SWAP1 POP POP POP DUP5 PUSH2 0x210B JUMP JUMPDEST PUSH1 0x5 SLOAD PUSH2 0x1F6E SWAP1 SWAP2 SWAP1 PUSH4 0xFFFFFFFF AND JUMP JUMPDEST SWAP1 POP PUSH2 0x121E PUSH1 0x7 SLOAD PUSH2 0x1210 DUP4 PUSH2 0x1202 PUSH2 0x11F3 PUSH2 0x1C45 JUMP JUMPDEST DUP8 PUSH2 0x1FF6 SWAP1 SWAP2 SWAP1 PUSH4 0xFFFFFFFF AND JUMP JUMPDEST PUSH2 0x1FF6 SWAP1 SWAP2 SWAP1 PUSH4 0xFFFFFFFF AND JUMP JUMPDEST PUSH2 0x207C SWAP1 SWAP2 SWAP1 PUSH4 0xFFFFFFFF AND JUMP JUMPDEST SWAP3 POP POP POP JUMPDEST SWAP1 JUMP JUMPDEST PUSH1 0x0 DUP1 PUSH1 0x0 SWAP1 SLOAD SWAP1 PUSH2 0x100 EXP SWAP1 DIV PUSH20 0xFFFFFFFFFFFFFFFFFFFFFFFFFFFFFFFFFFFFFFFF AND PUSH20 0xFFFFFFFFFFFFFFFFFFFFFFFFFFFFFFFFFFFFFFFF AND PUSH4 0x70A08231 ADDRESS PUSH1 0x40 MLOAD DUP3 PUSH4 0xFFFFFFFF AND PUSH1 0xE0 SHL DUP2 MSTORE PUSH1 0x4 ADD DUP1 DUP3 PUSH20 0xFFFFFFFFFFFFFFFFFFFFFFFFFFFFFFFFFFFFFFFF AND DUP2 MSTORE PUSH1 0x20 ADD SWAP2 POP POP PUSH1 0x20 PUSH1 0x40 MLOAD DUP1 DUP4 SUB DUP2 DUP7 DUP1 EXTCODESIZE ISZERO DUP1 ISZERO PUSH2 0x12B0 JUMPI PUSH1 0x0 DUP1 REVERT JUMPDEST POP GAS STATICCALL ISZERO DUP1 ISZERO PUSH2 0x12C4 JUMPI RETURNDATASIZE PUSH1 0x0 DUP1 RETURNDATACOPY RETURNDATASIZE PUSH1 0x0 REVERT JUMPDEST POP POP POP POP PUSH1 0x40 MLOAD RETURNDATASIZE PUSH1 0x20 DUP2 LT ISZERO PUSH2 0x12DA JUMPI PUSH1 0x0 DUP1 REVERT JUMPDEST DUP2 ADD SWAP1 DUP1 DUP1 MLOAD SWAP1 PUSH1 0x20 ADD SWAP1 SWAP3 SWAP2 SWAP1 POP POP POP SWAP1 POP SWAP1 JUMP JUMPDEST PUSH1 0x3 PUSH1 0x0 SWAP1 SLOAD SWAP1 PUSH2 0x100 EXP SWAP1 DIV PUSH20 0xFFFFFFFFFFFFFFFFFFFFFFFFFFFFFFFFFFFFFFFF AND PUSH20 0xFFFFFFFFFFFFFFFFFFFFFFFFFFFFFFFFFFFFFFFF AND CALLER PUSH20 0xFFFFFFFFFFFFFFFFFFFFFFFFFFFFFFFFFFFFFFFF AND EQ ISZERO PUSH2 0x1383 JUMPI DUP1 ISZERO PUSH2 0x135F JUMPI PUSH2 0x1354 PUSH2 0x10E2 JUMP JUMPDEST PUSH1 0xB DUP2 SWAP1 SSTORE POP PUSH2 0x1368 JUMP JUMPDEST PUSH1 0x0 PUSH1 0xB DUP2 SWAP1 SSTORE POP JUMPDEST DUP1 PUSH1 0xC PUSH1 0x0 PUSH2 0x100 EXP DUP2 SLOAD DUP2 PUSH1 0xFF MUL NOT AND SWAP1 DUP4 ISZERO ISZERO MUL OR SWAP1 SSTORE POP JUMPDEST POP JUMP JUMPDEST PUSH1 0x3 PUSH1 0x0 SWAP1 SLOAD SWAP1 PUSH2 0x100 EXP SWAP1 DIV PUSH20 0xFFFFFFFFFFFFFFFFFFFFFFFFFFFFFFFFFFFFFFFF AND PUSH20 0xFFFFFFFFFFFFFFFFFFFFFFFFFFFFFFFFFFFFFFFF AND CALLER PUSH20 0xFFFFFFFFFFFFFFFFFFFFFFFFFFFFFFFFFFFFFFFF AND EQ PUSH2 0x13E0 JUMPI PUSH1 0x0 DUP1 REVERT JUMPDEST PUSH1 0x0 PUSH20 0xFFFFFFFFFFFFFFFFFFFFFFFFFFFFFFFFFFFFFFFF AND DUP2 PUSH20 0xFFFFFFFFFFFFFFFFFFFFFFFFFFFFFFFFFFFFFFFF AND EQ ISZERO PUSH2 0x1483 JUMPI PUSH1 0x40 MLOAD PUSH32 0x8C379A000000000000000000000000000000000000000000000000000000000 DUP2 MSTORE PUSH1 0x4 ADD DUP1 DUP1 PUSH1 0x20 ADD DUP3 DUP2 SUB DUP3 MSTORE PUSH1 0x8 DUP2 MSTORE PUSH1 0x20 ADD DUP1 PUSH32 0x73657420746F2030000000000000000000000000000000000000000000000000 DUP2 MSTORE POP PUSH1 0x20 ADD SWAP2 POP POP PUSH1 0x40 MLOAD DUP1 SWAP2 SUB SWAP1 REVERT JUMPDEST PUSH2 0xDEAD PUSH20 0xFFFFFFFFFFFFFFFFFFFFFFFFFFFFFFFFFFFFFFFF AND DUP2 PUSH20 0xFFFFFFFFFFFFFFFFFFFFFFFFFFFFFFFFFFFFFFFF AND EQ ISZERO PUSH2 0x1527 JUMPI PUSH1 0x40 MLOAD PUSH32 0x8C379A000000000000000000000000000000000000000000000000000000000 DUP2 MSTORE PUSH1 0x4 ADD DUP1 DUP1 PUSH1 0x20 ADD DUP3 DUP2 SUB DUP3 MSTORE PUSH1 0xD DUP2 MSTORE PUSH1 0x20 ADD DUP1 PUSH32 0x73657420746F2030786465616400000000000000000000000000000000000000 DUP2 MSTORE POP PUSH1 0x20 ADD SWAP2 POP POP PUSH1 0x40 MLOAD DUP1 SWAP2 SUB SWAP1 REVERT JUMPDEST DUP1 PUSH1 0x4 PUSH1 0x0 PUSH2 0x100 EXP DUP2 SLOAD DUP2 PUSH20 0xFFFFFFFFFFFFFFFFFFFFFFFFFFFFFFFFFFFFFFFF MUL NOT AND SWAP1 DUP4 PUSH20 0xFFFFFFFFFFFFFFFFFFFFFFFFFFFFFFFFFFFFFFFF AND MUL OR SWAP1 SSTORE POP POP JUMP JUMPDEST PUSH1 0x3 PUSH1 0x0 SWAP1 SLOAD SWAP1 PUSH2 0x100 EXP SWAP1 DIV PUSH20 0xFFFFFFFFFFFFFFFFFFFFFFFFFFFFFFFFFFFFFFFF AND DUP2 JUMP JUMPDEST PUSH1 0x0 DUP1 PUSH1 0x7 SLOAD EQ ISZERO PUSH2 0x15A6 JUMPI PUSH1 0x0 SWAP1 POP PUSH2 0x16D9 JUMP JUMPDEST PUSH1 0x0 PUSH1 0xE PUSH1 0x0 CALLER PUSH20 0xFFFFFFFFFFFFFFFFFFFFFFFFFFFFFFFFFFFFFFFF AND PUSH20 0xFFFFFFFFFFFFFFFFFFFFFFFFFFFFFFFFFFFFFFFF AND DUP2 MSTORE PUSH1 0x20 ADD SWAP1 DUP2 MSTORE PUSH1 0x20 ADD PUSH1 0x0 KECCAK256 SWAP1 POP PUSH1 0x0 PUSH2 0x1690 PUSH2 0x167F ADDRESS PUSH20 0xFFFFFFFFFFFFFFFFFFFFFFFFFFFFFFFFFFFFFFFF AND PUSH4 0xFC3E532B PUSH1 0x40 MLOAD DUP2 PUSH4 0xFFFFFFFF AND PUSH1 0xE0 SHL DUP2 MSTORE PUSH1 0x4 ADD PUSH1 0x20 PUSH1 0x40 MLOAD DUP1 DUP4 SUB DUP2 DUP7 DUP1 EXTCODESIZE ISZERO DUP1 ISZERO PUSH2 0x1637 JUMPI PUSH1 0x0 DUP1 REVERT JUMPDEST POP GAS STATICCALL ISZERO DUP1 ISZERO PUSH2 0x164B JUMPI RETURNDATASIZE PUSH1 0x0 DUP1 RETURNDATACOPY RETURNDATASIZE PUSH1 0x0 REVERT JUMPDEST POP POP POP POP PUSH1 0x40 MLOAD RETURNDATASIZE PUSH1 0x20 DUP2 LT ISZERO PUSH2 0x1661 JUMPI PUSH1 0x0 DUP1 REVERT JUMPDEST DUP2 ADD SWAP1 DUP1 DUP1 MLOAD SWAP1 PUSH1 0x20 ADD SWAP1 SWAP3 SWAP2 SWAP1 POP POP POP PUSH2 0x167A PUSH2 0x8FD JUMP JUMPDEST PUSH2 0x210B JUMP JUMPDEST PUSH1 0x5 SLOAD PUSH2 0x1F6E SWAP1 SWAP2 SWAP1 PUSH4 0xFFFFFFFF AND JUMP JUMPDEST SWAP1 POP PUSH1 0x0 PUSH2 0x16A2 DUP4 PUSH1 0x7 ADD SLOAD DUP4 PUSH2 0x1F40 JUMP JUMPDEST SWAP1 POP DUP3 PUSH1 0x5 ADD SLOAD DUP2 GT ISZERO PUSH2 0x16D1 JUMPI PUSH2 0x16C7 DUP4 PUSH1 0x5 ADD SLOAD DUP3 PUSH2 0x1EB7 SWAP1 SWAP2 SWAP1 PUSH4 0xFFFFFFFF AND JUMP JUMPDEST SWAP4 POP POP POP POP PUSH2 0x16D9 JUMP JUMPDEST PUSH1 0x0 SWAP4 POP POP POP POP JUMPDEST SWAP1 JUMP JUMPDEST PUSH1 0x0 DUP2 GT PUSH2 0x1752 JUMPI PUSH1 0x40 MLOAD PUSH32 0x8C379A000000000000000000000000000000000000000000000000000000000 DUP2 MSTORE PUSH1 0x4 ADD DUP1 DUP1 PUSH1 0x20 ADD DUP3 DUP2 SUB DUP3 MSTORE PUSH1 0x12 DUP2 MSTORE PUSH1 0x20 ADD DUP1 PUSH32 0x4E6F7468696E6720746F206465706F7369740000000000000000000000000000 DUP2 MSTORE POP PUSH1 0x20 ADD SWAP2 POP POP PUSH1 0x40 MLOAD DUP1 SWAP2 SUB SWAP1 REVERT JUMPDEST PUSH2 0x175A PUSH2 0x1C58 JUMP JUMPDEST PUSH1 0x0 PUSH2 0x1764 PUSH2 0x8FD JUMP JUMPDEST SWAP1 POP PUSH1 0x0 PUSH1 0xE PUSH1 0x0 CALLER PUSH20 0xFFFFFFFFFFFFFFFFFFFFFFFFFFFFFFFFFFFFFFFF AND PUSH20 0xFFFFFFFFFFFFFFFFFFFFFFFFFFFFFFFFFFFFFFFF AND DUP2 MSTORE PUSH1 0x20 ADD SWAP1 DUP2 MSTORE PUSH1 0x20 ADD PUSH1 0x0 KECCAK256 SWAP1 POP PUSH1 0x0 DUP2 PUSH1 0x7 ADD SLOAD GT ISZERO PUSH2 0x1805 JUMPI PUSH1 0x0 PUSH2 0x17DE DUP3 PUSH1 0x5 ADD SLOAD PUSH2 0x17D0 DUP5 PUSH1 0x7 ADD SLOAD PUSH1 0x5 SLOAD PUSH2 0x1F40 JUMP JUMPDEST PUSH2 0x1EB7 SWAP1 SWAP2 SWAP1 PUSH4 0xFFFFFFFF AND JUMP JUMPDEST SWAP1 POP PUSH2 0x17F7 DUP2 DUP4 PUSH1 0x6 ADD SLOAD PUSH2 0x1F6E SWAP1 SWAP2 SWAP1 PUSH4 0xFFFFFFFF AND JUMP JUMPDEST DUP3 PUSH1 0x6 ADD DUP2 SWAP1 SSTORE POP POP PUSH2 0x1810 JUMP JUMPDEST PUSH1 0x0 DUP2 PUSH1 0x6 ADD DUP2 SWAP1 SSTORE POP JUMPDEST PUSH1 0x1 PUSH1 0x0 SWAP1 SLOAD SWAP1 PUSH2 0x100 EXP SWAP1 DIV PUSH20 0xFFFFFFFFFFFFFFFFFFFFFFFFFFFFFFFFFFFFFFFF AND PUSH20 0xFFFFFFFFFFFFFFFFFFFFFFFFFFFFFFFFFFFFFFFF AND PUSH4 0x23B872DD CALLER ADDRESS DUP7 PUSH1 0x40 MLOAD DUP5 PUSH4 0xFFFFFFFF AND PUSH1 0xE0 SHL DUP2 MSTORE PUSH1 0x4 ADD DUP1 DUP5 PUSH20 0xFFFFFFFFFFFFFFFFFFFFFFFFFFFFFFFFFFFFFFFF AND DUP2 MSTORE PUSH1 0x20 ADD DUP4 PUSH20 0xFFFFFFFFFFFFFFFFFFFFFFFFFFFFFFFFFFFFFFFF AND DUP2 MSTORE PUSH1 0x20 ADD DUP3 DUP2 MSTORE PUSH1 0x20 ADD SWAP4 POP POP POP POP PUSH1 0x20 PUSH1 0x40 MLOAD DUP1 DUP4 SUB DUP2 PUSH1 0x0 DUP8 DUP1 EXTCODESIZE ISZERO DUP1 ISZERO PUSH2 0x18C1 JUMPI PUSH1 0x0 DUP1 REVERT JUMPDEST POP GAS CALL ISZERO DUP1 ISZERO PUSH2 0x18D5 JUMPI RETURNDATASIZE PUSH1 0x0 DUP1 RETURNDATACOPY RETURNDATASIZE PUSH1 0x0 REVERT JUMPDEST POP POP POP POP PUSH1 0x40 MLOAD RETURNDATASIZE PUSH1 0x20 DUP2 LT ISZERO PUSH2 0x18EB JUMPI PUSH1 0x0 DUP1 REVERT JUMPDEST DUP2 ADD SWAP1 DUP1 DUP1 MLOAD SWAP1 PUSH1 0x20 ADD SWAP1 SWAP3 SWAP2 SWAP1 POP POP POP POP PUSH1 0x0 DUP1 PUSH1 0x7 SLOAD EQ PUSH2 0x1936 JUMPI PUSH2 0x192F DUP4 PUSH2 0x1921 PUSH1 0x7 SLOAD DUP8 PUSH2 0x1FF6 SWAP1 SWAP2 SWAP1 PUSH4 0xFFFFFFFF AND JUMP JUMPDEST PUSH2 0x207C SWAP1 SWAP2 SWAP1 PUSH4 0xFFFFFFFF AND JUMP JUMPDEST SWAP1 POP PUSH2 0x1953 JUMP JUMPDEST PUSH2 0x1950 PUSH2 0x1941 PUSH2 0x1C45 JUMP JUMPDEST DUP6 PUSH2 0x1FF6 SWAP1 SWAP2 SWAP1 PUSH4 0xFFFFFFFF AND JUMP JUMPDEST SWAP1 POP JUMPDEST PUSH2 0x196A DUP2 DUP4 PUSH1 0x0 ADD SLOAD PUSH2 0x1F6E SWAP1 SWAP2 SWAP1 PUSH4 0xFFFFFFFF AND JUMP JUMPDEST DUP3 PUSH1 0x0 ADD DUP2 SWAP1 SSTORE POP PUSH2 0x1987 DUP2 PUSH1 0x7 SLOAD PUSH2 0x1F6E SWAP1 SWAP2 SWAP1 PUSH4 0xFFFFFFFF AND JUMP JUMPDEST PUSH1 0x7 DUP2 SWAP1 SSTORE POP DUP2 PUSH1 0x6 ADD SLOAD DUP3 PUSH1 0x3 ADD DUP2 SWAP1 SSTORE POP PUSH2 0x19B1 DUP5 DUP4 PUSH1 0x7 ADD SLOAD PUSH2 0x1F6E SWAP1 SWAP2 SWAP1 PUSH4 0xFFFFFFFF AND JUMP JUMPDEST DUP3 PUSH1 0x7 ADD DUP2 SWAP1 SSTORE POP PUSH2 0x19C9 DUP3 PUSH1 0x7 ADD SLOAD PUSH1 0x5 SLOAD PUSH2 0x1F40 JUMP JUMPDEST DUP3 PUSH1 0x5 ADD DUP2 SWAP1 SSTORE POP PUSH2 0x19D9 PUSH2 0x10E2 JUMP JUMPDEST DUP3 PUSH1 0x2 ADD DUP2 SWAP1 SSTORE POP PUSH2 0x19E9 PUSH2 0x10E2 JUMP JUMPDEST DUP3 PUSH1 0x1 ADD DUP2 SWAP1 SSTORE POP CALLER PUSH20 0xFFFFFFFFFFFFFFFFFFFFFFFFFFFFFFFFFFFFFFFF AND PUSH32 0x36AF321EC8D3C75236829C5317AFFD40DDB308863A1236D2D277A4025CCCEE1E DUP6 DUP4 TIMESTAMP PUSH1 0x40 MLOAD DUP1 DUP5 DUP2 MSTORE PUSH1 0x20 ADD DUP4 DUP2 MSTORE PUSH1 0x20 ADD DUP3 DUP2 MSTORE PUSH1 0x20 ADD SWAP4 POP POP POP POP PUSH1 0x40 MLOAD DUP1 SWAP2 SUB SWAP1 LOG2 POP POP POP POP JUMP JUMPDEST PUSH1 0x0 DUP1 PUSH3 0x15180 SWAP1 POP PUSH1 0x0 PUSH2 0x1A68 PUSH2 0x10E2 JUMP JUMPDEST SWAP1 POP PUSH1 0x0 PUSH1 0x1 SWAP1 POP PUSH1 0x0 ISZERO ISZERO PUSH1 0xC PUSH1 0x0 SWAP1 SLOAD SWAP1 PUSH2 0x100 EXP SWAP1 DIV PUSH1 0xFF AND ISZERO ISZERO EQ ISZERO PUSH2 0x1ACC JUMPI PUSH1 0x0 PUSH3 0x1DDBC SWAP1 POP PUSH2 0x1ABE DUP5 PUSH2 0x1AB0 PUSH1 0xD SLOAD PUSH1 0xA EXP DUP5 PUSH2 0x1FF6 SWAP1 SWAP2 SWAP1 PUSH4 0xFFFFFFFF AND JUMP JUMPDEST PUSH2 0x207C SWAP1 SWAP2 SWAP1 PUSH4 0xFFFFFFFF AND JUMP JUMPDEST SWAP2 POP DUP2 SWAP5 POP POP POP POP POP PUSH2 0x1B9A JUMP JUMPDEST PUSH2 0x12C PUSH1 0xB SLOAD ADD DUP3 LT ISZERO PUSH2 0x1B14 JUMPI PUSH1 0x0 PUSH3 0x2AB980 SWAP1 POP PUSH2 0x1B0C DUP5 PUSH2 0x1AFE PUSH1 0xD SLOAD PUSH1 0xA EXP DUP5 PUSH2 0x1FF6 SWAP1 SWAP2 SWAP1 PUSH4 0xFFFFFFFF AND JUMP JUMPDEST PUSH2 0x207C SWAP1 SWAP2 SWAP1 PUSH4 0xFFFFFFFF AND JUMP JUMPDEST SWAP2 POP POP PUSH2 0x1B93 JUMP JUMPDEST PUSH2 0x258 PUSH1 0xB SLOAD ADD DUP3 LT ISZERO PUSH2 0x1B5C JUMPI PUSH1 0x0 PUSH3 0x155CC0 SWAP1 POP PUSH2 0x1B54 DUP5 PUSH2 0x1B46 PUSH1 0xD SLOAD PUSH1 0xA EXP DUP5 PUSH2 0x1FF6 SWAP1 SWAP2 SWAP1 PUSH4 0xFFFFFFFF AND JUMP JUMPDEST PUSH2 0x207C SWAP1 SWAP2 SWAP1 PUSH4 0xFFFFFFFF AND JUMP JUMPDEST SWAP2 POP POP PUSH2 0x1B92 JUMP JUMPDEST PUSH1 0x0 PUSH3 0x1DDBC SWAP1 POP PUSH2 0x1B8E DUP5 PUSH2 0x1B80 PUSH1 0xD SLOAD PUSH1 0xA EXP DUP5 PUSH2 0x1FF6 SWAP1 SWAP2 SWAP1 PUSH4 0xFFFFFFFF AND JUMP JUMPDEST PUSH2 0x207C SWAP1 SWAP2 SWAP1 PUSH4 0xFFFFFFFF AND JUMP JUMPDEST SWAP2 POP POP JUMPDEST JUMPDEST DUP1 SWAP4 POP POP POP POP JUMPDEST SWAP1 JUMP JUMPDEST PUSH1 0x9 SLOAD DUP2 JUMP JUMPDEST PUSH1 0x0 PUSH2 0x1C3A PUSH1 0x8 SLOAD ADDRESS PUSH20 0xFFFFFFFFFFFFFFFFFFFFFFFFFFFFFFFFFFFFFFFF AND PUSH4 0xFC3E532B PUSH1 0x40 MLOAD DUP2 PUSH4 0xFFFFFFFF AND PUSH1 0xE0 SHL DUP2 MSTORE PUSH1 0x4 ADD PUSH1 0x20 PUSH1 0x40 MLOAD DUP1 DUP4 SUB DUP2 DUP7 DUP1 EXTCODESIZE ISZERO DUP1 ISZERO PUSH2 0x1BF1 JUMPI PUSH1 0x0 DUP1 REVERT JUMPDEST POP GAS STATICCALL ISZERO DUP1 ISZERO PUSH2 0x1C05 JUMPI RETURNDATASIZE PUSH1 0x0 DUP1 RETURNDATACOPY RETURNDATASIZE PUSH1 0x0 REVERT JUMPDEST POP POP POP POP PUSH1 0x40 MLOAD RETURNDATASIZE PUSH1 0x20 DUP2 LT ISZERO PUSH2 0x1C1B JUMPI PUSH1 0x0 DUP1 REVERT JUMPDEST DUP2 ADD SWAP1 DUP1 DUP1 MLOAD SWAP1 PUSH1 0x20 ADD SWAP1 SWAP3 SWAP2 SWAP1 POP POP POP PUSH2 0x1F6E SWAP1 SWAP2 SWAP1 PUSH4 0xFFFFFFFF AND JUMP JUMPDEST SWAP1 POP SWAP1 JUMP JUMPDEST PUSH1 0x5 SLOAD DUP2 JUMP JUMPDEST PUSH1 0x0 PUSH1 0xD SLOAD PUSH1 0xA EXP SWAP1 POP SWAP1 JUMP JUMPDEST PUSH1 0xA SLOAD DUP2 JUMP JUMPDEST PUSH1 0x0 PUSH2 0x1C62 PUSH2 0x10E2 JUMP JUMPDEST SWAP1 POP PUSH1 0x9 SLOAD DUP2 GT PUSH2 0x1C73 JUMPI POP PUSH2 0x1DB0 JUMP JUMPDEST PUSH1 0x0 PUSH2 0x1C7D PUSH2 0x8FD JUMP JUMPDEST SWAP1 POP PUSH1 0x0 DUP2 GT PUSH2 0x1C95 JUMPI DUP2 PUSH1 0x9 DUP2 SWAP1 SSTORE POP POP POP PUSH2 0x1DB0 JUMP JUMPDEST PUSH1 0x0 PUSH1 0x9 SLOAD TIMESTAMP SUB SWAP1 POP PUSH1 0x0 PUSH2 0x1CBA PUSH2 0x1CAB PUSH2 0x1A55 JUMP JUMPDEST DUP4 PUSH2 0x1FF6 SWAP1 SWAP2 SWAP1 PUSH4 0xFFFFFFFF AND JUMP JUMPDEST SWAP1 POP DUP4 PUSH1 0x9 DUP2 SWAP1 SSTORE POP PUSH2 0x1CD8 DUP2 PUSH1 0x8 SLOAD PUSH2 0x1F6E SWAP1 SWAP2 SWAP1 PUSH4 0xFFFFFFFF AND JUMP JUMPDEST PUSH1 0x8 DUP2 SWAP1 SSTORE POP PUSH2 0x1CFC PUSH2 0x1CEB DUP3 DUP6 PUSH2 0x210B JUMP JUMPDEST PUSH1 0x5 SLOAD PUSH2 0x1F6E SWAP1 SWAP2 SWAP1 PUSH4 0xFFFFFFFF AND JUMP JUMPDEST PUSH1 0x5 DUP2 SWAP1 SSTORE POP PUSH1 0x0 DUP1 SLOAD SWAP1 PUSH2 0x100 EXP SWAP1 DIV PUSH20 0xFFFFFFFFFFFFFFFFFFFFFFFFFFFFFFFFFFFFFFFF AND PUSH20 0xFFFFFFFFFFFFFFFFFFFFFFFFFFFFFFFFFFFFFFFF AND PUSH4 0x40C10F19 ADDRESS DUP4 PUSH1 0x40 MLOAD DUP4 PUSH4 0xFFFFFFFF AND PUSH1 0xE0 SHL DUP2 MSTORE PUSH1 0x4 ADD DUP1 DUP4 PUSH20 0xFFFFFFFFFFFFFFFFFFFFFFFFFFFFFFFFFFFFFFFF AND DUP2 MSTORE PUSH1 0x20 ADD DUP3 DUP2 MSTORE PUSH1 0x20 ADD SWAP3 POP POP POP PUSH1 0x0 PUSH1 0x40 MLOAD DUP1 DUP4 SUB DUP2 PUSH1 0x0 DUP8 DUP1 EXTCODESIZE ISZERO DUP1 ISZERO PUSH2 0x1D93 JUMPI PUSH1 0x0 DUP1 REVERT JUMPDEST POP GAS CALL ISZERO DUP1 ISZERO PUSH2 0x1DA7 JUMPI RETURNDATASIZE PUSH1 0x0 DUP1 RETURNDATACOPY RETURNDATASIZE PUSH1 0x0 REVERT JUMPDEST POP POP POP POP POP POP POP POP JUMPDEST JUMP JUMPDEST PUSH1 0xC PUSH1 0x0 SWAP1 SLOAD SWAP1 PUSH2 0x100 EXP SWAP1 DIV PUSH1 0xFF AND DUP2 JUMP JUMPDEST PUSH1 0x3 PUSH1 0x0 SWAP1 SLOAD SWAP1 PUSH2 0x100 EXP SWAP1 DIV PUSH20 0xFFFFFFFFFFFFFFFFFFFFFFFFFFFFFFFFFFFFFFFF AND PUSH20 0xFFFFFFFFFFFFFFFFFFFFFFFFFFFFFFFFFFFFFFFF AND CALLER PUSH20 0xFFFFFFFFFFFFFFFFFFFFFFFFFFFFFFFFFFFFFFFF AND EQ ISZERO PUSH2 0x1E5D JUMPI DUP1 PUSH1 0x1 PUSH1 0x0 PUSH2 0x100 EXP DUP2 SLOAD DUP2 PUSH20 0xFFFFFFFFFFFFFFFFFFFFFFFFFFFFFFFFFFFFFFFF MUL NOT AND SWAP1 DUP4 PUSH20 0xFFFFFFFFFFFFFFFFFFFFFFFFFFFFFFFFFFFFFFFF AND MUL OR SWAP1 SSTORE POP JUMPDEST POP JUMP JUMPDEST PUSH1 0x0 DUP1 PUSH2 0x1E6B PUSH2 0x10E2 JUMP JUMPDEST SWAP1 POP PUSH1 0x0 PUSH2 0x1E77 PUSH2 0x8FD JUMP JUMPDEST GT PUSH2 0x1E86 JUMPI PUSH1 0x0 SWAP2 POP POP PUSH2 0x1EB4 JUMP JUMPDEST PUSH1 0x0 PUSH1 0x9 SLOAD DUP3 SUB SWAP1 POP PUSH1 0x0 PUSH2 0x1EAB PUSH2 0x1E9C PUSH2 0x1A55 JUMP JUMPDEST DUP4 PUSH2 0x1FF6 SWAP1 SWAP2 SWAP1 PUSH4 0xFFFFFFFF AND JUMP JUMPDEST SWAP1 POP DUP1 SWAP4 POP POP POP POP JUMPDEST SWAP1 JUMP JUMPDEST PUSH1 0x0 DUP3 DUP3 GT ISZERO PUSH2 0x1F2F JUMPI PUSH1 0x40 MLOAD PUSH32 0x8C379A000000000000000000000000000000000000000000000000000000000 DUP2 MSTORE PUSH1 0x4 ADD DUP1 DUP1 PUSH1 0x20 ADD DUP3 DUP2 SUB DUP3 MSTORE PUSH1 0x1E DUP2 MSTORE PUSH1 0x20 ADD DUP1 PUSH32 0x536166654D6174683A207375627472616374696F6E206F766572666C6F770000 DUP2 MSTORE POP PUSH1 0x20 ADD SWAP2 POP POP PUSH1 0x40 MLOAD DUP1 SWAP2 SUB SWAP1 REVERT JUMPDEST PUSH1 0x0 DUP3 DUP5 SUB SWAP1 POP DUP1 SWAP2 POP POP SWAP3 SWAP2 POP POP JUMP JUMPDEST PUSH1 0x0 PUSH8 0xDE0B6B3A7640000 PUSH2 0x1F5E DUP4 DUP6 PUSH2 0x1FF6 SWAP1 SWAP2 SWAP1 PUSH4 0xFFFFFFFF AND JUMP JUMPDEST DUP2 PUSH2 0x1F65 JUMPI INVALID JUMPDEST DIV SWAP1 POP SWAP3 SWAP2 POP POP JUMP JUMPDEST PUSH1 0x0 DUP1 DUP3 DUP5 ADD SWAP1 POP DUP4 DUP2 LT ISZERO PUSH2 0x1FEC JUMPI PUSH1 0x40 MLOAD PUSH32 0x8C379A000000000000000000000000000000000000000000000000000000000 DUP2 MSTORE PUSH1 0x4 ADD DUP1 DUP1 PUSH1 0x20 ADD DUP3 DUP2 SUB DUP3 MSTORE PUSH1 0x1B DUP2 MSTORE PUSH1 0x20 ADD DUP1 PUSH32 0x536166654D6174683A206164646974696F6E206F766572666C6F770000000000 DUP2 MSTORE POP PUSH1 0x20 ADD SWAP2 POP POP PUSH1 0x40 MLOAD DUP1 SWAP2 SUB SWAP1 REVERT JUMPDEST DUP1 SWAP2 POP POP SWAP3 SWAP2 POP POP JUMP JUMPDEST PUSH1 0x0 DUP1 DUP4 EQ ISZERO PUSH2 0x2009 JUMPI PUSH1 0x0 SWAP1 POP PUSH2 0x2076 JUMP JUMPDEST PUSH1 0x0 DUP3 DUP5 MUL SWAP1 POP DUP3 DUP5 DUP3 DUP2 PUSH2 0x201A JUMPI INVALID JUMPDEST DIV EQ PUSH2 0x2071 JUMPI PUSH1 0x40 MLOAD PUSH32 0x8C379A000000000000000000000000000000000000000000000000000000000 DUP2 MSTORE PUSH1 0x4 ADD DUP1 DUP1 PUSH1 0x20 ADD DUP3 DUP2 SUB DUP3 MSTORE PUSH1 0x21 DUP2 MSTORE PUSH1 0x20 ADD DUP1 PUSH2 0x2143 PUSH1 0x21 SWAP2 CODECOPY PUSH1 0x40 ADD SWAP2 POP POP PUSH1 0x40 MLOAD DUP1 SWAP2 SUB SWAP1 REVERT JUMPDEST DUP1 SWAP2 POP POP JUMPDEST SWAP3 SWAP2 POP POP JUMP JUMPDEST PUSH1 0x0 DUP1 DUP3 GT PUSH2 0x20F3 JUMPI PUSH1 0x40 MLOAD PUSH32 0x8C379A000000000000000000000000000000000000000000000000000000000 DUP2 MSTORE PUSH1 0x4 ADD DUP1 DUP1 PUSH1 0x20 ADD DUP3 DUP2 SUB DUP3 MSTORE PUSH1 0x1A DUP2 MSTORE PUSH1 0x20 ADD DUP1 PUSH32 0x536166654D6174683A206469766973696F6E206279207A65726F000000000000 DUP2 MSTORE POP PUSH1 0x20 ADD SWAP2 POP POP PUSH1 0x40 MLOAD DUP1 SWAP2 SUB SWAP1 REVERT JUMPDEST PUSH1 0x0 DUP3 DUP5 DUP2 PUSH2 0x20FE JUMPI INVALID JUMPDEST DIV SWAP1 POP DUP1 SWAP2 POP POP SWAP3 SWAP2 POP POP JUMP JUMPDEST PUSH1 0x0 PUSH2 0x213A DUP3 PUSH2 0x212C PUSH8 0xDE0B6B3A7640000 DUP7 PUSH2 0x1FF6 SWAP1 SWAP2 SWAP1 PUSH4 0xFFFFFFFF AND JUMP JUMPDEST PUSH2 0x207C SWAP1 SWAP2 SWAP1 PUSH4 0xFFFFFFFF AND JUMP JUMPDEST SWAP1 POP SWAP3 SWAP2 POP POP JUMP INVALID MSTORE8 PUSH2 0x6665 0x4D PUSH2 0x7468 GASPRICE KECCAK256 PUSH14 0x756C7469706C69636174696F6E20 PUSH16 0x766572666C6F77A26469706673582212 KECCAK256 0x4B CREATE2 0xE2 0xC7 0xD0 ADDMOD 0xFB SWAP5 DUP3 0xAC TIMESTAMP 0xCB 0x4A GASPRICE 0xF9 SWAP5 0xE6 0xAA PUSH2 0x63C6 SWAP10 0xB0 EXTCODEHASH DUP8 0x1F CREATE2 LT LOG0 0xBE 0xE3 0xA8 PUSH5 0x736F6C6343 STOP MOD 0xC STOP CALLER "
				},
				"gasEstimates": {
					"creation": {
						"codeDepositCost": "1720200",
						"executionCost": "infinite",
						"totalCost": "infinite"
					},
					"external": {
						"accPerShare()": "1050",
						"deposit(uint256)": "infinite",
						"getEther()": "2693",
						"getPkBalance()": "infinite",
						"getStakingCoinPerSec()": "infinite",
						"getTime()": "258",
						"lastUpdateTime()": "1094",
						"lpBalance()": "infinite",
						"myBenefits()": "infinite",
						"myValue()": "infinite",
						"newContractAddress()": "1137",
						"owner()": "1115",
						"pendingCoin()": "infinite",
						"setFeeAddress(address)": "22093",
						"setLp(address)": "22062",
						"setStakingSwitch(bool)": "42164",
						"sharesPrice()": "infinite",
						"stakingStartTime()": "1073",
						"stakingSwitch()": "1113",
						"totalAmount()": "1096",
						"totalLpFee()": "1050",
						"totalShares()": "1095",
						"totalStakingAmount()": "infinite",
						"transferLpFee(uint256)": "infinite",
						"updatePool()": "infinite",
						"userInfo(address)": "7076",
						"withdraw(uint256)": "infinite",
						"withdrawFeePeriod()": "1094"
					},
					"internal": {
						"decimalMul(uint256,uint256)": "infinite",
						"divFloor(uint256,uint256)": "infinite"
					}
				},
				"methodIdentifiers": {
					"accPerShare()": "d2890a01",
					"deposit(uint256)": "b6b55f25",
					"getEther()": "de0ff7c5",
					"getPkBalance()": "7b27c1d1",
					"getStakingCoinPerSec()": "b8a3b366",
					"getTime()": "557ed1ba",
					"lastUpdateTime()": "c8f33c91",
					"lpBalance()": "2059f615",
					"myBenefits()": "936b6cec",
					"myValue()": "47f1aae7",
					"newContractAddress()": "6af04a57",
					"owner()": "8da5cb5b",
					"pendingCoin()": "fc3e532b",
					"setFeeAddress(address)": "8705fcd4",
					"setLp(address)": "f4c2baa9",
					"setStakingSwitch(bool)": "81ad5718",
					"sharesPrice()": "77926869",
					"stakingStartTime()": "6abfd183",
					"stakingSwitch()": "e6fa445d",
					"totalAmount()": "1a39d8ef",
					"totalLpFee()": "6d3c832f",
					"totalShares()": "3a98ef39",
					"totalStakingAmount()": "d201114a",
					"transferLpFee(uint256)": "0b26b6a8",
					"updatePool()": "e3161ddd",
					"userInfo(address)": "1959a002",
					"withdraw(uint256)": "2e1a7d4d",
					"withdrawFeePeriod()": "df10b4e6"
				}
			},
			"userdoc": {
				"kind": "user",
				"methods": {},
				"version": 1
			}
		}
	}
}