{
	"BasicCoin/PokerToken.sol": {
		"PokerToken": {
			"abi": [
				{
					"inputs": [],
					"stateMutability": "nonpayable",
					"type": "constructor"
				},
				{
					"anonymous": false,
					"inputs": [
						{
							"indexed": true,
							"internalType": "address",
							"name": "owner",
							"type": "address"
						},
						{
							"indexed": true,
							"internalType": "address",
							"name": "spender",
							"type": "address"
						},
						{
							"indexed": false,
							"internalType": "uint256",
							"name": "value",
							"type": "uint256"
						}
					],
					"name": "Approval",
					"type": "event"
				},
				{
					"anonymous": false,
					"inputs": [
						{
							"indexed": true,
							"internalType": "address",
							"name": "previousOwner",
							"type": "address"
						},
						{
							"indexed": true,
							"internalType": "address",
							"name": "newOwner",
							"type": "address"
						}
					],
					"name": "OwnershipTransferred",
					"type": "event"
				},
				{
					"anonymous": false,
					"inputs": [
						{
							"indexed": true,
							"internalType": "address",
							"name": "from",
							"type": "address"
						},
						{
							"indexed": true,
							"internalType": "address",
							"name": "to",
							"type": "address"
						},
						{
							"indexed": false,
							"internalType": "uint256",
							"name": "value",
							"type": "uint256"
						}
					],
					"name": "Transfer",
					"type": "event"
				},
				{
					"inputs": [],
					"name": "YEAR_MINT_NUM",
					"outputs": [
						{
							"internalType": "uint256",
							"name": "",
							"type": "uint256"
						}
					],
					"stateMutability": "view",
					"type": "function"
				},
				{
					"inputs": [
						{
							"internalType": "address",
							"name": "_addMinter",
							"type": "address"
						},
						{
							"internalType": "uint256",
							"name": "_amount",
							"type": "uint256"
						}
					],
					"name": "addMinter",
					"outputs": [
						{
							"internalType": "bool",
							"name": "",
							"type": "bool"
						}
					],
					"stateMutability": "nonpayable",
					"type": "function"
				},
				{
					"inputs": [
						{
							"internalType": "address",
							"name": "_owner",
							"type": "address"
						},
						{
							"internalType": "address",
							"name": "_spender",
							"type": "address"
						}
					],
					"name": "allowance",
					"outputs": [
						{
							"internalType": "uint256",
							"name": "",
							"type": "uint256"
						}
					],
					"stateMutability": "view",
					"type": "function"
				},
				{
					"inputs": [
						{
							"internalType": "address",
							"name": "_spender",
							"type": "address"
						},
						{
							"internalType": "uint256",
							"name": "_amount",
							"type": "uint256"
						}
					],
					"name": "approve",
					"outputs": [
						{
							"internalType": "bool",
							"name": "",
							"type": "bool"
						}
					],
					"stateMutability": "nonpayable",
					"type": "function"
				},
				{
					"inputs": [
						{
							"internalType": "address",
							"name": "_owner",
							"type": "address"
						}
					],
					"name": "balanceOf",
					"outputs": [
						{
							"internalType": "uint256",
							"name": "",
							"type": "uint256"
						}
					],
					"stateMutability": "view",
					"type": "function"
				},
				{
					"inputs": [
						{
							"internalType": "address[]",
							"name": "holders",
							"type": "address[]"
						}
					],
					"name": "batchTransferToken",
					"outputs": [],
					"stateMutability": "nonpayable",
					"type": "function"
				},
				{
					"inputs": [
						{
							"internalType": "uint256",
							"name": "amount_",
							"type": "uint256"
						}
					],
					"name": "burn",
					"outputs": [],
					"stateMutability": "nonpayable",
					"type": "function"
				},
				{
					"inputs": [
						{
							"internalType": "address",
							"name": "",
							"type": "address"
						}
					],
					"name": "contractMintLimit",
					"outputs": [
						{
							"internalType": "uint256",
							"name": "",
							"type": "uint256"
						}
					],
					"stateMutability": "view",
					"type": "function"
				},
				{
					"inputs": [],
					"name": "decimals",
					"outputs": [
						{
							"internalType": "uint8",
							"name": "",
							"type": "uint8"
						}
					],
					"stateMutability": "view",
					"type": "function"
				},
				{
					"inputs": [
						{
							"internalType": "address",
							"name": "_delMinter",
							"type": "address"
						}
					],
					"name": "delMinter",
					"outputs": [
						{
							"internalType": "bool",
							"name": "",
							"type": "bool"
						}
					],
					"stateMutability": "nonpayable",
					"type": "function"
				},
				{
					"inputs": [
						{
							"internalType": "uint256",
							"name": "_index",
							"type": "uint256"
						}
					],
					"name": "getMinter",
					"outputs": [
						{
							"internalType": "address",
							"name": "",
							"type": "address"
						}
					],
					"stateMutability": "view",
					"type": "function"
				},
				{
					"inputs": [],
					"name": "getMinterLength",
					"outputs": [
						{
							"internalType": "uint256",
							"name": "",
							"type": "uint256"
						}
					],
					"stateMutability": "view",
					"type": "function"
				},
				{
					"inputs": [],
					"name": "getYear",
					"outputs": [
						{
							"internalType": "uint256",
							"name": "year",
							"type": "uint256"
						}
					],
					"stateMutability": "view",
					"type": "function"
				},
				{
					"inputs": [
						{
							"internalType": "address",
							"name": "account",
							"type": "address"
						}
					],
					"name": "isMinter",
					"outputs": [
						{
							"internalType": "bool",
							"name": "",
							"type": "bool"
						}
					],
					"stateMutability": "view",
					"type": "function"
				},
				{
					"inputs": [],
					"name": "isOwner",
					"outputs": [
						{
							"internalType": "bool",
							"name": "",
							"type": "bool"
						}
					],
					"stateMutability": "view",
					"type": "function"
				},
				{
					"inputs": [
						{
							"internalType": "address",
							"name": "_to",
							"type": "address"
						},
						{
							"internalType": "uint256",
							"name": "_amount",
							"type": "uint256"
						}
					],
					"name": "mint",
					"outputs": [
						{
							"internalType": "bool",
							"name": "",
							"type": "bool"
						}
					],
					"stateMutability": "nonpayable",
					"type": "function"
				},
				{
					"inputs": [
						{
							"internalType": "uint256",
							"name": "amount_",
							"type": "uint256"
						}
					],
					"name": "mint",
					"outputs": [],
					"stateMutability": "nonpayable",
					"type": "function"
				},
				{
					"inputs": [],
					"name": "name",
					"outputs": [
						{
							"internalType": "string",
							"name": "",
							"type": "string"
						}
					],
					"stateMutability": "view",
					"type": "function"
				},
				{
					"inputs": [],
					"name": "owner",
					"outputs": [
						{
							"internalType": "address",
							"name": "",
							"type": "address"
						}
					],
					"stateMutability": "view",
					"type": "function"
				},
				{
					"inputs": [
						{
							"internalType": "address",
							"name": "",
							"type": "address"
						},
						{
							"internalType": "uint256",
							"name": "",
							"type": "uint256"
						}
					],
					"name": "recordContractLimit",
					"outputs": [
						{
							"internalType": "uint256",
							"name": "",
							"type": "uint256"
						}
					],
					"stateMutability": "view",
					"type": "function"
				},
				{
					"inputs": [
						{
							"internalType": "uint256",
							"name": "num",
							"type": "uint256"
						}
					],
					"name": "setBatchAmount",
					"outputs": [],
					"stateMutability": "nonpayable",
					"type": "function"
				},
				{
					"inputs": [
						{
							"internalType": "address",
							"name": "ads",
							"type": "address"
						},
						{
							"internalType": "uint256",
							"name": "num",
							"type": "uint256"
						}
					],
					"name": "setContractMintNum",
					"outputs": [],
					"stateMutability": "nonpayable",
					"type": "function"
				},
				{
					"inputs": [
						{
							"internalType": "uint256",
							"name": "num",
							"type": "uint256"
						}
					],
					"name": "setYearMintNum",
					"outputs": [],
					"stateMutability": "nonpayable",
					"type": "function"
				},
				{
					"inputs": [],
					"name": "symbol",
					"outputs": [
						{
							"internalType": "string",
							"name": "",
							"type": "string"
						}
					],
					"stateMutability": "view",
					"type": "function"
				},
				{
					"inputs": [],
					"name": "totalSupply",
					"outputs": [
						{
							"internalType": "uint256",
							"name": "",
							"type": "uint256"
						}
					],
					"stateMutability": "view",
					"type": "function"
				},
				{
					"inputs": [
						{
							"internalType": "address",
							"name": "_to",
							"type": "address"
						},
						{
							"internalType": "uint256",
							"name": "_amount",
							"type": "uint256"
						}
					],
					"name": "transfer",
					"outputs": [
						{
							"internalType": "bool",
							"name": "",
							"type": "bool"
						}
					],
					"stateMutability": "nonpayable",
					"type": "function"
				},
				{
					"inputs": [
						{
							"internalType": "address",
							"name": "_from",
							"type": "address"
						},
						{
							"internalType": "address",
							"name": "_to",
							"type": "address"
						},
						{
							"internalType": "uint256",
							"name": "_amount",
							"type": "uint256"
						}
					],
					"name": "transferFrom",
					"outputs": [
						{
							"internalType": "bool",
							"name": "",
							"type": "bool"
						}
					],
					"stateMutability": "nonpayable",
					"type": "function"
				},
				{
					"inputs": [
						{
							"internalType": "uint256",
							"name": "",
							"type": "uint256"
						}
					],
					"name": "yearMintLimit",
					"outputs": [
						{
							"internalType": "uint256",
							"name": "",
							"type": "uint256"
						}
					],
					"stateMutability": "view",
					"type": "function"
				}
			],
			"devdoc": {
				"kind": "dev",
				"methods": {
					"allowance(address,address)": {
						"details": "See {IERC20-allowance}."
					},
					"approve(address,uint256)": {
						"details": "See {IERC20-approve}. Requirements: - `_spender` cannot be the zero address."
					},
					"balanceOf(address)": {
						"details": "See {IERC20-balanceOf}."
					},
					"owner()": {
						"details": "Returns the address of the current owner."
					},
					"totalSupply()": {
						"details": "See {IERC20-totalSupply}."
					},
					"transfer(address,uint256)": {
						"details": "See {IERC20-transfer}. Requirements: - `_to` cannot be the zero address. - the caller must have a balance of at least `_amount`."
					},
					"transferFrom(address,address,uint256)": {
						"details": "See {IERC20-transferFrom}. Emits an {Approval} event indicating the updated allowance. This is not required by the EIP. See the note at the beginning of {ERC20}. Requirements: - `_from` and `_to` cannot be the zero address. - `_from` must have a balance of at least `_amount`. - the caller must have allowance for `_from`'s tokens of at least `_amount`."
					}
				},
				"version": 1
			},
			"evm": {
				"assembly": "    /* \"BasicCoin/PokerToken.sol\":9482:14104  contract PokerToken is ERC20, Ownable {\r... */\n  mstore(0x40, 0x80)\n    /* \"BasicCoin/PokerToken.sol\":9891:9910  1000000000 * 10**18 */\n  0x033b2e3c9fd0803ce8000000\n    /* \"BasicCoin/PokerToken.sol\":9860:9910  uint256 public YEAR_MINT_NUM = 1000000000 * 10**18 */\n  0x0b\n  sstore\n    /* \"BasicCoin/PokerToken.sol\":13634:13640  10**18 */\n  0x0de0b6b3a7640000\n    /* \"BasicCoin/PokerToken.sol\":13612:13640  uint256 batchAmount = 10**18 */\n  0x0c\n  sstore\n    /* \"BasicCoin/PokerToken.sol\":9919:9973  constructor() public ERC20(\"POKER\", \"POKER\", 18, 0) {} */\n  callvalue\n  dup1\n  iszero\n  tag_1\n  jumpi\n  0x00\n  dup1\n  revert\ntag_1:\n  pop\n    /* \"_lib/ERC20.sol\":1552:1909  constructor(\r... */\n  mload(0x40)\n  dup1\n  0x40\n  add\n  0x40\n  mstore\n  dup1\n  0x05\n  dup2\n  mstore\n  0x20\n  add\n  0x504f4b4552000000000000000000000000000000000000000000000000000000\n  dup2\n  mstore\n  pop\n  mload(0x40)\n  dup1\n  0x40\n  add\n  0x40\n  mstore\n  dup1\n  0x05\n  dup2\n  mstore\n  0x20\n  add\n  0x504f4b4552000000000000000000000000000000000000000000000000000000\n  dup2\n  mstore\n  pop\n    /* \"BasicCoin/PokerToken.sol\":9964:9966  18 */\n  0x12\n    /* \"BasicCoin/PokerToken.sol\":9968:9969  0 */\n  0x00\n    /* \"_lib/ERC20.sol\":1710:1715  _name */\n  dup4\n    /* \"_lib/ERC20.sol\":1703:1707  name */\n  0x03\n    /* \"_lib/ERC20.sol\":1703:1715  name = _name */\n  swap1\n  dup1\n  mload\n  swap1\n  0x20\n  add\n  swap1\n  tag_6\n  swap3\n  swap2\n  swap1\n  tag_7\n  jump\t// in\ntag_6:\n  pop\n    /* \"_lib/ERC20.sol\":1735:1742  _symbol */\n  dup3\n    /* \"_lib/ERC20.sol\":1726:1732  symbol */\n  0x04\n    /* \"_lib/ERC20.sol\":1726:1742  symbol = _symbol */\n  swap1\n  dup1\n  mload\n  swap1\n  0x20\n  add\n  swap1\n  tag_8\n  swap3\n  swap2\n  swap1\n  tag_7\n  jump\t// in\ntag_8:\n  pop\n    /* \"_lib/ERC20.sol\":1764:1773  _decimals */\n  dup2\n    /* \"_lib/ERC20.sol\":1753:1761  decimals */\n  0x05\n  0x00\n    /* \"_lib/ERC20.sol\":1753:1773  decimals = _decimals */\n  0x0100\n  exp\n  dup2\n  sload\n  dup2\n  0xff\n  mul\n  not\n  and\n  swap1\n  dup4\n  0xff\n  and\n  mul\n  or\n  swap1\n  sstore\n  pop\n    /* \"_lib/ERC20.sol\":1816:1825  _decimals */\n  dup2\n    /* \"_lib/ERC20.sol\":1808:1826  uint256(_decimals) */\n  0xff\n  and\n    /* \"_lib/ERC20.sol\":1804:1806  10 */\n  0x0a\n    /* \"_lib/ERC20.sol\":1804:1826  10**uint256(_decimals) */\n  exp\n    /* \"_lib/ERC20.sol\":1794:1801  _supply */\n  dup2\n    /* \"_lib/ERC20.sol\":1794:1826  _supply * 10**uint256(_decimals) */\n  mul\n    /* \"_lib/ERC20.sol\":1784:1826  _supply = _supply * 10**uint256(_decimals) */\n  swap1\n  pop\n    /* \"_lib/ERC20.sol\":1852:1859  _supply */\n  dup1\n    /* \"_lib/ERC20.sol\":1837:1849  _totalSupply */\n  0x02\n    /* \"_lib/ERC20.sol\":1837:1859  _totalSupply = _supply */\n  dup2\n  swap1\n  sstore\n  pop\n    /* \"_lib/ERC20.sol\":1894:1901  _supply */\n  dup1\n    /* \"_lib/ERC20.sol\":1870:1879  _balances */\n  0x00\n    /* \"_lib/ERC20.sol\":1870:1891  _balances[msg.sender] */\n  dup1\n    /* \"_lib/ERC20.sol\":1880:1890  msg.sender */\n  caller\n    /* \"_lib/ERC20.sol\":1870:1891  _balances[msg.sender] */\n  0xffffffffffffffffffffffffffffffffffffffff\n  and\n  0xffffffffffffffffffffffffffffffffffffffff\n  and\n  dup2\n  mstore\n  0x20\n  add\n  swap1\n  dup2\n  mstore\n  0x20\n  add\n  0x00\n  keccak256\n    /* \"_lib/ERC20.sol\":1870:1901  _balances[msg.sender] = _supply */\n  dup2\n  swap1\n  sstore\n  pop\n    /* \"_lib/ERC20.sol\":1552:1909  constructor(\r... */\n  pop\n  pop\n  pop\n  pop\n    /* \"_lib/Ownable.sol\":398:410  _msgSender() */\n  tag_10\n    /* \"_lib/Ownable.sol\":398:408  _msgSender */\n  shl(0x20, tag_11)\n    /* \"_lib/Ownable.sol\":398:410  _msgSender() */\n  0x20\n  shr\n  jump\t// in\ntag_10:\n    /* \"_lib/Ownable.sol\":389:395  _owner */\n  0x05\n  0x01\n    /* \"_lib/Ownable.sol\":389:410  _owner = _msgSender() */\n  0x0100\n  exp\n  dup2\n  sload\n  dup2\n  0xffffffffffffffffffffffffffffffffffffffff\n  mul\n  not\n  and\n  swap1\n  dup4\n  0xffffffffffffffffffffffffffffffffffffffff\n  and\n  mul\n  or\n  swap1\n  sstore\n  pop\n    /* \"_lib/Ownable.sol\":459:465  _owner */\n  0x05\n  0x01\n  swap1\n  sload\n  swap1\n  0x0100\n  exp\n  swap1\n  div\n  0xffffffffffffffffffffffffffffffffffffffff\n  and\n    /* \"_lib/Ownable.sol\":426:466  OwnershipTransferred(address(0), _owner) */\n  0xffffffffffffffffffffffffffffffffffffffff\n  and\n    /* \"_lib/Ownable.sol\":455:456  0 */\n  0x00\n    /* \"_lib/Ownable.sol\":426:466  OwnershipTransferred(address(0), _owner) */\n  0xffffffffffffffffffffffffffffffffffffffff\n  and\n  0x8be0079c531659141344cd1fd0a4f28419497f9722a3daafe3b4186f6b6457e0\n  mload(0x40)\n  mload(0x40)\n  dup1\n  swap2\n  sub\n  swap1\n  log3\n    /* \"BasicCoin/PokerToken.sol\":9482:14104  contract PokerToken is ERC20, Ownable {\r... */\n  jump(tag_13)\n    /* \"_lib/Context.sol\":605:711  function _msgSender() internal view virtual returns (address payable) {\r... */\ntag_11:\n    /* \"_lib/Context.sol\":658:673  address payable */\n  0x00\n    /* \"_lib/Context.sol\":693:703  msg.sender */\n  caller\n    /* \"_lib/Context.sol\":686:703  return msg.sender */\n  swap1\n  pop\n    /* \"_lib/Context.sol\":605:711  function _msgSender() internal view virtual returns (address payable) {\r... */\n  swap1\n  jump\t// out\n    /* \"BasicCoin/PokerToken.sol\":9482:14104  contract PokerToken is ERC20, Ownable {\r... */\ntag_7:\n  dup3\n  dup1\n  sload\n  0x01\n  dup2\n  0x01\n  and\n  iszero\n  0x0100\n  mul\n  sub\n  and\n  0x02\n  swap1\n  div\n  swap1\n  0x00\n  mstore\n  keccak256(0x00, 0x20)\n  swap1\n  0x1f\n  add\n  0x20\n  swap1\n  div\n  dup2\n  add\n  swap3\n  dup3\n  0x1f\n  lt\n  tag_16\n  jumpi\n  dup1\n  mload\n  not(0xff)\n  and\n  dup4\n  dup1\n  add\n  or\n  dup6\n  sstore\n  jump(tag_15)\ntag_16:\n  dup3\n  dup1\n  add\n  0x01\n  add\n  dup6\n  sstore\n  dup3\n  iszero\n  tag_15\n  jumpi\n  swap2\n  dup3\n  add\ntag_17:\n  dup3\n  dup2\n  gt\n  iszero\n  tag_18\n  jumpi\n  dup3\n  mload\n  dup3\n  sstore\n  swap2\n  0x20\n  add\n  swap2\n  swap1\n  0x01\n  add\n  swap1\n  jump(tag_17)\ntag_18:\ntag_15:\n  pop\n  swap1\n  pop\n  tag_19\n  swap2\n  swap1\n  tag_20\n  jump\t// in\ntag_19:\n  pop\n  swap1\n  jump\t// out\ntag_20:\ntag_21:\n  dup1\n  dup3\n  gt\n  iszero\n  tag_22\n  jumpi\n  0x00\n  dup2\n  0x00\n  swap1\n  sstore\n  pop\n  0x01\n  add\n  jump(tag_21)\ntag_22:\n  pop\n  swap1\n  jump\t// out\ntag_13:\n  dataSize(sub_0)\n  dup1\n  dataOffset(sub_0)\n  0x00\n  codecopy\n  0x00\n  return\nstop\n\nsub_0: assembly {\n        /* \"BasicCoin/PokerToken.sol\":9482:14104  contract PokerToken is ERC20, Ownable {\r... */\n      mstore(0x40, 0x80)\n      callvalue\n      dup1\n      iszero\n      tag_1\n      jumpi\n      0x00\n      dup1\n      revert\n    tag_1:\n      pop\n      jumpi(tag_2, lt(calldatasize, 0x04))\n      shr(0xe0, calldataload(0x00))\n      dup1\n      0x761248b4\n      gt\n      tag_31\n      jumpi\n      dup1\n      0xaa271e1a\n      gt\n      tag_32\n      jumpi\n      dup1\n      0xdd62ed3e\n      gt\n      tag_33\n      jumpi\n      dup1\n      0xdd62ed3e\n      eq\n      tag_27\n      jumpi\n      dup1\n      0xe1665f56\n      eq\n      tag_28\n      jumpi\n      dup1\n      0xe235a4a6\n      eq\n      tag_29\n      jumpi\n      dup1\n      0xfd08921b\n      eq\n      tag_30\n      jumpi\n      jump(tag_2)\n    tag_33:\n      dup1\n      0xaa271e1a\n      eq\n      tag_24\n      jumpi\n      dup1\n      0xb56a711c\n      eq\n      tag_25\n      jumpi\n      dup1\n      0xdb6783b8\n      eq\n      tag_26\n      jumpi\n      jump(tag_2)\n    tag_32:\n      dup1\n      0x9098f2a7\n      gt\n      tag_34\n      jumpi\n      dup1\n      0x9098f2a7\n      eq\n      tag_20\n      jumpi\n      dup1\n      0x95d89b41\n      eq\n      tag_21\n      jumpi\n      dup1\n      0xa0712d68\n      eq\n      tag_22\n      jumpi\n      dup1\n      0xa9059cbb\n      eq\n      tag_23\n      jumpi\n      jump(tag_2)\n    tag_34:\n      dup1\n      0x761248b4\n      eq\n      tag_17\n      jumpi\n      dup1\n      0x8da5cb5b\n      eq\n      tag_18\n      jumpi\n      dup1\n      0x8f32d59b\n      eq\n      tag_19\n      jumpi\n      jump(tag_2)\n    tag_31:\n      dup1\n      0x23b872dd\n      gt\n      tag_35\n      jumpi\n      dup1\n      0x42966c68\n      gt\n      tag_36\n      jumpi\n      dup1\n      0x42966c68\n      eq\n      tag_13\n      jumpi\n      dup1\n      0x599a1c3a\n      eq\n      tag_14\n      jumpi\n      dup1\n      0x5b7121f8\n      eq\n      tag_15\n      jumpi\n      dup1\n      0x70a08231\n      eq\n      tag_16\n      jumpi\n      jump(tag_2)\n    tag_36:\n      dup1\n      0x23b872dd\n      eq\n      tag_10\n      jumpi\n      dup1\n      0x313ce567\n      eq\n      tag_11\n      jumpi\n      dup1\n      0x40c10f19\n      eq\n      tag_12\n      jumpi\n      jump(tag_2)\n    tag_35:\n      dup1\n      0x095ea7b3\n      gt\n      tag_37\n      jumpi\n      dup1\n      0x095ea7b3\n      eq\n      tag_6\n      jumpi\n      dup1\n      0x18160ddd\n      eq\n      tag_7\n      jumpi\n      dup1\n      0x230614fb\n      eq\n      tag_8\n      jumpi\n      dup1\n      0x23338b88\n      eq\n      tag_9\n      jumpi\n      jump(tag_2)\n    tag_37:\n      dup1\n      0x0323aac7\n      eq\n      tag_3\n      jumpi\n      dup1\n      0x06fdde03\n      eq\n      tag_4\n      jumpi\n      dup1\n      0x092654a0\n      eq\n      tag_5\n      jumpi\n    tag_2:\n      0x00\n      dup1\n      revert\n        /* \"BasicCoin/PokerToken.sol\":11779:11892  function getMinterLength() public view returns (uint256) {\r... */\n    tag_3:\n      tag_38\n      tag_39\n      jump\t// in\n    tag_38:\n      mload(0x40)\n      dup1\n      dup3\n      dup2\n      mstore\n      0x20\n      add\n      swap2\n      pop\n      pop\n      mload(0x40)\n      dup1\n      swap2\n      sub\n      swap1\n      return\n        /* \"_lib/ERC20.sol\":445:463  string public name */\n    tag_4:\n      tag_40\n      tag_41\n      jump\t// in\n    tag_40:\n      mload(0x40)\n      dup1\n      dup1\n      0x20\n      add\n      dup3\n      dup2\n      sub\n      dup3\n      mstore\n      dup4\n      dup2\n      dup2\n      mload\n      dup2\n      mstore\n      0x20\n      add\n      swap2\n      pop\n      dup1\n      mload\n      swap1\n      0x20\n      add\n      swap1\n      dup1\n      dup4\n      dup4\n      0x00\n    tag_42:\n      dup4\n      dup2\n      lt\n      iszero\n      tag_44\n      jumpi\n      dup1\n      dup3\n      add\n      mload\n      dup2\n      dup5\n      add\n      mstore\n      0x20\n      dup2\n      add\n      swap1\n      pop\n      jump(tag_42)\n    tag_44:\n      pop\n      pop\n      pop\n      pop\n      swap1\n      pop\n      swap1\n      dup2\n      add\n      swap1\n      0x1f\n      and\n      dup1\n      iszero\n      tag_45\n      jumpi\n      dup1\n      dup3\n      sub\n      dup1\n      mload\n      0x01\n      dup4\n      0x20\n      sub\n      0x0100\n      exp\n      sub\n      not\n      and\n      dup2\n      mstore\n      0x20\n      add\n      swap2\n      pop\n    tag_45:\n      pop\n      swap3\n      pop\n      pop\n      pop\n      mload(0x40)\n      dup1\n      swap2\n      sub\n      swap1\n      return\n        /* \"BasicCoin/PokerToken.sol\":9720:9772  mapping(address => uint256) public contractMintLimit */\n    tag_5:\n      tag_46\n      0x04\n      dup1\n      calldatasize\n      sub\n      0x20\n      dup2\n      lt\n      iszero\n      tag_47\n      jumpi\n      0x00\n      dup1\n      revert\n    tag_47:\n      dup2\n      add\n      swap1\n      dup1\n      dup1\n      calldataload\n      0xffffffffffffffffffffffffffffffffffffffff\n      and\n      swap1\n      0x20\n      add\n      swap1\n      swap3\n      swap2\n      swap1\n      pop\n      pop\n      pop\n      tag_48\n      jump\t// in\n    tag_46:\n      mload(0x40)\n      dup1\n      dup3\n      dup2\n      mstore\n      0x20\n      add\n      swap2\n      pop\n      pop\n      mload(0x40)\n      dup1\n      swap2\n      sub\n      swap1\n      return\n        /* \"_lib/ERC20.sol\":3099:3298  function approve(address _spender, uint256 _amount)\r... */\n    tag_6:\n      tag_49\n      0x04\n      dup1\n      calldatasize\n      sub\n      0x40\n      dup2\n      lt\n      iszero\n      tag_50\n      jumpi\n      0x00\n      dup1\n      revert\n    tag_50:\n      dup2\n      add\n      swap1\n      dup1\n      dup1\n      calldataload\n      0xffffffffffffffffffffffffffffffffffffffff\n      and\n      swap1\n      0x20\n      add\n      swap1\n      swap3\n      swap2\n      swap1\n      dup1\n      calldataload\n      swap1\n      0x20\n      add\n      swap1\n      swap3\n      swap2\n      swap1\n      pop\n      pop\n      pop\n      tag_51\n      jump\t// in\n    tag_49:\n      mload(0x40)\n      dup1\n      dup3\n      iszero\n      iszero\n      dup2\n      mstore\n      0x20\n      add\n      swap2\n      pop\n      pop\n      mload(0x40)\n      dup1\n      swap2\n      sub\n      swap1\n      return\n        /* \"_lib/ERC20.sol\":1974:2076  function totalSupply() external view override returns (uint256) {\r... */\n    tag_7:\n      tag_52\n      tag_53\n      jump\t// in\n    tag_52:\n      mload(0x40)\n      dup1\n      dup3\n      dup2\n      mstore\n      0x20\n      add\n      swap2\n      pop\n      pop\n      mload(0x40)\n      dup1\n      swap2\n      sub\n      swap1\n      return\n        /* \"BasicCoin/PokerToken.sol\":13649:13972  function batchTransferToken(address[] memory holders) public {\r... */\n    tag_8:\n      tag_54\n      0x04\n      dup1\n      calldatasize\n      sub\n      0x20\n      dup2\n      lt\n      iszero\n      tag_55\n      jumpi\n      0x00\n      dup1\n      revert\n    tag_55:\n      dup2\n      add\n      swap1\n      dup1\n      dup1\n      calldataload\n      swap1\n      0x20\n      add\n      swap1\n      0x0100000000\n      dup2\n      gt\n      iszero\n      tag_56\n      jumpi\n      0x00\n      dup1\n      revert\n    tag_56:\n      dup3\n      add\n      dup4\n      0x20\n      dup3\n      add\n      gt\n      iszero\n      tag_57\n      jumpi\n      0x00\n      dup1\n      revert\n    tag_57:\n      dup1\n      calldataload\n      swap1\n      0x20\n      add\n      swap2\n      dup5\n      0x20\n      dup4\n      mul\n      dup5\n      add\n      gt\n      0x0100000000\n      dup4\n      gt\n      or\n      iszero\n      tag_58\n      jumpi\n      0x00\n      dup1\n      revert\n    tag_58:\n      swap2\n      swap1\n      dup1\n      dup1\n      0x20\n      mul\n      0x20\n      add\n      mload(0x40)\n      swap1\n      dup2\n      add\n      0x40\n      mstore\n      dup1\n      swap4\n      swap3\n      swap2\n      swap1\n      dup2\n      dup2\n      mstore\n      0x20\n      add\n      dup4\n      dup4\n      0x20\n      mul\n      dup1\n      dup3\n      dup5\n      calldatacopy\n      0x00\n      dup2\n      dup5\n      add\n      mstore\n      not(0x1f)\n      0x1f\n      dup3\n      add\n      and\n      swap1\n      pop\n      dup1\n      dup4\n      add\n      swap3\n      pop\n      pop\n      pop\n      pop\n      pop\n      pop\n      pop\n      swap2\n      swap3\n      swap2\n      swap3\n      swap1\n      pop\n      pop\n      pop\n      tag_59\n      jump\t// in\n    tag_54:\n      stop\n        /* \"BasicCoin/PokerToken.sol\":11505:11771  function delMinter(address _delMinter) public onlyOwner returns (bool) {\r... */\n    tag_9:\n      tag_60\n      0x04\n      dup1\n      calldatasize\n      sub\n      0x20\n      dup2\n      lt\n      iszero\n      tag_61\n      jumpi\n      0x00\n      dup1\n      revert\n    tag_61:\n      dup2\n      add\n      swap1\n      dup1\n      dup1\n      calldataload\n      0xffffffffffffffffffffffffffffffffffffffff\n      and\n      swap1\n      0x20\n      add\n      swap1\n      swap3\n      swap2\n      swap1\n      pop\n      pop\n      pop\n      tag_62\n      jump\t// in\n    tag_60:\n      mload(0x40)\n      dup1\n      dup3\n      iszero\n      iszero\n      dup2\n      mstore\n      0x20\n      add\n      swap2\n      pop\n      pop\n      mload(0x40)\n      dup1\n      swap2\n      sub\n      swap1\n      return\n        /* \"_lib/ERC20.sol\":3771:4175  function transferFrom(\r... */\n    tag_10:\n      tag_63\n      0x04\n      dup1\n      calldatasize\n      sub\n      0x60\n      dup2\n      lt\n      iszero\n      tag_64\n      jumpi\n      0x00\n      dup1\n      revert\n    tag_64:\n      dup2\n      add\n      swap1\n      dup1\n      dup1\n      calldataload\n      0xffffffffffffffffffffffffffffffffffffffff\n      and\n      swap1\n      0x20\n      add\n      swap1\n      swap3\n      swap2\n      swap1\n      dup1\n      calldataload\n      0xffffffffffffffffffffffffffffffffffffffff\n      and\n      swap1\n      0x20\n      add\n      swap1\n      swap3\n      swap2\n      swap1\n      dup1\n      calldataload\n      swap1\n      0x20\n      add\n      swap1\n      swap3\n      swap2\n      swap1\n      pop\n      pop\n      pop\n      tag_65\n      jump\t// in\n    tag_63:\n      mload(0x40)\n      dup1\n      dup3\n      iszero\n      iszero\n      dup2\n      mstore\n      0x20\n      add\n      swap2\n      pop\n      pop\n      mload(0x40)\n      dup1\n      swap2\n      sub\n      swap1\n      return\n        /* \"_lib/ERC20.sol\":1242:1263  uint8 public decimals */\n    tag_11:\n      tag_66\n      tag_67\n      jump\t// in\n    tag_66:\n      mload(0x40)\n      dup1\n      dup3\n      0xff\n      and\n      dup2\n      mstore\n      0x20\n      add\n      swap2\n      pop\n      pop\n      mload(0x40)\n      dup1\n      swap2\n      sub\n      swap1\n      return\n        /* \"BasicCoin/PokerToken.sol\":10424:11127  function mint(address _to, uint256 _amount)\r... */\n    tag_12:\n      tag_68\n      0x04\n      dup1\n      calldatasize\n      sub\n      0x40\n      dup2\n      lt\n      iszero\n      tag_69\n      jumpi\n      0x00\n      dup1\n      revert\n    tag_69:\n      dup2\n      add\n      swap1\n      dup1\n      dup1\n      calldataload\n      0xffffffffffffffffffffffffffffffffffffffff\n      and\n      swap1\n      0x20\n      add\n      swap1\n      swap3\n      swap2\n      swap1\n      dup1\n      calldataload\n      swap1\n      0x20\n      add\n      swap1\n      swap3\n      swap2\n      swap1\n      pop\n      pop\n      pop\n      tag_70\n      jump\t// in\n    tag_68:\n      mload(0x40)\n      dup1\n      dup3\n      iszero\n      iszero\n      dup2\n      mstore\n      0x20\n      add\n      swap2\n      pop\n      pop\n      mload(0x40)\n      dup1\n      swap2\n      sub\n      swap1\n      return\n        /* \"BasicCoin/PokerToken.sol\":9981:10066  function burn(uint256 amount_) external {\r... */\n    tag_13:\n      tag_71\n      0x04\n      dup1\n      calldatasize\n      sub\n      0x20\n      dup2\n      lt\n      iszero\n      tag_72\n      jumpi\n      0x00\n      dup1\n      revert\n    tag_72:\n      dup2\n      add\n      swap1\n      dup1\n      dup1\n      calldataload\n      swap1\n      0x20\n      add\n      swap1\n      swap3\n      swap2\n      swap1\n      pop\n      pop\n      pop\n      tag_73\n      jump\t// in\n    tag_71:\n      stop\n        /* \"BasicCoin/PokerToken.sol\":13324:13447  function setYearMintNum(uint256 num) public {\r... */\n    tag_14:\n      tag_74\n      0x04\n      dup1\n      calldatasize\n      sub\n      0x20\n      dup2\n      lt\n      iszero\n      tag_75\n      jumpi\n      0x00\n      dup1\n      revert\n    tag_75:\n      dup2\n      add\n      swap1\n      dup1\n      dup1\n      calldataload\n      swap1\n      0x20\n      add\n      swap1\n      swap3\n      swap2\n      swap1\n      pop\n      pop\n      pop\n      tag_76\n      jump\t// in\n    tag_74:\n      stop\n        /* \"BasicCoin/PokerToken.sol\":12037:12295  function getMinter(uint256 _index) public view onlyOwner returns (address) {\r... */\n    tag_15:\n      tag_77\n      0x04\n      dup1\n      calldatasize\n      sub\n      0x20\n      dup2\n      lt\n      iszero\n      tag_78\n      jumpi\n      0x00\n      dup1\n      revert\n    tag_78:\n      dup2\n      add\n      swap1\n      dup1\n      dup1\n      calldataload\n      swap1\n      0x20\n      add\n      swap1\n      swap3\n      swap2\n      swap1\n      pop\n      pop\n      pop\n      tag_79\n      jump\t// in\n    tag_77:\n      mload(0x40)\n      dup1\n      dup3\n      0xffffffffffffffffffffffffffffffffffffffff\n      and\n      dup2\n      mstore\n      0x20\n      add\n      swap2\n      pop\n      pop\n      mload(0x40)\n      dup1\n      swap2\n      sub\n      swap1\n      return\n        /* \"_lib/ERC20.sol\":2139:2299  function balanceOf(address _owner)\r... */\n    tag_16:\n      tag_80\n      0x04\n      dup1\n      calldatasize\n      sub\n      0x20\n      dup2\n      lt\n      iszero\n      tag_81\n      jumpi\n      0x00\n      dup1\n      revert\n    tag_81:\n      dup2\n      add\n      swap1\n      dup1\n      dup1\n      calldataload\n      0xffffffffffffffffffffffffffffffffffffffff\n      and\n      swap1\n      0x20\n      add\n      swap1\n      swap3\n      swap2\n      swap1\n      pop\n      pop\n      pop\n      tag_82\n      jump\t// in\n    tag_80:\n      mload(0x40)\n      dup1\n      dup3\n      dup2\n      mstore\n      0x20\n      add\n      swap2\n      pop\n      pop\n      mload(0x40)\n      dup1\n      swap2\n      sub\n      swap1\n      return\n        /* \"BasicCoin/PokerToken.sol\":11135:11497  function addMinter(address _addMinter, uint256 _amount)\r... */\n    tag_17:\n      tag_83\n      0x04\n      dup1\n      calldatasize\n      sub\n      0x40\n      dup2\n      lt\n      iszero\n      tag_84\n      jumpi\n      0x00\n      dup1\n      revert\n    tag_84:\n      dup2\n      add\n      swap1\n      dup1\n      dup1\n      calldataload\n      0xffffffffffffffffffffffffffffffffffffffff\n      and\n      swap1\n      0x20\n      add\n      swap1\n      swap3\n      swap2\n      swap1\n      dup1\n      calldataload\n      swap1\n      0x20\n      add\n      swap1\n      swap3\n      swap2\n      swap1\n      pop\n      pop\n      pop\n      tag_85\n      jump\t// in\n    tag_83:\n      mload(0x40)\n      dup1\n      dup3\n      iszero\n      iszero\n      dup2\n      mstore\n      0x20\n      add\n      swap2\n      pop\n      pop\n      mload(0x40)\n      dup1\n      swap2\n      sub\n      swap1\n      return\n        /* \"_lib/Ownable.sol\":555:634  function owner() public view returns (address) {\r... */\n    tag_18:\n      tag_86\n      tag_87\n      jump\t// in\n    tag_86:\n      mload(0x40)\n      dup1\n      dup3\n      0xffffffffffffffffffffffffffffffffffffffff\n      and\n      dup2\n      mstore\n      0x20\n      add\n      swap2\n      pop\n      pop\n      mload(0x40)\n      dup1\n      swap2\n      sub\n      swap1\n      return\n        /* \"_lib/Ownable.sol\":835:997  function isOwner() public view returns (bool){\r... */\n    tag_19:\n      tag_88\n      tag_89\n      jump\t// in\n    tag_88:\n      mload(0x40)\n      dup1\n      dup3\n      iszero\n      iszero\n      dup2\n      mstore\n      0x20\n      add\n      swap2\n      pop\n      pop\n      mload(0x40)\n      dup1\n      swap2\n      sub\n      swap1\n      return\n        /* \"BasicCoin/PokerToken.sol\":9665:9713  mapping(uint256 => uint256) public yearMintLimit */\n    tag_20:\n      tag_90\n      0x04\n      dup1\n      calldatasize\n      sub\n      0x20\n      dup2\n      lt\n      iszero\n      tag_91\n      jumpi\n      0x00\n      dup1\n      revert\n    tag_91:\n      dup2\n      add\n      swap1\n      dup1\n      dup1\n      calldataload\n      swap1\n      0x20\n      add\n      swap1\n      swap3\n      swap2\n      swap1\n      pop\n      pop\n      pop\n      tag_92\n      jump\t// in\n    tag_90:\n      mload(0x40)\n      dup1\n      dup3\n      dup2\n      mstore\n      0x20\n      add\n      swap2\n      pop\n      pop\n      mload(0x40)\n      dup1\n      swap2\n      sub\n      swap1\n      return\n        /* \"_lib/ERC20.sol\":583:603  string public symbol */\n    tag_21:\n      tag_93\n      tag_94\n      jump\t// in\n    tag_93:\n      mload(0x40)\n      dup1\n      dup1\n      0x20\n      add\n      dup3\n      dup2\n      sub\n      dup3\n      mstore\n      dup4\n      dup2\n      dup2\n      mload\n      dup2\n      mstore\n      0x20\n      add\n      swap2\n      pop\n      dup1\n      mload\n      swap1\n      0x20\n      add\n      swap1\n      dup1\n      dup4\n      dup4\n      0x00\n    tag_95:\n      dup4\n      dup2\n      lt\n      iszero\n      tag_97\n      jumpi\n      dup1\n      dup3\n      add\n      mload\n      dup2\n      dup5\n      add\n      mstore\n      0x20\n      dup2\n      add\n      swap1\n      pop\n      jump(tag_95)\n    tag_97:\n      pop\n      pop\n      pop\n      pop\n      swap1\n      pop\n      swap1\n      dup2\n      add\n      swap1\n      0x1f\n      and\n      dup1\n      iszero\n      tag_98\n      jumpi\n      dup1\n      dup3\n      sub\n      dup1\n      mload\n      0x01\n      dup4\n      0x20\n      sub\n      0x0100\n      exp\n      sub\n      not\n      and\n      dup2\n      mstore\n      0x20\n      add\n      swap2\n      pop\n    tag_98:\n      pop\n      swap3\n      pop\n      pop\n      pop\n      mload(0x40)\n      dup1\n      swap2\n      sub\n      swap1\n      return\n        /* \"BasicCoin/PokerToken.sol\":10074:10416  function mint(uint256 amount_) external {\r... */\n    tag_22:\n      tag_99\n      0x04\n      dup1\n      calldatasize\n      sub\n      0x20\n      dup2\n      lt\n      iszero\n      tag_100\n      jumpi\n      0x00\n      dup1\n      revert\n    tag_100:\n      dup2\n      add\n      swap1\n      dup1\n      dup1\n      calldataload\n      swap1\n      0x20\n      add\n      swap1\n      swap3\n      swap2\n      swap1\n      pop\n      pop\n      pop\n      tag_101\n      jump\t// in\n    tag_99:\n      stop\n        /* \"_lib/ERC20.sol\":2507:2698  function transfer(address _to, uint256 _amount)\r... */\n    tag_23:\n      tag_102\n      0x04\n      dup1\n      calldatasize\n      sub\n      0x40\n      dup2\n      lt\n      iszero\n      tag_103\n      jumpi\n      0x00\n      dup1\n      revert\n    tag_103:\n      dup2\n      add\n      swap1\n      dup1\n      dup1\n      calldataload\n      0xffffffffffffffffffffffffffffffffffffffff\n      and\n      swap1\n      0x20\n      add\n      swap1\n      swap3\n      swap2\n      swap1\n      dup1\n      calldataload\n      swap1\n      0x20\n      add\n      swap1\n      swap3\n      swap2\n      swap1\n      pop\n      pop\n      pop\n      tag_104\n      jump\t// in\n    tag_102:\n      mload(0x40)\n      dup1\n      dup3\n      iszero\n      iszero\n      dup2\n      mstore\n      0x20\n      add\n      swap2\n      pop\n      pop\n      mload(0x40)\n      dup1\n      swap2\n      sub\n      swap1\n      return\n        /* \"BasicCoin/PokerToken.sol\":11900:12029  function isMinter(address account) public view returns (bool) {\r... */\n    tag_24:\n      tag_105\n      0x04\n      dup1\n      calldatasize\n      sub\n      0x20\n      dup2\n      lt\n      iszero\n      tag_106\n      jumpi\n      0x00\n      dup1\n      revert\n    tag_106:\n      dup2\n      add\n      swap1\n      dup1\n      dup1\n      calldataload\n      0xffffffffffffffffffffffffffffffffffffffff\n      and\n      swap1\n      0x20\n      add\n      swap1\n      swap3\n      swap2\n      swap1\n      pop\n      pop\n      pop\n      tag_107\n      jump\t// in\n    tag_105:\n      mload(0x40)\n      dup1\n      dup3\n      iszero\n      iszero\n      dup2\n      mstore\n      0x20\n      add\n      swap2\n      pop\n      pop\n      mload(0x40)\n      dup1\n      swap2\n      sub\n      swap1\n      return\n        /* \"BasicCoin/PokerToken.sol\":13455:13604  function setContractMintNum(address ads, uint256 num) public {\r... */\n    tag_25:\n      tag_108\n      0x04\n      dup1\n      calldatasize\n      sub\n      0x40\n      dup2\n      lt\n      iszero\n      tag_109\n      jumpi\n      0x00\n      dup1\n      revert\n    tag_109:\n      dup2\n      add\n      swap1\n      dup1\n      dup1\n      calldataload\n      0xffffffffffffffffffffffffffffffffffffffff\n      and\n      swap1\n      0x20\n      add\n      swap1\n      swap3\n      swap2\n      swap1\n      dup1\n      calldataload\n      swap1\n      0x20\n      add\n      swap1\n      swap3\n      swap2\n      swap1\n      pop\n      pop\n      pop\n      tag_110\n      jump\t// in\n    tag_108:\n      stop\n        /* \"BasicCoin/PokerToken.sol\":13980:14101  function setBatchAmount(uint256 num) public {\r... */\n    tag_26:\n      tag_111\n      0x04\n      dup1\n      calldatasize\n      sub\n      0x20\n      dup2\n      lt\n      iszero\n      tag_112\n      jumpi\n      0x00\n      dup1\n      revert\n    tag_112:\n      dup2\n      add\n      swap1\n      dup1\n      dup1\n      calldataload\n      swap1\n      0x20\n      add\n      swap1\n      swap3\n      swap2\n      swap1\n      pop\n      pop\n      pop\n      tag_113\n      jump\t// in\n    tag_111:\n      stop\n        /* \"_lib/ERC20.sol\":2761:2951  function allowance(address _owner, address _spender)\r... */\n    tag_27:\n      tag_114\n      0x04\n      dup1\n      calldatasize\n      sub\n      0x40\n      dup2\n      lt\n      iszero\n      tag_115\n      jumpi\n      0x00\n      dup1\n      revert\n    tag_115:\n      dup2\n      add\n      swap1\n      dup1\n      dup1\n      calldataload\n      0xffffffffffffffffffffffffffffffffffffffff\n      and\n      swap1\n      0x20\n      add\n      swap1\n      swap3\n      swap2\n      swap1\n      dup1\n      calldataload\n      0xffffffffffffffffffffffffffffffffffffffff\n      and\n      swap1\n      0x20\n      add\n      swap1\n      swap3\n      swap2\n      swap1\n      pop\n      pop\n      pop\n      tag_116\n      jump\t// in\n    tag_114:\n      mload(0x40)\n      dup1\n      dup3\n      dup2\n      mstore\n      0x20\n      add\n      swap2\n      pop\n      pop\n      mload(0x40)\n      dup1\n      swap2\n      sub\n      swap1\n      return\n        /* \"BasicCoin/PokerToken.sol\":9860:9910  uint256 public YEAR_MINT_NUM = 1000000000 * 10**18 */\n    tag_28:\n      tag_117\n      tag_118\n      jump\t// in\n    tag_117:\n      mload(0x40)\n      dup1\n      dup3\n      dup2\n      mstore\n      0x20\n      add\n      swap2\n      pop\n      pop\n      mload(0x40)\n      dup1\n      swap2\n      sub\n      swap1\n      return\n        /* \"BasicCoin/PokerToken.sol\":9779:9853  mapping(address => mapping(uint256 => uint256)) public recordContractLimit */\n    tag_29:\n      tag_119\n      0x04\n      dup1\n      calldatasize\n      sub\n      0x40\n      dup2\n      lt\n      iszero\n      tag_120\n      jumpi\n      0x00\n      dup1\n      revert\n    tag_120:\n      dup2\n      add\n      swap1\n      dup1\n      dup1\n      calldataload\n      0xffffffffffffffffffffffffffffffffffffffff\n      and\n      swap1\n      0x20\n      add\n      swap1\n      swap3\n      swap2\n      swap1\n      dup1\n      calldataload\n      swap1\n      0x20\n      add\n      swap1\n      swap3\n      swap2\n      swap1\n      pop\n      pop\n      pop\n      tag_121\n      jump\t// in\n    tag_119:\n      mload(0x40)\n      dup1\n      dup3\n      dup2\n      mstore\n      0x20\n      add\n      swap2\n      pop\n      pop\n      mload(0x40)\n      dup1\n      swap2\n      sub\n      swap1\n      return\n        /* \"BasicCoin/PokerToken.sol\":12656:13316  function getYear() public view returns (uint256 year) {\r... */\n    tag_30:\n      tag_122\n      tag_123\n      jump\t// in\n    tag_122:\n      mload(0x40)\n      dup1\n      dup3\n      dup2\n      mstore\n      0x20\n      add\n      swap2\n      pop\n      pop\n      mload(0x40)\n      dup1\n      swap2\n      sub\n      swap1\n      return\n        /* \"BasicCoin/PokerToken.sol\":11779:11892  function getMinterLength() public view returns (uint256) {\r... */\n    tag_39:\n        /* \"BasicCoin/PokerToken.sol\":11827:11834  uint256 */\n      0x00\n        /* \"BasicCoin/PokerToken.sol\":11854:11884  EnumerableSet.length(_minters) */\n      tag_125\n        /* \"BasicCoin/PokerToken.sol\":11875:11883  _minters */\n      0x06\n        /* \"BasicCoin/PokerToken.sol\":11854:11874  EnumerableSet.length */\n      tag_126\n        /* \"BasicCoin/PokerToken.sol\":11854:11884  EnumerableSet.length(_minters) */\n      jump\t// in\n    tag_125:\n        /* \"BasicCoin/PokerToken.sol\":11847:11884  return EnumerableSet.length(_minters) */\n      swap1\n      pop\n        /* \"BasicCoin/PokerToken.sol\":11779:11892  function getMinterLength() public view returns (uint256) {\r... */\n      swap1\n      jump\t// out\n        /* \"_lib/ERC20.sol\":445:463  string public name */\n    tag_41:\n      0x03\n      dup1\n      sload\n      0x01\n      dup2\n      0x01\n      and\n      iszero\n      0x0100\n      mul\n      sub\n      and\n      0x02\n      swap1\n      div\n      dup1\n      0x1f\n      add\n      0x20\n      dup1\n      swap2\n      div\n      mul\n      0x20\n      add\n      mload(0x40)\n      swap1\n      dup2\n      add\n      0x40\n      mstore\n      dup1\n      swap3\n      swap2\n      swap1\n      dup2\n      dup2\n      mstore\n      0x20\n      add\n      dup3\n      dup1\n      sload\n      0x01\n      dup2\n      0x01\n      and\n      iszero\n      0x0100\n      mul\n      sub\n      and\n      0x02\n      swap1\n      div\n      dup1\n      iszero\n      tag_127\n      jumpi\n      dup1\n      0x1f\n      lt\n      tag_128\n      jumpi\n      0x0100\n      dup1\n      dup4\n      sload\n      div\n      mul\n      dup4\n      mstore\n      swap2\n      0x20\n      add\n      swap2\n      jump(tag_127)\n    tag_128:\n      dup3\n      add\n      swap2\n      swap1\n      0x00\n      mstore\n      keccak256(0x00, 0x20)\n      swap1\n    tag_129:\n      dup2\n      sload\n      dup2\n      mstore\n      swap1\n      0x01\n      add\n      swap1\n      0x20\n      add\n      dup1\n      dup4\n      gt\n      tag_129\n      jumpi\n      dup3\n      swap1\n      sub\n      0x1f\n      and\n      dup3\n      add\n      swap2\n    tag_127:\n      pop\n      pop\n      pop\n      pop\n      pop\n      dup2\n      jump\t// out\n        /* \"BasicCoin/PokerToken.sol\":9720:9772  mapping(address => uint256) public contractMintLimit */\n    tag_48:\n      mstore(0x20, 0x09)\n      dup1\n      0x00\n      mstore\n      keccak256(0x00, 0x40)\n      0x00\n      swap2\n      pop\n      swap1\n      pop\n      sload\n      dup2\n      jump\t// out\n        /* \"_lib/ERC20.sol\":3099:3298  function approve(address _spender, uint256 _amount)\r... */\n    tag_51:\n        /* \"_lib/ERC20.sol\":3205:3209  bool */\n      0x00\n        /* \"_lib/ERC20.sol\":3227:3268  _approve(_msgSender(), _spender, _amount) */\n      tag_131\n        /* \"_lib/ERC20.sol\":3236:3248  _msgSender() */\n      tag_132\n        /* \"_lib/ERC20.sol\":3236:3246  _msgSender */\n      tag_133\n        /* \"_lib/ERC20.sol\":3236:3248  _msgSender() */\n      jump\t// in\n    tag_132:\n        /* \"_lib/ERC20.sol\":3250:3258  _spender */\n      dup5\n        /* \"_lib/ERC20.sol\":3260:3267  _amount */\n      dup5\n        /* \"_lib/ERC20.sol\":3227:3235  _approve */\n      tag_134\n        /* \"_lib/ERC20.sol\":3227:3268  _approve(_msgSender(), _spender, _amount) */\n      jump\t// in\n    tag_131:\n        /* \"_lib/ERC20.sol\":3286:3290  true */\n      0x01\n        /* \"_lib/ERC20.sol\":3279:3290  return true */\n      swap1\n      pop\n        /* \"_lib/ERC20.sol\":3099:3298  function approve(address _spender, uint256 _amount)\r... */\n      swap3\n      swap2\n      pop\n      pop\n      jump\t// out\n        /* \"_lib/ERC20.sol\":1974:2076  function totalSupply() external view override returns (uint256) {\r... */\n    tag_53:\n        /* \"_lib/ERC20.sol\":2029:2036  uint256 */\n      0x00\n        /* \"_lib/ERC20.sol\":2056:2068  _totalSupply */\n      sload(0x02)\n        /* \"_lib/ERC20.sol\":2049:2068  return _totalSupply */\n      swap1\n      pop\n        /* \"_lib/ERC20.sol\":1974:2076  function totalSupply() external view override returns (uint256) {\r... */\n      swap1\n      jump\t// out\n        /* \"BasicCoin/PokerToken.sol\":13649:13972  function batchTransferToken(address[] memory holders) public {\r... */\n    tag_59:\n        /* \"BasicCoin/PokerToken.sol\":13725:13734  isOwner() */\n      tag_137\n        /* \"BasicCoin/PokerToken.sol\":13725:13732  isOwner */\n      tag_89\n        /* \"BasicCoin/PokerToken.sol\":13725:13734  isOwner() */\n      jump\t// in\n    tag_137:\n        /* \"BasicCoin/PokerToken.sol\":13721:13965  if (isOwner()) {\r... */\n      iszero\n      tag_138\n      jumpi\n        /* \"BasicCoin/PokerToken.sol\":13756:13765  uint256 i */\n      0x00\n        /* \"BasicCoin/PokerToken.sol\":13751:13954  for (uint256 i = 0; i < holders.length; i++) {\r... */\n    tag_139:\n        /* \"BasicCoin/PokerToken.sol\":13775:13782  holders */\n      dup2\n        /* \"BasicCoin/PokerToken.sol\":13775:13789  holders.length */\n      mload\n        /* \"BasicCoin/PokerToken.sol\":13771:13772  i */\n      dup2\n        /* \"BasicCoin/PokerToken.sol\":13771:13789  i < holders.length */\n      lt\n        /* \"BasicCoin/PokerToken.sol\":13751:13954  for (uint256 i = 0; i < holders.length; i++) {\r... */\n      iszero\n      tag_140\n      jumpi\n        /* \"BasicCoin/PokerToken.sol\":13815:13861  _transfer(msg.sender, holders[i], batchAmount) */\n      tag_142\n        /* \"BasicCoin/PokerToken.sol\":13825:13835  msg.sender */\n      caller\n        /* \"BasicCoin/PokerToken.sol\":13837:13844  holders */\n      dup4\n        /* \"BasicCoin/PokerToken.sol\":13845:13846  i */\n      dup4\n        /* \"BasicCoin/PokerToken.sol\":13837:13847  holders[i] */\n      dup2\n      mload\n      dup2\n      lt\n      tag_143\n      jumpi\n      invalid\n    tag_143:\n      0x20\n      mul\n      0x20\n      add\n      add\n      mload\n        /* \"BasicCoin/PokerToken.sol\":13849:13860  batchAmount */\n      sload(0x0c)\n        /* \"BasicCoin/PokerToken.sol\":13815:13824  _transfer */\n      tag_144\n        /* \"BasicCoin/PokerToken.sol\":13815:13861  _transfer(msg.sender, holders[i], batchAmount) */\n      jump\t// in\n    tag_142:\n        /* \"BasicCoin/PokerToken.sol\":13791:13794  i++ */\n      dup1\n      dup1\n      0x01\n      add\n      swap2\n      pop\n      pop\n        /* \"BasicCoin/PokerToken.sol\":13751:13954  for (uint256 i = 0; i < holders.length; i++) {\r... */\n      jump(tag_139)\n    tag_140:\n      pop\n        /* \"BasicCoin/PokerToken.sol\":13721:13965  if (isOwner()) {\r... */\n    tag_138:\n        /* \"BasicCoin/PokerToken.sol\":13649:13972  function batchTransferToken(address[] memory holders) public {\r... */\n      pop\n      jump\t// out\n        /* \"BasicCoin/PokerToken.sol\":11505:11771  function delMinter(address _delMinter) public onlyOwner returns (bool) {\r... */\n    tag_62:\n        /* \"BasicCoin/PokerToken.sol\":11570:11574  bool */\n      0x00\n        /* \"_lib/Ownable.sol\":783:789  _owner */\n      0x05\n      0x01\n      swap1\n      sload\n      swap1\n      0x0100\n      exp\n      swap1\n      div\n      0xffffffffffffffffffffffffffffffffffffffff\n      and\n        /* \"_lib/Ownable.sol\":767:789  _msgSender() == _owner */\n      0xffffffffffffffffffffffffffffffffffffffff\n      and\n        /* \"_lib/Ownable.sol\":767:779  _msgSender() */\n      tag_146\n        /* \"_lib/Ownable.sol\":767:777  _msgSender */\n      tag_133\n        /* \"_lib/Ownable.sol\":767:779  _msgSender() */\n      jump\t// in\n    tag_146:\n        /* \"_lib/Ownable.sol\":767:789  _msgSender() == _owner */\n      0xffffffffffffffffffffffffffffffffffffffff\n      and\n      eq\n        /* \"_lib/Ownable.sol\":759:803  require(_msgSender() == _owner, \"not owner\") */\n      tag_147\n      jumpi\n      mload(0x40)\n      0x08c379a000000000000000000000000000000000000000000000000000000000\n      dup2\n      mstore\n      0x04\n      add\n      dup1\n      dup1\n      0x20\n      add\n      dup3\n      dup2\n      sub\n      dup3\n      mstore\n      0x09\n      dup2\n      mstore\n      0x20\n      add\n      dup1\n      0x6e6f74206f776e65720000000000000000000000000000000000000000000000\n      dup2\n      mstore\n      pop\n      0x20\n      add\n      swap2\n      pop\n      pop\n      mload(0x40)\n      dup1\n      swap2\n      sub\n      swap1\n      revert\n    tag_147:\n        /* \"BasicCoin/PokerToken.sol\":11631:11632  0 */\n      0x00\n        /* \"BasicCoin/PokerToken.sol\":11609:11633  _delMinter != address(0) */\n      0xffffffffffffffffffffffffffffffffffffffff\n      and\n        /* \"BasicCoin/PokerToken.sol\":11609:11619  _delMinter */\n      dup3\n        /* \"BasicCoin/PokerToken.sol\":11609:11633  _delMinter != address(0) */\n      0xffffffffffffffffffffffffffffffffffffffff\n      and\n      eq\n      iszero\n        /* \"BasicCoin/PokerToken.sol\":11587:11703  require(\r... */\n      tag_149\n      jumpi\n      mload(0x40)\n      0x08c379a000000000000000000000000000000000000000000000000000000000\n      dup2\n      mstore\n      0x04\n      add\n      dup1\n      dup1\n      0x20\n      add\n      dup3\n      dup2\n      sub\n      dup3\n      mstore\n      0x2a\n      dup2\n      mstore\n      0x20\n      add\n      dup1\n      data_214d6a2bcbc2880da3f1409c020bc73ea2584b13faa007de23ec5ca8b186aba0\n      0x2a\n      swap2\n      codecopy\n      0x40\n      add\n      swap2\n      pop\n      pop\n      mload(0x40)\n      dup1\n      swap2\n      sub\n      swap1\n      revert\n    tag_149:\n        /* \"BasicCoin/PokerToken.sol\":11721:11763  EnumerableSet.remove(_minters, _delMinter) */\n      tag_150\n        /* \"BasicCoin/PokerToken.sol\":11742:11750  _minters */\n      0x06\n        /* \"BasicCoin/PokerToken.sol\":11752:11762  _delMinter */\n      dup4\n        /* \"BasicCoin/PokerToken.sol\":11721:11741  EnumerableSet.remove */\n      tag_151\n        /* \"BasicCoin/PokerToken.sol\":11721:11763  EnumerableSet.remove(_minters, _delMinter) */\n      jump\t// in\n    tag_150:\n        /* \"BasicCoin/PokerToken.sol\":11714:11763  return EnumerableSet.remove(_minters, _delMinter) */\n      swap1\n      pop\n        /* \"BasicCoin/PokerToken.sol\":11505:11771  function delMinter(address _delMinter) public onlyOwner returns (bool) {\r... */\n      swap2\n      swap1\n      pop\n      jump\t// out\n        /* \"_lib/ERC20.sol\":3771:4175  function transferFrom(\r... */\n    tag_65:\n        /* \"_lib/ERC20.sol\":3899:3903  bool */\n      0x00\n        /* \"_lib/ERC20.sol\":3941:3942  0 */\n      dup1\n        /* \"_lib/ERC20.sol\":3924:3943  _from != address(0) */\n      0xffffffffffffffffffffffffffffffffffffffff\n      and\n        /* \"_lib/ERC20.sol\":3924:3929  _from */\n      dup5\n        /* \"_lib/ERC20.sol\":3924:3943  _from != address(0) */\n      0xffffffffffffffffffffffffffffffffffffffff\n      and\n      eq\n      iszero\n        /* \"_lib/ERC20.sol\":3924:3964  _from != address(0) && _to != address(0) */\n      dup1\n      iszero\n      tag_153\n      jumpi\n      pop\n        /* \"_lib/ERC20.sol\":3962:3963  0 */\n      0x00\n        /* \"_lib/ERC20.sol\":3947:3964  _to != address(0) */\n      0xffffffffffffffffffffffffffffffffffffffff\n      and\n        /* \"_lib/ERC20.sol\":3947:3950  _to */\n      dup4\n        /* \"_lib/ERC20.sol\":3947:3964  _to != address(0) */\n      0xffffffffffffffffffffffffffffffffffffffff\n      and\n      eq\n      iszero\n        /* \"_lib/ERC20.sol\":3924:3964  _from != address(0) && _to != address(0) */\n    tag_153:\n        /* \"_lib/ERC20.sol\":3916:3965  require(_from != address(0) && _to != address(0)) */\n      tag_154\n      jumpi\n      0x00\n      dup1\n      revert\n    tag_154:\n        /* \"_lib/ERC20.sol\":3978:4104  _approve(\r... */\n      tag_155\n        /* \"_lib/ERC20.sol\":4001:4006  _from */\n      dup5\n        /* \"_lib/ERC20.sol\":4021:4033  _msgSender() */\n      tag_156\n        /* \"_lib/ERC20.sol\":4021:4031  _msgSender */\n      tag_133\n        /* \"_lib/ERC20.sol\":4021:4033  _msgSender() */\n      jump\t// in\n    tag_156:\n        /* \"_lib/ERC20.sol\":4048:4093  _allowances[_from][_msgSender()].sub(_amount) */\n      tag_157\n        /* \"_lib/ERC20.sol\":4085:4092  _amount */\n      dup6\n        /* \"_lib/ERC20.sol\":4048:4059  _allowances */\n      0x01\n        /* \"_lib/ERC20.sol\":4048:4066  _allowances[_from] */\n      0x00\n        /* \"_lib/ERC20.sol\":4060:4065  _from */\n      dup11\n        /* \"_lib/ERC20.sol\":4048:4066  _allowances[_from] */\n      0xffffffffffffffffffffffffffffffffffffffff\n      and\n      0xffffffffffffffffffffffffffffffffffffffff\n      and\n      dup2\n      mstore\n      0x20\n      add\n      swap1\n      dup2\n      mstore\n      0x20\n      add\n      0x00\n      keccak256\n        /* \"_lib/ERC20.sol\":4048:4080  _allowances[_from][_msgSender()] */\n      0x00\n        /* \"_lib/ERC20.sol\":4067:4079  _msgSender() */\n      tag_158\n        /* \"_lib/ERC20.sol\":4067:4077  _msgSender */\n      tag_133\n        /* \"_lib/ERC20.sol\":4067:4079  _msgSender() */\n      jump\t// in\n    tag_158:\n        /* \"_lib/ERC20.sol\":4048:4080  _allowances[_from][_msgSender()] */\n      0xffffffffffffffffffffffffffffffffffffffff\n      and\n      0xffffffffffffffffffffffffffffffffffffffff\n      and\n      dup2\n      mstore\n      0x20\n      add\n      swap1\n      dup2\n      mstore\n      0x20\n      add\n      0x00\n      keccak256\n      sload\n        /* \"_lib/ERC20.sol\":4048:4084  _allowances[_from][_msgSender()].sub */\n      tag_159\n      swap1\n        /* \"_lib/ERC20.sol\":4048:4093  _allowances[_from][_msgSender()].sub(_amount) */\n      swap2\n      swap1\n      0xffffffff\n      and\n      jump\t// in\n    tag_157:\n        /* \"_lib/ERC20.sol\":3978:3986  _approve */\n      tag_134\n        /* \"_lib/ERC20.sol\":3978:4104  _approve(\r... */\n      jump\t// in\n    tag_155:\n        /* \"_lib/ERC20.sol\":4115:4145  _transfer(_from, _to, _amount) */\n      tag_160\n        /* \"_lib/ERC20.sol\":4125:4130  _from */\n      dup5\n        /* \"_lib/ERC20.sol\":4132:4135  _to */\n      dup5\n        /* \"_lib/ERC20.sol\":4137:4144  _amount */\n      dup5\n        /* \"_lib/ERC20.sol\":4115:4124  _transfer */\n      tag_144\n        /* \"_lib/ERC20.sol\":4115:4145  _transfer(_from, _to, _amount) */\n      jump\t// in\n    tag_160:\n        /* \"_lib/ERC20.sol\":4163:4167  true */\n      0x01\n        /* \"_lib/ERC20.sol\":4156:4167  return true */\n      swap1\n      pop\n        /* \"_lib/ERC20.sol\":3771:4175  function transferFrom(\r... */\n      swap4\n      swap3\n      pop\n      pop\n      pop\n      jump\t// out\n        /* \"_lib/ERC20.sol\":1242:1263  uint8 public decimals */\n    tag_67:\n      0x05\n      0x00\n      swap1\n      sload\n      swap1\n      0x0100\n      exp\n      swap1\n      div\n      0xff\n      and\n      dup2\n      jump\t// out\n        /* \"BasicCoin/PokerToken.sol\":10424:11127  function mint(address _to, uint256 _amount)\r... */\n    tag_70:\n        /* \"BasicCoin/PokerToken.sol\":10522:10526  bool */\n      0x00\n        /* \"BasicCoin/PokerToken.sol\":12379:12399  isMinter(msg.sender) */\n      tag_162\n        /* \"BasicCoin/PokerToken.sol\":12388:12398  msg.sender */\n      caller\n        /* \"BasicCoin/PokerToken.sol\":12379:12387  isMinter */\n      tag_107\n        /* \"BasicCoin/PokerToken.sol\":12379:12399  isMinter(msg.sender) */\n      jump\t// in\n    tag_162:\n        /* \"BasicCoin/PokerToken.sol\":12371:12428  require(isMinter(msg.sender), \"caller is not the minter\") */\n      tag_163\n      jumpi\n      mload(0x40)\n      0x08c379a000000000000000000000000000000000000000000000000000000000\n      dup2\n      mstore\n      0x04\n      add\n      dup1\n      dup1\n      0x20\n      add\n      dup3\n      dup2\n      sub\n      dup3\n      mstore\n      0x18\n      dup2\n      mstore\n      0x20\n      add\n      dup1\n      0x63616c6c6572206973206e6f7420746865206d696e7465720000000000000000\n      dup2\n      mstore\n      pop\n      0x20\n      add\n      swap2\n      pop\n      pop\n      mload(0x40)\n      dup1\n      swap2\n      sub\n      swap1\n      revert\n    tag_163:\n        /* \"BasicCoin/PokerToken.sol\":10607:10620  YEAR_MINT_NUM */\n      sload(0x0b)\n        /* \"BasicCoin/PokerToken.sol\":10566:10603  yearMintLimit[getYear()].add(_amount) */\n      tag_165\n        /* \"BasicCoin/PokerToken.sol\":10595:10602  _amount */\n      dup4\n        /* \"BasicCoin/PokerToken.sol\":10566:10579  yearMintLimit */\n      0x08\n        /* \"BasicCoin/PokerToken.sol\":10566:10590  yearMintLimit[getYear()] */\n      0x00\n        /* \"BasicCoin/PokerToken.sol\":10580:10589  getYear() */\n      tag_166\n        /* \"BasicCoin/PokerToken.sol\":10580:10587  getYear */\n      tag_123\n        /* \"BasicCoin/PokerToken.sol\":10580:10589  getYear() */\n      jump\t// in\n    tag_166:\n        /* \"BasicCoin/PokerToken.sol\":10566:10590  yearMintLimit[getYear()] */\n      dup2\n      mstore\n      0x20\n      add\n      swap1\n      dup2\n      mstore\n      0x20\n      add\n      0x00\n      keccak256\n      sload\n        /* \"BasicCoin/PokerToken.sol\":10566:10594  yearMintLimit[getYear()].add */\n      tag_167\n      swap1\n        /* \"BasicCoin/PokerToken.sol\":10566:10603  yearMintLimit[getYear()].add(_amount) */\n      swap2\n      swap1\n      0xffffffff\n      and\n      jump\t// in\n    tag_165:\n        /* \"BasicCoin/PokerToken.sol\":10566:10620  yearMintLimit[getYear()].add(_amount) <= YEAR_MINT_NUM */\n      gt\n      iszero\n        /* \"BasicCoin/PokerToken.sol\":10544:10673  require(\r... */\n      tag_168\n      jumpi\n      mload(0x40)\n      0x08c379a000000000000000000000000000000000000000000000000000000000\n      dup2\n      mstore\n      0x04\n      add\n      dup1\n      dup1\n      0x20\n      add\n      dup3\n      dup2\n      sub\n      dup3\n      mstore\n      0x19\n      dup2\n      mstore\n      0x20\n      add\n      dup1\n      0x506f6b6572546f6b656e3a20796561724d696e744c696d697400000000000000\n      dup2\n      mstore\n      pop\n      0x20\n      add\n      swap2\n      pop\n      pop\n      mload(0x40)\n      dup1\n      swap2\n      sub\n      swap1\n      revert\n    tag_168:\n        /* \"BasicCoin/PokerToken.sol\":10684:10703  _mint(_to, _amount) */\n      tag_169\n        /* \"BasicCoin/PokerToken.sol\":10690:10693  _to */\n      dup4\n        /* \"BasicCoin/PokerToken.sol\":10695:10702  _amount */\n      dup4\n        /* \"BasicCoin/PokerToken.sol\":10684:10689  _mint */\n      tag_170\n        /* \"BasicCoin/PokerToken.sol\":10684:10703  _mint(_to, _amount) */\n      jump\t// in\n    tag_169:\n        /* \"BasicCoin/PokerToken.sol\":10741:10778  yearMintLimit[getYear()].add(_amount) */\n      tag_171\n        /* \"BasicCoin/PokerToken.sol\":10770:10777  _amount */\n      dup3\n        /* \"BasicCoin/PokerToken.sol\":10741:10754  yearMintLimit */\n      0x08\n        /* \"BasicCoin/PokerToken.sol\":10741:10765  yearMintLimit[getYear()] */\n      0x00\n        /* \"BasicCoin/PokerToken.sol\":10755:10764  getYear() */\n      tag_172\n        /* \"BasicCoin/PokerToken.sol\":10755:10762  getYear */\n      tag_123\n        /* \"BasicCoin/PokerToken.sol\":10755:10764  getYear() */\n      jump\t// in\n    tag_172:\n        /* \"BasicCoin/PokerToken.sol\":10741:10765  yearMintLimit[getYear()] */\n      dup2\n      mstore\n      0x20\n      add\n      swap1\n      dup2\n      mstore\n      0x20\n      add\n      0x00\n      keccak256\n      sload\n        /* \"BasicCoin/PokerToken.sol\":10741:10769  yearMintLimit[getYear()].add */\n      tag_167\n      swap1\n        /* \"BasicCoin/PokerToken.sol\":10741:10778  yearMintLimit[getYear()].add(_amount) */\n      swap2\n      swap1\n      0xffffffff\n      and\n      jump\t// in\n    tag_171:\n        /* \"BasicCoin/PokerToken.sol\":10714:10727  yearMintLimit */\n      0x08\n        /* \"BasicCoin/PokerToken.sol\":10714:10738  yearMintLimit[getYear()] */\n      0x00\n        /* \"BasicCoin/PokerToken.sol\":10728:10737  getYear() */\n      tag_173\n        /* \"BasicCoin/PokerToken.sol\":10728:10735  getYear */\n      tag_123\n        /* \"BasicCoin/PokerToken.sol\":10728:10737  getYear() */\n      jump\t// in\n    tag_173:\n        /* \"BasicCoin/PokerToken.sol\":10714:10738  yearMintLimit[getYear()] */\n      dup2\n      mstore\n      0x20\n      add\n      swap1\n      dup2\n      mstore\n      0x20\n      add\n      0x00\n      keccak256\n        /* \"BasicCoin/PokerToken.sol\":10714:10778  yearMintLimit[getYear()] = yearMintLimit[getYear()].add(_amount) */\n      dup2\n      swap1\n      sstore\n      pop\n        /* \"BasicCoin/PokerToken.sol\":10834:10913  recordContractLimit[\r... */\n      tag_174\n        /* \"BasicCoin/PokerToken.sol\":10905:10912  _amount */\n      dup3\n        /* \"BasicCoin/PokerToken.sol\":10834:10853  recordContractLimit */\n      0x0a\n        /* \"BasicCoin/PokerToken.sol\":10834:10889  recordContractLimit[\r... */\n      0x00\n        /* \"BasicCoin/PokerToken.sol\":10868:10878  msg.sender */\n      caller\n        /* \"BasicCoin/PokerToken.sol\":10834:10889  recordContractLimit[\r... */\n      0xffffffffffffffffffffffffffffffffffffffff\n      and\n      0xffffffffffffffffffffffffffffffffffffffff\n      and\n      dup2\n      mstore\n      0x20\n      add\n      swap1\n      dup2\n      mstore\n      0x20\n      add\n      0x00\n      keccak256\n        /* \"BasicCoin/PokerToken.sol\":10834:10900  recordContractLimit[\r... */\n      0x00\n        /* \"BasicCoin/PokerToken.sol\":10890:10899  getYear() */\n      tag_175\n        /* \"BasicCoin/PokerToken.sol\":10890:10897  getYear */\n      tag_123\n        /* \"BasicCoin/PokerToken.sol\":10890:10899  getYear() */\n      jump\t// in\n    tag_175:\n        /* \"BasicCoin/PokerToken.sol\":10834:10900  recordContractLimit[\r... */\n      dup2\n      mstore\n      0x20\n      add\n      swap1\n      dup2\n      mstore\n      0x20\n      add\n      0x00\n      keccak256\n      sload\n        /* \"BasicCoin/PokerToken.sol\":10834:10904  recordContractLimit[\r... */\n      tag_167\n      swap1\n        /* \"BasicCoin/PokerToken.sol\":10834:10913  recordContractLimit[\r... */\n      swap2\n      swap1\n      0xffffffff\n      and\n      jump\t// in\n    tag_174:\n        /* \"BasicCoin/PokerToken.sol\":10789:10808  recordContractLimit */\n      0x0a\n        /* \"BasicCoin/PokerToken.sol\":10789:10820  recordContractLimit[msg.sender] */\n      0x00\n        /* \"BasicCoin/PokerToken.sol\":10809:10819  msg.sender */\n      caller\n        /* \"BasicCoin/PokerToken.sol\":10789:10820  recordContractLimit[msg.sender] */\n      0xffffffffffffffffffffffffffffffffffffffff\n      and\n      0xffffffffffffffffffffffffffffffffffffffff\n      and\n      dup2\n      mstore\n      0x20\n      add\n      swap1\n      dup2\n      mstore\n      0x20\n      add\n      0x00\n      keccak256\n        /* \"BasicCoin/PokerToken.sol\":10789:10831  recordContractLimit[msg.sender][getYear()] */\n      0x00\n        /* \"BasicCoin/PokerToken.sol\":10821:10830  getYear() */\n      tag_176\n        /* \"BasicCoin/PokerToken.sol\":10821:10828  getYear */\n      tag_123\n        /* \"BasicCoin/PokerToken.sol\":10821:10830  getYear() */\n      jump\t// in\n    tag_176:\n        /* \"BasicCoin/PokerToken.sol\":10789:10831  recordContractLimit[msg.sender][getYear()] */\n      dup2\n      mstore\n      0x20\n      add\n      swap1\n      dup2\n      mstore\n      0x20\n      add\n      0x00\n      keccak256\n        /* \"BasicCoin/PokerToken.sol\":10789:10913  recordContractLimit[msg.sender][getYear()] = recordContractLimit[\r... */\n      dup2\n      swap1\n      sstore\n      pop\n        /* \"BasicCoin/PokerToken.sol\":11009:11026  contractMintLimit */\n      0x09\n        /* \"BasicCoin/PokerToken.sol\":11009:11038  contractMintLimit[msg.sender] */\n      0x00\n        /* \"BasicCoin/PokerToken.sol\":11027:11037  msg.sender */\n      caller\n        /* \"BasicCoin/PokerToken.sol\":11009:11038  contractMintLimit[msg.sender] */\n      0xffffffffffffffffffffffffffffffffffffffff\n      and\n      0xffffffffffffffffffffffffffffffffffffffff\n      and\n      dup2\n      mstore\n      0x20\n      add\n      swap1\n      dup2\n      mstore\n      0x20\n      add\n      0x00\n      keccak256\n      sload\n        /* \"BasicCoin/PokerToken.sol\":10946:10965  recordContractLimit */\n      0x0a\n        /* \"BasicCoin/PokerToken.sol\":10946:10977  recordContractLimit[msg.sender] */\n      0x00\n        /* \"BasicCoin/PokerToken.sol\":10966:10976  msg.sender */\n      caller\n        /* \"BasicCoin/PokerToken.sol\":10946:10977  recordContractLimit[msg.sender] */\n      0xffffffffffffffffffffffffffffffffffffffff\n      and\n      0xffffffffffffffffffffffffffffffffffffffff\n      and\n      dup2\n      mstore\n      0x20\n      add\n      swap1\n      dup2\n      mstore\n      0x20\n      add\n      0x00\n      keccak256\n        /* \"BasicCoin/PokerToken.sol\":10946:10988  recordContractLimit[msg.sender][getYear()] */\n      0x00\n        /* \"BasicCoin/PokerToken.sol\":10978:10987  getYear() */\n      tag_177\n        /* \"BasicCoin/PokerToken.sol\":10978:10985  getYear */\n      tag_123\n        /* \"BasicCoin/PokerToken.sol\":10978:10987  getYear() */\n      jump\t// in\n    tag_177:\n        /* \"BasicCoin/PokerToken.sol\":10946:10988  recordContractLimit[msg.sender][getYear()] */\n      dup2\n      mstore\n      0x20\n      add\n      swap1\n      dup2\n      mstore\n      0x20\n      add\n      0x00\n      keccak256\n      sload\n        /* \"BasicCoin/PokerToken.sol\":10946:11038  recordContractLimit[msg.sender][getYear()] <=\r... */\n      gt\n      iszero\n        /* \"BasicCoin/PokerToken.sol\":10924:11097  require(\r... */\n      tag_178\n      jumpi\n      mload(0x40)\n      0x08c379a000000000000000000000000000000000000000000000000000000000\n      dup2\n      mstore\n      0x04\n      add\n      dup1\n      dup1\n      0x20\n      add\n      dup3\n      dup2\n      sub\n      dup3\n      mstore\n      0x1f\n      dup2\n      mstore\n      0x20\n      add\n      dup1\n      0x506f6b6572546f6b656e3a207265636f7264436f6e74726163744c696d697400\n      dup2\n      mstore\n      pop\n      0x20\n      add\n      swap2\n      pop\n      pop\n      mload(0x40)\n      dup1\n      swap2\n      sub\n      swap1\n      revert\n    tag_178:\n        /* \"BasicCoin/PokerToken.sol\":11115:11119  true */\n      0x01\n        /* \"BasicCoin/PokerToken.sol\":11108:11119  return true */\n      swap1\n      pop\n        /* \"BasicCoin/PokerToken.sol\":10424:11127  function mint(address _to, uint256 _amount)\r... */\n      swap3\n      swap2\n      pop\n      pop\n      jump\t// out\n        /* \"BasicCoin/PokerToken.sol\":9981:10066  function burn(uint256 amount_) external {\r... */\n    tag_73:\n        /* \"BasicCoin/PokerToken.sol\":10032:10058  _burn(msg.sender, amount_) */\n      tag_180\n        /* \"BasicCoin/PokerToken.sol\":10038:10048  msg.sender */\n      caller\n        /* \"BasicCoin/PokerToken.sol\":10050:10057  amount_ */\n      dup3\n        /* \"BasicCoin/PokerToken.sol\":10032:10037  _burn */\n      tag_181\n        /* \"BasicCoin/PokerToken.sol\":10032:10058  _burn(msg.sender, amount_) */\n      jump\t// in\n    tag_180:\n        /* \"BasicCoin/PokerToken.sol\":9981:10066  function burn(uint256 amount_) external {\r... */\n      pop\n      jump\t// out\n        /* \"BasicCoin/PokerToken.sol\":13324:13447  function setYearMintNum(uint256 num) public {\r... */\n    tag_76:\n        /* \"BasicCoin/PokerToken.sol\":13383:13392  isOwner() */\n      tag_183\n        /* \"BasicCoin/PokerToken.sol\":13383:13390  isOwner */\n      tag_89\n        /* \"BasicCoin/PokerToken.sol\":13383:13392  isOwner() */\n      jump\t// in\n    tag_183:\n        /* \"BasicCoin/PokerToken.sol\":13379:13440  if (isOwner()) {\r... */\n      iszero\n      tag_184\n      jumpi\n        /* \"BasicCoin/PokerToken.sol\":13425:13428  num */\n      dup1\n        /* \"BasicCoin/PokerToken.sol\":13409:13422  YEAR_MINT_NUM */\n      0x0b\n        /* \"BasicCoin/PokerToken.sol\":13409:13428  YEAR_MINT_NUM = num */\n      dup2\n      swap1\n      sstore\n      pop\n        /* \"BasicCoin/PokerToken.sol\":13379:13440  if (isOwner()) {\r... */\n    tag_184:\n        /* \"BasicCoin/PokerToken.sol\":13324:13447  function setYearMintNum(uint256 num) public {\r... */\n      pop\n      jump\t// out\n        /* \"BasicCoin/PokerToken.sol\":12037:12295  function getMinter(uint256 _index) public view onlyOwner returns (address) {\r... */\n    tag_79:\n        /* \"BasicCoin/PokerToken.sol\":12103:12110  address */\n      0x00\n        /* \"_lib/Ownable.sol\":783:789  _owner */\n      0x05\n      0x01\n      swap1\n      sload\n      swap1\n      0x0100\n      exp\n      swap1\n      div\n      0xffffffffffffffffffffffffffffffffffffffff\n      and\n        /* \"_lib/Ownable.sol\":767:789  _msgSender() == _owner */\n      0xffffffffffffffffffffffffffffffffffffffff\n      and\n        /* \"_lib/Ownable.sol\":767:779  _msgSender() */\n      tag_186\n        /* \"_lib/Ownable.sol\":767:777  _msgSender */\n      tag_133\n        /* \"_lib/Ownable.sol\":767:779  _msgSender() */\n      jump\t// in\n    tag_186:\n        /* \"_lib/Ownable.sol\":767:789  _msgSender() == _owner */\n      0xffffffffffffffffffffffffffffffffffffffff\n      and\n      eq\n        /* \"_lib/Ownable.sol\":759:803  require(_msgSender() == _owner, \"not owner\") */\n      tag_187\n      jumpi\n      mload(0x40)\n      0x08c379a000000000000000000000000000000000000000000000000000000000\n      dup2\n      mstore\n      0x04\n      add\n      dup1\n      dup1\n      0x20\n      add\n      dup3\n      dup2\n      sub\n      dup3\n      mstore\n      0x09\n      dup2\n      mstore\n      0x20\n      add\n      dup1\n      0x6e6f74206f776e65720000000000000000000000000000000000000000000000\n      dup2\n      mstore\n      pop\n      0x20\n      add\n      swap2\n      pop\n      pop\n      mload(0x40)\n      dup1\n      swap2\n      sub\n      swap1\n      revert\n    tag_187:\n        /* \"BasicCoin/PokerToken.sol\":12175:12176  1 */\n      0x01\n        /* \"BasicCoin/PokerToken.sol\":12155:12172  getMinterLength() */\n      tag_189\n        /* \"BasicCoin/PokerToken.sol\":12155:12170  getMinterLength */\n      tag_39\n        /* \"BasicCoin/PokerToken.sol\":12155:12172  getMinterLength() */\n      jump\t// in\n    tag_189:\n        /* \"BasicCoin/PokerToken.sol\":12155:12176  getMinterLength() - 1 */\n      sub\n        /* \"BasicCoin/PokerToken.sol\":12145:12151  _index */\n      dup3\n        /* \"BasicCoin/PokerToken.sol\":12145:12176  _index <= getMinterLength() - 1 */\n      gt\n      iszero\n        /* \"BasicCoin/PokerToken.sol\":12123:12235  require(\r... */\n      tag_190\n      jumpi\n      mload(0x40)\n      0x08c379a000000000000000000000000000000000000000000000000000000000\n      dup2\n      mstore\n      0x04\n      add\n      dup1\n      dup1\n      0x20\n      add\n      dup3\n      dup2\n      sub\n      dup3\n      mstore\n      0x1f\n      dup2\n      mstore\n      0x20\n      add\n      dup1\n      0x506f6b6572546f6b656e3a20696e646578206f7574206f6620626f756e647300\n      dup2\n      mstore\n      pop\n      0x20\n      add\n      swap2\n      pop\n      pop\n      mload(0x40)\n      dup1\n      swap2\n      sub\n      swap1\n      revert\n    tag_190:\n        /* \"BasicCoin/PokerToken.sol\":12253:12287  EnumerableSet.at(_minters, _index) */\n      tag_191\n        /* \"BasicCoin/PokerToken.sol\":12270:12278  _minters */\n      0x06\n        /* \"BasicCoin/PokerToken.sol\":12280:12286  _index */\n      dup4\n        /* \"BasicCoin/PokerToken.sol\":12253:12269  EnumerableSet.at */\n      tag_192\n        /* \"BasicCoin/PokerToken.sol\":12253:12287  EnumerableSet.at(_minters, _index) */\n      jump\t// in\n    tag_191:\n        /* \"BasicCoin/PokerToken.sol\":12246:12287  return EnumerableSet.at(_minters, _index) */\n      swap1\n      pop\n        /* \"BasicCoin/PokerToken.sol\":12037:12295  function getMinter(uint256 _index) public view onlyOwner returns (address) {\r... */\n      swap2\n      swap1\n      pop\n      jump\t// out\n        /* \"_lib/ERC20.sol\":2139:2299  function balanceOf(address _owner)\r... */\n    tag_82:\n        /* \"_lib/ERC20.sol\":2242:2249  uint256 */\n      0x00\n        /* \"_lib/ERC20.sol\":2274:2283  _balances */\n      dup1\n        /* \"_lib/ERC20.sol\":2274:2291  _balances[_owner] */\n      0x00\n        /* \"_lib/ERC20.sol\":2284:2290  _owner */\n      dup4\n        /* \"_lib/ERC20.sol\":2274:2291  _balances[_owner] */\n      0xffffffffffffffffffffffffffffffffffffffff\n      and\n      0xffffffffffffffffffffffffffffffffffffffff\n      and\n      dup2\n      mstore\n      0x20\n      add\n      swap1\n      dup2\n      mstore\n      0x20\n      add\n      0x00\n      keccak256\n      sload\n        /* \"_lib/ERC20.sol\":2267:2291  return _balances[_owner] */\n      swap1\n      pop\n        /* \"_lib/ERC20.sol\":2139:2299  function balanceOf(address _owner)\r... */\n      swap2\n      swap1\n      pop\n      jump\t// out\n        /* \"BasicCoin/PokerToken.sol\":11135:11497  function addMinter(address _addMinter, uint256 _amount)\r... */\n    tag_85:\n        /* \"BasicCoin/PokerToken.sol\":11244:11248  bool */\n      0x00\n        /* \"_lib/Ownable.sol\":783:789  _owner */\n      0x05\n      0x01\n      swap1\n      sload\n      swap1\n      0x0100\n      exp\n      swap1\n      div\n      0xffffffffffffffffffffffffffffffffffffffff\n      and\n        /* \"_lib/Ownable.sol\":767:789  _msgSender() == _owner */\n      0xffffffffffffffffffffffffffffffffffffffff\n      and\n        /* \"_lib/Ownable.sol\":767:779  _msgSender() */\n      tag_195\n        /* \"_lib/Ownable.sol\":767:777  _msgSender */\n      tag_133\n        /* \"_lib/Ownable.sol\":767:779  _msgSender() */\n      jump\t// in\n    tag_195:\n        /* \"_lib/Ownable.sol\":767:789  _msgSender() == _owner */\n      0xffffffffffffffffffffffffffffffffffffffff\n      and\n      eq\n        /* \"_lib/Ownable.sol\":759:803  require(_msgSender() == _owner, \"not owner\") */\n      tag_196\n      jumpi\n      mload(0x40)\n      0x08c379a000000000000000000000000000000000000000000000000000000000\n      dup2\n      mstore\n      0x04\n      add\n      dup1\n      dup1\n      0x20\n      add\n      dup3\n      dup2\n      sub\n      dup3\n      mstore\n      0x09\n      dup2\n      mstore\n      0x20\n      add\n      dup1\n      0x6e6f74206f776e65720000000000000000000000000000000000000000000000\n      dup2\n      mstore\n      pop\n      0x20\n      add\n      swap2\n      pop\n      pop\n      mload(0x40)\n      dup1\n      swap2\n      sub\n      swap1\n      revert\n    tag_196:\n        /* \"BasicCoin/PokerToken.sol\":11310:11311  0 */\n      0x00\n        /* \"BasicCoin/PokerToken.sol\":11288:11312  _addMinter != address(0) */\n      0xffffffffffffffffffffffffffffffffffffffff\n      and\n        /* \"BasicCoin/PokerToken.sol\":11288:11298  _addMinter */\n      dup4\n        /* \"BasicCoin/PokerToken.sol\":11288:11312  _addMinter != address(0) */\n      0xffffffffffffffffffffffffffffffffffffffff\n      and\n      eq\n      iszero\n        /* \"BasicCoin/PokerToken.sol\":11266:11382  require(\r... */\n      tag_198\n      jumpi\n      mload(0x40)\n      0x08c379a000000000000000000000000000000000000000000000000000000000\n      dup2\n      mstore\n      0x04\n      add\n      dup1\n      dup1\n      0x20\n      add\n      dup3\n      dup2\n      sub\n      dup3\n      mstore\n      0x2a\n      dup2\n      mstore\n      0x20\n      add\n      dup1\n      data_cb9d3212f00552d8be41e69b0ea5b8e9499f587c01d683168aa870e2f69a84ce\n      0x2a\n      swap2\n      codecopy\n      0x40\n      add\n      swap2\n      pop\n      pop\n      mload(0x40)\n      dup1\n      swap2\n      sub\n      swap1\n      revert\n    tag_198:\n        /* \"BasicCoin/PokerToken.sol\":11393:11432  setContractMintNum(_addMinter, _amount) */\n      tag_199\n        /* \"BasicCoin/PokerToken.sol\":11412:11422  _addMinter */\n      dup4\n        /* \"BasicCoin/PokerToken.sol\":11424:11431  _amount */\n      dup4\n        /* \"BasicCoin/PokerToken.sol\":11393:11411  setContractMintNum */\n      tag_110\n        /* \"BasicCoin/PokerToken.sol\":11393:11432  setContractMintNum(_addMinter, _amount) */\n      jump\t// in\n    tag_199:\n        /* \"BasicCoin/PokerToken.sol\":11450:11489  EnumerableSet.add(_minters, _addMinter) */\n      tag_200\n        /* \"BasicCoin/PokerToken.sol\":11468:11476  _minters */\n      0x06\n        /* \"BasicCoin/PokerToken.sol\":11478:11488  _addMinter */\n      dup5\n        /* \"BasicCoin/PokerToken.sol\":11450:11467  EnumerableSet.add */\n      tag_201\n        /* \"BasicCoin/PokerToken.sol\":11450:11489  EnumerableSet.add(_minters, _addMinter) */\n      jump\t// in\n    tag_200:\n        /* \"BasicCoin/PokerToken.sol\":11443:11489  return EnumerableSet.add(_minters, _addMinter) */\n      swap1\n      pop\n        /* \"BasicCoin/PokerToken.sol\":11135:11497  function addMinter(address _addMinter, uint256 _amount)\r... */\n      swap3\n      swap2\n      pop\n      pop\n      jump\t// out\n        /* \"_lib/Ownable.sol\":555:634  function owner() public view returns (address) {\r... */\n    tag_87:\n        /* \"_lib/Ownable.sol\":593:600  address */\n      0x00\n        /* \"_lib/Ownable.sol\":620:626  _owner */\n      0x05\n      0x01\n      swap1\n      sload\n      swap1\n      0x0100\n      exp\n      swap1\n      div\n      0xffffffffffffffffffffffffffffffffffffffff\n      and\n        /* \"_lib/Ownable.sol\":613:626  return _owner */\n      swap1\n      pop\n        /* \"_lib/Ownable.sol\":555:634  function owner() public view returns (address) {\r... */\n      swap1\n      jump\t// out\n        /* \"_lib/Ownable.sol\":835:997  function isOwner() public view returns (bool){\r... */\n    tag_89:\n        /* \"_lib/Ownable.sol\":875:879  bool */\n      0x00\n        /* \"_lib/Ownable.sol\":891:900  bool flag */\n      dup1\n        /* \"_lib/Ownable.sol\":919:925  _owner */\n      0x05\n      0x01\n      swap1\n      sload\n      swap1\n      0x0100\n      exp\n      swap1\n      div\n      0xffffffffffffffffffffffffffffffffffffffff\n      and\n        /* \"_lib/Ownable.sol\":903:925  _msgSender() == _owner */\n      0xffffffffffffffffffffffffffffffffffffffff\n      and\n        /* \"_lib/Ownable.sol\":903:915  _msgSender() */\n      tag_204\n        /* \"_lib/Ownable.sol\":903:913  _msgSender */\n      tag_133\n        /* \"_lib/Ownable.sol\":903:915  _msgSender() */\n      jump\t// in\n    tag_204:\n        /* \"_lib/Ownable.sol\":903:925  _msgSender() == _owner */\n      0xffffffffffffffffffffffffffffffffffffffff\n      and\n      eq\n        /* \"_lib/Ownable.sol\":891:925  bool flag = _msgSender() == _owner */\n      swap1\n      pop\n        /* \"_lib/Ownable.sol\":950:954  true */\n      0x01\n        /* \"_lib/Ownable.sol\":944:954  flag==true */\n      iszero\n      iszero\n        /* \"_lib/Ownable.sol\":944:948  flag */\n      dup2\n        /* \"_lib/Ownable.sol\":944:954  flag==true */\n      iszero\n      iszero\n      eq\n        /* \"_lib/Ownable.sol\":936:967  require(flag==true,\"not owner\") */\n      tag_205\n      jumpi\n      mload(0x40)\n      0x08c379a000000000000000000000000000000000000000000000000000000000\n      dup2\n      mstore\n      0x04\n      add\n      dup1\n      dup1\n      0x20\n      add\n      dup3\n      dup2\n      sub\n      dup3\n      mstore\n      0x09\n      dup2\n      mstore\n      0x20\n      add\n      dup1\n      0x6e6f74206f776e65720000000000000000000000000000000000000000000000\n      dup2\n      mstore\n      pop\n      0x20\n      add\n      swap2\n      pop\n      pop\n      mload(0x40)\n      dup1\n      swap2\n      sub\n      swap1\n      revert\n    tag_205:\n        /* \"_lib/Ownable.sol\":985:989  flag */\n      dup1\n        /* \"_lib/Ownable.sol\":978:989  return flag */\n      swap2\n      pop\n      pop\n        /* \"_lib/Ownable.sol\":835:997  function isOwner() public view returns (bool){\r... */\n      swap1\n      jump\t// out\n        /* \"BasicCoin/PokerToken.sol\":9665:9713  mapping(uint256 => uint256) public yearMintLimit */\n    tag_92:\n      mstore(0x20, 0x08)\n      dup1\n      0x00\n      mstore\n      keccak256(0x00, 0x40)\n      0x00\n      swap2\n      pop\n      swap1\n      pop\n      sload\n      dup2\n      jump\t// out\n        /* \"_lib/ERC20.sol\":583:603  string public symbol */\n    tag_94:\n      0x04\n      dup1\n      sload\n      0x01\n      dup2\n      0x01\n      and\n      iszero\n      0x0100\n      mul\n      sub\n      and\n      0x02\n      swap1\n      div\n      dup1\n      0x1f\n      add\n      0x20\n      dup1\n      swap2\n      div\n      mul\n      0x20\n      add\n      mload(0x40)\n      swap1\n      dup2\n      add\n      0x40\n      mstore\n      dup1\n      swap3\n      swap2\n      swap1\n      dup2\n      dup2\n      mstore\n      0x20\n      add\n      dup3\n      dup1\n      sload\n      0x01\n      dup2\n      0x01\n      and\n      iszero\n      0x0100\n      mul\n      sub\n      and\n      0x02\n      swap1\n      div\n      dup1\n      iszero\n      tag_206\n      jumpi\n      dup1\n      0x1f\n      lt\n      tag_207\n      jumpi\n      0x0100\n      dup1\n      dup4\n      sload\n      div\n      mul\n      dup4\n      mstore\n      swap2\n      0x20\n      add\n      swap2\n      jump(tag_206)\n    tag_207:\n      dup3\n      add\n      swap2\n      swap1\n      0x00\n      mstore\n      keccak256(0x00, 0x20)\n      swap1\n    tag_208:\n      dup2\n      sload\n      dup2\n      mstore\n      swap1\n      0x01\n      add\n      swap1\n      0x20\n      add\n      dup1\n      dup4\n      gt\n      tag_208\n      jumpi\n      dup3\n      swap1\n      sub\n      0x1f\n      and\n      dup3\n      add\n      swap2\n    tag_206:\n      pop\n      pop\n      pop\n      pop\n      pop\n      dup2\n      jump\t// out\n        /* \"BasicCoin/PokerToken.sol\":10074:10416  function mint(uint256 amount_) external {\r... */\n    tag_101:\n        /* \"BasicCoin/PokerToken.sol\":10188:10201  YEAR_MINT_NUM */\n      sload(0x0b)\n        /* \"BasicCoin/PokerToken.sol\":10147:10184  yearMintLimit[getYear()].add(amount_) */\n      tag_210\n        /* \"BasicCoin/PokerToken.sol\":10176:10183  amount_ */\n      dup3\n        /* \"BasicCoin/PokerToken.sol\":10147:10160  yearMintLimit */\n      0x08\n        /* \"BasicCoin/PokerToken.sol\":10147:10171  yearMintLimit[getYear()] */\n      0x00\n        /* \"BasicCoin/PokerToken.sol\":10161:10170  getYear() */\n      tag_211\n        /* \"BasicCoin/PokerToken.sol\":10161:10168  getYear */\n      tag_123\n        /* \"BasicCoin/PokerToken.sol\":10161:10170  getYear() */\n      jump\t// in\n    tag_211:\n        /* \"BasicCoin/PokerToken.sol\":10147:10171  yearMintLimit[getYear()] */\n      dup2\n      mstore\n      0x20\n      add\n      swap1\n      dup2\n      mstore\n      0x20\n      add\n      0x00\n      keccak256\n      sload\n        /* \"BasicCoin/PokerToken.sol\":10147:10175  yearMintLimit[getYear()].add */\n      tag_167\n      swap1\n        /* \"BasicCoin/PokerToken.sol\":10147:10184  yearMintLimit[getYear()].add(amount_) */\n      swap2\n      swap1\n      0xffffffff\n      and\n      jump\t// in\n    tag_210:\n        /* \"BasicCoin/PokerToken.sol\":10147:10201  yearMintLimit[getYear()].add(amount_) <= YEAR_MINT_NUM */\n      gt\n      iszero\n        /* \"BasicCoin/PokerToken.sol\":10125:10254  require(\r... */\n      tag_212\n      jumpi\n      mload(0x40)\n      0x08c379a000000000000000000000000000000000000000000000000000000000\n      dup2\n      mstore\n      0x04\n      add\n      dup1\n      dup1\n      0x20\n      add\n      dup3\n      dup2\n      sub\n      dup3\n      mstore\n      0x19\n      dup2\n      mstore\n      0x20\n      add\n      dup1\n      0x506f6b6572546f6b656e3a20796561724d696e744c696d697400000000000000\n      dup2\n      mstore\n      pop\n      0x20\n      add\n      swap2\n      pop\n      pop\n      mload(0x40)\n      dup1\n      swap2\n      sub\n      swap1\n      revert\n    tag_212:\n        /* \"BasicCoin/PokerToken.sol\":10269:10278  isOwner() */\n      tag_213\n        /* \"BasicCoin/PokerToken.sol\":10269:10276  isOwner */\n      tag_89\n        /* \"BasicCoin/PokerToken.sol\":10269:10278  isOwner() */\n      jump\t// in\n    tag_213:\n        /* \"BasicCoin/PokerToken.sol\":10265:10409  if (isOwner()) {\r... */\n      iszero\n      tag_214\n      jumpi\n        /* \"BasicCoin/PokerToken.sol\":10295:10318  _mint(owner(), amount_) */\n      tag_215\n        /* \"BasicCoin/PokerToken.sol\":10301:10308  owner() */\n      tag_216\n        /* \"BasicCoin/PokerToken.sol\":10301:10306  owner */\n      tag_87\n        /* \"BasicCoin/PokerToken.sol\":10301:10308  owner() */\n      jump\t// in\n    tag_216:\n        /* \"BasicCoin/PokerToken.sol\":10310:10317  amount_ */\n      dup3\n        /* \"BasicCoin/PokerToken.sol\":10295:10300  _mint */\n      tag_170\n        /* \"BasicCoin/PokerToken.sol\":10295:10318  _mint(owner(), amount_) */\n      jump\t// in\n    tag_215:\n        /* \"BasicCoin/PokerToken.sol\":10360:10397  yearMintLimit[getYear()].add(amount_) */\n      tag_217\n        /* \"BasicCoin/PokerToken.sol\":10389:10396  amount_ */\n      dup2\n        /* \"BasicCoin/PokerToken.sol\":10360:10373  yearMintLimit */\n      0x08\n        /* \"BasicCoin/PokerToken.sol\":10360:10384  yearMintLimit[getYear()] */\n      0x00\n        /* \"BasicCoin/PokerToken.sol\":10374:10383  getYear() */\n      tag_218\n        /* \"BasicCoin/PokerToken.sol\":10374:10381  getYear */\n      tag_123\n        /* \"BasicCoin/PokerToken.sol\":10374:10383  getYear() */\n      jump\t// in\n    tag_218:\n        /* \"BasicCoin/PokerToken.sol\":10360:10384  yearMintLimit[getYear()] */\n      dup2\n      mstore\n      0x20\n      add\n      swap1\n      dup2\n      mstore\n      0x20\n      add\n      0x00\n      keccak256\n      sload\n        /* \"BasicCoin/PokerToken.sol\":10360:10388  yearMintLimit[getYear()].add */\n      tag_167\n      swap1\n        /* \"BasicCoin/PokerToken.sol\":10360:10397  yearMintLimit[getYear()].add(amount_) */\n      swap2\n      swap1\n      0xffffffff\n      and\n      jump\t// in\n    tag_217:\n        /* \"BasicCoin/PokerToken.sol\":10333:10346  yearMintLimit */\n      0x08\n        /* \"BasicCoin/PokerToken.sol\":10333:10357  yearMintLimit[getYear()] */\n      0x00\n        /* \"BasicCoin/PokerToken.sol\":10347:10356  getYear() */\n      tag_219\n        /* \"BasicCoin/PokerToken.sol\":10347:10354  getYear */\n      tag_123\n        /* \"BasicCoin/PokerToken.sol\":10347:10356  getYear() */\n      jump\t// in\n    tag_219:\n        /* \"BasicCoin/PokerToken.sol\":10333:10357  yearMintLimit[getYear()] */\n      dup2\n      mstore\n      0x20\n      add\n      swap1\n      dup2\n      mstore\n      0x20\n      add\n      0x00\n      keccak256\n        /* \"BasicCoin/PokerToken.sol\":10333:10397  yearMintLimit[getYear()] = yearMintLimit[getYear()].add(amount_) */\n      dup2\n      swap1\n      sstore\n      pop\n        /* \"BasicCoin/PokerToken.sol\":10265:10409  if (isOwner()) {\r... */\n    tag_214:\n        /* \"BasicCoin/PokerToken.sol\":10074:10416  function mint(uint256 amount_) external {\r... */\n      pop\n      jump\t// out\n        /* \"_lib/ERC20.sol\":2507:2698  function transfer(address _to, uint256 _amount)\r... */\n    tag_104:\n        /* \"_lib/ERC20.sol\":2609:2613  bool */\n      0x00\n        /* \"_lib/ERC20.sol\":2631:2668  _transfer(_msgSender(), _to, _amount) */\n      tag_221\n        /* \"_lib/ERC20.sol\":2641:2653  _msgSender() */\n      tag_222\n        /* \"_lib/ERC20.sol\":2641:2651  _msgSender */\n      tag_133\n        /* \"_lib/ERC20.sol\":2641:2653  _msgSender() */\n      jump\t// in\n    tag_222:\n        /* \"_lib/ERC20.sol\":2655:2658  _to */\n      dup5\n        /* \"_lib/ERC20.sol\":2660:2667  _amount */\n      dup5\n        /* \"_lib/ERC20.sol\":2631:2640  _transfer */\n      tag_144\n        /* \"_lib/ERC20.sol\":2631:2668  _transfer(_msgSender(), _to, _amount) */\n      jump\t// in\n    tag_221:\n        /* \"_lib/ERC20.sol\":2686:2690  true */\n      0x01\n        /* \"_lib/ERC20.sol\":2679:2690  return true */\n      swap1\n      pop\n        /* \"_lib/ERC20.sol\":2507:2698  function transfer(address _to, uint256 _amount)\r... */\n      swap3\n      swap2\n      pop\n      pop\n      jump\t// out\n        /* \"BasicCoin/PokerToken.sol\":11900:12029  function isMinter(address account) public view returns (bool) {\r... */\n    tag_107:\n        /* \"BasicCoin/PokerToken.sol\":11956:11960  bool */\n      0x00\n        /* \"BasicCoin/PokerToken.sol\":11980:12021  EnumerableSet.contains(_minters, account) */\n      tag_224\n        /* \"BasicCoin/PokerToken.sol\":12003:12011  _minters */\n      0x06\n        /* \"BasicCoin/PokerToken.sol\":12013:12020  account */\n      dup4\n        /* \"BasicCoin/PokerToken.sol\":11980:12002  EnumerableSet.contains */\n      tag_225\n        /* \"BasicCoin/PokerToken.sol\":11980:12021  EnumerableSet.contains(_minters, account) */\n      jump\t// in\n    tag_224:\n        /* \"BasicCoin/PokerToken.sol\":11973:12021  return EnumerableSet.contains(_minters, account) */\n      swap1\n      pop\n        /* \"BasicCoin/PokerToken.sol\":11900:12029  function isMinter(address account) public view returns (bool) {\r... */\n      swap2\n      swap1\n      pop\n      jump\t// out\n        /* \"BasicCoin/PokerToken.sol\":13455:13604  function setContractMintNum(address ads, uint256 num) public {\r... */\n    tag_110:\n        /* \"BasicCoin/PokerToken.sol\":13531:13540  isOwner() */\n      tag_227\n        /* \"BasicCoin/PokerToken.sol\":13531:13538  isOwner */\n      tag_89\n        /* \"BasicCoin/PokerToken.sol\":13531:13540  isOwner() */\n      jump\t// in\n    tag_227:\n        /* \"BasicCoin/PokerToken.sol\":13527:13597  if (isOwner()) {\r... */\n      iszero\n      tag_228\n      jumpi\n        /* \"BasicCoin/PokerToken.sol\":13582:13585  num */\n      dup1\n        /* \"BasicCoin/PokerToken.sol\":13557:13574  contractMintLimit */\n      0x09\n        /* \"BasicCoin/PokerToken.sol\":13557:13579  contractMintLimit[ads] */\n      0x00\n        /* \"BasicCoin/PokerToken.sol\":13575:13578  ads */\n      dup5\n        /* \"BasicCoin/PokerToken.sol\":13557:13579  contractMintLimit[ads] */\n      0xffffffffffffffffffffffffffffffffffffffff\n      and\n      0xffffffffffffffffffffffffffffffffffffffff\n      and\n      dup2\n      mstore\n      0x20\n      add\n      swap1\n      dup2\n      mstore\n      0x20\n      add\n      0x00\n      keccak256\n        /* \"BasicCoin/PokerToken.sol\":13557:13585  contractMintLimit[ads] = num */\n      dup2\n      swap1\n      sstore\n      pop\n        /* \"BasicCoin/PokerToken.sol\":13527:13597  if (isOwner()) {\r... */\n    tag_228:\n        /* \"BasicCoin/PokerToken.sol\":13455:13604  function setContractMintNum(address ads, uint256 num) public {\r... */\n      pop\n      pop\n      jump\t// out\n        /* \"BasicCoin/PokerToken.sol\":13980:14101  function setBatchAmount(uint256 num) public {\r... */\n    tag_113:\n        /* \"BasicCoin/PokerToken.sol\":14039:14048  isOwner() */\n      tag_230\n        /* \"BasicCoin/PokerToken.sol\":14039:14046  isOwner */\n      tag_89\n        /* \"BasicCoin/PokerToken.sol\":14039:14048  isOwner() */\n      jump\t// in\n    tag_230:\n        /* \"BasicCoin/PokerToken.sol\":14035:14094  if (isOwner()) {\r... */\n      iszero\n      tag_231\n      jumpi\n        /* \"BasicCoin/PokerToken.sol\":14079:14082  num */\n      dup1\n        /* \"BasicCoin/PokerToken.sol\":14065:14076  batchAmount */\n      0x0c\n        /* \"BasicCoin/PokerToken.sol\":14065:14082  batchAmount = num */\n      dup2\n      swap1\n      sstore\n      pop\n        /* \"BasicCoin/PokerToken.sol\":14035:14094  if (isOwner()) {\r... */\n    tag_231:\n        /* \"BasicCoin/PokerToken.sol\":13980:14101  function setBatchAmount(uint256 num) public {\r... */\n      pop\n      jump\t// out\n        /* \"_lib/ERC20.sol\":2761:2951  function allowance(address _owner, address _spender)\r... */\n    tag_116:\n        /* \"_lib/ERC20.sol\":2882:2889  uint256 */\n      0x00\n        /* \"_lib/ERC20.sol\":2914:2925  _allowances */\n      0x01\n        /* \"_lib/ERC20.sol\":2914:2933  _allowances[_owner] */\n      0x00\n        /* \"_lib/ERC20.sol\":2926:2932  _owner */\n      dup5\n        /* \"_lib/ERC20.sol\":2914:2933  _allowances[_owner] */\n      0xffffffffffffffffffffffffffffffffffffffff\n      and\n      0xffffffffffffffffffffffffffffffffffffffff\n      and\n      dup2\n      mstore\n      0x20\n      add\n      swap1\n      dup2\n      mstore\n      0x20\n      add\n      0x00\n      keccak256\n        /* \"_lib/ERC20.sol\":2914:2943  _allowances[_owner][_spender] */\n      0x00\n        /* \"_lib/ERC20.sol\":2934:2942  _spender */\n      dup4\n        /* \"_lib/ERC20.sol\":2914:2943  _allowances[_owner][_spender] */\n      0xffffffffffffffffffffffffffffffffffffffff\n      and\n      0xffffffffffffffffffffffffffffffffffffffff\n      and\n      dup2\n      mstore\n      0x20\n      add\n      swap1\n      dup2\n      mstore\n      0x20\n      add\n      0x00\n      keccak256\n      sload\n        /* \"_lib/ERC20.sol\":2907:2943  return _allowances[_owner][_spender] */\n      swap1\n      pop\n        /* \"_lib/ERC20.sol\":2761:2951  function allowance(address _owner, address _spender)\r... */\n      swap3\n      swap2\n      pop\n      pop\n      jump\t// out\n        /* \"BasicCoin/PokerToken.sol\":9860:9910  uint256 public YEAR_MINT_NUM = 1000000000 * 10**18 */\n    tag_118:\n      sload(0x0b)\n      dup2\n      jump\t// out\n        /* \"BasicCoin/PokerToken.sol\":9779:9853  mapping(address => mapping(uint256 => uint256)) public recordContractLimit */\n    tag_121:\n      mstore(0x20, 0x0a)\n      dup2\n      0x00\n      mstore\n      mstore(0x20, keccak256(0x00, 0x40))\n      dup1\n      0x00\n      mstore\n      keccak256(0x00, 0x40)\n      0x00\n      swap2\n      pop\n      swap2\n      pop\n      pop\n      sload\n      dup2\n      jump\t// out\n        /* \"BasicCoin/PokerToken.sol\":12656:13316  function getYear() public view returns (uint256 year) {\r... */\n    tag_123:\n        /* \"BasicCoin/PokerToken.sol\":12696:12708  uint256 year */\n      0x00\n        /* \"BasicCoin/PokerToken.sol\":12721:12738  uint256 timestamp */\n      dup1\n        /* \"BasicCoin/PokerToken.sol\":12741:12756  block.timestamp */\n      timestamp\n        /* \"BasicCoin/PokerToken.sol\":12721:12756  uint256 timestamp = block.timestamp */\n      swap1\n      pop\n        /* \"BasicCoin/PokerToken.sol\":12767:12780  uint256 _days */\n      0x00\n        /* \"BasicCoin/PokerToken.sol\":12491:12503  24 * 60 * 60 */\n      0x015180\n        /* \"BasicCoin/PokerToken.sol\":12783:12792  timestamp */\n      dup3\n        /* \"BasicCoin/PokerToken.sol\":12783:12810  timestamp / SECONDS_PER_DAY */\n      dup2\n      tag_234\n      jumpi\n      invalid\n    tag_234:\n      div\n        /* \"BasicCoin/PokerToken.sol\":12767:12810  uint256 _days = timestamp / SECONDS_PER_DAY */\n      swap1\n      pop\n        /* \"BasicCoin/PokerToken.sol\":12821:12834  int256 __days */\n      0x00\n        /* \"BasicCoin/PokerToken.sol\":12844:12849  _days */\n      dup2\n        /* \"BasicCoin/PokerToken.sol\":12821:12850  int256 __days = int256(_days) */\n      swap1\n      pop\n        /* \"BasicCoin/PokerToken.sol\":12863:12871  int256 L */\n      0x00\n        /* \"BasicCoin/PokerToken.sol\":12640:12647  2440588 */\n      0x253d8c\n        /* \"BasicCoin/PokerToken.sol\":12883:12888  68569 */\n      0x010bd9\n        /* \"BasicCoin/PokerToken.sol\":12874:12880  __days */\n      dup4\n        /* \"BasicCoin/PokerToken.sol\":12874:12888  __days + 68569 */\n      add\n        /* \"BasicCoin/PokerToken.sol\":12874:12905  __days + 68569 + OFFSET19700101 */\n      add\n        /* \"BasicCoin/PokerToken.sol\":12863:12905  int256 L = __days + 68569 + OFFSET19700101 */\n      swap1\n      pop\n        /* \"BasicCoin/PokerToken.sol\":12916:12924  int256 N */\n      0x00\n        /* \"BasicCoin/PokerToken.sol\":12937:12943  146097 */\n      0x023ab1\n        /* \"BasicCoin/PokerToken.sol\":12932:12933  L */\n      dup3\n        /* \"BasicCoin/PokerToken.sol\":12928:12929  4 */\n      0x04\n        /* \"BasicCoin/PokerToken.sol\":12928:12933  4 * L */\n      mul\n        /* \"BasicCoin/PokerToken.sol\":12927:12943  (4 * L) / 146097 */\n      dup2\n      tag_235\n      jumpi\n      invalid\n    tag_235:\n      sdiv\n        /* \"BasicCoin/PokerToken.sol\":12916:12943  int256 N = (4 * L) / 146097 */\n      swap1\n      pop\n        /* \"BasicCoin/PokerToken.sol\":12981:12982  4 */\n      0x04\n        /* \"BasicCoin/PokerToken.sol\":12976:12977  3 */\n      0x03\n        /* \"BasicCoin/PokerToken.sol\":12972:12973  N */\n      dup3\n        /* \"BasicCoin/PokerToken.sol\":12963:12969  146097 */\n      0x023ab1\n        /* \"BasicCoin/PokerToken.sol\":12963:12973  146097 * N */\n      mul\n        /* \"BasicCoin/PokerToken.sol\":12963:12977  146097 * N + 3 */\n      add\n        /* \"BasicCoin/PokerToken.sol\":12962:12982  (146097 * N + 3) / 4 */\n      dup2\n      tag_236\n      jumpi\n      invalid\n    tag_236:\n      sdiv\n        /* \"BasicCoin/PokerToken.sol\":12958:12959  L */\n      dup3\n        /* \"BasicCoin/PokerToken.sol\":12958:12982  L - (146097 * N + 3) / 4 */\n      sub\n        /* \"BasicCoin/PokerToken.sol\":12954:12982  L = L - (146097 * N + 3) / 4 */\n      swap2\n      pop\n        /* \"BasicCoin/PokerToken.sol\":12993:13005  int256 _year */\n      0x00\n        /* \"BasicCoin/PokerToken.sol\":13027:13034  1461001 */\n      0x164b09\n        /* \"BasicCoin/PokerToken.sol\":13021:13022  1 */\n      0x01\n        /* \"BasicCoin/PokerToken.sol\":13017:13018  L */\n      dup5\n        /* \"BasicCoin/PokerToken.sol\":13017:13022  L + 1 */\n      add\n        /* \"BasicCoin/PokerToken.sol\":13009:13013  4000 */\n      0x0fa0\n        /* \"BasicCoin/PokerToken.sol\":13009:13023  4000 * (L + 1) */\n      mul\n        /* \"BasicCoin/PokerToken.sol\":13008:13034  (4000 * (L + 1)) / 1461001 */\n      dup2\n      tag_237\n      jumpi\n      invalid\n    tag_237:\n      sdiv\n        /* \"BasicCoin/PokerToken.sol\":12993:13034  int256 _year = (4000 * (L + 1)) / 1461001 */\n      swap1\n      pop\n        /* \"BasicCoin/PokerToken.sol\":13074:13076  31 */\n      0x1f\n        /* \"BasicCoin/PokerToken.sol\":13070:13071  4 */\n      0x04\n        /* \"BasicCoin/PokerToken.sol\":13061:13066  _year */\n      dup3\n        /* \"BasicCoin/PokerToken.sol\":13054:13058  1461 */\n      0x05b5\n        /* \"BasicCoin/PokerToken.sol\":13054:13066  1461 * _year */\n      mul\n        /* \"BasicCoin/PokerToken.sol\":13053:13071  (1461 * _year) / 4 */\n      dup2\n      tag_238\n      jumpi\n      invalid\n    tag_238:\n      sdiv\n        /* \"BasicCoin/PokerToken.sol\":13049:13050  L */\n      dup5\n        /* \"BasicCoin/PokerToken.sol\":13049:13071  L - (1461 * _year) / 4 */\n      sub\n        /* \"BasicCoin/PokerToken.sol\":13049:13076  L - (1461 * _year) / 4 + 31 */\n      add\n        /* \"BasicCoin/PokerToken.sol\":13045:13076  L = L - (1461 * _year) / 4 + 31 */\n      swap3\n      pop\n        /* \"BasicCoin/PokerToken.sol\":13087:13100  int256 _month */\n      0x00\n        /* \"BasicCoin/PokerToken.sol\":13114:13118  2447 */\n      0x098f\n        /* \"BasicCoin/PokerToken.sol\":13109:13110  L */\n      dup5\n        /* \"BasicCoin/PokerToken.sol\":13104:13106  80 */\n      0x50\n        /* \"BasicCoin/PokerToken.sol\":13104:13110  80 * L */\n      mul\n        /* \"BasicCoin/PokerToken.sol\":13103:13118  (80 * L) / 2447 */\n      dup2\n      tag_239\n      jumpi\n      invalid\n    tag_239:\n      sdiv\n        /* \"BasicCoin/PokerToken.sol\":13087:13118  int256 _month = (80 * L) / 2447 */\n      swap1\n      pop\n        /* \"BasicCoin/PokerToken.sol\":13188:13190  11 */\n      0x0b\n        /* \"BasicCoin/PokerToken.sol\":13179:13185  _month */\n      dup2\n        /* \"BasicCoin/PokerToken.sol\":13179:13190  _month / 11 */\n      dup2\n      tag_240\n      jumpi\n      invalid\n    tag_240:\n      sdiv\n        /* \"BasicCoin/PokerToken.sol\":13175:13190  L = _month / 11 */\n      swap4\n      pop\n        /* \"BasicCoin/PokerToken.sol\":13228:13229  L */\n      dup4\n        /* \"BasicCoin/PokerToken.sol\":13223:13225  12 */\n      0x0c\n        /* \"BasicCoin/PokerToken.sol\":13223:13229  12 * L */\n      mul\n        /* \"BasicCoin/PokerToken.sol\":13219:13220  2 */\n      0x02\n        /* \"BasicCoin/PokerToken.sol\":13210:13216  _month */\n      dup3\n        /* \"BasicCoin/PokerToken.sol\":13210:13220  _month + 2 */\n      add\n        /* \"BasicCoin/PokerToken.sol\":13210:13229  _month + 2 - 12 * L */\n      sub\n        /* \"BasicCoin/PokerToken.sol\":13201:13229  _month = _month + 2 - 12 * L */\n      swap1\n      pop\n        /* \"BasicCoin/PokerToken.sol\":13273:13274  L */\n      dup4\n        /* \"BasicCoin/PokerToken.sol\":13265:13270  _year */\n      dup3\n        /* \"BasicCoin/PokerToken.sol\":13259:13261  49 */\n      0x31\n        /* \"BasicCoin/PokerToken.sol\":13255:13256  N */\n      dup6\n        /* \"BasicCoin/PokerToken.sol\":13255:13261  N - 49 */\n      sub\n        /* \"BasicCoin/PokerToken.sol\":13248:13251  100 */\n      0x64\n        /* \"BasicCoin/PokerToken.sol\":13248:13262  100 * (N - 49) */\n      mul\n        /* \"BasicCoin/PokerToken.sol\":13248:13270  100 * (N - 49) + _year */\n      add\n        /* \"BasicCoin/PokerToken.sol\":13248:13274  100 * (N - 49) + _year + L */\n      add\n        /* \"BasicCoin/PokerToken.sol\":13240:13274  _year = 100 * (N - 49) + _year + L */\n      swap2\n      pop\n        /* \"BasicCoin/PokerToken.sol\":13302:13307  _year */\n      dup2\n        /* \"BasicCoin/PokerToken.sol\":13287:13308  year = uint256(_year) */\n      swap8\n      pop\n        /* \"BasicCoin/PokerToken.sol\":12656:13316  function getYear() public view returns (uint256 year) {\r... */\n      pop\n      pop\n      pop\n      pop\n      pop\n      pop\n      pop\n      swap1\n      jump\t// out\n        /* \"BasicCoin/PokerToken.sol\":7121:7238  function length(AddressSet storage set) internal view returns (uint256) {\r... */\n    tag_126:\n        /* \"BasicCoin/PokerToken.sol\":7184:7191  uint256 */\n      0x00\n        /* \"BasicCoin/PokerToken.sol\":7211:7230  _length(set._inner) */\n      tag_242\n        /* \"BasicCoin/PokerToken.sol\":7219:7222  set */\n      dup3\n        /* \"BasicCoin/PokerToken.sol\":7219:7229  set._inner */\n      0x00\n      add\n        /* \"BasicCoin/PokerToken.sol\":7211:7218  _length */\n      tag_243\n        /* \"BasicCoin/PokerToken.sol\":7211:7230  _length(set._inner) */\n      jump\t// in\n    tag_242:\n        /* \"BasicCoin/PokerToken.sol\":7204:7230  return _length(set._inner) */\n      swap1\n      pop\n        /* \"BasicCoin/PokerToken.sol\":7121:7238  function length(AddressSet storage set) internal view returns (uint256) {\r... */\n      swap2\n      swap1\n      pop\n      jump\t// out\n        /* \"_lib/Context.sol\":605:711  function _msgSender() internal view virtual returns (address payable) {\r... */\n    tag_133:\n        /* \"_lib/Context.sol\":658:673  address payable */\n      0x00\n        /* \"_lib/Context.sol\":693:703  msg.sender */\n      caller\n        /* \"_lib/Context.sol\":686:703  return msg.sender */\n      swap1\n      pop\n        /* \"_lib/Context.sol\":605:711  function _msgSender() internal view virtual returns (address payable) {\r... */\n      swap1\n      jump\t// out\n        /* \"_lib/ERC20.sol\":5546:5885  function _approve(\r... */\n    tag_134:\n        /* \"_lib/ERC20.sol\":5695:5696  0 */\n      0x00\n        /* \"_lib/ERC20.sol\":5677:5697  _owner != address(0) */\n      0xffffffffffffffffffffffffffffffffffffffff\n      and\n        /* \"_lib/ERC20.sol\":5677:5683  _owner */\n      dup4\n        /* \"_lib/ERC20.sol\":5677:5697  _owner != address(0) */\n      0xffffffffffffffffffffffffffffffffffffffff\n      and\n      eq\n      iszero\n        /* \"_lib/ERC20.sol\":5669:5716  require(_owner != address(0), \"approve from 0\") */\n      tag_246\n      jumpi\n      mload(0x40)\n      0x08c379a000000000000000000000000000000000000000000000000000000000\n      dup2\n      mstore\n      0x04\n      add\n      dup1\n      dup1\n      0x20\n      add\n      dup3\n      dup2\n      sub\n      dup3\n      mstore\n      0x0e\n      dup2\n      mstore\n      0x20\n      add\n      dup1\n      0x617070726f76652066726f6d2030000000000000000000000000000000000000\n      dup2\n      mstore\n      pop\n      0x20\n      add\n      swap2\n      pop\n      pop\n      mload(0x40)\n      dup1\n      swap2\n      sub\n      swap1\n      revert\n    tag_246:\n        /* \"_lib/ERC20.sol\":5755:5756  0 */\n      0x00\n        /* \"_lib/ERC20.sol\":5735:5757  _spender != address(0) */\n      0xffffffffffffffffffffffffffffffffffffffff\n      and\n        /* \"_lib/ERC20.sol\":5735:5743  _spender */\n      dup3\n        /* \"_lib/ERC20.sol\":5735:5757  _spender != address(0) */\n      0xffffffffffffffffffffffffffffffffffffffff\n      and\n      eq\n      iszero\n        /* \"_lib/ERC20.sol\":5727:5774  require(_spender != address(0), \"approve to 0\") */\n      tag_247\n      jumpi\n      mload(0x40)\n      0x08c379a000000000000000000000000000000000000000000000000000000000\n      dup2\n      mstore\n      0x04\n      add\n      dup1\n      dup1\n      0x20\n      add\n      dup3\n      dup2\n      sub\n      dup3\n      mstore\n      0x0c\n      dup2\n      mstore\n      0x20\n      add\n      dup1\n      0x617070726f766520746f20300000000000000000000000000000000000000000\n      dup2\n      mstore\n      pop\n      0x20\n      add\n      swap2\n      pop\n      pop\n      mload(0x40)\n      dup1\n      swap2\n      sub\n      swap1\n      revert\n    tag_247:\n        /* \"_lib/ERC20.sol\":5819:5826  _amount */\n      dup1\n        /* \"_lib/ERC20.sol\":5787:5798  _allowances */\n      0x01\n        /* \"_lib/ERC20.sol\":5787:5806  _allowances[_owner] */\n      0x00\n        /* \"_lib/ERC20.sol\":5799:5805  _owner */\n      dup6\n        /* \"_lib/ERC20.sol\":5787:5806  _allowances[_owner] */\n      0xffffffffffffffffffffffffffffffffffffffff\n      and\n      0xffffffffffffffffffffffffffffffffffffffff\n      and\n      dup2\n      mstore\n      0x20\n      add\n      swap1\n      dup2\n      mstore\n      0x20\n      add\n      0x00\n      keccak256\n        /* \"_lib/ERC20.sol\":5787:5816  _allowances[_owner][_spender] */\n      0x00\n        /* \"_lib/ERC20.sol\":5807:5815  _spender */\n      dup5\n        /* \"_lib/ERC20.sol\":5787:5816  _allowances[_owner][_spender] */\n      0xffffffffffffffffffffffffffffffffffffffff\n      and\n      0xffffffffffffffffffffffffffffffffffffffff\n      and\n      dup2\n      mstore\n      0x20\n      add\n      swap1\n      dup2\n      mstore\n      0x20\n      add\n      0x00\n      keccak256\n        /* \"_lib/ERC20.sol\":5787:5826  _allowances[_owner][_spender] = _amount */\n      dup2\n      swap1\n      sstore\n      pop\n        /* \"_lib/ERC20.sol\":5859:5867  _spender */\n      dup2\n        /* \"_lib/ERC20.sol\":5842:5877  Approval(_owner, _spender, _amount) */\n      0xffffffffffffffffffffffffffffffffffffffff\n      and\n        /* \"_lib/ERC20.sol\":5851:5857  _owner */\n      dup4\n        /* \"_lib/ERC20.sol\":5842:5877  Approval(_owner, _spender, _amount) */\n      0xffffffffffffffffffffffffffffffffffffffff\n      and\n      0x8c5be1e5ebec7d5bd14f71427d1e84f3dd0314c0f7b2291e5b200ac8c7c3b925\n        /* \"_lib/ERC20.sol\":5869:5876  _amount */\n      dup4\n        /* \"_lib/ERC20.sol\":5842:5877  Approval(_owner, _spender, _amount) */\n      mload(0x40)\n      dup1\n      dup3\n      dup2\n      mstore\n      0x20\n      add\n      swap2\n      pop\n      pop\n      mload(0x40)\n      dup1\n      swap2\n      sub\n      swap1\n      log3\n        /* \"_lib/ERC20.sol\":5546:5885  function _approve(\r... */\n      pop\n      pop\n      pop\n      jump\t// out\n        /* \"_lib/ERC20.sol\":4652:5104  function _transfer(\r... */\n    tag_144:\n        /* \"_lib/ERC20.sol\":4795:4796  0 */\n      0x00\n        /* \"_lib/ERC20.sol\":4778:4797  _from != address(0) */\n      0xffffffffffffffffffffffffffffffffffffffff\n      and\n        /* \"_lib/ERC20.sol\":4778:4783  _from */\n      dup4\n        /* \"_lib/ERC20.sol\":4778:4797  _from != address(0) */\n      0xffffffffffffffffffffffffffffffffffffffff\n      and\n      eq\n      iszero\n        /* \"_lib/ERC20.sol\":4770:4817  require(_from != address(0), \"transfer from 0\") */\n      tag_249\n      jumpi\n      mload(0x40)\n      0x08c379a000000000000000000000000000000000000000000000000000000000\n      dup2\n      mstore\n      0x04\n      add\n      dup1\n      dup1\n      0x20\n      add\n      dup3\n      dup2\n      sub\n      dup3\n      mstore\n      0x0f\n      dup2\n      mstore\n      0x20\n      add\n      dup1\n      0x7472616e736665722066726f6d20300000000000000000000000000000000000\n      dup2\n      mstore\n      pop\n      0x20\n      add\n      swap2\n      pop\n      pop\n      mload(0x40)\n      dup1\n      swap2\n      sub\n      swap1\n      revert\n    tag_249:\n        /* \"_lib/ERC20.sol\":4851:4852  0 */\n      0x00\n        /* \"_lib/ERC20.sol\":4836:4853  _to != address(0) */\n      0xffffffffffffffffffffffffffffffffffffffff\n      and\n        /* \"_lib/ERC20.sol\":4836:4839  _to */\n      dup3\n        /* \"_lib/ERC20.sol\":4836:4853  _to != address(0) */\n      0xffffffffffffffffffffffffffffffffffffffff\n      and\n      eq\n      iszero\n        /* \"_lib/ERC20.sol\":4828:4871  require(_to != address(0), \"transfer to 0\") */\n      tag_250\n      jumpi\n      mload(0x40)\n      0x08c379a000000000000000000000000000000000000000000000000000000000\n      dup2\n      mstore\n      0x04\n      add\n      dup1\n      dup1\n      0x20\n      add\n      dup3\n      dup2\n      sub\n      dup3\n      mstore\n      0x0d\n      dup2\n      mstore\n      0x20\n      add\n      dup1\n      0x7472616e7366657220746f203000000000000000000000000000000000000000\n      dup2\n      mstore\n      pop\n      0x20\n      add\n      swap2\n      pop\n      pop\n      mload(0x40)\n      dup1\n      swap2\n      sub\n      swap1\n      revert\n    tag_250:\n        /* \"_lib/ERC20.sol\":4905:4911  0xdead */\n      0xdead\n        /* \"_lib/ERC20.sol\":4890:4912  _to != address(0xdead) */\n      0xffffffffffffffffffffffffffffffffffffffff\n      and\n        /* \"_lib/ERC20.sol\":4890:4893  _to */\n      dup3\n        /* \"_lib/ERC20.sol\":4890:4912  _to != address(0xdead) */\n      0xffffffffffffffffffffffffffffffffffffffff\n      and\n      eq\n      iszero\n        /* \"_lib/ERC20.sol\":4882:4935  require(_to != address(0xdead), \"transfer to 0xdead\") */\n      tag_251\n      jumpi\n      mload(0x40)\n      0x08c379a000000000000000000000000000000000000000000000000000000000\n      dup2\n      mstore\n      0x04\n      add\n      dup1\n      dup1\n      0x20\n      add\n      dup3\n      dup2\n      sub\n      dup3\n      mstore\n      0x12\n      dup2\n      mstore\n      0x20\n      add\n      dup1\n      0x7472616e7366657220746f203078646561640000000000000000000000000000\n      dup2\n      mstore\n      pop\n      0x20\n      add\n      swap2\n      pop\n      pop\n      mload(0x40)\n      dup1\n      swap2\n      sub\n      swap1\n      revert\n    tag_251:\n        /* \"_lib/ERC20.sol\":4967:4996  _balances[_from].sub(_amount) */\n      tag_252\n        /* \"_lib/ERC20.sol\":4988:4995  _amount */\n      dup2\n        /* \"_lib/ERC20.sol\":4967:4976  _balances */\n      0x00\n        /* \"_lib/ERC20.sol\":4967:4983  _balances[_from] */\n      dup1\n        /* \"_lib/ERC20.sol\":4977:4982  _from */\n      dup7\n        /* \"_lib/ERC20.sol\":4967:4983  _balances[_from] */\n      0xffffffffffffffffffffffffffffffffffffffff\n      and\n      0xffffffffffffffffffffffffffffffffffffffff\n      and\n      dup2\n      mstore\n      0x20\n      add\n      swap1\n      dup2\n      mstore\n      0x20\n      add\n      0x00\n      keccak256\n      sload\n        /* \"_lib/ERC20.sol\":4967:4987  _balances[_from].sub */\n      tag_159\n      swap1\n        /* \"_lib/ERC20.sol\":4967:4996  _balances[_from].sub(_amount) */\n      swap2\n      swap1\n      0xffffffff\n      and\n      jump\t// in\n    tag_252:\n        /* \"_lib/ERC20.sol\":4948:4957  _balances */\n      0x00\n        /* \"_lib/ERC20.sol\":4948:4964  _balances[_from] */\n      dup1\n        /* \"_lib/ERC20.sol\":4958:4963  _from */\n      dup6\n        /* \"_lib/ERC20.sol\":4948:4964  _balances[_from] */\n      0xffffffffffffffffffffffffffffffffffffffff\n      and\n      0xffffffffffffffffffffffffffffffffffffffff\n      and\n      dup2\n      mstore\n      0x20\n      add\n      swap1\n      dup2\n      mstore\n      0x20\n      add\n      0x00\n      keccak256\n        /* \"_lib/ERC20.sol\":4948:4996  _balances[_from] = _balances[_from].sub(_amount) */\n      dup2\n      swap1\n      sstore\n      pop\n        /* \"_lib/ERC20.sol\":5024:5051  _balances[_to].add(_amount) */\n      tag_253\n        /* \"_lib/ERC20.sol\":5043:5050  _amount */\n      dup2\n        /* \"_lib/ERC20.sol\":5024:5033  _balances */\n      0x00\n        /* \"_lib/ERC20.sol\":5024:5038  _balances[_to] */\n      dup1\n        /* \"_lib/ERC20.sol\":5034:5037  _to */\n      dup6\n        /* \"_lib/ERC20.sol\":5024:5038  _balances[_to] */\n      0xffffffffffffffffffffffffffffffffffffffff\n      and\n      0xffffffffffffffffffffffffffffffffffffffff\n      and\n      dup2\n      mstore\n      0x20\n      add\n      swap1\n      dup2\n      mstore\n      0x20\n      add\n      0x00\n      keccak256\n      sload\n        /* \"_lib/ERC20.sol\":5024:5042  _balances[_to].add */\n      tag_167\n      swap1\n        /* \"_lib/ERC20.sol\":5024:5051  _balances[_to].add(_amount) */\n      swap2\n      swap1\n      0xffffffff\n      and\n      jump\t// in\n    tag_253:\n        /* \"_lib/ERC20.sol\":5007:5016  _balances */\n      0x00\n        /* \"_lib/ERC20.sol\":5007:5021  _balances[_to] */\n      dup1\n        /* \"_lib/ERC20.sol\":5017:5020  _to */\n      dup5\n        /* \"_lib/ERC20.sol\":5007:5021  _balances[_to] */\n      0xffffffffffffffffffffffffffffffffffffffff\n      and\n      0xffffffffffffffffffffffffffffffffffffffff\n      and\n      dup2\n      mstore\n      0x20\n      add\n      swap1\n      dup2\n      mstore\n      0x20\n      add\n      0x00\n      keccak256\n        /* \"_lib/ERC20.sol\":5007:5051  _balances[_to] = _balances[_to].add(_amount) */\n      dup2\n      swap1\n      sstore\n      pop\n        /* \"_lib/ERC20.sol\":5083:5086  _to */\n      dup2\n        /* \"_lib/ERC20.sol\":5067:5096  Transfer(_from, _to, _amount) */\n      0xffffffffffffffffffffffffffffffffffffffff\n      and\n        /* \"_lib/ERC20.sol\":5076:5081  _from */\n      dup4\n        /* \"_lib/ERC20.sol\":5067:5096  Transfer(_from, _to, _amount) */\n      0xffffffffffffffffffffffffffffffffffffffff\n      and\n      0xddf252ad1be2c89b69c2b068fc378daa952ba7f163c4a11628f55a4df523b3ef\n        /* \"_lib/ERC20.sol\":5088:5095  _amount */\n      dup4\n        /* \"_lib/ERC20.sol\":5067:5096  Transfer(_from, _to, _amount) */\n      mload(0x40)\n      dup1\n      dup3\n      dup2\n      mstore\n      0x20\n      add\n      swap2\n      pop\n      pop\n      mload(0x40)\n      dup1\n      swap2\n      sub\n      swap1\n      log3\n        /* \"_lib/ERC20.sol\":4652:5104  function _transfer(\r... */\n      pop\n      pop\n      pop\n      jump\t// out\n        /* \"BasicCoin/PokerToken.sol\":6587:6759  function remove(AddressSet storage set, address value)\r... */\n    tag_151:\n        /* \"BasicCoin/PokerToken.sol\":6678:6682  bool */\n      0x00\n        /* \"BasicCoin/PokerToken.sol\":6707:6751  _remove(set._inner, bytes32(uint256(value))) */\n      tag_255\n        /* \"BasicCoin/PokerToken.sol\":6715:6718  set */\n      dup4\n        /* \"BasicCoin/PokerToken.sol\":6715:6725  set._inner */\n      0x00\n      add\n        /* \"BasicCoin/PokerToken.sol\":6743:6748  value */\n      dup4\n        /* \"BasicCoin/PokerToken.sol\":6735:6749  uint256(value) */\n      0xffffffffffffffffffffffffffffffffffffffff\n      and\n        /* \"BasicCoin/PokerToken.sol\":6727:6750  bytes32(uint256(value)) */\n      0x00\n      shl\n        /* \"BasicCoin/PokerToken.sol\":6707:6714  _remove */\n      tag_256\n        /* \"BasicCoin/PokerToken.sol\":6707:6751  _remove(set._inner, bytes32(uint256(value))) */\n      jump\t// in\n    tag_255:\n        /* \"BasicCoin/PokerToken.sol\":6700:6751  return _remove(set._inner, bytes32(uint256(value))) */\n      swap1\n      pop\n        /* \"BasicCoin/PokerToken.sol\":6587:6759  function remove(AddressSet storage set, address value)\r... */\n      swap3\n      swap2\n      pop\n      pop\n      jump\t// out\n        /* \"_lib/SafeMath.sol\":773:957  function sub(uint256 a, uint256 b) internal pure returns (uint256) {\r... */\n    tag_159:\n        /* \"_lib/SafeMath.sol\":831:838  uint256 */\n      0x00\n        /* \"_lib/SafeMath.sol\":864:865  a */\n      dup3\n        /* \"_lib/SafeMath.sol\":859:860  b */\n      dup3\n        /* \"_lib/SafeMath.sol\":859:865  b <= a */\n      gt\n      iszero\n        /* \"_lib/SafeMath.sol\":851:900  require(b <= a, \"SafeMath: subtraction overflow\") */\n      tag_258\n      jumpi\n      mload(0x40)\n      0x08c379a000000000000000000000000000000000000000000000000000000000\n      dup2\n      mstore\n      0x04\n      add\n      dup1\n      dup1\n      0x20\n      add\n      dup3\n      dup2\n      sub\n      dup3\n      mstore\n      0x1e\n      dup2\n      mstore\n      0x20\n      add\n      dup1\n      0x536166654d6174683a207375627472616374696f6e206f766572666c6f770000\n      dup2\n      mstore\n      pop\n      0x20\n      add\n      swap2\n      pop\n      pop\n      mload(0x40)\n      dup1\n      swap2\n      sub\n      swap1\n      revert\n    tag_258:\n        /* \"_lib/SafeMath.sol\":911:920  uint256 c */\n      0x00\n        /* \"_lib/SafeMath.sol\":927:928  b */\n      dup3\n        /* \"_lib/SafeMath.sol\":923:924  a */\n      dup5\n        /* \"_lib/SafeMath.sol\":923:928  a - b */\n      sub\n        /* \"_lib/SafeMath.sol\":911:928  uint256 c = a - b */\n      swap1\n      pop\n        /* \"_lib/SafeMath.sol\":948:949  c */\n      dup1\n        /* \"_lib/SafeMath.sol\":941:949  return c */\n      swap2\n      pop\n      pop\n        /* \"_lib/SafeMath.sol\":773:957  function sub(uint256 a, uint256 b) internal pure returns (uint256) {\r... */\n      swap3\n      swap2\n      pop\n      pop\n      jump\t// out\n        /* \"_lib/SafeMath.sol\":317:498  function add(uint256 a, uint256 b) internal pure returns (uint256) {\r... */\n    tag_167:\n        /* \"_lib/SafeMath.sol\":375:382  uint256 */\n      0x00\n        /* \"_lib/SafeMath.sol\":395:404  uint256 c */\n      dup1\n        /* \"_lib/SafeMath.sol\":411:412  b */\n      dup3\n        /* \"_lib/SafeMath.sol\":407:408  a */\n      dup5\n        /* \"_lib/SafeMath.sol\":407:412  a + b */\n      add\n        /* \"_lib/SafeMath.sol\":395:412  uint256 c = a + b */\n      swap1\n      pop\n        /* \"_lib/SafeMath.sol\":436:437  a */\n      dup4\n        /* \"_lib/SafeMath.sol\":431:432  c */\n      dup2\n        /* \"_lib/SafeMath.sol\":431:437  c >= a */\n      lt\n      iszero\n        /* \"_lib/SafeMath.sol\":423:469  require(c >= a, \"SafeMath: addition overflow\") */\n      tag_260\n      jumpi\n      mload(0x40)\n      0x08c379a000000000000000000000000000000000000000000000000000000000\n      dup2\n      mstore\n      0x04\n      add\n      dup1\n      dup1\n      0x20\n      add\n      dup3\n      dup2\n      sub\n      dup3\n      mstore\n      0x1b\n      dup2\n      mstore\n      0x20\n      add\n      dup1\n      0x536166654d6174683a206164646974696f6e206f766572666c6f770000000000\n      dup2\n      mstore\n      pop\n      0x20\n      add\n      swap2\n      pop\n      pop\n      mload(0x40)\n      dup1\n      swap2\n      sub\n      swap1\n      revert\n    tag_260:\n        /* \"_lib/SafeMath.sol\":489:490  c */\n      dup1\n        /* \"_lib/SafeMath.sol\":482:490  return c */\n      swap2\n      pop\n      pop\n        /* \"_lib/SafeMath.sol\":317:498  function add(uint256 a, uint256 b) internal pure returns (uint256) {\r... */\n      swap3\n      swap2\n      pop\n      pop\n      jump\t// out\n        /* \"_lib/ERC20.sol\":6164:6434  function _mint(address _to, uint256 _amount) internal {\r... */\n    tag_170:\n        /* \"_lib/ERC20.sol\":6252:6253  0 */\n      0x00\n        /* \"_lib/ERC20.sol\":6237:6254  _to != address(0) */\n      0xffffffffffffffffffffffffffffffffffffffff\n      and\n        /* \"_lib/ERC20.sol\":6237:6240  _to */\n      dup3\n        /* \"_lib/ERC20.sol\":6237:6254  _to != address(0) */\n      0xffffffffffffffffffffffffffffffffffffffff\n      and\n      eq\n      iszero\n        /* \"_lib/ERC20.sol\":6229:6268  require(_to != address(0), \"mint to 0\") */\n      tag_262\n      jumpi\n      mload(0x40)\n      0x08c379a000000000000000000000000000000000000000000000000000000000\n      dup2\n      mstore\n      0x04\n      add\n      dup1\n      dup1\n      0x20\n      add\n      dup3\n      dup2\n      sub\n      dup3\n      mstore\n      0x09\n      dup2\n      mstore\n      0x20\n      add\n      dup1\n      0x6d696e7420746f20300000000000000000000000000000000000000000000000\n      dup2\n      mstore\n      pop\n      0x20\n      add\n      swap2\n      pop\n      pop\n      mload(0x40)\n      dup1\n      swap2\n      sub\n      swap1\n      revert\n    tag_262:\n        /* \"_lib/ERC20.sol\":6296:6321  _totalSupply.add(_amount) */\n      tag_263\n        /* \"_lib/ERC20.sol\":6313:6320  _amount */\n      dup2\n        /* \"_lib/ERC20.sol\":6296:6308  _totalSupply */\n      sload(0x02)\n        /* \"_lib/ERC20.sol\":6296:6312  _totalSupply.add */\n      tag_167\n      swap1\n        /* \"_lib/ERC20.sol\":6296:6321  _totalSupply.add(_amount) */\n      swap2\n      swap1\n      0xffffffff\n      and\n      jump\t// in\n    tag_263:\n        /* \"_lib/ERC20.sol\":6281:6293  _totalSupply */\n      0x02\n        /* \"_lib/ERC20.sol\":6281:6321  _totalSupply = _totalSupply.add(_amount) */\n      dup2\n      swap1\n      sstore\n      pop\n        /* \"_lib/ERC20.sol\":6349:6376  _balances[_to].add(_amount) */\n      tag_264\n        /* \"_lib/ERC20.sol\":6368:6375  _amount */\n      dup2\n        /* \"_lib/ERC20.sol\":6349:6358  _balances */\n      0x00\n        /* \"_lib/ERC20.sol\":6349:6363  _balances[_to] */\n      dup1\n        /* \"_lib/ERC20.sol\":6359:6362  _to */\n      dup6\n        /* \"_lib/ERC20.sol\":6349:6363  _balances[_to] */\n      0xffffffffffffffffffffffffffffffffffffffff\n      and\n      0xffffffffffffffffffffffffffffffffffffffff\n      and\n      dup2\n      mstore\n      0x20\n      add\n      swap1\n      dup2\n      mstore\n      0x20\n      add\n      0x00\n      keccak256\n      sload\n        /* \"_lib/ERC20.sol\":6349:6367  _balances[_to].add */\n      tag_167\n      swap1\n        /* \"_lib/ERC20.sol\":6349:6376  _balances[_to].add(_amount) */\n      swap2\n      swap1\n      0xffffffff\n      and\n      jump\t// in\n    tag_264:\n        /* \"_lib/ERC20.sol\":6332:6341  _balances */\n      0x00\n        /* \"_lib/ERC20.sol\":6332:6346  _balances[_to] */\n      dup1\n        /* \"_lib/ERC20.sol\":6342:6345  _to */\n      dup5\n        /* \"_lib/ERC20.sol\":6332:6346  _balances[_to] */\n      0xffffffffffffffffffffffffffffffffffffffff\n      and\n      0xffffffffffffffffffffffffffffffffffffffff\n      and\n      dup2\n      mstore\n      0x20\n      add\n      swap1\n      dup2\n      mstore\n      0x20\n      add\n      0x00\n      keccak256\n        /* \"_lib/ERC20.sol\":6332:6376  _balances[_to] = _balances[_to].add(_amount) */\n      dup2\n      swap1\n      sstore\n      pop\n        /* \"_lib/ERC20.sol\":6413:6416  _to */\n      dup2\n        /* \"_lib/ERC20.sol\":6392:6426  Transfer(address(0), _to, _amount) */\n      0xffffffffffffffffffffffffffffffffffffffff\n      and\n        /* \"_lib/ERC20.sol\":6409:6410  0 */\n      0x00\n        /* \"_lib/ERC20.sol\":6392:6426  Transfer(address(0), _to, _amount) */\n      0xffffffffffffffffffffffffffffffffffffffff\n      and\n      0xddf252ad1be2c89b69c2b068fc378daa952ba7f163c4a11628f55a4df523b3ef\n        /* \"_lib/ERC20.sol\":6418:6425  _amount */\n      dup4\n        /* \"_lib/ERC20.sol\":6392:6426  Transfer(address(0), _to, _amount) */\n      mload(0x40)\n      dup1\n      dup3\n      dup2\n      mstore\n      0x20\n      add\n      swap2\n      pop\n      pop\n      mload(0x40)\n      dup1\n      swap2\n      sub\n      swap1\n      log3\n        /* \"_lib/ERC20.sol\":6164:6434  function _mint(address _to, uint256 _amount) internal {\r... */\n      pop\n      pop\n      jump\t// out\n        /* \"_lib/ERC20.sol\":6763:7114  function _burn(address _from, uint256 _amount) internal {\r... */\n    tag_181:\n        /* \"_lib/ERC20.sol\":6855:6856  0 */\n      0x00\n        /* \"_lib/ERC20.sol\":6838:6857  _from != address(0) */\n      0xffffffffffffffffffffffffffffffffffffffff\n      and\n        /* \"_lib/ERC20.sol\":6838:6843  _from */\n      dup3\n        /* \"_lib/ERC20.sol\":6838:6857  _from != address(0) */\n      0xffffffffffffffffffffffffffffffffffffffff\n      and\n      eq\n      iszero\n        /* \"_lib/ERC20.sol\":6830:6873  require(_from != address(0), \"burn from 0\") */\n      tag_266\n      jumpi\n      mload(0x40)\n      0x08c379a000000000000000000000000000000000000000000000000000000000\n      dup2\n      mstore\n      0x04\n      add\n      dup1\n      dup1\n      0x20\n      add\n      dup3\n      dup2\n      sub\n      dup3\n      mstore\n      0x0b\n      dup2\n      mstore\n      0x20\n      add\n      dup1\n      0x6275726e2066726f6d2030000000000000000000000000000000000000000000\n      dup2\n      mstore\n      pop\n      0x20\n      add\n      swap2\n      pop\n      pop\n      mload(0x40)\n      dup1\n      swap2\n      sub\n      swap1\n      revert\n    tag_266:\n        /* \"_lib/ERC20.sol\":6909:6915  0xdead */\n      0xdead\n        /* \"_lib/ERC20.sol\":6892:6916  _from != address(0xdead) */\n      0xffffffffffffffffffffffffffffffffffffffff\n      and\n        /* \"_lib/ERC20.sol\":6892:6897  _from */\n      dup3\n        /* \"_lib/ERC20.sol\":6892:6916  _from != address(0xdead) */\n      0xffffffffffffffffffffffffffffffffffffffff\n      and\n      eq\n      iszero\n        /* \"_lib/ERC20.sol\":6884:6937  require(_from != address(0xdead), \"burn from 0xdead\") */\n      tag_267\n      jumpi\n      mload(0x40)\n      0x08c379a000000000000000000000000000000000000000000000000000000000\n      dup2\n      mstore\n      0x04\n      add\n      dup1\n      dup1\n      0x20\n      add\n      dup3\n      dup2\n      sub\n      dup3\n      mstore\n      0x10\n      dup2\n      mstore\n      0x20\n      add\n      dup1\n      0x6275726e2066726f6d2030786465616400000000000000000000000000000000\n      dup2\n      mstore\n      pop\n      0x20\n      add\n      swap2\n      pop\n      pop\n      mload(0x40)\n      dup1\n      swap2\n      sub\n      swap1\n      revert\n    tag_267:\n        /* \"_lib/ERC20.sol\":6969:6998  _balances[_from].sub(_amount) */\n      tag_268\n        /* \"_lib/ERC20.sol\":6990:6997  _amount */\n      dup2\n        /* \"_lib/ERC20.sol\":6969:6978  _balances */\n      0x00\n        /* \"_lib/ERC20.sol\":6969:6985  _balances[_from] */\n      dup1\n        /* \"_lib/ERC20.sol\":6979:6984  _from */\n      dup6\n        /* \"_lib/ERC20.sol\":6969:6985  _balances[_from] */\n      0xffffffffffffffffffffffffffffffffffffffff\n      and\n      0xffffffffffffffffffffffffffffffffffffffff\n      and\n      dup2\n      mstore\n      0x20\n      add\n      swap1\n      dup2\n      mstore\n      0x20\n      add\n      0x00\n      keccak256\n      sload\n        /* \"_lib/ERC20.sol\":6969:6989  _balances[_from].sub */\n      tag_159\n      swap1\n        /* \"_lib/ERC20.sol\":6969:6998  _balances[_from].sub(_amount) */\n      swap2\n      swap1\n      0xffffffff\n      and\n      jump\t// in\n    tag_268:\n        /* \"_lib/ERC20.sol\":6950:6959  _balances */\n      0x00\n        /* \"_lib/ERC20.sol\":6950:6966  _balances[_from] */\n      dup1\n        /* \"_lib/ERC20.sol\":6960:6965  _from */\n      dup5\n        /* \"_lib/ERC20.sol\":6950:6966  _balances[_from] */\n      0xffffffffffffffffffffffffffffffffffffffff\n      and\n      0xffffffffffffffffffffffffffffffffffffffff\n      and\n      dup2\n      mstore\n      0x20\n      add\n      swap1\n      dup2\n      mstore\n      0x20\n      add\n      0x00\n      keccak256\n        /* \"_lib/ERC20.sol\":6950:6998  _balances[_from] = _balances[_from].sub(_amount) */\n      dup2\n      swap1\n      sstore\n      pop\n        /* \"_lib/ERC20.sol\":7024:7049  _totalSupply.sub(_amount) */\n      tag_269\n        /* \"_lib/ERC20.sol\":7041:7048  _amount */\n      dup2\n        /* \"_lib/ERC20.sol\":7024:7036  _totalSupply */\n      sload(0x02)\n        /* \"_lib/ERC20.sol\":7024:7040  _totalSupply.sub */\n      tag_159\n      swap1\n        /* \"_lib/ERC20.sol\":7024:7049  _totalSupply.sub(_amount) */\n      swap2\n      swap1\n      0xffffffff\n      and\n      jump\t// in\n    tag_269:\n        /* \"_lib/ERC20.sol\":7009:7021  _totalSupply */\n      0x02\n        /* \"_lib/ERC20.sol\":7009:7049  _totalSupply = _totalSupply.sub(_amount) */\n      dup2\n      swap1\n      sstore\n      pop\n        /* \"_lib/ERC20.sol\":7089:7095  0xdead */\n      0xdead\n        /* \"_lib/ERC20.sol\":7065:7106  Transfer(_from, address(0xdead), _amount) */\n      0xffffffffffffffffffffffffffffffffffffffff\n      and\n        /* \"_lib/ERC20.sol\":7074:7079  _from */\n      dup3\n        /* \"_lib/ERC20.sol\":7065:7106  Transfer(_from, address(0xdead), _amount) */\n      0xffffffffffffffffffffffffffffffffffffffff\n      and\n      0xddf252ad1be2c89b69c2b068fc378daa952ba7f163c4a11628f55a4df523b3ef\n        /* \"_lib/ERC20.sol\":7098:7105  _amount */\n      dup4\n        /* \"_lib/ERC20.sol\":7065:7106  Transfer(_from, address(0xdead), _amount) */\n      mload(0x40)\n      dup1\n      dup3\n      dup2\n      mstore\n      0x20\n      add\n      swap2\n      pop\n      pop\n      mload(0x40)\n      dup1\n      swap2\n      sub\n      swap1\n      log3\n        /* \"_lib/ERC20.sol\":6763:7114  function _burn(address _from, uint256 _amount) internal {\r... */\n      pop\n      pop\n      jump\t// out\n        /* \"BasicCoin/PokerToken.sol\":7592:7773  function at(AddressSet storage set, uint256 index)\r... */\n    tag_192:\n        /* \"BasicCoin/PokerToken.sol\":7693:7700  address */\n      0x00\n        /* \"BasicCoin/PokerToken.sol\":7741:7763  _at(set._inner, index) */\n      tag_271\n        /* \"BasicCoin/PokerToken.sol\":7745:7748  set */\n      dup4\n        /* \"BasicCoin/PokerToken.sol\":7745:7755  set._inner */\n      0x00\n      add\n        /* \"BasicCoin/PokerToken.sol\":7757:7762  index */\n      dup4\n        /* \"BasicCoin/PokerToken.sol\":7741:7744  _at */\n      tag_272\n        /* \"BasicCoin/PokerToken.sol\":7741:7763  _at(set._inner, index) */\n      jump\t// in\n    tag_271:\n        /* \"BasicCoin/PokerToken.sol\":7733:7764  uint256(_at(set._inner, index)) */\n      0x00\n      shr\n        /* \"BasicCoin/PokerToken.sol\":7718:7765  return address(uint256(_at(set._inner, index))) */\n      swap1\n      pop\n        /* \"BasicCoin/PokerToken.sol\":7592:7773  function at(AddressSet storage set, uint256 index)\r... */\n      swap3\n      swap2\n      pop\n      pop\n      jump\t// out\n        /* \"BasicCoin/PokerToken.sol\":6245:6411  function add(AddressSet storage set, address value)\r... */\n    tag_201:\n        /* \"BasicCoin/PokerToken.sol\":6333:6337  bool */\n      0x00\n        /* \"BasicCoin/PokerToken.sol\":6362:6403  _add(set._inner, bytes32(uint256(value))) */\n      tag_274\n        /* \"BasicCoin/PokerToken.sol\":6367:6370  set */\n      dup4\n        /* \"BasicCoin/PokerToken.sol\":6367:6377  set._inner */\n      0x00\n      add\n        /* \"BasicCoin/PokerToken.sol\":6395:6400  value */\n      dup4\n        /* \"BasicCoin/PokerToken.sol\":6387:6401  uint256(value) */\n      0xffffffffffffffffffffffffffffffffffffffff\n      and\n        /* \"BasicCoin/PokerToken.sol\":6379:6402  bytes32(uint256(value)) */\n      0x00\n      shl\n        /* \"BasicCoin/PokerToken.sol\":6362:6366  _add */\n      tag_275\n        /* \"BasicCoin/PokerToken.sol\":6362:6403  _add(set._inner, bytes32(uint256(value))) */\n      jump\t// in\n    tag_274:\n        /* \"BasicCoin/PokerToken.sol\":6355:6403  return _add(set._inner, bytes32(uint256(value))) */\n      swap1\n      pop\n        /* \"BasicCoin/PokerToken.sol\":6245:6411  function add(AddressSet storage set, address value)\r... */\n      swap3\n      swap2\n      pop\n      pop\n      jump\t// out\n        /* \"BasicCoin/PokerToken.sol\":6845:7035  function contains(AddressSet storage set, address value)\r... */\n    tag_225:\n        /* \"BasicCoin/PokerToken.sol\":6952:6956  bool */\n      0x00\n        /* \"BasicCoin/PokerToken.sol\":6981:7027  _contains(set._inner, bytes32(uint256(value))) */\n      tag_277\n        /* \"BasicCoin/PokerToken.sol\":6991:6994  set */\n      dup4\n        /* \"BasicCoin/PokerToken.sol\":6991:7001  set._inner */\n      0x00\n      add\n        /* \"BasicCoin/PokerToken.sol\":7019:7024  value */\n      dup4\n        /* \"BasicCoin/PokerToken.sol\":7011:7025  uint256(value) */\n      0xffffffffffffffffffffffffffffffffffffffff\n      and\n        /* \"BasicCoin/PokerToken.sol\":7003:7026  bytes32(uint256(value)) */\n      0x00\n      shl\n        /* \"BasicCoin/PokerToken.sol\":6981:6990  _contains */\n      tag_278\n        /* \"BasicCoin/PokerToken.sol\":6981:7027  _contains(set._inner, bytes32(uint256(value))) */\n      jump\t// in\n    tag_277:\n        /* \"BasicCoin/PokerToken.sol\":6974:7027  return _contains(set._inner, bytes32(uint256(value))) */\n      swap1\n      pop\n        /* \"BasicCoin/PokerToken.sol\":6845:7035  function contains(AddressSet storage set, address value)\r... */\n      swap3\n      swap2\n      pop\n      pop\n      jump\t// out\n        /* \"BasicCoin/PokerToken.sol\":3545:3654  function _length(Set storage set) private view returns (uint256) {\r... */\n    tag_243:\n        /* \"BasicCoin/PokerToken.sol\":3601:3608  uint256 */\n      0x00\n        /* \"BasicCoin/PokerToken.sol\":3628:3631  set */\n      dup2\n        /* \"BasicCoin/PokerToken.sol\":3628:3639  set._values */\n      0x00\n      add\n        /* \"BasicCoin/PokerToken.sol\":3628:3646  set._values.length */\n      dup1\n      sload\n      swap1\n      pop\n        /* \"BasicCoin/PokerToken.sol\":3621:3646  return set._values.length */\n      swap1\n      pop\n        /* \"BasicCoin/PokerToken.sol\":3545:3654  function _length(Set storage set) private view returns (uint256) {\r... */\n      swap2\n      swap1\n      pop\n      jump\t// out\n        /* \"BasicCoin/PokerToken.sol\":1655:3212  function _remove(Set storage set, bytes32 value) private returns (bool) {\r... */\n    tag_256:\n        /* \"BasicCoin/PokerToken.sol\":1721:1725  bool */\n      0x00\n        /* \"BasicCoin/PokerToken.sol\":1839:1857  uint256 valueIndex */\n      dup1\n        /* \"BasicCoin/PokerToken.sol\":1860:1863  set */\n      dup4\n        /* \"BasicCoin/PokerToken.sol\":1860:1872  set._indexes */\n      0x01\n      add\n        /* \"BasicCoin/PokerToken.sol\":1860:1879  set._indexes[value] */\n      0x00\n        /* \"BasicCoin/PokerToken.sol\":1873:1878  value */\n      dup5\n        /* \"BasicCoin/PokerToken.sol\":1860:1879  set._indexes[value] */\n      dup2\n      mstore\n      0x20\n      add\n      swap1\n      dup2\n      mstore\n      0x20\n      add\n      0x00\n      keccak256\n      sload\n        /* \"BasicCoin/PokerToken.sol\":1839:1879  uint256 valueIndex = set._indexes[value] */\n      swap1\n      pop\n        /* \"BasicCoin/PokerToken.sol\":1910:1911  0 */\n      0x00\n        /* \"BasicCoin/PokerToken.sol\":1896:1906  valueIndex */\n      dup2\n        /* \"BasicCoin/PokerToken.sol\":1896:1911  valueIndex != 0 */\n      eq\n        /* \"BasicCoin/PokerToken.sol\":1892:3205  if (valueIndex != 0) {\r... */\n      tag_281\n      jumpi\n        /* \"BasicCoin/PokerToken.sol\":2271:2292  uint256 toDeleteIndex */\n      0x00\n        /* \"BasicCoin/PokerToken.sol\":2308:2309  1 */\n      0x01\n        /* \"BasicCoin/PokerToken.sol\":2295:2305  valueIndex */\n      dup3\n        /* \"BasicCoin/PokerToken.sol\":2295:2309  valueIndex - 1 */\n      sub\n        /* \"BasicCoin/PokerToken.sol\":2271:2309  uint256 toDeleteIndex = valueIndex - 1 */\n      swap1\n      pop\n        /* \"BasicCoin/PokerToken.sol\":2324:2341  uint256 lastIndex */\n      0x00\n        /* \"BasicCoin/PokerToken.sol\":2365:2366  1 */\n      0x01\n        /* \"BasicCoin/PokerToken.sol\":2344:2347  set */\n      dup7\n        /* \"BasicCoin/PokerToken.sol\":2344:2355  set._values */\n      0x00\n      add\n        /* \"BasicCoin/PokerToken.sol\":2344:2362  set._values.length */\n      dup1\n      sload\n      swap1\n      pop\n        /* \"BasicCoin/PokerToken.sol\":2344:2366  set._values.length - 1 */\n      sub\n        /* \"BasicCoin/PokerToken.sol\":2324:2366  uint256 lastIndex = set._values.length - 1 */\n      swap1\n      pop\n        /* \"BasicCoin/PokerToken.sol\":2611:2628  bytes32 lastvalue */\n      0x00\n        /* \"BasicCoin/PokerToken.sol\":2631:2634  set */\n      dup7\n        /* \"BasicCoin/PokerToken.sol\":2631:2642  set._values */\n      0x00\n      add\n        /* \"BasicCoin/PokerToken.sol\":2643:2652  lastIndex */\n      dup3\n        /* \"BasicCoin/PokerToken.sol\":2631:2653  set._values[lastIndex] */\n      dup2\n      sload\n      dup2\n      lt\n      tag_282\n      jumpi\n      invalid\n    tag_282:\n      swap1\n      0x00\n      mstore\n      keccak256(0x00, 0x20)\n      add\n      sload\n        /* \"BasicCoin/PokerToken.sol\":2611:2653  bytes32 lastvalue = set._values[lastIndex] */\n      swap1\n      pop\n        /* \"BasicCoin/PokerToken.sol\":2777:2786  lastvalue */\n      dup1\n        /* \"BasicCoin/PokerToken.sol\":2748:2751  set */\n      dup8\n        /* \"BasicCoin/PokerToken.sol\":2748:2759  set._values */\n      0x00\n      add\n        /* \"BasicCoin/PokerToken.sol\":2760:2773  toDeleteIndex */\n      dup5\n        /* \"BasicCoin/PokerToken.sol\":2748:2774  set._values[toDeleteIndex] */\n      dup2\n      sload\n      dup2\n      lt\n      tag_284\n      jumpi\n      invalid\n    tag_284:\n      swap1\n      0x00\n      mstore\n      keccak256(0x00, 0x20)\n      add\n        /* \"BasicCoin/PokerToken.sol\":2748:2786  set._values[toDeleteIndex] = lastvalue */\n      dup2\n      swap1\n      sstore\n      pop\n        /* \"BasicCoin/PokerToken.sol\":2896:2897  1 */\n      0x01\n        /* \"BasicCoin/PokerToken.sol\":2880:2893  toDeleteIndex */\n      dup4\n        /* \"BasicCoin/PokerToken.sol\":2880:2897  toDeleteIndex + 1 */\n      add\n        /* \"BasicCoin/PokerToken.sol\":2854:2857  set */\n      dup8\n        /* \"BasicCoin/PokerToken.sol\":2854:2866  set._indexes */\n      0x01\n      add\n        /* \"BasicCoin/PokerToken.sol\":2854:2877  set._indexes[lastvalue] */\n      0x00\n        /* \"BasicCoin/PokerToken.sol\":2867:2876  lastvalue */\n      dup4\n        /* \"BasicCoin/PokerToken.sol\":2854:2877  set._indexes[lastvalue] */\n      dup2\n      mstore\n      0x20\n      add\n      swap1\n      dup2\n      mstore\n      0x20\n      add\n      0x00\n      keccak256\n        /* \"BasicCoin/PokerToken.sol\":2854:2897  set._indexes[lastvalue] = toDeleteIndex + 1 */\n      dup2\n      swap1\n      sstore\n      pop\n        /* \"BasicCoin/PokerToken.sol\":3006:3009  set */\n      dup7\n        /* \"BasicCoin/PokerToken.sol\":3006:3017  set._values */\n      0x00\n      add\n        /* \"BasicCoin/PokerToken.sol\":3006:3023  set._values.pop() */\n      dup1\n      sload\n      dup1\n      tag_286\n      jumpi\n      invalid\n    tag_286:\n      0x01\n      swap1\n      sub\n      dup2\n      dup2\n      swap1\n      0x00\n      mstore\n      keccak256(0x00, 0x20)\n      add\n      0x00\n      swap1\n      sstore\n      swap1\n      sstore\n        /* \"BasicCoin/PokerToken.sol\":3101:3104  set */\n      dup7\n        /* \"BasicCoin/PokerToken.sol\":3101:3113  set._indexes */\n      0x01\n      add\n        /* \"BasicCoin/PokerToken.sol\":3101:3120  set._indexes[value] */\n      0x00\n        /* \"BasicCoin/PokerToken.sol\":3114:3119  value */\n      dup8\n        /* \"BasicCoin/PokerToken.sol\":3101:3120  set._indexes[value] */\n      dup2\n      mstore\n      0x20\n      add\n      swap1\n      dup2\n      mstore\n      0x20\n      add\n      0x00\n      keccak256\n        /* \"BasicCoin/PokerToken.sol\":3094:3120  delete set._indexes[value] */\n      0x00\n      swap1\n      sstore\n        /* \"BasicCoin/PokerToken.sol\":3144:3148  true */\n      0x01\n        /* \"BasicCoin/PokerToken.sol\":3137:3148  return true */\n      swap5\n      pop\n      pop\n      pop\n      pop\n      pop\n      jump(tag_280)\n        /* \"BasicCoin/PokerToken.sol\":1892:3205  if (valueIndex != 0) {\r... */\n    tag_281:\n        /* \"BasicCoin/PokerToken.sol\":3188:3193  false */\n      0x00\n        /* \"BasicCoin/PokerToken.sol\":3181:3193  return false */\n      swap2\n      pop\n      pop\n        /* \"BasicCoin/PokerToken.sol\":1655:3212  function _remove(Set storage set, bytes32 value) private returns (bool) {\r... */\n    tag_280:\n      swap3\n      swap2\n      pop\n      pop\n      jump\t// out\n        /* \"BasicCoin/PokerToken.sol\":4008:4281  function _at(Set storage set, uint256 index)\r... */\n    tag_272:\n        /* \"BasicCoin/PokerToken.sol\":4102:4109  bytes32 */\n      0x00\n        /* \"BasicCoin/PokerToken.sol\":4170:4175  index */\n      dup2\n        /* \"BasicCoin/PokerToken.sol\":4149:4152  set */\n      dup4\n        /* \"BasicCoin/PokerToken.sol\":4149:4160  set._values */\n      0x00\n      add\n        /* \"BasicCoin/PokerToken.sol\":4149:4167  set._values.length */\n      dup1\n      sload\n      swap1\n      pop\n        /* \"BasicCoin/PokerToken.sol\":4149:4175  set._values.length > index */\n      gt\n        /* \"BasicCoin/PokerToken.sol\":4127:4237  require(\r... */\n      tag_290\n      jumpi\n      mload(0x40)\n      0x08c379a000000000000000000000000000000000000000000000000000000000\n      dup2\n      mstore\n      0x04\n      add\n      dup1\n      dup1\n      0x20\n      add\n      dup3\n      dup2\n      sub\n      dup3\n      mstore\n      0x22\n      dup2\n      mstore\n      0x20\n      add\n      dup1\n      data_045d6834e6193a687012a3ad777f612279e549b6945364d9d2324f48610d3cbb\n      0x22\n      swap2\n      codecopy\n      0x40\n      add\n      swap2\n      pop\n      pop\n      mload(0x40)\n      dup1\n      swap2\n      sub\n      swap1\n      revert\n    tag_290:\n        /* \"BasicCoin/PokerToken.sol\":4255:4258  set */\n      dup3\n        /* \"BasicCoin/PokerToken.sol\":4255:4266  set._values */\n      0x00\n      add\n        /* \"BasicCoin/PokerToken.sol\":4267:4272  index */\n      dup3\n        /* \"BasicCoin/PokerToken.sol\":4255:4273  set._values[index] */\n      dup2\n      sload\n      dup2\n      lt\n      tag_291\n      jumpi\n      invalid\n    tag_291:\n      swap1\n      0x00\n      mstore\n      keccak256(0x00, 0x20)\n      add\n      sload\n        /* \"BasicCoin/PokerToken.sol\":4248:4273  return set._values[index] */\n      swap1\n      pop\n        /* \"BasicCoin/PokerToken.sol\":4008:4281  function _at(Set storage set, uint256 index)\r... */\n      swap3\n      swap2\n      pop\n      pop\n      jump\t// out\n        /* \"BasicCoin/PokerToken.sol\":1065:1479  function _add(Set storage set, bytes32 value) private returns (bool) {\r... */\n    tag_275:\n        /* \"BasicCoin/PokerToken.sol\":1128:1132  bool */\n      0x00\n        /* \"BasicCoin/PokerToken.sol\":1150:1171  _contains(set, value) */\n      tag_294\n        /* \"BasicCoin/PokerToken.sol\":1160:1163  set */\n      dup4\n        /* \"BasicCoin/PokerToken.sol\":1165:1170  value */\n      dup4\n        /* \"BasicCoin/PokerToken.sol\":1150:1159  _contains */\n      tag_278\n        /* \"BasicCoin/PokerToken.sol\":1150:1171  _contains(set, value) */\n      jump\t// in\n    tag_294:\n        /* \"BasicCoin/PokerToken.sol\":1145:1472  if (!_contains(set, value)) {\r... */\n      tag_295\n      jumpi\n        /* \"BasicCoin/PokerToken.sol\":1188:1191  set */\n      dup3\n        /* \"BasicCoin/PokerToken.sol\":1188:1199  set._values */\n      0x00\n      add\n        /* \"BasicCoin/PokerToken.sol\":1205:1210  value */\n      dup3\n        /* \"BasicCoin/PokerToken.sol\":1188:1211  set._values.push(value) */\n      swap1\n      dup1\n      0x01\n      dup2\n      sload\n      add\n      dup1\n      dup3\n      sstore\n      dup1\n      swap2\n      pop\n      pop\n      0x01\n      swap1\n      sub\n      swap1\n      0x00\n      mstore\n      keccak256(0x00, 0x20)\n      add\n      0x00\n      swap1\n      swap2\n      swap1\n      swap2\n      swap1\n      swap2\n      pop\n      sstore\n        /* \"BasicCoin/PokerToken.sol\":1371:1374  set */\n      dup3\n        /* \"BasicCoin/PokerToken.sol\":1371:1382  set._values */\n      0x00\n      add\n        /* \"BasicCoin/PokerToken.sol\":1371:1389  set._values.length */\n      dup1\n      sload\n      swap1\n      pop\n        /* \"BasicCoin/PokerToken.sol\":1349:1352  set */\n      dup4\n        /* \"BasicCoin/PokerToken.sol\":1349:1361  set._indexes */\n      0x01\n      add\n        /* \"BasicCoin/PokerToken.sol\":1349:1368  set._indexes[value] */\n      0x00\n        /* \"BasicCoin/PokerToken.sol\":1362:1367  value */\n      dup5\n        /* \"BasicCoin/PokerToken.sol\":1349:1368  set._indexes[value] */\n      dup2\n      mstore\n      0x20\n      add\n      swap1\n      dup2\n      mstore\n      0x20\n      add\n      0x00\n      keccak256\n        /* \"BasicCoin/PokerToken.sol\":1349:1389  set._indexes[value] = set._values.length */\n      dup2\n      swap1\n      sstore\n      pop\n        /* \"BasicCoin/PokerToken.sol\":1411:1415  true */\n      0x01\n        /* \"BasicCoin/PokerToken.sol\":1404:1415  return true */\n      swap1\n      pop\n      jump(tag_293)\n        /* \"BasicCoin/PokerToken.sol\":1145:1472  if (!_contains(set, value)) {\r... */\n    tag_295:\n        /* \"BasicCoin/PokerToken.sol\":1455:1460  false */\n      0x00\n        /* \"BasicCoin/PokerToken.sol\":1448:1460  return false */\n      swap1\n      pop\n        /* \"BasicCoin/PokerToken.sol\":1065:1479  function _add(Set storage set, bytes32 value) private returns (bool) {\r... */\n    tag_293:\n      swap3\n      swap2\n      pop\n      pop\n      jump\t// out\n        /* \"BasicCoin/PokerToken.sol\":3298:3459  function _contains(Set storage set, bytes32 value)\r... */\n    tag_278:\n        /* \"BasicCoin/PokerToken.sol\":3398:3402  bool */\n      0x00\n        /* \"BasicCoin/PokerToken.sol\":3450:3451  0 */\n      dup1\n        /* \"BasicCoin/PokerToken.sol\":3427:3430  set */\n      dup4\n        /* \"BasicCoin/PokerToken.sol\":3427:3439  set._indexes */\n      0x01\n      add\n        /* \"BasicCoin/PokerToken.sol\":3427:3446  set._indexes[value] */\n      0x00\n        /* \"BasicCoin/PokerToken.sol\":3440:3445  value */\n      dup5\n        /* \"BasicCoin/PokerToken.sol\":3427:3446  set._indexes[value] */\n      dup2\n      mstore\n      0x20\n      add\n      swap1\n      dup2\n      mstore\n      0x20\n      add\n      0x00\n      keccak256\n      sload\n        /* \"BasicCoin/PokerToken.sol\":3427:3451  set._indexes[value] != 0 */\n      eq\n      iszero\n        /* \"BasicCoin/PokerToken.sol\":3420:3451  return set._indexes[value] != 0 */\n      swap1\n      pop\n        /* \"BasicCoin/PokerToken.sol\":3298:3459  function _contains(Set storage set, bytes32 value)\r... */\n      swap3\n      swap2\n      pop\n      pop\n      jump\t// out\n    stop\n    data_045d6834e6193a687012a3ad777f612279e549b6945364d9d2324f48610d3cbb 456e756d657261626c655365743a20696e646578206f7574206f6620626f756e6473\n    data_214d6a2bcbc2880da3f1409c020bc73ea2584b13faa007de23ec5ca8b186aba0 506f6b6572546f6b656e3a205f64656c4d696e74657220697320746865207a65726f2061646472657373\n    data_cb9d3212f00552d8be41e69b0ea5b8e9499f587c01d683168aa870e2f69a84ce 506f6b6572546f6b656e3a205f6164644d696e74657220697320746865207a65726f2061646472657373\n\n    auxdata: 0xa2646970667358221220bc403b6fa0e74ed4fa3a5f62b46728061c1bb1f3968eb715dba835426b1a5e1564736f6c634300060c0033\n}\n",
				"bytecode": {
					"linkReferences": {},
					"object": "60806040526b033b2e3c9fd0803ce8000000600b55670de0b6b3a7640000600c553480156200002d57600080fd5b506040518060400160405280600581526020017f504f4b45520000000000000000000000000000000000000000000000000000008152506040518060400160405280600581526020017f504f4b4552000000000000000000000000000000000000000000000000000000815250601260008360039080519060200190620000b69291906200021f565b508260049080519060200190620000cf9291906200021f565b5081600560006101000a81548160ff021916908360ff1602179055508160ff16600a0a8102905080600281905550806000803373ffffffffffffffffffffffffffffffffffffffff1673ffffffffffffffffffffffffffffffffffffffff1681526020019081526020016000208190555050505050620001546200021760201b60201c565b600560016101000a81548173ffffffffffffffffffffffffffffffffffffffff021916908373ffffffffffffffffffffffffffffffffffffffff160217905550600560019054906101000a900473ffffffffffffffffffffffffffffffffffffffff1673ffffffffffffffffffffffffffffffffffffffff16600073ffffffffffffffffffffffffffffffffffffffff167f8be0079c531659141344cd1fd0a4f28419497f9722a3daafe3b4186f6b6457e060405160405180910390a3620002c5565b600033905090565b828054600181600116156101000203166002900490600052602060002090601f016020900481019282601f106200026257805160ff191683800117855562000293565b8280016001018555821562000293579182015b828111156200029257825182559160200191906001019062000275565b5b509050620002a29190620002a6565b5090565b5b80821115620002c1576000816000905550600101620002a7565b5090565b61281680620002d56000396000f3fe608060405234801561001057600080fd5b50600436106101c45760003560e01c8063761248b4116100f9578063aa271e1a11610097578063dd62ed3e11610071578063dd62ed3e14610950578063e1665f56146109c8578063e235a4a6146109e6578063fd08921b14610a48576101c4565b8063aa271e1a1461087a578063b56a711c146108d4578063db6783b814610922576101c4565b80639098f2a7116100d35780639098f2a71461072357806395d89b4114610765578063a0712d68146107e8578063a9059cbb14610816576101c4565b8063761248b41461066b5780638da5cb5b146106cf5780638f32d59b14610703576101c4565b806323b872dd1161016657806342966c681161014057806342966c681461055f578063599a1c3a1461058d5780635b7121f8146105bb57806370a0823114610613576101c4565b806323b872dd14610456578063313ce567146104da57806340c10f19146104fb576101c4565b8063095ea7b3116101a2578063095ea7b3146102c257806318160ddd14610326578063230614fb1461034457806323338b88146103fc576101c4565b80630323aac7146101c957806306fdde03146101e7578063092654a01461026a575b600080fd5b6101d1610a66565b6040518082815260200191505060405180910390f35b6101ef610a77565b6040518080602001828103825283818151815260200191508051906020019080838360005b8381101561022f578082015181840152602081019050610214565b50505050905090810190601f16801561025c5780820380516001836020036101000a031916815260200191505b509250505060405180910390f35b6102ac6004803603602081101561028057600080fd5b81019080803573ffffffffffffffffffffffffffffffffffffffff169060200190929190505050610b15565b6040518082815260200191505060405180910390f35b61030e600480360360408110156102d857600080fd5b81019080803573ffffffffffffffffffffffffffffffffffffffff16906020019092919080359060200190929190505050610b2d565b60405180821515815260200191505060405180910390f35b61032e610b4b565b6040518082815260200191505060405180910390f35b6103fa6004803603602081101561035a57600080fd5b810190808035906020019064010000000081111561037757600080fd5b82018360208201111561038957600080fd5b803590602001918460208302840111640100000000831117156103ab57600080fd5b919080806020026020016040519081016040528093929190818152602001838360200280828437600081840152601f19601f820116905080830192505050505050509192919290505050610b55565b005b61043e6004803603602081101561041257600080fd5b81019080803573ffffffffffffffffffffffffffffffffffffffff169060200190929190505050610ba0565b60405180821515815260200191505060405180910390f35b6104c26004803603606081101561046c57600080fd5b81019080803573ffffffffffffffffffffffffffffffffffffffff169060200190929190803573ffffffffffffffffffffffffffffffffffffffff16906020019092919080359060200190929190505050610d04565b60405180821515815260200191505060405180910390f35b6104e2610e35565b604051808260ff16815260200191505060405180910390f35b6105476004803603604081101561051157600080fd5b81019080803573ffffffffffffffffffffffffffffffffffffffff16906020019092919080359060200190929190505050610e48565b60405180821515815260200191505060405180910390f35b61058b6004803603602081101561057557600080fd5b8101908080359060200190929190505050611199565b005b6105b9600480360360208110156105a357600080fd5b81019080803590602001909291905050506111a6565b005b6105e7600480360360208110156105d157600080fd5b81019080803590602001909291905050506111be565b604051808273ffffffffffffffffffffffffffffffffffffffff16815260200191505060405180910390f35b6106556004803603602081101561062957600080fd5b81019080803573ffffffffffffffffffffffffffffffffffffffff16906020019092919050505061131c565b6040518082815260200191505060405180910390f35b6106b76004803603604081101561068157600080fd5b81019080803573ffffffffffffffffffffffffffffffffffffffff16906020019092919080359060200190929190505050611364565b60405180821515815260200191505060405180910390f35b6106d76114d3565b604051808273ffffffffffffffffffffffffffffffffffffffff16815260200191505060405180910390f35b61070b6114fd565b60405180821515815260200191505060405180910390f35b61074f6004803603602081101561073957600080fd5b81019080803590602001909291905050506115db565b6040518082815260200191505060405180910390f35b61076d6115f3565b6040518080602001828103825283818151815260200191508051906020019080838360005b838110156107ad578082015181840152602081019050610792565b50505050905090810190601f1680156107da5780820380516001836020036101000a031916815260200191505b509250505060405180910390f35b610814600480360360208110156107fe57600080fd5b8101908080359060200190929190505050611691565b005b6108626004803603604081101561082c57600080fd5b81019080803573ffffffffffffffffffffffffffffffffffffffff169060200190929190803590602001909291905050506117a2565b60405180821515815260200191505060405180910390f35b6108bc6004803603602081101561089057600080fd5b81019080803573ffffffffffffffffffffffffffffffffffffffff1690602001909291905050506117c0565b60405180821515815260200191505060405180910390f35b610920600480360360408110156108ea57600080fd5b81019080803573ffffffffffffffffffffffffffffffffffffffff169060200190929190803590602001909291905050506117d4565b005b61094e6004803603602081101561093857600080fd5b810190808035906020019092919050505061182a565b005b6109b26004803603604081101561096657600080fd5b81019080803573ffffffffffffffffffffffffffffffffffffffff169060200190929190803573ffffffffffffffffffffffffffffffffffffffff169060200190929190505050611842565b6040518082815260200191505060405180910390f35b6109d06118c9565b6040518082815260200191505060405180910390f35b610a32600480360360408110156109fc57600080fd5b81019080803573ffffffffffffffffffffffffffffffffffffffff169060200190929190803590602001909291905050506118cf565b6040518082815260200191505060405180910390f35b610a506118f4565b6040518082815260200191505060405180910390f35b6000610a7260066119bd565b905090565b60038054600181600116156101000203166002900480601f016020809104026020016040519081016040528092919081815260200182805460018160011615610100020316600290048015610b0d5780601f10610ae257610100808354040283529160200191610b0d565b820191906000526020600020905b815481529060010190602001808311610af057829003601f168201915b505050505081565b60096020528060005260406000206000915090505481565b6000610b41610b3a6119d2565b84846119da565b6001905092915050565b6000600254905090565b610b5d6114fd565b15610b9d5760005b8151811015610b9b57610b8e33838381518110610b7e57fe5b6020026020010151600c54611c0b565b8080600101915050610b65565b505b50565b6000600560019054906101000a900473ffffffffffffffffffffffffffffffffffffffff1673ffffffffffffffffffffffffffffffffffffffff16610be36119d2565b73ffffffffffffffffffffffffffffffffffffffff1614610c6c576040517f08c379a00000000000000000000000000000000000000000000000000000000081526004018080602001828103825260098152602001807f6e6f74206f776e6572000000000000000000000000000000000000000000000081525060200191505060405180910390fd5b600073ffffffffffffffffffffffffffffffffffffffff168273ffffffffffffffffffffffffffffffffffffffff161415610cf2576040517f08c379a000000000000000000000000000000000000000000000000000000000815260040180806020018281038252602a81526020018061278d602a913960400191505060405180910390fd5b610cfd600683611f85565b9050919050565b60008073ffffffffffffffffffffffffffffffffffffffff168473ffffffffffffffffffffffffffffffffffffffff1614158015610d6f5750600073ffffffffffffffffffffffffffffffffffffffff168373ffffffffffffffffffffffffffffffffffffffff1614155b610d7857600080fd5b610e1f84610d846119d2565b610e1a85600160008a73ffffffffffffffffffffffffffffffffffffffff1673ffffffffffffffffffffffffffffffffffffffff1681526020019081526020016000206000610dd16119d2565b73ffffffffffffffffffffffffffffffffffffffff1673ffffffffffffffffffffffffffffffffffffffff16815260200190815260200160002054611fb590919063ffffffff16565b6119da565b610e2a848484611c0b565b600190509392505050565b600560009054906101000a900460ff1681565b6000610e53336117c0565b610ec5576040517f08c379a00000000000000000000000000000000000000000000000000000000081526004018080602001828103825260188152602001807f63616c6c6572206973206e6f7420746865206d696e746572000000000000000081525060200191505060405180910390fd5b600b54610ef58360086000610ed86118f4565b81526020019081526020016000205461203e90919063ffffffff16565b1115610f69576040517f08c379a00000000000000000000000000000000000000000000000000000000081526004018080602001828103825260198152602001807f506f6b6572546f6b656e3a20796561724d696e744c696d69740000000000000081525060200191505060405180910390fd5b610f7383836120c6565b610fa08260086000610f836118f4565b81526020019081526020016000205461203e90919063ffffffff16565b60086000610fac6118f4565b81526020019081526020016000208190555061102882600a60003373ffffffffffffffffffffffffffffffffffffffff1673ffffffffffffffffffffffffffffffffffffffff168152602001908152602001600020600061100b6118f4565b81526020019081526020016000205461203e90919063ffffffff16565b600a60003373ffffffffffffffffffffffffffffffffffffffff1673ffffffffffffffffffffffffffffffffffffffff16815260200190815260200160002060006110716118f4565b815260200190815260200160002081905550600960003373ffffffffffffffffffffffffffffffffffffffff1673ffffffffffffffffffffffffffffffffffffffff16815260200190815260200160002054600a60003373ffffffffffffffffffffffffffffffffffffffff1673ffffffffffffffffffffffffffffffffffffffff168152602001908152602001600020600061110c6118f4565b815260200190815260200160002054111561118f576040517f08c379a000000000000000000000000000000000000000000000000000000000815260040180806020018281038252601f8152602001807f506f6b6572546f6b656e3a207265636f7264436f6e74726163744c696d69740081525060200191505060405180910390fd5b6001905092915050565b6111a33382612281565b50565b6111ae6114fd565b156111bb5780600b819055505b50565b6000600560019054906101000a900473ffffffffffffffffffffffffffffffffffffffff1673ffffffffffffffffffffffffffffffffffffffff166112016119d2565b73ffffffffffffffffffffffffffffffffffffffff161461128a576040517f08c379a00000000000000000000000000000000000000000000000000000000081526004018080602001828103825260098152602001807f6e6f74206f776e6572000000000000000000000000000000000000000000000081525060200191505060405180910390fd5b6001611294610a66565b0382111561130a576040517f08c379a000000000000000000000000000000000000000000000000000000000815260040180806020018281038252601f8152602001807f506f6b6572546f6b656e3a20696e646578206f7574206f6620626f756e64730081525060200191505060405180910390fd5b6113156006836124e1565b9050919050565b60008060008373ffffffffffffffffffffffffffffffffffffffff1673ffffffffffffffffffffffffffffffffffffffff168152602001908152602001600020549050919050565b6000600560019054906101000a900473ffffffffffffffffffffffffffffffffffffffff1673ffffffffffffffffffffffffffffffffffffffff166113a76119d2565b73ffffffffffffffffffffffffffffffffffffffff1614611430576040517f08c379a00000000000000000000000000000000000000000000000000000000081526004018080602001828103825260098152602001807f6e6f74206f776e6572000000000000000000000000000000000000000000000081525060200191505060405180910390fd5b600073ffffffffffffffffffffffffffffffffffffffff168373ffffffffffffffffffffffffffffffffffffffff1614156114b6576040517f08c379a000000000000000000000000000000000000000000000000000000000815260040180806020018281038252602a8152602001806127b7602a913960400191505060405180910390fd5b6114c083836117d4565b6114cb6006846124fb565b905092915050565b6000600560019054906101000a900473ffffffffffffffffffffffffffffffffffffffff16905090565b600080600560019054906101000a900473ffffffffffffffffffffffffffffffffffffffff1673ffffffffffffffffffffffffffffffffffffffff166115416119d2565b73ffffffffffffffffffffffffffffffffffffffff1614905060011515811515146115d4576040517f08c379a00000000000000000000000000000000000000000000000000000000081526004018080602001828103825260098152602001807f6e6f74206f776e6572000000000000000000000000000000000000000000000081525060200191505060405180910390fd5b8091505090565b60086020528060005260406000206000915090505481565b60048054600181600116156101000203166002900480601f0160208091040260200160405190810160405280929190818152602001828054600181600116156101000203166002900480156116895780601f1061165e57610100808354040283529160200191611689565b820191906000526020600020905b81548152906001019060200180831161166c57829003601f168201915b505050505081565b600b546116c182600860006116a46118f4565b81526020019081526020016000205461203e90919063ffffffff16565b1115611735576040517f08c379a00000000000000000000000000000000000000000000000000000000081526004018080602001828103825260198152602001807f506f6b6572546f6b656e3a20796561724d696e744c696d69740000000000000081525060200191505060405180910390fd5b61173d6114fd565b1561179f5761175361174d6114d3565b826120c6565b61178081600860006117636118f4565b81526020019081526020016000205461203e90919063ffffffff16565b6008600061178c6118f4565b8152602001908152602001600020819055505b50565b60006117b66117af6119d2565b8484611c0b565b6001905092915050565b60006117cd60068361252b565b9050919050565b6117dc6114fd565b156118265780600960008473ffffffffffffffffffffffffffffffffffffffff1673ffffffffffffffffffffffffffffffffffffffff168152602001908152602001600020819055505b5050565b6118326114fd565b1561183f5780600c819055505b50565b6000600160008473ffffffffffffffffffffffffffffffffffffffff1673ffffffffffffffffffffffffffffffffffffffff16815260200190815260200160002060008373ffffffffffffffffffffffffffffffffffffffff1673ffffffffffffffffffffffffffffffffffffffff16815260200190815260200160002054905092915050565b600b5481565b600a602052816000526040600020602052806000526040600020600091509150505481565b600080429050600062015180828161190857fe5b0490506000819050600062253d8c62010bd98301019050600062023ab1826004028161193057fe5b059050600460038262023ab102018161194557fe5b0582039150600062164b0960018401610fa0028161195f57fe5b059050601f6004826105b5028161197257fe5b058403019250600061098f846050028161198857fe5b059050600b818161199557fe5b05935083600c0260028201039050838260318503606402010191508197505050505050505090565b60006119cb8260000161255b565b9050919050565b600033905090565b600073ffffffffffffffffffffffffffffffffffffffff168373ffffffffffffffffffffffffffffffffffffffff161415611a7d576040517f08c379a000000000000000000000000000000000000000000000000000000000815260040180806020018281038252600e8152602001807f617070726f76652066726f6d203000000000000000000000000000000000000081525060200191505060405180910390fd5b600073ffffffffffffffffffffffffffffffffffffffff168273ffffffffffffffffffffffffffffffffffffffff161415611b20576040517f08c379a000000000000000000000000000000000000000000000000000000000815260040180806020018281038252600c8152602001807f617070726f766520746f2030000000000000000000000000000000000000000081525060200191505060405180910390fd5b80600160008573ffffffffffffffffffffffffffffffffffffffff1673ffffffffffffffffffffffffffffffffffffffff16815260200190815260200160002060008473ffffffffffffffffffffffffffffffffffffffff1673ffffffffffffffffffffffffffffffffffffffff168152602001908152602001600020819055508173ffffffffffffffffffffffffffffffffffffffff168373ffffffffffffffffffffffffffffffffffffffff167f8c5be1e5ebec7d5bd14f71427d1e84f3dd0314c0f7b2291e5b200ac8c7c3b925836040518082815260200191505060405180910390a3505050565b600073ffffffffffffffffffffffffffffffffffffffff168373ffffffffffffffffffffffffffffffffffffffff161415611cae576040517f08c379a000000000000000000000000000000000000000000000000000000000815260040180806020018281038252600f8152602001807f7472616e736665722066726f6d2030000000000000000000000000000000000081525060200191505060405180910390fd5b600073ffffffffffffffffffffffffffffffffffffffff168273ffffffffffffffffffffffffffffffffffffffff161415611d51576040517f08c379a000000000000000000000000000000000000000000000000000000000815260040180806020018281038252600d8152602001807f7472616e7366657220746f20300000000000000000000000000000000000000081525060200191505060405180910390fd5b61dead73ffffffffffffffffffffffffffffffffffffffff168273ffffffffffffffffffffffffffffffffffffffff161415611df5576040517f08c379a00000000000000000000000000000000000000000000000000000000081526004018080602001828103825260128152602001807f7472616e7366657220746f20307864656164000000000000000000000000000081525060200191505060405180910390fd5b611e46816000808673ffffffffffffffffffffffffffffffffffffffff1673ffffffffffffffffffffffffffffffffffffffff16815260200190815260200160002054611fb590919063ffffffff16565b6000808573ffffffffffffffffffffffffffffffffffffffff1673ffffffffffffffffffffffffffffffffffffffff16815260200190815260200160002081905550611ed9816000808573ffffffffffffffffffffffffffffffffffffffff1673ffffffffffffffffffffffffffffffffffffffff1681526020019081526020016000205461203e90919063ffffffff16565b6000808473ffffffffffffffffffffffffffffffffffffffff1673ffffffffffffffffffffffffffffffffffffffff168152602001908152602001600020819055508173ffffffffffffffffffffffffffffffffffffffff168373ffffffffffffffffffffffffffffffffffffffff167fddf252ad1be2c89b69c2b068fc378daa952ba7f163c4a11628f55a4df523b3ef836040518082815260200191505060405180910390a3505050565b6000611fad836000018373ffffffffffffffffffffffffffffffffffffffff1660001b61256c565b905092915050565b60008282111561202d576040517f08c379a000000000000000000000000000000000000000000000000000000000815260040180806020018281038252601e8152602001807f536166654d6174683a207375627472616374696f6e206f766572666c6f77000081525060200191505060405180910390fd5b600082840390508091505092915050565b6000808284019050838110156120bc576040517f08c379a000000000000000000000000000000000000000000000000000000000815260040180806020018281038252601b8152602001807f536166654d6174683a206164646974696f6e206f766572666c6f77000000000081525060200191505060405180910390fd5b8091505092915050565b600073ffffffffffffffffffffffffffffffffffffffff168273ffffffffffffffffffffffffffffffffffffffff161415612169576040517f08c379a00000000000000000000000000000000000000000000000000000000081526004018080602001828103825260098152602001807f6d696e7420746f2030000000000000000000000000000000000000000000000081525060200191505060405180910390fd5b61217e8160025461203e90919063ffffffff16565b6002819055506121d5816000808573ffffffffffffffffffffffffffffffffffffffff1673ffffffffffffffffffffffffffffffffffffffff1681526020019081526020016000205461203e90919063ffffffff16565b6000808473ffffffffffffffffffffffffffffffffffffffff1673ffffffffffffffffffffffffffffffffffffffff168152602001908152602001600020819055508173ffffffffffffffffffffffffffffffffffffffff16600073ffffffffffffffffffffffffffffffffffffffff167fddf252ad1be2c89b69c2b068fc378daa952ba7f163c4a11628f55a4df523b3ef836040518082815260200191505060405180910390a35050565b600073ffffffffffffffffffffffffffffffffffffffff168273ffffffffffffffffffffffffffffffffffffffff161415612324576040517f08c379a000000000000000000000000000000000000000000000000000000000815260040180806020018281038252600b8152602001807f6275726e2066726f6d203000000000000000000000000000000000000000000081525060200191505060405180910390fd5b61dead73ffffffffffffffffffffffffffffffffffffffff168273ffffffffffffffffffffffffffffffffffffffff1614156123c8576040517f08c379a00000000000000000000000000000000000000000000000000000000081526004018080602001828103825260108152602001807f6275726e2066726f6d203078646561640000000000000000000000000000000081525060200191505060405180910390fd5b612419816000808573ffffffffffffffffffffffffffffffffffffffff1673ffffffffffffffffffffffffffffffffffffffff16815260200190815260200160002054611fb590919063ffffffff16565b6000808473ffffffffffffffffffffffffffffffffffffffff1673ffffffffffffffffffffffffffffffffffffffff1681526020019081526020016000208190555061247081600254611fb590919063ffffffff16565b60028190555061dead73ffffffffffffffffffffffffffffffffffffffff168273ffffffffffffffffffffffffffffffffffffffff167fddf252ad1be2c89b69c2b068fc378daa952ba7f163c4a11628f55a4df523b3ef836040518082815260200191505060405180910390a35050565b60006124f08360000183612654565b60001c905092915050565b6000612523836000018373ffffffffffffffffffffffffffffffffffffffff1660001b6126d7565b905092915050565b6000612553836000018373ffffffffffffffffffffffffffffffffffffffff1660001b612747565b905092915050565b600081600001805490509050919050565b6000808360010160008481526020019081526020016000205490506000811461264857600060018203905060006001866000018054905003905060008660000182815481106125b757fe5b90600052602060002001549050808760000184815481106125d457fe5b906000526020600020018190555060018301876001016000838152602001908152602001600020819055508660000180548061260c57fe5b6001900381819060005260206000200160009055905586600101600087815260200190815260200160002060009055600194505050505061264e565b60009150505b92915050565b6000818360000180549050116126b5576040517f08c379a000000000000000000000000000000000000000000000000000000000815260040180806020018281038252602281526020018061276b6022913960400191505060405180910390fd5b8260000182815481106126c457fe5b9060005260206000200154905092915050565b60006126e38383612747565b61273c578260000182908060018154018082558091505060019003906000526020600020016000909190919091505582600001805490508360010160008481526020019081526020016000208190555060019050612741565b600090505b92915050565b60008083600101600084815260200190815260200160002054141590509291505056fe456e756d657261626c655365743a20696e646578206f7574206f6620626f756e6473506f6b6572546f6b656e3a205f64656c4d696e74657220697320746865207a65726f2061646472657373506f6b6572546f6b656e3a205f6164644d696e74657220697320746865207a65726f2061646472657373a2646970667358221220bc403b6fa0e74ed4fa3a5f62b46728061c1bb1f3968eb715dba835426b1a5e1564736f6c634300060c0033",
					"opcodes": "PUSH1 0x80 PUSH1 0x40 MSTORE PUSH12 0x33B2E3C9FD0803CE8000000 PUSH1 0xB SSTORE PUSH8 0xDE0B6B3A7640000 PUSH1 0xC SSTORE CALLVALUE DUP1 ISZERO PUSH3 0x2D JUMPI PUSH1 0x0 DUP1 REVERT JUMPDEST POP PUSH1 0x40 MLOAD DUP1 PUSH1 0x40 ADD PUSH1 0x40 MSTORE DUP1 PUSH1 0x5 DUP2 MSTORE PUSH1 0x20 ADD PUSH32 0x504F4B4552000000000000000000000000000000000000000000000000000000 DUP2 MSTORE POP PUSH1 0x40 MLOAD DUP1 PUSH1 0x40 ADD PUSH1 0x40 MSTORE DUP1 PUSH1 0x5 DUP2 MSTORE PUSH1 0x20 ADD PUSH32 0x504F4B4552000000000000000000000000000000000000000000000000000000 DUP2 MSTORE POP PUSH1 0x12 PUSH1 0x0 DUP4 PUSH1 0x3 SWAP1 DUP1 MLOAD SWAP1 PUSH1 0x20 ADD SWAP1 PUSH3 0xB6 SWAP3 SWAP2 SWAP1 PUSH3 0x21F JUMP JUMPDEST POP DUP3 PUSH1 0x4 SWAP1 DUP1 MLOAD SWAP1 PUSH1 0x20 ADD SWAP1 PUSH3 0xCF SWAP3 SWAP2 SWAP1 PUSH3 0x21F JUMP JUMPDEST POP DUP2 PUSH1 0x5 PUSH1 0x0 PUSH2 0x100 EXP DUP2 SLOAD DUP2 PUSH1 0xFF MUL NOT AND SWAP1 DUP4 PUSH1 0xFF AND MUL OR SWAP1 SSTORE POP DUP2 PUSH1 0xFF AND PUSH1 0xA EXP DUP2 MUL SWAP1 POP DUP1 PUSH1 0x2 DUP2 SWAP1 SSTORE POP DUP1 PUSH1 0x0 DUP1 CALLER PUSH20 0xFFFFFFFFFFFFFFFFFFFFFFFFFFFFFFFFFFFFFFFF AND PUSH20 0xFFFFFFFFFFFFFFFFFFFFFFFFFFFFFFFFFFFFFFFF AND DUP2 MSTORE PUSH1 0x20 ADD SWAP1 DUP2 MSTORE PUSH1 0x20 ADD PUSH1 0x0 KECCAK256 DUP2 SWAP1 SSTORE POP POP POP POP POP PUSH3 0x154 PUSH3 0x217 PUSH1 0x20 SHL PUSH1 0x20 SHR JUMP JUMPDEST PUSH1 0x5 PUSH1 0x1 PUSH2 0x100 EXP DUP2 SLOAD DUP2 PUSH20 0xFFFFFFFFFFFFFFFFFFFFFFFFFFFFFFFFFFFFFFFF MUL NOT AND SWAP1 DUP4 PUSH20 0xFFFFFFFFFFFFFFFFFFFFFFFFFFFFFFFFFFFFFFFF AND MUL OR SWAP1 SSTORE POP PUSH1 0x5 PUSH1 0x1 SWAP1 SLOAD SWAP1 PUSH2 0x100 EXP SWAP1 DIV PUSH20 0xFFFFFFFFFFFFFFFFFFFFFFFFFFFFFFFFFFFFFFFF AND PUSH20 0xFFFFFFFFFFFFFFFFFFFFFFFFFFFFFFFFFFFFFFFF AND PUSH1 0x0 PUSH20 0xFFFFFFFFFFFFFFFFFFFFFFFFFFFFFFFFFFFFFFFF AND PUSH32 0x8BE0079C531659141344CD1FD0A4F28419497F9722A3DAAFE3B4186F6B6457E0 PUSH1 0x40 MLOAD PUSH1 0x40 MLOAD DUP1 SWAP2 SUB SWAP1 LOG3 PUSH3 0x2C5 JUMP JUMPDEST PUSH1 0x0 CALLER SWAP1 POP SWAP1 JUMP JUMPDEST DUP3 DUP1 SLOAD PUSH1 0x1 DUP2 PUSH1 0x1 AND ISZERO PUSH2 0x100 MUL SUB AND PUSH1 0x2 SWAP1 DIV SWAP1 PUSH1 0x0 MSTORE PUSH1 0x20 PUSH1 0x0 KECCAK256 SWAP1 PUSH1 0x1F ADD PUSH1 0x20 SWAP1 DIV DUP2 ADD SWAP3 DUP3 PUSH1 0x1F LT PUSH3 0x262 JUMPI DUP1 MLOAD PUSH1 0xFF NOT AND DUP4 DUP1 ADD OR DUP6 SSTORE PUSH3 0x293 JUMP JUMPDEST DUP3 DUP1 ADD PUSH1 0x1 ADD DUP6 SSTORE DUP3 ISZERO PUSH3 0x293 JUMPI SWAP2 DUP3 ADD JUMPDEST DUP3 DUP2 GT ISZERO PUSH3 0x292 JUMPI DUP3 MLOAD DUP3 SSTORE SWAP2 PUSH1 0x20 ADD SWAP2 SWAP1 PUSH1 0x1 ADD SWAP1 PUSH3 0x275 JUMP JUMPDEST JUMPDEST POP SWAP1 POP PUSH3 0x2A2 SWAP2 SWAP1 PUSH3 0x2A6 JUMP JUMPDEST POP SWAP1 JUMP JUMPDEST JUMPDEST DUP1 DUP3 GT ISZERO PUSH3 0x2C1 JUMPI PUSH1 0x0 DUP2 PUSH1 0x0 SWAP1 SSTORE POP PUSH1 0x1 ADD PUSH3 0x2A7 JUMP JUMPDEST POP SWAP1 JUMP JUMPDEST PUSH2 0x2816 DUP1 PUSH3 0x2D5 PUSH1 0x0 CODECOPY PUSH1 0x0 RETURN INVALID PUSH1 0x80 PUSH1 0x40 MSTORE CALLVALUE DUP1 ISZERO PUSH2 0x10 JUMPI PUSH1 0x0 DUP1 REVERT JUMPDEST POP PUSH1 0x4 CALLDATASIZE LT PUSH2 0x1C4 JUMPI PUSH1 0x0 CALLDATALOAD PUSH1 0xE0 SHR DUP1 PUSH4 0x761248B4 GT PUSH2 0xF9 JUMPI DUP1 PUSH4 0xAA271E1A GT PUSH2 0x97 JUMPI DUP1 PUSH4 0xDD62ED3E GT PUSH2 0x71 JUMPI DUP1 PUSH4 0xDD62ED3E EQ PUSH2 0x950 JUMPI DUP1 PUSH4 0xE1665F56 EQ PUSH2 0x9C8 JUMPI DUP1 PUSH4 0xE235A4A6 EQ PUSH2 0x9E6 JUMPI DUP1 PUSH4 0xFD08921B EQ PUSH2 0xA48 JUMPI PUSH2 0x1C4 JUMP JUMPDEST DUP1 PUSH4 0xAA271E1A EQ PUSH2 0x87A JUMPI DUP1 PUSH4 0xB56A711C EQ PUSH2 0x8D4 JUMPI DUP1 PUSH4 0xDB6783B8 EQ PUSH2 0x922 JUMPI PUSH2 0x1C4 JUMP JUMPDEST DUP1 PUSH4 0x9098F2A7 GT PUSH2 0xD3 JUMPI DUP1 PUSH4 0x9098F2A7 EQ PUSH2 0x723 JUMPI DUP1 PUSH4 0x95D89B41 EQ PUSH2 0x765 JUMPI DUP1 PUSH4 0xA0712D68 EQ PUSH2 0x7E8 JUMPI DUP1 PUSH4 0xA9059CBB EQ PUSH2 0x816 JUMPI PUSH2 0x1C4 JUMP JUMPDEST DUP1 PUSH4 0x761248B4 EQ PUSH2 0x66B JUMPI DUP1 PUSH4 0x8DA5CB5B EQ PUSH2 0x6CF JUMPI DUP1 PUSH4 0x8F32D59B EQ PUSH2 0x703 JUMPI PUSH2 0x1C4 JUMP JUMPDEST DUP1 PUSH4 0x23B872DD GT PUSH2 0x166 JUMPI DUP1 PUSH4 0x42966C68 GT PUSH2 0x140 JUMPI DUP1 PUSH4 0x42966C68 EQ PUSH2 0x55F JUMPI DUP1 PUSH4 0x599A1C3A EQ PUSH2 0x58D JUMPI DUP1 PUSH4 0x5B7121F8 EQ PUSH2 0x5BB JUMPI DUP1 PUSH4 0x70A08231 EQ PUSH2 0x613 JUMPI PUSH2 0x1C4 JUMP JUMPDEST DUP1 PUSH4 0x23B872DD EQ PUSH2 0x456 JUMPI DUP1 PUSH4 0x313CE567 EQ PUSH2 0x4DA JUMPI DUP1 PUSH4 0x40C10F19 EQ PUSH2 0x4FB JUMPI PUSH2 0x1C4 JUMP JUMPDEST DUP1 PUSH4 0x95EA7B3 GT PUSH2 0x1A2 JUMPI DUP1 PUSH4 0x95EA7B3 EQ PUSH2 0x2C2 JUMPI DUP1 PUSH4 0x18160DDD EQ PUSH2 0x326 JUMPI DUP1 PUSH4 0x230614FB EQ PUSH2 0x344 JUMPI DUP1 PUSH4 0x23338B88 EQ PUSH2 0x3FC JUMPI PUSH2 0x1C4 JUMP JUMPDEST DUP1 PUSH4 0x323AAC7 EQ PUSH2 0x1C9 JUMPI DUP1 PUSH4 0x6FDDE03 EQ PUSH2 0x1E7 JUMPI DUP1 PUSH4 0x92654A0 EQ PUSH2 0x26A JUMPI JUMPDEST PUSH1 0x0 DUP1 REVERT JUMPDEST PUSH2 0x1D1 PUSH2 0xA66 JUMP JUMPDEST PUSH1 0x40 MLOAD DUP1 DUP3 DUP2 MSTORE PUSH1 0x20 ADD SWAP2 POP POP PUSH1 0x40 MLOAD DUP1 SWAP2 SUB SWAP1 RETURN JUMPDEST PUSH2 0x1EF PUSH2 0xA77 JUMP JUMPDEST PUSH1 0x40 MLOAD DUP1 DUP1 PUSH1 0x20 ADD DUP3 DUP2 SUB DUP3 MSTORE DUP4 DUP2 DUP2 MLOAD DUP2 MSTORE PUSH1 0x20 ADD SWAP2 POP DUP1 MLOAD SWAP1 PUSH1 0x20 ADD SWAP1 DUP1 DUP4 DUP4 PUSH1 0x0 JUMPDEST DUP4 DUP2 LT ISZERO PUSH2 0x22F JUMPI DUP1 DUP3 ADD MLOAD DUP2 DUP5 ADD MSTORE PUSH1 0x20 DUP2 ADD SWAP1 POP PUSH2 0x214 JUMP JUMPDEST POP POP POP POP SWAP1 POP SWAP1 DUP2 ADD SWAP1 PUSH1 0x1F AND DUP1 ISZERO PUSH2 0x25C JUMPI DUP1 DUP3 SUB DUP1 MLOAD PUSH1 0x1 DUP4 PUSH1 0x20 SUB PUSH2 0x100 EXP SUB NOT AND DUP2 MSTORE PUSH1 0x20 ADD SWAP2 POP JUMPDEST POP SWAP3 POP POP POP PUSH1 0x40 MLOAD DUP1 SWAP2 SUB SWAP1 RETURN JUMPDEST PUSH2 0x2AC PUSH1 0x4 DUP1 CALLDATASIZE SUB PUSH1 0x20 DUP2 LT ISZERO PUSH2 0x280 JUMPI PUSH1 0x0 DUP1 REVERT JUMPDEST DUP2 ADD SWAP1 DUP1 DUP1 CALLDATALOAD PUSH20 0xFFFFFFFFFFFFFFFFFFFFFFFFFFFFFFFFFFFFFFFF AND SWAP1 PUSH1 0x20 ADD SWAP1 SWAP3 SWAP2 SWAP1 POP POP POP PUSH2 0xB15 JUMP JUMPDEST PUSH1 0x40 MLOAD DUP1 DUP3 DUP2 MSTORE PUSH1 0x20 ADD SWAP2 POP POP PUSH1 0x40 MLOAD DUP1 SWAP2 SUB SWAP1 RETURN JUMPDEST PUSH2 0x30E PUSH1 0x4 DUP1 CALLDATASIZE SUB PUSH1 0x40 DUP2 LT ISZERO PUSH2 0x2D8 JUMPI PUSH1 0x0 DUP1 REVERT JUMPDEST DUP2 ADD SWAP1 DUP1 DUP1 CALLDATALOAD PUSH20 0xFFFFFFFFFFFFFFFFFFFFFFFFFFFFFFFFFFFFFFFF AND SWAP1 PUSH1 0x20 ADD SWAP1 SWAP3 SWAP2 SWAP1 DUP1 CALLDATALOAD SWAP1 PUSH1 0x20 ADD SWAP1 SWAP3 SWAP2 SWAP1 POP POP POP PUSH2 0xB2D JUMP JUMPDEST PUSH1 0x40 MLOAD DUP1 DUP3 ISZERO ISZERO DUP2 MSTORE PUSH1 0x20 ADD SWAP2 POP POP PUSH1 0x40 MLOAD DUP1 SWAP2 SUB SWAP1 RETURN JUMPDEST PUSH2 0x32E PUSH2 0xB4B JUMP JUMPDEST PUSH1 0x40 MLOAD DUP1 DUP3 DUP2 MSTORE PUSH1 0x20 ADD SWAP2 POP POP PUSH1 0x40 MLOAD DUP1 SWAP2 SUB SWAP1 RETURN JUMPDEST PUSH2 0x3FA PUSH1 0x4 DUP1 CALLDATASIZE SUB PUSH1 0x20 DUP2 LT ISZERO PUSH2 0x35A JUMPI PUSH1 0x0 DUP1 REVERT JUMPDEST DUP2 ADD SWAP1 DUP1 DUP1 CALLDATALOAD SWAP1 PUSH1 0x20 ADD SWAP1 PUSH5 0x100000000 DUP2 GT ISZERO PUSH2 0x377 JUMPI PUSH1 0x0 DUP1 REVERT JUMPDEST DUP3 ADD DUP4 PUSH1 0x20 DUP3 ADD GT ISZERO PUSH2 0x389 JUMPI PUSH1 0x0 DUP1 REVERT JUMPDEST DUP1 CALLDATALOAD SWAP1 PUSH1 0x20 ADD SWAP2 DUP5 PUSH1 0x20 DUP4 MUL DUP5 ADD GT PUSH5 0x100000000 DUP4 GT OR ISZERO PUSH2 0x3AB JUMPI PUSH1 0x0 DUP1 REVERT JUMPDEST SWAP2 SWAP1 DUP1 DUP1 PUSH1 0x20 MUL PUSH1 0x20 ADD PUSH1 0x40 MLOAD SWAP1 DUP2 ADD PUSH1 0x40 MSTORE DUP1 SWAP4 SWAP3 SWAP2 SWAP1 DUP2 DUP2 MSTORE PUSH1 0x20 ADD DUP4 DUP4 PUSH1 0x20 MUL DUP1 DUP3 DUP5 CALLDATACOPY PUSH1 0x0 DUP2 DUP5 ADD MSTORE PUSH1 0x1F NOT PUSH1 0x1F DUP3 ADD AND SWAP1 POP DUP1 DUP4 ADD SWAP3 POP POP POP POP POP POP POP SWAP2 SWAP3 SWAP2 SWAP3 SWAP1 POP POP POP PUSH2 0xB55 JUMP JUMPDEST STOP JUMPDEST PUSH2 0x43E PUSH1 0x4 DUP1 CALLDATASIZE SUB PUSH1 0x20 DUP2 LT ISZERO PUSH2 0x412 JUMPI PUSH1 0x0 DUP1 REVERT JUMPDEST DUP2 ADD SWAP1 DUP1 DUP1 CALLDATALOAD PUSH20 0xFFFFFFFFFFFFFFFFFFFFFFFFFFFFFFFFFFFFFFFF AND SWAP1 PUSH1 0x20 ADD SWAP1 SWAP3 SWAP2 SWAP1 POP POP POP PUSH2 0xBA0 JUMP JUMPDEST PUSH1 0x40 MLOAD DUP1 DUP3 ISZERO ISZERO DUP2 MSTORE PUSH1 0x20 ADD SWAP2 POP POP PUSH1 0x40 MLOAD DUP1 SWAP2 SUB SWAP1 RETURN JUMPDEST PUSH2 0x4C2 PUSH1 0x4 DUP1 CALLDATASIZE SUB PUSH1 0x60 DUP2 LT ISZERO PUSH2 0x46C JUMPI PUSH1 0x0 DUP1 REVERT JUMPDEST DUP2 ADD SWAP1 DUP1 DUP1 CALLDATALOAD PUSH20 0xFFFFFFFFFFFFFFFFFFFFFFFFFFFFFFFFFFFFFFFF AND SWAP1 PUSH1 0x20 ADD SWAP1 SWAP3 SWAP2 SWAP1 DUP1 CALLDATALOAD PUSH20 0xFFFFFFFFFFFFFFFFFFFFFFFFFFFFFFFFFFFFFFFF AND SWAP1 PUSH1 0x20 ADD SWAP1 SWAP3 SWAP2 SWAP1 DUP1 CALLDATALOAD SWAP1 PUSH1 0x20 ADD SWAP1 SWAP3 SWAP2 SWAP1 POP POP POP PUSH2 0xD04 JUMP JUMPDEST PUSH1 0x40 MLOAD DUP1 DUP3 ISZERO ISZERO DUP2 MSTORE PUSH1 0x20 ADD SWAP2 POP POP PUSH1 0x40 MLOAD DUP1 SWAP2 SUB SWAP1 RETURN JUMPDEST PUSH2 0x4E2 PUSH2 0xE35 JUMP JUMPDEST PUSH1 0x40 MLOAD DUP1 DUP3 PUSH1 0xFF AND DUP2 MSTORE PUSH1 0x20 ADD SWAP2 POP POP PUSH1 0x40 MLOAD DUP1 SWAP2 SUB SWAP1 RETURN JUMPDEST PUSH2 0x547 PUSH1 0x4 DUP1 CALLDATASIZE SUB PUSH1 0x40 DUP2 LT ISZERO PUSH2 0x511 JUMPI PUSH1 0x0 DUP1 REVERT JUMPDEST DUP2 ADD SWAP1 DUP1 DUP1 CALLDATALOAD PUSH20 0xFFFFFFFFFFFFFFFFFFFFFFFFFFFFFFFFFFFFFFFF AND SWAP1 PUSH1 0x20 ADD SWAP1 SWAP3 SWAP2 SWAP1 DUP1 CALLDATALOAD SWAP1 PUSH1 0x20 ADD SWAP1 SWAP3 SWAP2 SWAP1 POP POP POP PUSH2 0xE48 JUMP JUMPDEST PUSH1 0x40 MLOAD DUP1 DUP3 ISZERO ISZERO DUP2 MSTORE PUSH1 0x20 ADD SWAP2 POP POP PUSH1 0x40 MLOAD DUP1 SWAP2 SUB SWAP1 RETURN JUMPDEST PUSH2 0x58B PUSH1 0x4 DUP1 CALLDATASIZE SUB PUSH1 0x20 DUP2 LT ISZERO PUSH2 0x575 JUMPI PUSH1 0x0 DUP1 REVERT JUMPDEST DUP2 ADD SWAP1 DUP1 DUP1 CALLDATALOAD SWAP1 PUSH1 0x20 ADD SWAP1 SWAP3 SWAP2 SWAP1 POP POP POP PUSH2 0x1199 JUMP JUMPDEST STOP JUMPDEST PUSH2 0x5B9 PUSH1 0x4 DUP1 CALLDATASIZE SUB PUSH1 0x20 DUP2 LT ISZERO PUSH2 0x5A3 JUMPI PUSH1 0x0 DUP1 REVERT JUMPDEST DUP2 ADD SWAP1 DUP1 DUP1 CALLDATALOAD SWAP1 PUSH1 0x20 ADD SWAP1 SWAP3 SWAP2 SWAP1 POP POP POP PUSH2 0x11A6 JUMP JUMPDEST STOP JUMPDEST PUSH2 0x5E7 PUSH1 0x4 DUP1 CALLDATASIZE SUB PUSH1 0x20 DUP2 LT ISZERO PUSH2 0x5D1 JUMPI PUSH1 0x0 DUP1 REVERT JUMPDEST DUP2 ADD SWAP1 DUP1 DUP1 CALLDATALOAD SWAP1 PUSH1 0x20 ADD SWAP1 SWAP3 SWAP2 SWAP1 POP POP POP PUSH2 0x11BE JUMP JUMPDEST PUSH1 0x40 MLOAD DUP1 DUP3 PUSH20 0xFFFFFFFFFFFFFFFFFFFFFFFFFFFFFFFFFFFFFFFF AND DUP2 MSTORE PUSH1 0x20 ADD SWAP2 POP POP PUSH1 0x40 MLOAD DUP1 SWAP2 SUB SWAP1 RETURN JUMPDEST PUSH2 0x655 PUSH1 0x4 DUP1 CALLDATASIZE SUB PUSH1 0x20 DUP2 LT ISZERO PUSH2 0x629 JUMPI PUSH1 0x0 DUP1 REVERT JUMPDEST DUP2 ADD SWAP1 DUP1 DUP1 CALLDATALOAD PUSH20 0xFFFFFFFFFFFFFFFFFFFFFFFFFFFFFFFFFFFFFFFF AND SWAP1 PUSH1 0x20 ADD SWAP1 SWAP3 SWAP2 SWAP1 POP POP POP PUSH2 0x131C JUMP JUMPDEST PUSH1 0x40 MLOAD DUP1 DUP3 DUP2 MSTORE PUSH1 0x20 ADD SWAP2 POP POP PUSH1 0x40 MLOAD DUP1 SWAP2 SUB SWAP1 RETURN JUMPDEST PUSH2 0x6B7 PUSH1 0x4 DUP1 CALLDATASIZE SUB PUSH1 0x40 DUP2 LT ISZERO PUSH2 0x681 JUMPI PUSH1 0x0 DUP1 REVERT JUMPDEST DUP2 ADD SWAP1 DUP1 DUP1 CALLDATALOAD PUSH20 0xFFFFFFFFFFFFFFFFFFFFFFFFFFFFFFFFFFFFFFFF AND SWAP1 PUSH1 0x20 ADD SWAP1 SWAP3 SWAP2 SWAP1 DUP1 CALLDATALOAD SWAP1 PUSH1 0x20 ADD SWAP1 SWAP3 SWAP2 SWAP1 POP POP POP PUSH2 0x1364 JUMP JUMPDEST PUSH1 0x40 MLOAD DUP1 DUP3 ISZERO ISZERO DUP2 MSTORE PUSH1 0x20 ADD SWAP2 POP POP PUSH1 0x40 MLOAD DUP1 SWAP2 SUB SWAP1 RETURN JUMPDEST PUSH2 0x6D7 PUSH2 0x14D3 JUMP JUMPDEST PUSH1 0x40 MLOAD DUP1 DUP3 PUSH20 0xFFFFFFFFFFFFFFFFFFFFFFFFFFFFFFFFFFFFFFFF AND DUP2 MSTORE PUSH1 0x20 ADD SWAP2 POP POP PUSH1 0x40 MLOAD DUP1 SWAP2 SUB SWAP1 RETURN JUMPDEST PUSH2 0x70B PUSH2 0x14FD JUMP JUMPDEST PUSH1 0x40 MLOAD DUP1 DUP3 ISZERO ISZERO DUP2 MSTORE PUSH1 0x20 ADD SWAP2 POP POP PUSH1 0x40 MLOAD DUP1 SWAP2 SUB SWAP1 RETURN JUMPDEST PUSH2 0x74F PUSH1 0x4 DUP1 CALLDATASIZE SUB PUSH1 0x20 DUP2 LT ISZERO PUSH2 0x739 JUMPI PUSH1 0x0 DUP1 REVERT JUMPDEST DUP2 ADD SWAP1 DUP1 DUP1 CALLDATALOAD SWAP1 PUSH1 0x20 ADD SWAP1 SWAP3 SWAP2 SWAP1 POP POP POP PUSH2 0x15DB JUMP JUMPDEST PUSH1 0x40 MLOAD DUP1 DUP3 DUP2 MSTORE PUSH1 0x20 ADD SWAP2 POP POP PUSH1 0x40 MLOAD DUP1 SWAP2 SUB SWAP1 RETURN JUMPDEST PUSH2 0x76D PUSH2 0x15F3 JUMP JUMPDEST PUSH1 0x40 MLOAD DUP1 DUP1 PUSH1 0x20 ADD DUP3 DUP2 SUB DUP3 MSTORE DUP4 DUP2 DUP2 MLOAD DUP2 MSTORE PUSH1 0x20 ADD SWAP2 POP DUP1 MLOAD SWAP1 PUSH1 0x20 ADD SWAP1 DUP1 DUP4 DUP4 PUSH1 0x0 JUMPDEST DUP4 DUP2 LT ISZERO PUSH2 0x7AD JUMPI DUP1 DUP3 ADD MLOAD DUP2 DUP5 ADD MSTORE PUSH1 0x20 DUP2 ADD SWAP1 POP PUSH2 0x792 JUMP JUMPDEST POP POP POP POP SWAP1 POP SWAP1 DUP2 ADD SWAP1 PUSH1 0x1F AND DUP1 ISZERO PUSH2 0x7DA JUMPI DUP1 DUP3 SUB DUP1 MLOAD PUSH1 0x1 DUP4 PUSH1 0x20 SUB PUSH2 0x100 EXP SUB NOT AND DUP2 MSTORE PUSH1 0x20 ADD SWAP2 POP JUMPDEST POP SWAP3 POP POP POP PUSH1 0x40 MLOAD DUP1 SWAP2 SUB SWAP1 RETURN JUMPDEST PUSH2 0x814 PUSH1 0x4 DUP1 CALLDATASIZE SUB PUSH1 0x20 DUP2 LT ISZERO PUSH2 0x7FE JUMPI PUSH1 0x0 DUP1 REVERT JUMPDEST DUP2 ADD SWAP1 DUP1 DUP1 CALLDATALOAD SWAP1 PUSH1 0x20 ADD SWAP1 SWAP3 SWAP2 SWAP1 POP POP POP PUSH2 0x1691 JUMP JUMPDEST STOP JUMPDEST PUSH2 0x862 PUSH1 0x4 DUP1 CALLDATASIZE SUB PUSH1 0x40 DUP2 LT ISZERO PUSH2 0x82C JUMPI PUSH1 0x0 DUP1 REVERT JUMPDEST DUP2 ADD SWAP1 DUP1 DUP1 CALLDATALOAD PUSH20 0xFFFFFFFFFFFFFFFFFFFFFFFFFFFFFFFFFFFFFFFF AND SWAP1 PUSH1 0x20 ADD SWAP1 SWAP3 SWAP2 SWAP1 DUP1 CALLDATALOAD SWAP1 PUSH1 0x20 ADD SWAP1 SWAP3 SWAP2 SWAP1 POP POP POP PUSH2 0x17A2 JUMP JUMPDEST PUSH1 0x40 MLOAD DUP1 DUP3 ISZERO ISZERO DUP2 MSTORE PUSH1 0x20 ADD SWAP2 POP POP PUSH1 0x40 MLOAD DUP1 SWAP2 SUB SWAP1 RETURN JUMPDEST PUSH2 0x8BC PUSH1 0x4 DUP1 CALLDATASIZE SUB PUSH1 0x20 DUP2 LT ISZERO PUSH2 0x890 JUMPI PUSH1 0x0 DUP1 REVERT JUMPDEST DUP2 ADD SWAP1 DUP1 DUP1 CALLDATALOAD PUSH20 0xFFFFFFFFFFFFFFFFFFFFFFFFFFFFFFFFFFFFFFFF AND SWAP1 PUSH1 0x20 ADD SWAP1 SWAP3 SWAP2 SWAP1 POP POP POP PUSH2 0x17C0 JUMP JUMPDEST PUSH1 0x40 MLOAD DUP1 DUP3 ISZERO ISZERO DUP2 MSTORE PUSH1 0x20 ADD SWAP2 POP POP PUSH1 0x40 MLOAD DUP1 SWAP2 SUB SWAP1 RETURN JUMPDEST PUSH2 0x920 PUSH1 0x4 DUP1 CALLDATASIZE SUB PUSH1 0x40 DUP2 LT ISZERO PUSH2 0x8EA JUMPI PUSH1 0x0 DUP1 REVERT JUMPDEST DUP2 ADD SWAP1 DUP1 DUP1 CALLDATALOAD PUSH20 0xFFFFFFFFFFFFFFFFFFFFFFFFFFFFFFFFFFFFFFFF AND SWAP1 PUSH1 0x20 ADD SWAP1 SWAP3 SWAP2 SWAP1 DUP1 CALLDATALOAD SWAP1 PUSH1 0x20 ADD SWAP1 SWAP3 SWAP2 SWAP1 POP POP POP PUSH2 0x17D4 JUMP JUMPDEST STOP JUMPDEST PUSH2 0x94E PUSH1 0x4 DUP1 CALLDATASIZE SUB PUSH1 0x20 DUP2 LT ISZERO PUSH2 0x938 JUMPI PUSH1 0x0 DUP1 REVERT JUMPDEST DUP2 ADD SWAP1 DUP1 DUP1 CALLDATALOAD SWAP1 PUSH1 0x20 ADD SWAP1 SWAP3 SWAP2 SWAP1 POP POP POP PUSH2 0x182A JUMP JUMPDEST STOP JUMPDEST PUSH2 0x9B2 PUSH1 0x4 DUP1 CALLDATASIZE SUB PUSH1 0x40 DUP2 LT ISZERO PUSH2 0x966 JUMPI PUSH1 0x0 DUP1 REVERT JUMPDEST DUP2 ADD SWAP1 DUP1 DUP1 CALLDATALOAD PUSH20 0xFFFFFFFFFFFFFFFFFFFFFFFFFFFFFFFFFFFFFFFF AND SWAP1 PUSH1 0x20 ADD SWAP1 SWAP3 SWAP2 SWAP1 DUP1 CALLDATALOAD PUSH20 0xFFFFFFFFFFFFFFFFFFFFFFFFFFFFFFFFFFFFFFFF AND SWAP1 PUSH1 0x20 ADD SWAP1 SWAP3 SWAP2 SWAP1 POP POP POP PUSH2 0x1842 JUMP JUMPDEST PUSH1 0x40 MLOAD DUP1 DUP3 DUP2 MSTORE PUSH1 0x20 ADD SWAP2 POP POP PUSH1 0x40 MLOAD DUP1 SWAP2 SUB SWAP1 RETURN JUMPDEST PUSH2 0x9D0 PUSH2 0x18C9 JUMP JUMPDEST PUSH1 0x40 MLOAD DUP1 DUP3 DUP2 MSTORE PUSH1 0x20 ADD SWAP2 POP POP PUSH1 0x40 MLOAD DUP1 SWAP2 SUB SWAP1 RETURN JUMPDEST PUSH2 0xA32 PUSH1 0x4 DUP1 CALLDATASIZE SUB PUSH1 0x40 DUP2 LT ISZERO PUSH2 0x9FC JUMPI PUSH1 0x0 DUP1 REVERT JUMPDEST DUP2 ADD SWAP1 DUP1 DUP1 CALLDATALOAD PUSH20 0xFFFFFFFFFFFFFFFFFFFFFFFFFFFFFFFFFFFFFFFF AND SWAP1 PUSH1 0x20 ADD SWAP1 SWAP3 SWAP2 SWAP1 DUP1 CALLDATALOAD SWAP1 PUSH1 0x20 ADD SWAP1 SWAP3 SWAP2 SWAP1 POP POP POP PUSH2 0x18CF JUMP JUMPDEST PUSH1 0x40 MLOAD DUP1 DUP3 DUP2 MSTORE PUSH1 0x20 ADD SWAP2 POP POP PUSH1 0x40 MLOAD DUP1 SWAP2 SUB SWAP1 RETURN JUMPDEST PUSH2 0xA50 PUSH2 0x18F4 JUMP JUMPDEST PUSH1 0x40 MLOAD DUP1 DUP3 DUP2 MSTORE PUSH1 0x20 ADD SWAP2 POP POP PUSH1 0x40 MLOAD DUP1 SWAP2 SUB SWAP1 RETURN JUMPDEST PUSH1 0x0 PUSH2 0xA72 PUSH1 0x6 PUSH2 0x19BD JUMP JUMPDEST SWAP1 POP SWAP1 JUMP JUMPDEST PUSH1 0x3 DUP1 SLOAD PUSH1 0x1 DUP2 PUSH1 0x1 AND ISZERO PUSH2 0x100 MUL SUB AND PUSH1 0x2 SWAP1 DIV DUP1 PUSH1 0x1F ADD PUSH1 0x20 DUP1 SWAP2 DIV MUL PUSH1 0x20 ADD PUSH1 0x40 MLOAD SWAP1 DUP2 ADD PUSH1 0x40 MSTORE DUP1 SWAP3 SWAP2 SWAP1 DUP2 DUP2 MSTORE PUSH1 0x20 ADD DUP3 DUP1 SLOAD PUSH1 0x1 DUP2 PUSH1 0x1 AND ISZERO PUSH2 0x100 MUL SUB AND PUSH1 0x2 SWAP1 DIV DUP1 ISZERO PUSH2 0xB0D JUMPI DUP1 PUSH1 0x1F LT PUSH2 0xAE2 JUMPI PUSH2 0x100 DUP1 DUP4 SLOAD DIV MUL DUP4 MSTORE SWAP2 PUSH1 0x20 ADD SWAP2 PUSH2 0xB0D JUMP JUMPDEST DUP3 ADD SWAP2 SWAP1 PUSH1 0x0 MSTORE PUSH1 0x20 PUSH1 0x0 KECCAK256 SWAP1 JUMPDEST DUP2 SLOAD DUP2 MSTORE SWAP1 PUSH1 0x1 ADD SWAP1 PUSH1 0x20 ADD DUP1 DUP4 GT PUSH2 0xAF0 JUMPI DUP3 SWAP1 SUB PUSH1 0x1F AND DUP3 ADD SWAP2 JUMPDEST POP POP POP POP POP DUP2 JUMP JUMPDEST PUSH1 0x9 PUSH1 0x20 MSTORE DUP1 PUSH1 0x0 MSTORE PUSH1 0x40 PUSH1 0x0 KECCAK256 PUSH1 0x0 SWAP2 POP SWAP1 POP SLOAD DUP2 JUMP JUMPDEST PUSH1 0x0 PUSH2 0xB41 PUSH2 0xB3A PUSH2 0x19D2 JUMP JUMPDEST DUP5 DUP5 PUSH2 0x19DA JUMP JUMPDEST PUSH1 0x1 SWAP1 POP SWAP3 SWAP2 POP POP JUMP JUMPDEST PUSH1 0x0 PUSH1 0x2 SLOAD SWAP1 POP SWAP1 JUMP JUMPDEST PUSH2 0xB5D PUSH2 0x14FD JUMP JUMPDEST ISZERO PUSH2 0xB9D JUMPI PUSH1 0x0 JUMPDEST DUP2 MLOAD DUP2 LT ISZERO PUSH2 0xB9B JUMPI PUSH2 0xB8E CALLER DUP4 DUP4 DUP2 MLOAD DUP2 LT PUSH2 0xB7E JUMPI INVALID JUMPDEST PUSH1 0x20 MUL PUSH1 0x20 ADD ADD MLOAD PUSH1 0xC SLOAD PUSH2 0x1C0B JUMP JUMPDEST DUP1 DUP1 PUSH1 0x1 ADD SWAP2 POP POP PUSH2 0xB65 JUMP JUMPDEST POP JUMPDEST POP JUMP JUMPDEST PUSH1 0x0 PUSH1 0x5 PUSH1 0x1 SWAP1 SLOAD SWAP1 PUSH2 0x100 EXP SWAP1 DIV PUSH20 0xFFFFFFFFFFFFFFFFFFFFFFFFFFFFFFFFFFFFFFFF AND PUSH20 0xFFFFFFFFFFFFFFFFFFFFFFFFFFFFFFFFFFFFFFFF AND PUSH2 0xBE3 PUSH2 0x19D2 JUMP JUMPDEST PUSH20 0xFFFFFFFFFFFFFFFFFFFFFFFFFFFFFFFFFFFFFFFF AND EQ PUSH2 0xC6C JUMPI PUSH1 0x40 MLOAD PUSH32 0x8C379A000000000000000000000000000000000000000000000000000000000 DUP2 MSTORE PUSH1 0x4 ADD DUP1 DUP1 PUSH1 0x20 ADD DUP3 DUP2 SUB DUP3 MSTORE PUSH1 0x9 DUP2 MSTORE PUSH1 0x20 ADD DUP1 PUSH32 0x6E6F74206F776E65720000000000000000000000000000000000000000000000 DUP2 MSTORE POP PUSH1 0x20 ADD SWAP2 POP POP PUSH1 0x40 MLOAD DUP1 SWAP2 SUB SWAP1 REVERT JUMPDEST PUSH1 0x0 PUSH20 0xFFFFFFFFFFFFFFFFFFFFFFFFFFFFFFFFFFFFFFFF AND DUP3 PUSH20 0xFFFFFFFFFFFFFFFFFFFFFFFFFFFFFFFFFFFFFFFF AND EQ ISZERO PUSH2 0xCF2 JUMPI PUSH1 0x40 MLOAD PUSH32 0x8C379A000000000000000000000000000000000000000000000000000000000 DUP2 MSTORE PUSH1 0x4 ADD DUP1 DUP1 PUSH1 0x20 ADD DUP3 DUP2 SUB DUP3 MSTORE PUSH1 0x2A DUP2 MSTORE PUSH1 0x20 ADD DUP1 PUSH2 0x278D PUSH1 0x2A SWAP2 CODECOPY PUSH1 0x40 ADD SWAP2 POP POP PUSH1 0x40 MLOAD DUP1 SWAP2 SUB SWAP1 REVERT JUMPDEST PUSH2 0xCFD PUSH1 0x6 DUP4 PUSH2 0x1F85 JUMP JUMPDEST SWAP1 POP SWAP2 SWAP1 POP JUMP JUMPDEST PUSH1 0x0 DUP1 PUSH20 0xFFFFFFFFFFFFFFFFFFFFFFFFFFFFFFFFFFFFFFFF AND DUP5 PUSH20 0xFFFFFFFFFFFFFFFFFFFFFFFFFFFFFFFFFFFFFFFF AND EQ ISZERO DUP1 ISZERO PUSH2 0xD6F JUMPI POP PUSH1 0x0 PUSH20 0xFFFFFFFFFFFFFFFFFFFFFFFFFFFFFFFFFFFFFFFF AND DUP4 PUSH20 0xFFFFFFFFFFFFFFFFFFFFFFFFFFFFFFFFFFFFFFFF AND EQ ISZERO JUMPDEST PUSH2 0xD78 JUMPI PUSH1 0x0 DUP1 REVERT JUMPDEST PUSH2 0xE1F DUP5 PUSH2 0xD84 PUSH2 0x19D2 JUMP JUMPDEST PUSH2 0xE1A DUP6 PUSH1 0x1 PUSH1 0x0 DUP11 PUSH20 0xFFFFFFFFFFFFFFFFFFFFFFFFFFFFFFFFFFFFFFFF AND PUSH20 0xFFFFFFFFFFFFFFFFFFFFFFFFFFFFFFFFFFFFFFFF AND DUP2 MSTORE PUSH1 0x20 ADD SWAP1 DUP2 MSTORE PUSH1 0x20 ADD PUSH1 0x0 KECCAK256 PUSH1 0x0 PUSH2 0xDD1 PUSH2 0x19D2 JUMP JUMPDEST PUSH20 0xFFFFFFFFFFFFFFFFFFFFFFFFFFFFFFFFFFFFFFFF AND PUSH20 0xFFFFFFFFFFFFFFFFFFFFFFFFFFFFFFFFFFFFFFFF AND DUP2 MSTORE PUSH1 0x20 ADD SWAP1 DUP2 MSTORE PUSH1 0x20 ADD PUSH1 0x0 KECCAK256 SLOAD PUSH2 0x1FB5 SWAP1 SWAP2 SWAP1 PUSH4 0xFFFFFFFF AND JUMP JUMPDEST PUSH2 0x19DA JUMP JUMPDEST PUSH2 0xE2A DUP5 DUP5 DUP5 PUSH2 0x1C0B JUMP JUMPDEST PUSH1 0x1 SWAP1 POP SWAP4 SWAP3 POP POP POP JUMP JUMPDEST PUSH1 0x5 PUSH1 0x0 SWAP1 SLOAD SWAP1 PUSH2 0x100 EXP SWAP1 DIV PUSH1 0xFF AND DUP2 JUMP JUMPDEST PUSH1 0x0 PUSH2 0xE53 CALLER PUSH2 0x17C0 JUMP JUMPDEST PUSH2 0xEC5 JUMPI PUSH1 0x40 MLOAD PUSH32 0x8C379A000000000000000000000000000000000000000000000000000000000 DUP2 MSTORE PUSH1 0x4 ADD DUP1 DUP1 PUSH1 0x20 ADD DUP3 DUP2 SUB DUP3 MSTORE PUSH1 0x18 DUP2 MSTORE PUSH1 0x20 ADD DUP1 PUSH32 0x63616C6C6572206973206E6F7420746865206D696E7465720000000000000000 DUP2 MSTORE POP PUSH1 0x20 ADD SWAP2 POP POP PUSH1 0x40 MLOAD DUP1 SWAP2 SUB SWAP1 REVERT JUMPDEST PUSH1 0xB SLOAD PUSH2 0xEF5 DUP4 PUSH1 0x8 PUSH1 0x0 PUSH2 0xED8 PUSH2 0x18F4 JUMP JUMPDEST DUP2 MSTORE PUSH1 0x20 ADD SWAP1 DUP2 MSTORE PUSH1 0x20 ADD PUSH1 0x0 KECCAK256 SLOAD PUSH2 0x203E SWAP1 SWAP2 SWAP1 PUSH4 0xFFFFFFFF AND JUMP JUMPDEST GT ISZERO PUSH2 0xF69 JUMPI PUSH1 0x40 MLOAD PUSH32 0x8C379A000000000000000000000000000000000000000000000000000000000 DUP2 MSTORE PUSH1 0x4 ADD DUP1 DUP1 PUSH1 0x20 ADD DUP3 DUP2 SUB DUP3 MSTORE PUSH1 0x19 DUP2 MSTORE PUSH1 0x20 ADD DUP1 PUSH32 0x506F6B6572546F6B656E3A20796561724D696E744C696D697400000000000000 DUP2 MSTORE POP PUSH1 0x20 ADD SWAP2 POP POP PUSH1 0x40 MLOAD DUP1 SWAP2 SUB SWAP1 REVERT JUMPDEST PUSH2 0xF73 DUP4 DUP4 PUSH2 0x20C6 JUMP JUMPDEST PUSH2 0xFA0 DUP3 PUSH1 0x8 PUSH1 0x0 PUSH2 0xF83 PUSH2 0x18F4 JUMP JUMPDEST DUP2 MSTORE PUSH1 0x20 ADD SWAP1 DUP2 MSTORE PUSH1 0x20 ADD PUSH1 0x0 KECCAK256 SLOAD PUSH2 0x203E SWAP1 SWAP2 SWAP1 PUSH4 0xFFFFFFFF AND JUMP JUMPDEST PUSH1 0x8 PUSH1 0x0 PUSH2 0xFAC PUSH2 0x18F4 JUMP JUMPDEST DUP2 MSTORE PUSH1 0x20 ADD SWAP1 DUP2 MSTORE PUSH1 0x20 ADD PUSH1 0x0 KECCAK256 DUP2 SWAP1 SSTORE POP PUSH2 0x1028 DUP3 PUSH1 0xA PUSH1 0x0 CALLER PUSH20 0xFFFFFFFFFFFFFFFFFFFFFFFFFFFFFFFFFFFFFFFF AND PUSH20 0xFFFFFFFFFFFFFFFFFFFFFFFFFFFFFFFFFFFFFFFF AND DUP2 MSTORE PUSH1 0x20 ADD SWAP1 DUP2 MSTORE PUSH1 0x20 ADD PUSH1 0x0 KECCAK256 PUSH1 0x0 PUSH2 0x100B PUSH2 0x18F4 JUMP JUMPDEST DUP2 MSTORE PUSH1 0x20 ADD SWAP1 DUP2 MSTORE PUSH1 0x20 ADD PUSH1 0x0 KECCAK256 SLOAD PUSH2 0x203E SWAP1 SWAP2 SWAP1 PUSH4 0xFFFFFFFF AND JUMP JUMPDEST PUSH1 0xA PUSH1 0x0 CALLER PUSH20 0xFFFFFFFFFFFFFFFFFFFFFFFFFFFFFFFFFFFFFFFF AND PUSH20 0xFFFFFFFFFFFFFFFFFFFFFFFFFFFFFFFFFFFFFFFF AND DUP2 MSTORE PUSH1 0x20 ADD SWAP1 DUP2 MSTORE PUSH1 0x20 ADD PUSH1 0x0 KECCAK256 PUSH1 0x0 PUSH2 0x1071 PUSH2 0x18F4 JUMP JUMPDEST DUP2 MSTORE PUSH1 0x20 ADD SWAP1 DUP2 MSTORE PUSH1 0x20 ADD PUSH1 0x0 KECCAK256 DUP2 SWAP1 SSTORE POP PUSH1 0x9 PUSH1 0x0 CALLER PUSH20 0xFFFFFFFFFFFFFFFFFFFFFFFFFFFFFFFFFFFFFFFF AND PUSH20 0xFFFFFFFFFFFFFFFFFFFFFFFFFFFFFFFFFFFFFFFF AND DUP2 MSTORE PUSH1 0x20 ADD SWAP1 DUP2 MSTORE PUSH1 0x20 ADD PUSH1 0x0 KECCAK256 SLOAD PUSH1 0xA PUSH1 0x0 CALLER PUSH20 0xFFFFFFFFFFFFFFFFFFFFFFFFFFFFFFFFFFFFFFFF AND PUSH20 0xFFFFFFFFFFFFFFFFFFFFFFFFFFFFFFFFFFFFFFFF AND DUP2 MSTORE PUSH1 0x20 ADD SWAP1 DUP2 MSTORE PUSH1 0x20 ADD PUSH1 0x0 KECCAK256 PUSH1 0x0 PUSH2 0x110C PUSH2 0x18F4 JUMP JUMPDEST DUP2 MSTORE PUSH1 0x20 ADD SWAP1 DUP2 MSTORE PUSH1 0x20 ADD PUSH1 0x0 KECCAK256 SLOAD GT ISZERO PUSH2 0x118F JUMPI PUSH1 0x40 MLOAD PUSH32 0x8C379A000000000000000000000000000000000000000000000000000000000 DUP2 MSTORE PUSH1 0x4 ADD DUP1 DUP1 PUSH1 0x20 ADD DUP3 DUP2 SUB DUP3 MSTORE PUSH1 0x1F DUP2 MSTORE PUSH1 0x20 ADD DUP1 PUSH32 0x506F6B6572546F6B656E3A207265636F7264436F6E74726163744C696D697400 DUP2 MSTORE POP PUSH1 0x20 ADD SWAP2 POP POP PUSH1 0x40 MLOAD DUP1 SWAP2 SUB SWAP1 REVERT JUMPDEST PUSH1 0x1 SWAP1 POP SWAP3 SWAP2 POP POP JUMP JUMPDEST PUSH2 0x11A3 CALLER DUP3 PUSH2 0x2281 JUMP JUMPDEST POP JUMP JUMPDEST PUSH2 0x11AE PUSH2 0x14FD JUMP JUMPDEST ISZERO PUSH2 0x11BB JUMPI DUP1 PUSH1 0xB DUP2 SWAP1 SSTORE POP JUMPDEST POP JUMP JUMPDEST PUSH1 0x0 PUSH1 0x5 PUSH1 0x1 SWAP1 SLOAD SWAP1 PUSH2 0x100 EXP SWAP1 DIV PUSH20 0xFFFFFFFFFFFFFFFFFFFFFFFFFFFFFFFFFFFFFFFF AND PUSH20 0xFFFFFFFFFFFFFFFFFFFFFFFFFFFFFFFFFFFFFFFF AND PUSH2 0x1201 PUSH2 0x19D2 JUMP JUMPDEST PUSH20 0xFFFFFFFFFFFFFFFFFFFFFFFFFFFFFFFFFFFFFFFF AND EQ PUSH2 0x128A JUMPI PUSH1 0x40 MLOAD PUSH32 0x8C379A000000000000000000000000000000000000000000000000000000000 DUP2 MSTORE PUSH1 0x4 ADD DUP1 DUP1 PUSH1 0x20 ADD DUP3 DUP2 SUB DUP3 MSTORE PUSH1 0x9 DUP2 MSTORE PUSH1 0x20 ADD DUP1 PUSH32 0x6E6F74206F776E65720000000000000000000000000000000000000000000000 DUP2 MSTORE POP PUSH1 0x20 ADD SWAP2 POP POP PUSH1 0x40 MLOAD DUP1 SWAP2 SUB SWAP1 REVERT JUMPDEST PUSH1 0x1 PUSH2 0x1294 PUSH2 0xA66 JUMP JUMPDEST SUB DUP3 GT ISZERO PUSH2 0x130A JUMPI PUSH1 0x40 MLOAD PUSH32 0x8C379A000000000000000000000000000000000000000000000000000000000 DUP2 MSTORE PUSH1 0x4 ADD DUP1 DUP1 PUSH1 0x20 ADD DUP3 DUP2 SUB DUP3 MSTORE PUSH1 0x1F DUP2 MSTORE PUSH1 0x20 ADD DUP1 PUSH32 0x506F6B6572546F6B656E3A20696E646578206F7574206F6620626F756E647300 DUP2 MSTORE POP PUSH1 0x20 ADD SWAP2 POP POP PUSH1 0x40 MLOAD DUP1 SWAP2 SUB SWAP1 REVERT JUMPDEST PUSH2 0x1315 PUSH1 0x6 DUP4 PUSH2 0x24E1 JUMP JUMPDEST SWAP1 POP SWAP2 SWAP1 POP JUMP JUMPDEST PUSH1 0x0 DUP1 PUSH1 0x0 DUP4 PUSH20 0xFFFFFFFFFFFFFFFFFFFFFFFFFFFFFFFFFFFFFFFF AND PUSH20 0xFFFFFFFFFFFFFFFFFFFFFFFFFFFFFFFFFFFFFFFF AND DUP2 MSTORE PUSH1 0x20 ADD SWAP1 DUP2 MSTORE PUSH1 0x20 ADD PUSH1 0x0 KECCAK256 SLOAD SWAP1 POP SWAP2 SWAP1 POP JUMP JUMPDEST PUSH1 0x0 PUSH1 0x5 PUSH1 0x1 SWAP1 SLOAD SWAP1 PUSH2 0x100 EXP SWAP1 DIV PUSH20 0xFFFFFFFFFFFFFFFFFFFFFFFFFFFFFFFFFFFFFFFF AND PUSH20 0xFFFFFFFFFFFFFFFFFFFFFFFFFFFFFFFFFFFFFFFF AND PUSH2 0x13A7 PUSH2 0x19D2 JUMP JUMPDEST PUSH20 0xFFFFFFFFFFFFFFFFFFFFFFFFFFFFFFFFFFFFFFFF AND EQ PUSH2 0x1430 JUMPI PUSH1 0x40 MLOAD PUSH32 0x8C379A000000000000000000000000000000000000000000000000000000000 DUP2 MSTORE PUSH1 0x4 ADD DUP1 DUP1 PUSH1 0x20 ADD DUP3 DUP2 SUB DUP3 MSTORE PUSH1 0x9 DUP2 MSTORE PUSH1 0x20 ADD DUP1 PUSH32 0x6E6F74206F776E65720000000000000000000000000000000000000000000000 DUP2 MSTORE POP PUSH1 0x20 ADD SWAP2 POP POP PUSH1 0x40 MLOAD DUP1 SWAP2 SUB SWAP1 REVERT JUMPDEST PUSH1 0x0 PUSH20 0xFFFFFFFFFFFFFFFFFFFFFFFFFFFFFFFFFFFFFFFF AND DUP4 PUSH20 0xFFFFFFFFFFFFFFFFFFFFFFFFFFFFFFFFFFFFFFFF AND EQ ISZERO PUSH2 0x14B6 JUMPI PUSH1 0x40 MLOAD PUSH32 0x8C379A000000000000000000000000000000000000000000000000000000000 DUP2 MSTORE PUSH1 0x4 ADD DUP1 DUP1 PUSH1 0x20 ADD DUP3 DUP2 SUB DUP3 MSTORE PUSH1 0x2A DUP2 MSTORE PUSH1 0x20 ADD DUP1 PUSH2 0x27B7 PUSH1 0x2A SWAP2 CODECOPY PUSH1 0x40 ADD SWAP2 POP POP PUSH1 0x40 MLOAD DUP1 SWAP2 SUB SWAP1 REVERT JUMPDEST PUSH2 0x14C0 DUP4 DUP4 PUSH2 0x17D4 JUMP JUMPDEST PUSH2 0x14CB PUSH1 0x6 DUP5 PUSH2 0x24FB JUMP JUMPDEST SWAP1 POP SWAP3 SWAP2 POP POP JUMP JUMPDEST PUSH1 0x0 PUSH1 0x5 PUSH1 0x1 SWAP1 SLOAD SWAP1 PUSH2 0x100 EXP SWAP1 DIV PUSH20 0xFFFFFFFFFFFFFFFFFFFFFFFFFFFFFFFFFFFFFFFF AND SWAP1 POP SWAP1 JUMP JUMPDEST PUSH1 0x0 DUP1 PUSH1 0x5 PUSH1 0x1 SWAP1 SLOAD SWAP1 PUSH2 0x100 EXP SWAP1 DIV PUSH20 0xFFFFFFFFFFFFFFFFFFFFFFFFFFFFFFFFFFFFFFFF AND PUSH20 0xFFFFFFFFFFFFFFFFFFFFFFFFFFFFFFFFFFFFFFFF AND PUSH2 0x1541 PUSH2 0x19D2 JUMP JUMPDEST PUSH20 0xFFFFFFFFFFFFFFFFFFFFFFFFFFFFFFFFFFFFFFFF AND EQ SWAP1 POP PUSH1 0x1 ISZERO ISZERO DUP2 ISZERO ISZERO EQ PUSH2 0x15D4 JUMPI PUSH1 0x40 MLOAD PUSH32 0x8C379A000000000000000000000000000000000000000000000000000000000 DUP2 MSTORE PUSH1 0x4 ADD DUP1 DUP1 PUSH1 0x20 ADD DUP3 DUP2 SUB DUP3 MSTORE PUSH1 0x9 DUP2 MSTORE PUSH1 0x20 ADD DUP1 PUSH32 0x6E6F74206F776E65720000000000000000000000000000000000000000000000 DUP2 MSTORE POP PUSH1 0x20 ADD SWAP2 POP POP PUSH1 0x40 MLOAD DUP1 SWAP2 SUB SWAP1 REVERT JUMPDEST DUP1 SWAP2 POP POP SWAP1 JUMP JUMPDEST PUSH1 0x8 PUSH1 0x20 MSTORE DUP1 PUSH1 0x0 MSTORE PUSH1 0x40 PUSH1 0x0 KECCAK256 PUSH1 0x0 SWAP2 POP SWAP1 POP SLOAD DUP2 JUMP JUMPDEST PUSH1 0x4 DUP1 SLOAD PUSH1 0x1 DUP2 PUSH1 0x1 AND ISZERO PUSH2 0x100 MUL SUB AND PUSH1 0x2 SWAP1 DIV DUP1 PUSH1 0x1F ADD PUSH1 0x20 DUP1 SWAP2 DIV MUL PUSH1 0x20 ADD PUSH1 0x40 MLOAD SWAP1 DUP2 ADD PUSH1 0x40 MSTORE DUP1 SWAP3 SWAP2 SWAP1 DUP2 DUP2 MSTORE PUSH1 0x20 ADD DUP3 DUP1 SLOAD PUSH1 0x1 DUP2 PUSH1 0x1 AND ISZERO PUSH2 0x100 MUL SUB AND PUSH1 0x2 SWAP1 DIV DUP1 ISZERO PUSH2 0x1689 JUMPI DUP1 PUSH1 0x1F LT PUSH2 0x165E JUMPI PUSH2 0x100 DUP1 DUP4 SLOAD DIV MUL DUP4 MSTORE SWAP2 PUSH1 0x20 ADD SWAP2 PUSH2 0x1689 JUMP JUMPDEST DUP3 ADD SWAP2 SWAP1 PUSH1 0x0 MSTORE PUSH1 0x20 PUSH1 0x0 KECCAK256 SWAP1 JUMPDEST DUP2 SLOAD DUP2 MSTORE SWAP1 PUSH1 0x1 ADD SWAP1 PUSH1 0x20 ADD DUP1 DUP4 GT PUSH2 0x166C JUMPI DUP3 SWAP1 SUB PUSH1 0x1F AND DUP3 ADD SWAP2 JUMPDEST POP POP POP POP POP DUP2 JUMP JUMPDEST PUSH1 0xB SLOAD PUSH2 0x16C1 DUP3 PUSH1 0x8 PUSH1 0x0 PUSH2 0x16A4 PUSH2 0x18F4 JUMP JUMPDEST DUP2 MSTORE PUSH1 0x20 ADD SWAP1 DUP2 MSTORE PUSH1 0x20 ADD PUSH1 0x0 KECCAK256 SLOAD PUSH2 0x203E SWAP1 SWAP2 SWAP1 PUSH4 0xFFFFFFFF AND JUMP JUMPDEST GT ISZERO PUSH2 0x1735 JUMPI PUSH1 0x40 MLOAD PUSH32 0x8C379A000000000000000000000000000000000000000000000000000000000 DUP2 MSTORE PUSH1 0x4 ADD DUP1 DUP1 PUSH1 0x20 ADD DUP3 DUP2 SUB DUP3 MSTORE PUSH1 0x19 DUP2 MSTORE PUSH1 0x20 ADD DUP1 PUSH32 0x506F6B6572546F6B656E3A20796561724D696E744C696D697400000000000000 DUP2 MSTORE POP PUSH1 0x20 ADD SWAP2 POP POP PUSH1 0x40 MLOAD DUP1 SWAP2 SUB SWAP1 REVERT JUMPDEST PUSH2 0x173D PUSH2 0x14FD JUMP JUMPDEST ISZERO PUSH2 0x179F JUMPI PUSH2 0x1753 PUSH2 0x174D PUSH2 0x14D3 JUMP JUMPDEST DUP3 PUSH2 0x20C6 JUMP JUMPDEST PUSH2 0x1780 DUP2 PUSH1 0x8 PUSH1 0x0 PUSH2 0x1763 PUSH2 0x18F4 JUMP JUMPDEST DUP2 MSTORE PUSH1 0x20 ADD SWAP1 DUP2 MSTORE PUSH1 0x20 ADD PUSH1 0x0 KECCAK256 SLOAD PUSH2 0x203E SWAP1 SWAP2 SWAP1 PUSH4 0xFFFFFFFF AND JUMP JUMPDEST PUSH1 0x8 PUSH1 0x0 PUSH2 0x178C PUSH2 0x18F4 JUMP JUMPDEST DUP2 MSTORE PUSH1 0x20 ADD SWAP1 DUP2 MSTORE PUSH1 0x20 ADD PUSH1 0x0 KECCAK256 DUP2 SWAP1 SSTORE POP JUMPDEST POP JUMP JUMPDEST PUSH1 0x0 PUSH2 0x17B6 PUSH2 0x17AF PUSH2 0x19D2 JUMP JUMPDEST DUP5 DUP5 PUSH2 0x1C0B JUMP JUMPDEST PUSH1 0x1 SWAP1 POP SWAP3 SWAP2 POP POP JUMP JUMPDEST PUSH1 0x0 PUSH2 0x17CD PUSH1 0x6 DUP4 PUSH2 0x252B JUMP JUMPDEST SWAP1 POP SWAP2 SWAP1 POP JUMP JUMPDEST PUSH2 0x17DC PUSH2 0x14FD JUMP JUMPDEST ISZERO PUSH2 0x1826 JUMPI DUP1 PUSH1 0x9 PUSH1 0x0 DUP5 PUSH20 0xFFFFFFFFFFFFFFFFFFFFFFFFFFFFFFFFFFFFFFFF AND PUSH20 0xFFFFFFFFFFFFFFFFFFFFFFFFFFFFFFFFFFFFFFFF AND DUP2 MSTORE PUSH1 0x20 ADD SWAP1 DUP2 MSTORE PUSH1 0x20 ADD PUSH1 0x0 KECCAK256 DUP2 SWAP1 SSTORE POP JUMPDEST POP POP JUMP JUMPDEST PUSH2 0x1832 PUSH2 0x14FD JUMP JUMPDEST ISZERO PUSH2 0x183F JUMPI DUP1 PUSH1 0xC DUP2 SWAP1 SSTORE POP JUMPDEST POP JUMP JUMPDEST PUSH1 0x0 PUSH1 0x1 PUSH1 0x0 DUP5 PUSH20 0xFFFFFFFFFFFFFFFFFFFFFFFFFFFFFFFFFFFFFFFF AND PUSH20 0xFFFFFFFFFFFFFFFFFFFFFFFFFFFFFFFFFFFFFFFF AND DUP2 MSTORE PUSH1 0x20 ADD SWAP1 DUP2 MSTORE PUSH1 0x20 ADD PUSH1 0x0 KECCAK256 PUSH1 0x0 DUP4 PUSH20 0xFFFFFFFFFFFFFFFFFFFFFFFFFFFFFFFFFFFFFFFF AND PUSH20 0xFFFFFFFFFFFFFFFFFFFFFFFFFFFFFFFFFFFFFFFF AND DUP2 MSTORE PUSH1 0x20 ADD SWAP1 DUP2 MSTORE PUSH1 0x20 ADD PUSH1 0x0 KECCAK256 SLOAD SWAP1 POP SWAP3 SWAP2 POP POP JUMP JUMPDEST PUSH1 0xB SLOAD DUP2 JUMP JUMPDEST PUSH1 0xA PUSH1 0x20 MSTORE DUP2 PUSH1 0x0 MSTORE PUSH1 0x40 PUSH1 0x0 KECCAK256 PUSH1 0x20 MSTORE DUP1 PUSH1 0x0 MSTORE PUSH1 0x40 PUSH1 0x0 KECCAK256 PUSH1 0x0 SWAP2 POP SWAP2 POP POP SLOAD DUP2 JUMP JUMPDEST PUSH1 0x0 DUP1 TIMESTAMP SWAP1 POP PUSH1 0x0 PUSH3 0x15180 DUP3 DUP2 PUSH2 0x1908 JUMPI INVALID JUMPDEST DIV SWAP1 POP PUSH1 0x0 DUP2 SWAP1 POP PUSH1 0x0 PUSH3 0x253D8C PUSH3 0x10BD9 DUP4 ADD ADD SWAP1 POP PUSH1 0x0 PUSH3 0x23AB1 DUP3 PUSH1 0x4 MUL DUP2 PUSH2 0x1930 JUMPI INVALID JUMPDEST SDIV SWAP1 POP PUSH1 0x4 PUSH1 0x3 DUP3 PUSH3 0x23AB1 MUL ADD DUP2 PUSH2 0x1945 JUMPI INVALID JUMPDEST SDIV DUP3 SUB SWAP2 POP PUSH1 0x0 PUSH3 0x164B09 PUSH1 0x1 DUP5 ADD PUSH2 0xFA0 MUL DUP2 PUSH2 0x195F JUMPI INVALID JUMPDEST SDIV SWAP1 POP PUSH1 0x1F PUSH1 0x4 DUP3 PUSH2 0x5B5 MUL DUP2 PUSH2 0x1972 JUMPI INVALID JUMPDEST SDIV DUP5 SUB ADD SWAP3 POP PUSH1 0x0 PUSH2 0x98F DUP5 PUSH1 0x50 MUL DUP2 PUSH2 0x1988 JUMPI INVALID JUMPDEST SDIV SWAP1 POP PUSH1 0xB DUP2 DUP2 PUSH2 0x1995 JUMPI INVALID JUMPDEST SDIV SWAP4 POP DUP4 PUSH1 0xC MUL PUSH1 0x2 DUP3 ADD SUB SWAP1 POP DUP4 DUP3 PUSH1 0x31 DUP6 SUB PUSH1 0x64 MUL ADD ADD SWAP2 POP DUP2 SWAP8 POP POP POP POP POP POP POP POP SWAP1 JUMP JUMPDEST PUSH1 0x0 PUSH2 0x19CB DUP3 PUSH1 0x0 ADD PUSH2 0x255B JUMP JUMPDEST SWAP1 POP SWAP2 SWAP1 POP JUMP JUMPDEST PUSH1 0x0 CALLER SWAP1 POP SWAP1 JUMP JUMPDEST PUSH1 0x0 PUSH20 0xFFFFFFFFFFFFFFFFFFFFFFFFFFFFFFFFFFFFFFFF AND DUP4 PUSH20 0xFFFFFFFFFFFFFFFFFFFFFFFFFFFFFFFFFFFFFFFF AND EQ ISZERO PUSH2 0x1A7D JUMPI PUSH1 0x40 MLOAD PUSH32 0x8C379A000000000000000000000000000000000000000000000000000000000 DUP2 MSTORE PUSH1 0x4 ADD DUP1 DUP1 PUSH1 0x20 ADD DUP3 DUP2 SUB DUP3 MSTORE PUSH1 0xE DUP2 MSTORE PUSH1 0x20 ADD DUP1 PUSH32 0x617070726F76652066726F6D2030000000000000000000000000000000000000 DUP2 MSTORE POP PUSH1 0x20 ADD SWAP2 POP POP PUSH1 0x40 MLOAD DUP1 SWAP2 SUB SWAP1 REVERT JUMPDEST PUSH1 0x0 PUSH20 0xFFFFFFFFFFFFFFFFFFFFFFFFFFFFFFFFFFFFFFFF AND DUP3 PUSH20 0xFFFFFFFFFFFFFFFFFFFFFFFFFFFFFFFFFFFFFFFF AND EQ ISZERO PUSH2 0x1B20 JUMPI PUSH1 0x40 MLOAD PUSH32 0x8C379A000000000000000000000000000000000000000000000000000000000 DUP2 MSTORE PUSH1 0x4 ADD DUP1 DUP1 PUSH1 0x20 ADD DUP3 DUP2 SUB DUP3 MSTORE PUSH1 0xC DUP2 MSTORE PUSH1 0x20 ADD DUP1 PUSH32 0x617070726F766520746F20300000000000000000000000000000000000000000 DUP2 MSTORE POP PUSH1 0x20 ADD SWAP2 POP POP PUSH1 0x40 MLOAD DUP1 SWAP2 SUB SWAP1 REVERT JUMPDEST DUP1 PUSH1 0x1 PUSH1 0x0 DUP6 PUSH20 0xFFFFFFFFFFFFFFFFFFFFFFFFFFFFFFFFFFFFFFFF AND PUSH20 0xFFFFFFFFFFFFFFFFFFFFFFFFFFFFFFFFFFFFFFFF AND DUP2 MSTORE PUSH1 0x20 ADD SWAP1 DUP2 MSTORE PUSH1 0x20 ADD PUSH1 0x0 KECCAK256 PUSH1 0x0 DUP5 PUSH20 0xFFFFFFFFFFFFFFFFFFFFFFFFFFFFFFFFFFFFFFFF AND PUSH20 0xFFFFFFFFFFFFFFFFFFFFFFFFFFFFFFFFFFFFFFFF AND DUP2 MSTORE PUSH1 0x20 ADD SWAP1 DUP2 MSTORE PUSH1 0x20 ADD PUSH1 0x0 KECCAK256 DUP2 SWAP1 SSTORE POP DUP2 PUSH20 0xFFFFFFFFFFFFFFFFFFFFFFFFFFFFFFFFFFFFFFFF AND DUP4 PUSH20 0xFFFFFFFFFFFFFFFFFFFFFFFFFFFFFFFFFFFFFFFF AND PUSH32 0x8C5BE1E5EBEC7D5BD14F71427D1E84F3DD0314C0F7B2291E5B200AC8C7C3B925 DUP4 PUSH1 0x40 MLOAD DUP1 DUP3 DUP2 MSTORE PUSH1 0x20 ADD SWAP2 POP POP PUSH1 0x40 MLOAD DUP1 SWAP2 SUB SWAP1 LOG3 POP POP POP JUMP JUMPDEST PUSH1 0x0 PUSH20 0xFFFFFFFFFFFFFFFFFFFFFFFFFFFFFFFFFFFFFFFF AND DUP4 PUSH20 0xFFFFFFFFFFFFFFFFFFFFFFFFFFFFFFFFFFFFFFFF AND EQ ISZERO PUSH2 0x1CAE JUMPI PUSH1 0x40 MLOAD PUSH32 0x8C379A000000000000000000000000000000000000000000000000000000000 DUP2 MSTORE PUSH1 0x4 ADD DUP1 DUP1 PUSH1 0x20 ADD DUP3 DUP2 SUB DUP3 MSTORE PUSH1 0xF DUP2 MSTORE PUSH1 0x20 ADD DUP1 PUSH32 0x7472616E736665722066726F6D20300000000000000000000000000000000000 DUP2 MSTORE POP PUSH1 0x20 ADD SWAP2 POP POP PUSH1 0x40 MLOAD DUP1 SWAP2 SUB SWAP1 REVERT JUMPDEST PUSH1 0x0 PUSH20 0xFFFFFFFFFFFFFFFFFFFFFFFFFFFFFFFFFFFFFFFF AND DUP3 PUSH20 0xFFFFFFFFFFFFFFFFFFFFFFFFFFFFFFFFFFFFFFFF AND EQ ISZERO PUSH2 0x1D51 JUMPI PUSH1 0x40 MLOAD PUSH32 0x8C379A000000000000000000000000000000000000000000000000000000000 DUP2 MSTORE PUSH1 0x4 ADD DUP1 DUP1 PUSH1 0x20 ADD DUP3 DUP2 SUB DUP3 MSTORE PUSH1 0xD DUP2 MSTORE PUSH1 0x20 ADD DUP1 PUSH32 0x7472616E7366657220746F203000000000000000000000000000000000000000 DUP2 MSTORE POP PUSH1 0x20 ADD SWAP2 POP POP PUSH1 0x40 MLOAD DUP1 SWAP2 SUB SWAP1 REVERT JUMPDEST PUSH2 0xDEAD PUSH20 0xFFFFFFFFFFFFFFFFFFFFFFFFFFFFFFFFFFFFFFFF AND DUP3 PUSH20 0xFFFFFFFFFFFFFFFFFFFFFFFFFFFFFFFFFFFFFFFF AND EQ ISZERO PUSH2 0x1DF5 JUMPI PUSH1 0x40 MLOAD PUSH32 0x8C379A000000000000000000000000000000000000000000000000000000000 DUP2 MSTORE PUSH1 0x4 ADD DUP1 DUP1 PUSH1 0x20 ADD DUP3 DUP2 SUB DUP3 MSTORE PUSH1 0x12 DUP2 MSTORE PUSH1 0x20 ADD DUP1 PUSH32 0x7472616E7366657220746F203078646561640000000000000000000000000000 DUP2 MSTORE POP PUSH1 0x20 ADD SWAP2 POP POP PUSH1 0x40 MLOAD DUP1 SWAP2 SUB SWAP1 REVERT JUMPDEST PUSH2 0x1E46 DUP2 PUSH1 0x0 DUP1 DUP7 PUSH20 0xFFFFFFFFFFFFFFFFFFFFFFFFFFFFFFFFFFFFFFFF AND PUSH20 0xFFFFFFFFFFFFFFFFFFFFFFFFFFFFFFFFFFFFFFFF AND DUP2 MSTORE PUSH1 0x20 ADD SWAP1 DUP2 MSTORE PUSH1 0x20 ADD PUSH1 0x0 KECCAK256 SLOAD PUSH2 0x1FB5 SWAP1 SWAP2 SWAP1 PUSH4 0xFFFFFFFF AND JUMP JUMPDEST PUSH1 0x0 DUP1 DUP6 PUSH20 0xFFFFFFFFFFFFFFFFFFFFFFFFFFFFFFFFFFFFFFFF AND PUSH20 0xFFFFFFFFFFFFFFFFFFFFFFFFFFFFFFFFFFFFFFFF AND DUP2 MSTORE PUSH1 0x20 ADD SWAP1 DUP2 MSTORE PUSH1 0x20 ADD PUSH1 0x0 KECCAK256 DUP2 SWAP1 SSTORE POP PUSH2 0x1ED9 DUP2 PUSH1 0x0 DUP1 DUP6 PUSH20 0xFFFFFFFFFFFFFFFFFFFFFFFFFFFFFFFFFFFFFFFF AND PUSH20 0xFFFFFFFFFFFFFFFFFFFFFFFFFFFFFFFFFFFFFFFF AND DUP2 MSTORE PUSH1 0x20 ADD SWAP1 DUP2 MSTORE PUSH1 0x20 ADD PUSH1 0x0 KECCAK256 SLOAD PUSH2 0x203E SWAP1 SWAP2 SWAP1 PUSH4 0xFFFFFFFF AND JUMP JUMPDEST PUSH1 0x0 DUP1 DUP5 PUSH20 0xFFFFFFFFFFFFFFFFFFFFFFFFFFFFFFFFFFFFFFFF AND PUSH20 0xFFFFFFFFFFFFFFFFFFFFFFFFFFFFFFFFFFFFFFFF AND DUP2 MSTORE PUSH1 0x20 ADD SWAP1 DUP2 MSTORE PUSH1 0x20 ADD PUSH1 0x0 KECCAK256 DUP2 SWAP1 SSTORE POP DUP2 PUSH20 0xFFFFFFFFFFFFFFFFFFFFFFFFFFFFFFFFFFFFFFFF AND DUP4 PUSH20 0xFFFFFFFFFFFFFFFFFFFFFFFFFFFFFFFFFFFFFFFF AND PUSH32 0xDDF252AD1BE2C89B69C2B068FC378DAA952BA7F163C4A11628F55A4DF523B3EF DUP4 PUSH1 0x40 MLOAD DUP1 DUP3 DUP2 MSTORE PUSH1 0x20 ADD SWAP2 POP POP PUSH1 0x40 MLOAD DUP1 SWAP2 SUB SWAP1 LOG3 POP POP POP JUMP JUMPDEST PUSH1 0x0 PUSH2 0x1FAD DUP4 PUSH1 0x0 ADD DUP4 PUSH20 0xFFFFFFFFFFFFFFFFFFFFFFFFFFFFFFFFFFFFFFFF AND PUSH1 0x0 SHL PUSH2 0x256C JUMP JUMPDEST SWAP1 POP SWAP3 SWAP2 POP POP JUMP JUMPDEST PUSH1 0x0 DUP3 DUP3 GT ISZERO PUSH2 0x202D JUMPI PUSH1 0x40 MLOAD PUSH32 0x8C379A000000000000000000000000000000000000000000000000000000000 DUP2 MSTORE PUSH1 0x4 ADD DUP1 DUP1 PUSH1 0x20 ADD DUP3 DUP2 SUB DUP3 MSTORE PUSH1 0x1E DUP2 MSTORE PUSH1 0x20 ADD DUP1 PUSH32 0x536166654D6174683A207375627472616374696F6E206F766572666C6F770000 DUP2 MSTORE POP PUSH1 0x20 ADD SWAP2 POP POP PUSH1 0x40 MLOAD DUP1 SWAP2 SUB SWAP1 REVERT JUMPDEST PUSH1 0x0 DUP3 DUP5 SUB SWAP1 POP DUP1 SWAP2 POP POP SWAP3 SWAP2 POP POP JUMP JUMPDEST PUSH1 0x0 DUP1 DUP3 DUP5 ADD SWAP1 POP DUP4 DUP2 LT ISZERO PUSH2 0x20BC JUMPI PUSH1 0x40 MLOAD PUSH32 0x8C379A000000000000000000000000000000000000000000000000000000000 DUP2 MSTORE PUSH1 0x4 ADD DUP1 DUP1 PUSH1 0x20 ADD DUP3 DUP2 SUB DUP3 MSTORE PUSH1 0x1B DUP2 MSTORE PUSH1 0x20 ADD DUP1 PUSH32 0x536166654D6174683A206164646974696F6E206F766572666C6F770000000000 DUP2 MSTORE POP PUSH1 0x20 ADD SWAP2 POP POP PUSH1 0x40 MLOAD DUP1 SWAP2 SUB SWAP1 REVERT JUMPDEST DUP1 SWAP2 POP POP SWAP3 SWAP2 POP POP JUMP JUMPDEST PUSH1 0x0 PUSH20 0xFFFFFFFFFFFFFFFFFFFFFFFFFFFFFFFFFFFFFFFF AND DUP3 PUSH20 0xFFFFFFFFFFFFFFFFFFFFFFFFFFFFFFFFFFFFFFFF AND EQ ISZERO PUSH2 0x2169 JUMPI PUSH1 0x40 MLOAD PUSH32 0x8C379A000000000000000000000000000000000000000000000000000000000 DUP2 MSTORE PUSH1 0x4 ADD DUP1 DUP1 PUSH1 0x20 ADD DUP3 DUP2 SUB DUP3 MSTORE PUSH1 0x9 DUP2 MSTORE PUSH1 0x20 ADD DUP1 PUSH32 0x6D696E7420746F20300000000000000000000000000000000000000000000000 DUP2 MSTORE POP PUSH1 0x20 ADD SWAP2 POP POP PUSH1 0x40 MLOAD DUP1 SWAP2 SUB SWAP1 REVERT JUMPDEST PUSH2 0x217E DUP2 PUSH1 0x2 SLOAD PUSH2 0x203E SWAP1 SWAP2 SWAP1 PUSH4 0xFFFFFFFF AND JUMP JUMPDEST PUSH1 0x2 DUP2 SWAP1 SSTORE POP PUSH2 0x21D5 DUP2 PUSH1 0x0 DUP1 DUP6 PUSH20 0xFFFFFFFFFFFFFFFFFFFFFFFFFFFFFFFFFFFFFFFF AND PUSH20 0xFFFFFFFFFFFFFFFFFFFFFFFFFFFFFFFFFFFFFFFF AND DUP2 MSTORE PUSH1 0x20 ADD SWAP1 DUP2 MSTORE PUSH1 0x20 ADD PUSH1 0x0 KECCAK256 SLOAD PUSH2 0x203E SWAP1 SWAP2 SWAP1 PUSH4 0xFFFFFFFF AND JUMP JUMPDEST PUSH1 0x0 DUP1 DUP5 PUSH20 0xFFFFFFFFFFFFFFFFFFFFFFFFFFFFFFFFFFFFFFFF AND PUSH20 0xFFFFFFFFFFFFFFFFFFFFFFFFFFFFFFFFFFFFFFFF AND DUP2 MSTORE PUSH1 0x20 ADD SWAP1 DUP2 MSTORE PUSH1 0x20 ADD PUSH1 0x0 KECCAK256 DUP2 SWAP1 SSTORE POP DUP2 PUSH20 0xFFFFFFFFFFFFFFFFFFFFFFFFFFFFFFFFFFFFFFFF AND PUSH1 0x0 PUSH20 0xFFFFFFFFFFFFFFFFFFFFFFFFFFFFFFFFFFFFFFFF AND PUSH32 0xDDF252AD1BE2C89B69C2B068FC378DAA952BA7F163C4A11628F55A4DF523B3EF DUP4 PUSH1 0x40 MLOAD DUP1 DUP3 DUP2 MSTORE PUSH1 0x20 ADD SWAP2 POP POP PUSH1 0x40 MLOAD DUP1 SWAP2 SUB SWAP1 LOG3 POP POP JUMP JUMPDEST PUSH1 0x0 PUSH20 0xFFFFFFFFFFFFFFFFFFFFFFFFFFFFFFFFFFFFFFFF AND DUP3 PUSH20 0xFFFFFFFFFFFFFFFFFFFFFFFFFFFFFFFFFFFFFFFF AND EQ ISZERO PUSH2 0x2324 JUMPI PUSH1 0x40 MLOAD PUSH32 0x8C379A000000000000000000000000000000000000000000000000000000000 DUP2 MSTORE PUSH1 0x4 ADD DUP1 DUP1 PUSH1 0x20 ADD DUP3 DUP2 SUB DUP3 MSTORE PUSH1 0xB DUP2 MSTORE PUSH1 0x20 ADD DUP1 PUSH32 0x6275726E2066726F6D2030000000000000000000000000000000000000000000 DUP2 MSTORE POP PUSH1 0x20 ADD SWAP2 POP POP PUSH1 0x40 MLOAD DUP1 SWAP2 SUB SWAP1 REVERT JUMPDEST PUSH2 0xDEAD PUSH20 0xFFFFFFFFFFFFFFFFFFFFFFFFFFFFFFFFFFFFFFFF AND DUP3 PUSH20 0xFFFFFFFFFFFFFFFFFFFFFFFFFFFFFFFFFFFFFFFF AND EQ ISZERO PUSH2 0x23C8 JUMPI PUSH1 0x40 MLOAD PUSH32 0x8C379A000000000000000000000000000000000000000000000000000000000 DUP2 MSTORE PUSH1 0x4 ADD DUP1 DUP1 PUSH1 0x20 ADD DUP3 DUP2 SUB DUP3 MSTORE PUSH1 0x10 DUP2 MSTORE PUSH1 0x20 ADD DUP1 PUSH32 0x6275726E2066726F6D2030786465616400000000000000000000000000000000 DUP2 MSTORE POP PUSH1 0x20 ADD SWAP2 POP POP PUSH1 0x40 MLOAD DUP1 SWAP2 SUB SWAP1 REVERT JUMPDEST PUSH2 0x2419 DUP2 PUSH1 0x0 DUP1 DUP6 PUSH20 0xFFFFFFFFFFFFFFFFFFFFFFFFFFFFFFFFFFFFFFFF AND PUSH20 0xFFFFFFFFFFFFFFFFFFFFFFFFFFFFFFFFFFFFFFFF AND DUP2 MSTORE PUSH1 0x20 ADD SWAP1 DUP2 MSTORE PUSH1 0x20 ADD PUSH1 0x0 KECCAK256 SLOAD PUSH2 0x1FB5 SWAP1 SWAP2 SWAP1 PUSH4 0xFFFFFFFF AND JUMP JUMPDEST PUSH1 0x0 DUP1 DUP5 PUSH20 0xFFFFFFFFFFFFFFFFFFFFFFFFFFFFFFFFFFFFFFFF AND PUSH20 0xFFFFFFFFFFFFFFFFFFFFFFFFFFFFFFFFFFFFFFFF AND DUP2 MSTORE PUSH1 0x20 ADD SWAP1 DUP2 MSTORE PUSH1 0x20 ADD PUSH1 0x0 KECCAK256 DUP2 SWAP1 SSTORE POP PUSH2 0x2470 DUP2 PUSH1 0x2 SLOAD PUSH2 0x1FB5 SWAP1 SWAP2 SWAP1 PUSH4 0xFFFFFFFF AND JUMP JUMPDEST PUSH1 0x2 DUP2 SWAP1 SSTORE POP PUSH2 0xDEAD PUSH20 0xFFFFFFFFFFFFFFFFFFFFFFFFFFFFFFFFFFFFFFFF AND DUP3 PUSH20 0xFFFFFFFFFFFFFFFFFFFFFFFFFFFFFFFFFFFFFFFF AND PUSH32 0xDDF252AD1BE2C89B69C2B068FC378DAA952BA7F163C4A11628F55A4DF523B3EF DUP4 PUSH1 0x40 MLOAD DUP1 DUP3 DUP2 MSTORE PUSH1 0x20 ADD SWAP2 POP POP PUSH1 0x40 MLOAD DUP1 SWAP2 SUB SWAP1 LOG3 POP POP JUMP JUMPDEST PUSH1 0x0 PUSH2 0x24F0 DUP4 PUSH1 0x0 ADD DUP4 PUSH2 0x2654 JUMP JUMPDEST PUSH1 0x0 SHR SWAP1 POP SWAP3 SWAP2 POP POP JUMP JUMPDEST PUSH1 0x0 PUSH2 0x2523 DUP4 PUSH1 0x0 ADD DUP4 PUSH20 0xFFFFFFFFFFFFFFFFFFFFFFFFFFFFFFFFFFFFFFFF AND PUSH1 0x0 SHL PUSH2 0x26D7 JUMP JUMPDEST SWAP1 POP SWAP3 SWAP2 POP POP JUMP JUMPDEST PUSH1 0x0 PUSH2 0x2553 DUP4 PUSH1 0x0 ADD DUP4 PUSH20 0xFFFFFFFFFFFFFFFFFFFFFFFFFFFFFFFFFFFFFFFF AND PUSH1 0x0 SHL PUSH2 0x2747 JUMP JUMPDEST SWAP1 POP SWAP3 SWAP2 POP POP JUMP JUMPDEST PUSH1 0x0 DUP2 PUSH1 0x0 ADD DUP1 SLOAD SWAP1 POP SWAP1 POP SWAP2 SWAP1 POP JUMP JUMPDEST PUSH1 0x0 DUP1 DUP4 PUSH1 0x1 ADD PUSH1 0x0 DUP5 DUP2 MSTORE PUSH1 0x20 ADD SWAP1 DUP2 MSTORE PUSH1 0x20 ADD PUSH1 0x0 KECCAK256 SLOAD SWAP1 POP PUSH1 0x0 DUP2 EQ PUSH2 0x2648 JUMPI PUSH1 0x0 PUSH1 0x1 DUP3 SUB SWAP1 POP PUSH1 0x0 PUSH1 0x1 DUP7 PUSH1 0x0 ADD DUP1 SLOAD SWAP1 POP SUB SWAP1 POP PUSH1 0x0 DUP7 PUSH1 0x0 ADD DUP3 DUP2 SLOAD DUP2 LT PUSH2 0x25B7 JUMPI INVALID JUMPDEST SWAP1 PUSH1 0x0 MSTORE PUSH1 0x20 PUSH1 0x0 KECCAK256 ADD SLOAD SWAP1 POP DUP1 DUP8 PUSH1 0x0 ADD DUP5 DUP2 SLOAD DUP2 LT PUSH2 0x25D4 JUMPI INVALID JUMPDEST SWAP1 PUSH1 0x0 MSTORE PUSH1 0x20 PUSH1 0x0 KECCAK256 ADD DUP2 SWAP1 SSTORE POP PUSH1 0x1 DUP4 ADD DUP8 PUSH1 0x1 ADD PUSH1 0x0 DUP4 DUP2 MSTORE PUSH1 0x20 ADD SWAP1 DUP2 MSTORE PUSH1 0x20 ADD PUSH1 0x0 KECCAK256 DUP2 SWAP1 SSTORE POP DUP7 PUSH1 0x0 ADD DUP1 SLOAD DUP1 PUSH2 0x260C JUMPI INVALID JUMPDEST PUSH1 0x1 SWAP1 SUB DUP2 DUP2 SWAP1 PUSH1 0x0 MSTORE PUSH1 0x20 PUSH1 0x0 KECCAK256 ADD PUSH1 0x0 SWAP1 SSTORE SWAP1 SSTORE DUP7 PUSH1 0x1 ADD PUSH1 0x0 DUP8 DUP2 MSTORE PUSH1 0x20 ADD SWAP1 DUP2 MSTORE PUSH1 0x20 ADD PUSH1 0x0 KECCAK256 PUSH1 0x0 SWAP1 SSTORE PUSH1 0x1 SWAP5 POP POP POP POP POP PUSH2 0x264E JUMP JUMPDEST PUSH1 0x0 SWAP2 POP POP JUMPDEST SWAP3 SWAP2 POP POP JUMP JUMPDEST PUSH1 0x0 DUP2 DUP4 PUSH1 0x0 ADD DUP1 SLOAD SWAP1 POP GT PUSH2 0x26B5 JUMPI PUSH1 0x40 MLOAD PUSH32 0x8C379A000000000000000000000000000000000000000000000000000000000 DUP2 MSTORE PUSH1 0x4 ADD DUP1 DUP1 PUSH1 0x20 ADD DUP3 DUP2 SUB DUP3 MSTORE PUSH1 0x22 DUP2 MSTORE PUSH1 0x20 ADD DUP1 PUSH2 0x276B PUSH1 0x22 SWAP2 CODECOPY PUSH1 0x40 ADD SWAP2 POP POP PUSH1 0x40 MLOAD DUP1 SWAP2 SUB SWAP1 REVERT JUMPDEST DUP3 PUSH1 0x0 ADD DUP3 DUP2 SLOAD DUP2 LT PUSH2 0x26C4 JUMPI INVALID JUMPDEST SWAP1 PUSH1 0x0 MSTORE PUSH1 0x20 PUSH1 0x0 KECCAK256 ADD SLOAD SWAP1 POP SWAP3 SWAP2 POP POP JUMP JUMPDEST PUSH1 0x0 PUSH2 0x26E3 DUP4 DUP4 PUSH2 0x2747 JUMP JUMPDEST PUSH2 0x273C JUMPI DUP3 PUSH1 0x0 ADD DUP3 SWAP1 DUP1 PUSH1 0x1 DUP2 SLOAD ADD DUP1 DUP3 SSTORE DUP1 SWAP2 POP POP PUSH1 0x1 SWAP1 SUB SWAP1 PUSH1 0x0 MSTORE PUSH1 0x20 PUSH1 0x0 KECCAK256 ADD PUSH1 0x0 SWAP1 SWAP2 SWAP1 SWAP2 SWAP1 SWAP2 POP SSTORE DUP3 PUSH1 0x0 ADD DUP1 SLOAD SWAP1 POP DUP4 PUSH1 0x1 ADD PUSH1 0x0 DUP5 DUP2 MSTORE PUSH1 0x20 ADD SWAP1 DUP2 MSTORE PUSH1 0x20 ADD PUSH1 0x0 KECCAK256 DUP2 SWAP1 SSTORE POP PUSH1 0x1 SWAP1 POP PUSH2 0x2741 JUMP JUMPDEST PUSH1 0x0 SWAP1 POP JUMPDEST SWAP3 SWAP2 POP POP JUMP JUMPDEST PUSH1 0x0 DUP1 DUP4 PUSH1 0x1 ADD PUSH1 0x0 DUP5 DUP2 MSTORE PUSH1 0x20 ADD SWAP1 DUP2 MSTORE PUSH1 0x20 ADD PUSH1 0x0 KECCAK256 SLOAD EQ ISZERO SWAP1 POP SWAP3 SWAP2 POP POP JUMP INVALID GASLIMIT PUSH15 0x756D657261626C655365743A20696E PUSH5 0x6578206F75 PUSH21 0x206F6620626F756E6473506F6B6572546F6B656E3A KECCAK256 0x5F PUSH5 0x656C4D696E PUSH21 0x657220697320746865207A65726F20616464726573 PUSH20 0x506F6B6572546F6B656E3A205F6164644D696E74 PUSH6 0x722069732074 PUSH9 0x65207A65726F206164 PUSH5 0x72657373A2 PUSH5 0x6970667358 0x22 SLT KECCAK256 0xBC BLOCKHASH EXTCODESIZE PUSH16 0xA0E74ED4FA3A5F62B46728061C1BB1F3 SWAP7 DUP15 0xB7 ISZERO 0xDB 0xA8 CALLDATALOAD TIMESTAMP PUSH12 0x1A5E1564736F6C634300060C STOP CALLER "
				},
				"gasEstimates": {
					"creation": {
						"codeDepositCost": "2052400",
						"executionCost": "infinite",
						"totalCost": "infinite"
					},
					"external": {
						"YEAR_MINT_NUM()": "1071",
						"addMinter(address,uint256)": "infinite",
						"allowance(address,address)": "1365",
						"approve(address,uint256)": "22559",
						"balanceOf(address)": "1307",
						"batchTransferToken(address[])": "infinite",
						"burn(uint256)": "infinite",
						"contractMintLimit(address)": "1260",
						"decimals()": "1115",
						"delMinter(address)": "infinite",
						"getMinter(uint256)": "infinite",
						"getMinterLength()": "1166",
						"getYear()": "756",
						"isMinter(address)": "1364",
						"isOwner()": "1334",
						"mint(address,uint256)": "infinite",
						"mint(uint256)": "infinite",
						"name()": "infinite",
						"owner()": "1173",
						"recordContractLimit(address,uint256)": "1349",
						"setBatchAmount(uint256)": "21372",
						"setContractMintNum(address,uint256)": "21475",
						"setYearMintNum(uint256)": "21350",
						"symbol()": "infinite",
						"totalSupply()": "1081",
						"transfer(address,uint256)": "infinite",
						"transferFrom(address,address,uint256)": "infinite",
						"yearMintLimit(uint256)": "1208"
					}
				},
				"methodIdentifiers": {
					"YEAR_MINT_NUM()": "e1665f56",
					"addMinter(address,uint256)": "761248b4",
					"allowance(address,address)": "dd62ed3e",
					"approve(address,uint256)": "095ea7b3",
					"balanceOf(address)": "70a08231",
					"batchTransferToken(address[])": "230614fb",
					"burn(uint256)": "42966c68",
					"contractMintLimit(address)": "092654a0",
					"decimals()": "313ce567",
					"delMinter(address)": "23338b88",
					"getMinter(uint256)": "5b7121f8",
					"getMinterLength()": "0323aac7",
					"getYear()": "fd08921b",
					"isMinter(address)": "aa271e1a",
					"isOwner()": "8f32d59b",
					"mint(address,uint256)": "40c10f19",
					"mint(uint256)": "a0712d68",
					"name()": "06fdde03",
					"owner()": "8da5cb5b",
					"recordContractLimit(address,uint256)": "e235a4a6",
					"setBatchAmount(uint256)": "db6783b8",
					"setContractMintNum(address,uint256)": "b56a711c",
					"setYearMintNum(uint256)": "599a1c3a",
					"symbol()": "95d89b41",
					"totalSupply()": "18160ddd",
					"transfer(address,uint256)": "a9059cbb",
					"transferFrom(address,address,uint256)": "23b872dd",
					"yearMintLimit(uint256)": "9098f2a7"
				}
			},
			"userdoc": {
				"kind": "user",
				"methods": {},
				"version": 1
			}
		}
	}
}