{
	"Staking/Staking.sol": {
		"Staking": {
			"abi": [
				{
					"inputs": [
						{
							"internalType": "contract IPokerToken",
							"name": "_poker",
							"type": "address"
						},
						{
							"internalType": "contract IBurnCoin",
							"name": "_burncoin",
							"type": "address"
						}
					],
					"stateMutability": "nonpayable",
					"type": "constructor"
				},
				{
					"anonymous": false,
					"inputs": [
						{
							"indexed": true,
							"internalType": "address",
							"name": "sender",
							"type": "address"
						},
						{
							"indexed": false,
							"internalType": "uint256",
							"name": "amount",
							"type": "uint256"
						},
						{
							"indexed": false,
							"internalType": "uint256",
							"name": "shares",
							"type": "uint256"
						},
						{
							"indexed": false,
							"internalType": "uint256",
							"name": "lastDepositedTime",
							"type": "uint256"
						}
					],
					"name": "Deposit",
					"type": "event"
				},
				{
					"anonymous": false,
					"inputs": [
						{
							"indexed": true,
							"internalType": "address",
							"name": "sender",
							"type": "address"
						},
						{
							"indexed": false,
							"internalType": "uint256",
							"name": "amount",
							"type": "uint256"
						},
						{
							"indexed": false,
							"internalType": "uint256",
							"name": "shares",
							"type": "uint256"
						}
					],
					"name": "Withdraw",
					"type": "event"
				},
				{
					"inputs": [],
					"name": "accPerShare",
					"outputs": [
						{
							"internalType": "uint256",
							"name": "",
							"type": "uint256"
						}
					],
					"stateMutability": "view",
					"type": "function"
				},
				{
					"inputs": [],
					"name": "computePer",
					"outputs": [
						{
							"internalType": "uint256",
							"name": "",
							"type": "uint256"
						}
					],
					"stateMutability": "view",
					"type": "function"
				},
				{
					"inputs": [
						{
							"internalType": "uint256",
							"name": "_amount",
							"type": "uint256"
						}
					],
					"name": "deposit",
					"outputs": [],
					"stateMutability": "nonpayable",
					"type": "function"
				},
				{
					"inputs": [],
					"name": "getDepositBalance",
					"outputs": [
						{
							"internalType": "uint256",
							"name": "",
							"type": "uint256"
						}
					],
					"stateMutability": "view",
					"type": "function"
				},
				{
					"inputs": [],
					"name": "getEther",
					"outputs": [
						{
							"internalType": "uint256",
							"name": "",
							"type": "uint256"
						}
					],
					"stateMutability": "view",
					"type": "function"
				},
				{
					"inputs": [],
					"name": "getStakingCoinPerSec",
					"outputs": [
						{
							"internalType": "uint256",
							"name": "",
							"type": "uint256"
						}
					],
					"stateMutability": "view",
					"type": "function"
				},
				{
					"inputs": [],
					"name": "getTime",
					"outputs": [
						{
							"internalType": "uint256",
							"name": "",
							"type": "uint256"
						}
					],
					"stateMutability": "view",
					"type": "function"
				},
				{
					"inputs": [],
					"name": "lastUpdateTime",
					"outputs": [
						{
							"internalType": "uint256",
							"name": "",
							"type": "uint256"
						}
					],
					"stateMutability": "view",
					"type": "function"
				},
				{
					"inputs": [],
					"name": "myBenefits",
					"outputs": [
						{
							"internalType": "uint256",
							"name": "",
							"type": "uint256"
						}
					],
					"stateMutability": "view",
					"type": "function"
				},
				{
					"inputs": [],
					"name": "myValue",
					"outputs": [
						{
							"internalType": "uint256",
							"name": "",
							"type": "uint256"
						}
					],
					"stateMutability": "view",
					"type": "function"
				},
				{
					"inputs": [],
					"name": "owner",
					"outputs": [
						{
							"internalType": "address",
							"name": "",
							"type": "address"
						}
					],
					"stateMutability": "view",
					"type": "function"
				},
				{
					"inputs": [],
					"name": "pendingCoin",
					"outputs": [
						{
							"internalType": "uint256",
							"name": "",
							"type": "uint256"
						}
					],
					"stateMutability": "view",
					"type": "function"
				},
				{
					"inputs": [
						{
							"internalType": "bool",
							"name": "flag",
							"type": "bool"
						}
					],
					"name": "setStakingSwitch",
					"outputs": [],
					"stateMutability": "nonpayable",
					"type": "function"
				},
				{
					"inputs": [],
					"name": "sharesPrice",
					"outputs": [
						{
							"internalType": "uint256",
							"name": "",
							"type": "uint256"
						}
					],
					"stateMutability": "view",
					"type": "function"
				},
				{
					"inputs": [],
					"name": "stakingStartTime",
					"outputs": [
						{
							"internalType": "uint256",
							"name": "",
							"type": "uint256"
						}
					],
					"stateMutability": "view",
					"type": "function"
				},
				{
					"inputs": [],
					"name": "stakingSwitch",
					"outputs": [
						{
							"internalType": "bool",
							"name": "",
							"type": "bool"
						}
					],
					"stateMutability": "view",
					"type": "function"
				},
				{
					"inputs": [],
					"name": "totalAmount",
					"outputs": [
						{
							"internalType": "uint256",
							"name": "",
							"type": "uint256"
						}
					],
					"stateMutability": "view",
					"type": "function"
				},
				{
					"inputs": [],
					"name": "totalDeposit",
					"outputs": [
						{
							"internalType": "uint256",
							"name": "",
							"type": "uint256"
						}
					],
					"stateMutability": "view",
					"type": "function"
				},
				{
					"inputs": [],
					"name": "totalShares",
					"outputs": [
						{
							"internalType": "uint256",
							"name": "",
							"type": "uint256"
						}
					],
					"stateMutability": "view",
					"type": "function"
				},
				{
					"inputs": [],
					"name": "totalStakingAmount",
					"outputs": [
						{
							"internalType": "uint256",
							"name": "",
							"type": "uint256"
						}
					],
					"stateMutability": "view",
					"type": "function"
				},
				{
					"inputs": [],
					"name": "updatePool",
					"outputs": [],
					"stateMutability": "nonpayable",
					"type": "function"
				},
				{
					"inputs": [
						{
							"internalType": "address",
							"name": "",
							"type": "address"
						}
					],
					"name": "userInfo",
					"outputs": [
						{
							"internalType": "uint256",
							"name": "shares",
							"type": "uint256"
						},
						{
							"internalType": "uint256",
							"name": "lastDepositedTime",
							"type": "uint256"
						},
						{
							"internalType": "uint256",
							"name": "lastUserActionTime",
							"type": "uint256"
						},
						{
							"internalType": "uint256",
							"name": "rewardDebt",
							"type": "uint256"
						},
						{
							"internalType": "uint256",
							"name": "rewards",
							"type": "uint256"
						},
						{
							"internalType": "uint256",
							"name": "amount",
							"type": "uint256"
						}
					],
					"stateMutability": "view",
					"type": "function"
				},
				{
					"inputs": [
						{
							"internalType": "uint256",
							"name": "_shares",
							"type": "uint256"
						}
					],
					"name": "withdraw",
					"outputs": [],
					"stateMutability": "nonpayable",
					"type": "function"
				},
				{
					"inputs": [],
					"name": "withdrawFee",
					"outputs": [
						{
							"internalType": "uint256",
							"name": "",
							"type": "uint256"
						}
					],
					"stateMutability": "view",
					"type": "function"
				},
				{
					"inputs": [],
					"name": "withdrawFeePeriod",
					"outputs": [
						{
							"internalType": "uint256",
							"name": "",
							"type": "uint256"
						}
					],
					"stateMutability": "view",
					"type": "function"
				}
			],
			"devdoc": {
				"kind": "dev",
				"methods": {},
				"version": 1
			},
			"evm": {
				"assembly": "    /* \"Staking/Staking.sol\":718:9243  contract Staking {\r... */\n  mstore(0x40, 0x80)\n    /* \"Staking/Staking.sol\":1290:1291  0 */\n  0x00\n    /* \"Staking/Staking.sol\":1261:1291  uint256 public accPerShare = 0 */\n  0x03\n  sstore\n    /* \"Staking/Staking.sol\":1327:1328  0 */\n  0x00\n    /* \"Staking/Staking.sol\":1298:1328  uint256 public totalShares = 0 */\n  0x04\n  sstore\n    /* \"Staking/Staking.sol\":1364:1365  0 */\n  0x00\n    /* \"Staking/Staking.sol\":1335:1365  uint256 public totalAmount = 0 */\n  0x05\n  sstore\n    /* \"Staking/Staking.sol\":1404:1405  0 */\n  0x00\n    /* \"Staking/Staking.sol\":1372:1405  uint256 public lastUpdateTime = 0 */\n  0x06\n  sstore\n    /* \"Staking/Staking.sol\":1441:1445  1000 */\n  0x03e8\n    /* \"Staking/Staking.sol\":1412:1445  uint256 public withdrawFee = 1000 */\n  0x07\n  sstore\n    /* \"Staking/Staking.sol\":1487:1493  7 days */\n  0x093a80\n    /* \"Staking/Staking.sol\":1452:1493  uint256 public withdrawFeePeriod = 7 days */\n  0x08\n  sstore\n    /* \"Staking/Staking.sol\":1611:1612  0 */\n  0x00\n    /* \"Staking/Staking.sol\":1577:1612  uint256 public stakingStartTime = 0 */\n  0x09\n  sstore\n    /* \"Staking/Staking.sol\":1647:1652  false */\n  0x00\n    /* \"Staking/Staking.sol\":1619:1652  bool public stakingSwitch = false */\n  0x0a\n  exp(0x0100, 0x00)\n  dup2\n  sload\n  dup2\n  0xff\n  mul\n  not\n  and\n  swap1\n  dup4\n  iszero\n  iszero\n  mul\n  or\n  swap1\n  sstore\n  pop\n    /* \"Staking/Staking.sol\":1678:1680  18 */\n  0x12\n    /* \"Staking/Staking.sol\":1659:1680  uint256 decimals = 18 */\n  0x0b\n  sstore\n    /* \"Staking/Staking.sol\":853:1043  constructor(IPokerToken _poker, IBurnCoin _burncoin) public {\r... */\n  callvalue\n  dup1\n  iszero\n  tag_1\n  jumpi\n  0x00\n  dup1\n  revert\ntag_1:\n  pop\n  mload(0x40)\n  sub(codesize, bytecodeSize)\n  dup1\n  bytecodeSize\n  dup4\n  codecopy\n  dup2\n  dup2\n  add\n  0x40\n  mstore\n  0x40\n  dup2\n  lt\n  iszero\n  tag_2\n  jumpi\n  0x00\n  dup1\n  revert\ntag_2:\n  dup2\n  add\n  swap1\n  dup1\n  dup1\n  mload\n  swap1\n  0x20\n  add\n  swap1\n  swap3\n  swap2\n  swap1\n  dup1\n  mload\n  swap1\n  0x20\n  add\n  swap1\n  swap3\n  swap2\n  swap1\n  pop\n  pop\n  pop\n    /* \"Staking/Staking.sol\":932:938  _poker */\n  dup2\n    /* \"Staking/Staking.sol\":924:929  poker */\n  0x00\n  dup1\n    /* \"Staking/Staking.sol\":924:938  poker = _poker */\n  0x0100\n  exp\n  dup2\n  sload\n  dup2\n  0xffffffffffffffffffffffffffffffffffffffff\n  mul\n  not\n  and\n  swap1\n  dup4\n  0xffffffffffffffffffffffffffffffffffffffff\n  and\n  mul\n  or\n  swap1\n  sstore\n  pop\n    /* \"Staking/Staking.sol\":957:967  msg.sender */\n  caller\n    /* \"Staking/Staking.sol\":949:954  owner */\n  0x02\n  0x00\n    /* \"Staking/Staking.sol\":949:967  owner = msg.sender */\n  0x0100\n  exp\n  dup2\n  sload\n  dup2\n  0xffffffffffffffffffffffffffffffffffffffff\n  mul\n  not\n  and\n  swap1\n  dup4\n  0xffffffffffffffffffffffffffffffffffffffff\n  and\n  mul\n  or\n  swap1\n  sstore\n  pop\n    /* \"Staking/Staking.sol\":995:1004  getTime() */\n  tag_5\n    /* \"Staking/Staking.sol\":995:1002  getTime */\n  shl(0x20, tag_6)\n    /* \"Staking/Staking.sol\":995:1004  getTime() */\n  0x20\n  shr\n  jump\t// in\ntag_5:\n    /* \"Staking/Staking.sol\":978:992  lastUpdateTime */\n  0x06\n    /* \"Staking/Staking.sol\":978:1004  lastUpdateTime = getTime() */\n  dup2\n  swap1\n  sstore\n  pop\n    /* \"Staking/Staking.sol\":1026:1035  _burncoin */\n  dup1\n    /* \"Staking/Staking.sol\":1015:1023  burnCoin */\n  0x01\n  0x00\n    /* \"Staking/Staking.sol\":1015:1035  burnCoin = _burncoin */\n  0x0100\n  exp\n  dup2\n  sload\n  dup2\n  0xffffffffffffffffffffffffffffffffffffffff\n  mul\n  not\n  and\n  swap1\n  dup4\n  0xffffffffffffffffffffffffffffffffffffffff\n  and\n  mul\n  or\n  swap1\n  sstore\n  pop\n    /* \"Staking/Staking.sol\":853:1043  constructor(IPokerToken _poker, IBurnCoin _burncoin) public {\r... */\n  pop\n  pop\n    /* \"Staking/Staking.sol\":718:9243  contract Staking {\r... */\n  jump(tag_7)\n    /* \"Staking/Staking.sol\":7671:7749  function getTime() public view returns (uint256) {\r... */\ntag_6:\n    /* \"Staking/Staking.sol\":7711:7718  uint256 */\n  0x00\n    /* \"Staking/Staking.sol\":7738:7741  now */\n  timestamp\n    /* \"Staking/Staking.sol\":7731:7741  return now */\n  swap1\n  pop\n    /* \"Staking/Staking.sol\":7671:7749  function getTime() public view returns (uint256) {\r... */\n  swap1\n  jump\t// out\n    /* \"Staking/Staking.sol\":718:9243  contract Staking {\r... */\ntag_7:\n  dataSize(sub_0)\n  dup1\n  dataOffset(sub_0)\n  0x00\n  codecopy\n  0x00\n  return\nstop\n\nsub_0: assembly {\n        /* \"Staking/Staking.sol\":718:9243  contract Staking {\r... */\n      mstore(0x40, 0x80)\n      callvalue\n      dup1\n      iszero\n      tag_1\n      jumpi\n      0x00\n      dup1\n      revert\n    tag_1:\n      pop\n      jumpi(tag_2, lt(calldatasize, 0x04))\n      shr(0xe0, calldataload(0x00))\n      dup1\n      0x936b6cec\n      gt\n      tag_28\n      jumpi\n      dup1\n      0xde0ff7c5\n      gt\n      tag_29\n      jumpi\n      dup1\n      0xe6fa445d\n      gt\n      tag_30\n      jumpi\n      dup1\n      0xe6fa445d\n      eq\n      tag_24\n      jumpi\n      dup1\n      0xe941fa78\n      eq\n      tag_25\n      jumpi\n      dup1\n      0xf6153ccd\n      eq\n      tag_26\n      jumpi\n      dup1\n      0xfc3e532b\n      eq\n      tag_27\n      jumpi\n      jump(tag_2)\n    tag_30:\n      dup1\n      0xde0ff7c5\n      eq\n      tag_21\n      jumpi\n      dup1\n      0xdf10b4e6\n      eq\n      tag_22\n      jumpi\n      dup1\n      0xe3161ddd\n      eq\n      tag_23\n      jumpi\n      jump(tag_2)\n    tag_29:\n      dup1\n      0x936b6cec\n      eq\n      tag_15\n      jumpi\n      dup1\n      0xb6b55f25\n      eq\n      tag_16\n      jumpi\n      dup1\n      0xb8a3b366\n      eq\n      tag_17\n      jumpi\n      dup1\n      0xc8f33c91\n      eq\n      tag_18\n      jumpi\n      dup1\n      0xd201114a\n      eq\n      tag_19\n      jumpi\n      dup1\n      0xd2890a01\n      eq\n      tag_20\n      jumpi\n      jump(tag_2)\n    tag_28:\n      dup1\n      0x557ed1ba\n      gt\n      tag_31\n      jumpi\n      dup1\n      0x557ed1ba\n      eq\n      tag_9\n      jumpi\n      dup1\n      0x6abfd183\n      eq\n      tag_10\n      jumpi\n      dup1\n      0x6e5b9634\n      eq\n      tag_11\n      jumpi\n      dup1\n      0x77926869\n      eq\n      tag_12\n      jumpi\n      dup1\n      0x81ad5718\n      eq\n      tag_13\n      jumpi\n      dup1\n      0x8da5cb5b\n      eq\n      tag_14\n      jumpi\n      jump(tag_2)\n    tag_31:\n      dup1\n      0x0497de4a\n      eq\n      tag_3\n      jumpi\n      dup1\n      0x1959a002\n      eq\n      tag_4\n      jumpi\n      dup1\n      0x1a39d8ef\n      eq\n      tag_5\n      jumpi\n      dup1\n      0x2e1a7d4d\n      eq\n      tag_6\n      jumpi\n      dup1\n      0x3a98ef39\n      eq\n      tag_7\n      jumpi\n      dup1\n      0x47f1aae7\n      eq\n      tag_8\n      jumpi\n    tag_2:\n      0x00\n      dup1\n      revert\n        /* \"Staking/Staking.sol\":7757:7872  function getDepositBalance() public view returns (uint256) {\r... */\n    tag_3:\n      tag_32\n      tag_33\n      jump\t// in\n    tag_32:\n      mload(0x40)\n      dup1\n      dup3\n      dup2\n      mstore\n      0x20\n      add\n      swap2\n      pop\n      pop\n      mload(0x40)\n      dup1\n      swap2\n      sub\n      swap1\n      return\n        /* \"Staking/Staking.sol\":2056:2100  mapping(address => UserInfo) public userInfo */\n    tag_4:\n      tag_34\n      0x04\n      dup1\n      calldatasize\n      sub\n      0x20\n      dup2\n      lt\n      iszero\n      tag_35\n      jumpi\n      0x00\n      dup1\n      revert\n    tag_35:\n      dup2\n      add\n      swap1\n      dup1\n      dup1\n      calldataload\n      0xffffffffffffffffffffffffffffffffffffffff\n      and\n      swap1\n      0x20\n      add\n      swap1\n      swap3\n      swap2\n      swap1\n      pop\n      pop\n      pop\n      tag_36\n      jump\t// in\n    tag_34:\n      mload(0x40)\n      dup1\n      dup8\n      dup2\n      mstore\n      0x20\n      add\n      dup7\n      dup2\n      mstore\n      0x20\n      add\n      dup6\n      dup2\n      mstore\n      0x20\n      add\n      dup5\n      dup2\n      mstore\n      0x20\n      add\n      dup4\n      dup2\n      mstore\n      0x20\n      add\n      dup3\n      dup2\n      mstore\n      0x20\n      add\n      swap7\n      pop\n      pop\n      pop\n      pop\n      pop\n      pop\n      pop\n      mload(0x40)\n      dup1\n      swap2\n      sub\n      swap1\n      return\n        /* \"Staking/Staking.sol\":1335:1365  uint256 public totalAmount = 0 */\n    tag_5:\n      tag_37\n      tag_38\n      jump\t// in\n    tag_37:\n      mload(0x40)\n      dup1\n      dup3\n      dup2\n      mstore\n      0x20\n      add\n      swap2\n      pop\n      pop\n      mload(0x40)\n      dup1\n      swap2\n      sub\n      swap1\n      return\n        /* \"Staking/Staking.sol\":3564:5398  function withdraw(uint256 _shares) public {\r... */\n    tag_6:\n      tag_39\n      0x04\n      dup1\n      calldatasize\n      sub\n      0x20\n      dup2\n      lt\n      iszero\n      tag_40\n      jumpi\n      0x00\n      dup1\n      revert\n    tag_40:\n      dup2\n      add\n      swap1\n      dup1\n      dup1\n      calldataload\n      swap1\n      0x20\n      add\n      swap1\n      swap3\n      swap2\n      swap1\n      pop\n      pop\n      pop\n      tag_41\n      jump\t// in\n    tag_39:\n      stop\n        /* \"Staking/Staking.sol\":1298:1328  uint256 public totalShares = 0 */\n    tag_7:\n      tag_42\n      tag_43\n      jump\t// in\n    tag_42:\n      mload(0x40)\n      dup1\n      dup3\n      dup2\n      mstore\n      0x20\n      add\n      swap2\n      pop\n      pop\n      mload(0x40)\n      dup1\n      swap2\n      sub\n      swap1\n      return\n        /* \"Staking/Staking.sol\":7121:7457  function myValue() public view returns (uint256) {\r... */\n    tag_8:\n      tag_44\n      tag_45\n      jump\t// in\n    tag_44:\n      mload(0x40)\n      dup1\n      dup3\n      dup2\n      mstore\n      0x20\n      add\n      swap2\n      pop\n      pop\n      mload(0x40)\n      dup1\n      swap2\n      sub\n      swap1\n      return\n        /* \"Staking/Staking.sol\":7671:7749  function getTime() public view returns (uint256) {\r... */\n    tag_9:\n      tag_46\n      tag_47\n      jump\t// in\n    tag_46:\n      mload(0x40)\n      dup1\n      dup3\n      dup2\n      mstore\n      0x20\n      add\n      swap2\n      pop\n      pop\n      mload(0x40)\n      dup1\n      swap2\n      sub\n      swap1\n      return\n        /* \"Staking/Staking.sol\":1577:1612  uint256 public stakingStartTime = 0 */\n    tag_10:\n      tag_48\n      tag_49\n      jump\t// in\n    tag_48:\n      mload(0x40)\n      dup1\n      dup3\n      dup2\n      mstore\n      0x20\n      add\n      swap2\n      pop\n      pop\n      mload(0x40)\n      dup1\n      swap2\n      sub\n      swap1\n      return\n        /* \"Staking/Staking.sol\":6600:6759  function computePer() external view returns (uint256) {\r... */\n    tag_11:\n      tag_50\n      tag_51\n      jump\t// in\n    tag_50:\n      mload(0x40)\n      dup1\n      dup3\n      dup2\n      mstore\n      0x20\n      add\n      swap2\n      pop\n      pop\n      mload(0x40)\n      dup1\n      swap2\n      sub\n      swap1\n      return\n        /* \"Staking/Staking.sol\":7465:7636  function sharesPrice() public view returns (uint256) {\r... */\n    tag_12:\n      tag_52\n      tag_53\n      jump\t// in\n    tag_52:\n      mload(0x40)\n      dup1\n      dup3\n      dup2\n      mstore\n      0x20\n      add\n      swap2\n      pop\n      pop\n      mload(0x40)\n      dup1\n      swap2\n      sub\n      swap1\n      return\n        /* \"Staking/Staking.sol\":8958:9240  function setStakingSwitch(bool flag) public {\r... */\n    tag_13:\n      tag_54\n      0x04\n      dup1\n      calldatasize\n      sub\n      0x20\n      dup2\n      lt\n      iszero\n      tag_55\n      jumpi\n      0x00\n      dup1\n      revert\n    tag_55:\n      dup2\n      add\n      swap1\n      dup1\n      dup1\n      calldataload\n      iszero\n      iszero\n      swap1\n      0x20\n      add\n      swap1\n      swap3\n      swap2\n      swap1\n      pop\n      pop\n      pop\n      tag_56\n      jump\t// in\n    tag_54:\n      stop\n        /* \"Staking/Staking.sol\":824:844  address public owner */\n    tag_14:\n      tag_57\n      tag_58\n      jump\t// in\n    tag_57:\n      mload(0x40)\n      dup1\n      dup3\n      0xffffffffffffffffffffffffffffffffffffffff\n      and\n      dup2\n      mstore\n      0x20\n      add\n      swap2\n      pop\n      pop\n      mload(0x40)\n      dup1\n      swap2\n      sub\n      swap1\n      return\n        /* \"Staking/Staking.sol\":6767:7113  function myBenefits() public view returns (uint256) {\r... */\n    tag_15:\n      tag_59\n      tag_60\n      jump\t// in\n    tag_59:\n      mload(0x40)\n      dup1\n      dup3\n      dup2\n      mstore\n      0x20\n      add\n      swap2\n      pop\n      pop\n      mload(0x40)\n      dup1\n      swap2\n      sub\n      swap1\n      return\n        /* \"Staking/Staking.sol\":2334:3556  function deposit(uint256 _amount) public {\r... */\n    tag_16:\n      tag_61\n      0x04\n      dup1\n      calldatasize\n      sub\n      0x20\n      dup2\n      lt\n      iszero\n      tag_62\n      jumpi\n      0x00\n      dup1\n      revert\n    tag_62:\n      dup2\n      add\n      swap1\n      dup1\n      dup1\n      calldataload\n      swap1\n      0x20\n      add\n      swap1\n      swap3\n      swap2\n      swap1\n      pop\n      pop\n      pop\n      tag_63\n      jump\t// in\n    tag_61:\n      stop\n        /* \"Staking/Staking.sol\":8019:8950  function getStakingCoinPerSec() public view returns (uint256) {\r... */\n    tag_17:\n      tag_64\n      tag_65\n      jump\t// in\n    tag_64:\n      mload(0x40)\n      dup1\n      dup3\n      dup2\n      mstore\n      0x20\n      add\n      swap2\n      pop\n      pop\n      mload(0x40)\n      dup1\n      swap2\n      sub\n      swap1\n      return\n        /* \"Staking/Staking.sol\":1372:1405  uint256 public lastUpdateTime = 0 */\n    tag_18:\n      tag_66\n      tag_67\n      jump\t// in\n    tag_66:\n      mload(0x40)\n      dup1\n      dup3\n      dup2\n      mstore\n      0x20\n      add\n      swap2\n      pop\n      pop\n      mload(0x40)\n      dup1\n      swap2\n      sub\n      swap1\n      return\n        /* \"Staking/Staking.sol\":6353:6482  function totalStakingAmount() public view returns (uint256) {\r... */\n    tag_19:\n      tag_68\n      tag_69\n      jump\t// in\n    tag_68:\n      mload(0x40)\n      dup1\n      dup3\n      dup2\n      mstore\n      0x20\n      add\n      swap2\n      pop\n      pop\n      mload(0x40)\n      dup1\n      swap2\n      sub\n      swap1\n      return\n        /* \"Staking/Staking.sol\":1261:1291  uint256 public accPerShare = 0 */\n    tag_20:\n      tag_70\n      tag_71\n      jump\t// in\n    tag_70:\n      mload(0x40)\n      dup1\n      dup3\n      dup2\n      mstore\n      0x20\n      add\n      swap2\n      pop\n      pop\n      mload(0x40)\n      dup1\n      swap2\n      sub\n      swap1\n      return\n        /* \"Staking/Staking.sol\":7880:7977  function getEther() public view returns (uint256) {\r... */\n    tag_21:\n      tag_72\n      tag_73\n      jump\t// in\n    tag_72:\n      mload(0x40)\n      dup1\n      dup3\n      dup2\n      mstore\n      0x20\n      add\n      swap2\n      pop\n      pop\n      mload(0x40)\n      dup1\n      swap2\n      sub\n      swap1\n      return\n        /* \"Staking/Staking.sol\":1452:1493  uint256 public withdrawFeePeriod = 7 days */\n    tag_22:\n      tag_74\n      tag_75\n      jump\t// in\n    tag_74:\n      mload(0x40)\n      dup1\n      dup3\n      dup2\n      mstore\n      0x20\n      add\n      swap2\n      pop\n      pop\n      mload(0x40)\n      dup1\n      swap2\n      sub\n      swap1\n      return\n        /* \"Staking/Staking.sol\":5406:6023  function updatePool() public {\r... */\n    tag_23:\n      tag_76\n      tag_77\n      jump\t// in\n    tag_76:\n      stop\n        /* \"Staking/Staking.sol\":1619:1652  bool public stakingSwitch = false */\n    tag_24:\n      tag_78\n      tag_79\n      jump\t// in\n    tag_78:\n      mload(0x40)\n      dup1\n      dup3\n      iszero\n      iszero\n      dup2\n      mstore\n      0x20\n      add\n      swap2\n      pop\n      pop\n      mload(0x40)\n      dup1\n      swap2\n      sub\n      swap1\n      return\n        /* \"Staking/Staking.sol\":1412:1445  uint256 public withdrawFee = 1000 */\n    tag_25:\n      tag_80\n      tag_81\n      jump\t// in\n    tag_80:\n      mload(0x40)\n      dup1\n      dup3\n      dup2\n      mstore\n      0x20\n      add\n      swap2\n      pop\n      pop\n      mload(0x40)\n      dup1\n      swap2\n      sub\n      swap1\n      return\n        /* \"Staking/Staking.sol\":6490:6592  function totalDeposit() external view returns (uint256) {\r... */\n    tag_26:\n      tag_82\n      tag_83\n      jump\t// in\n    tag_82:\n      mload(0x40)\n      dup1\n      dup3\n      dup2\n      mstore\n      0x20\n      add\n      swap2\n      pop\n      pop\n      mload(0x40)\n      dup1\n      swap2\n      sub\n      swap1\n      return\n        /* \"Staking/Staking.sol\":6031:6345  function pendingCoin() external view returns (uint256) {\r... */\n    tag_27:\n      tag_84\n      tag_85\n      jump\t// in\n    tag_84:\n      mload(0x40)\n      dup1\n      dup3\n      dup2\n      mstore\n      0x20\n      add\n      swap2\n      pop\n      pop\n      mload(0x40)\n      dup1\n      swap2\n      sub\n      swap1\n      return\n        /* \"Staking/Staking.sol\":7757:7872  function getDepositBalance() public view returns (uint256) {\r... */\n    tag_33:\n        /* \"Staking/Staking.sol\":7807:7814  uint256 */\n      0x00\n        /* \"Staking/Staking.sol\":7834:7839  poker */\n      dup1\n      0x00\n      swap1\n      sload\n      swap1\n      0x0100\n      exp\n      swap1\n      div\n      0xffffffffffffffffffffffffffffffffffffffff\n      and\n        /* \"Staking/Staking.sol\":7834:7849  poker.balanceOf */\n      0xffffffffffffffffffffffffffffffffffffffff\n      and\n      0x70a08231\n        /* \"Staking/Staking.sol\":7858:7862  this */\n      address\n        /* \"Staking/Staking.sol\":7834:7864  poker.balanceOf(address(this)) */\n      mload(0x40)\n      dup3\n      0xffffffff\n      and\n      0xe0\n      shl\n      dup2\n      mstore\n      0x04\n      add\n      dup1\n      dup3\n      0xffffffffffffffffffffffffffffffffffffffff\n      and\n      dup2\n      mstore\n      0x20\n      add\n      swap2\n      pop\n      pop\n      0x20\n      mload(0x40)\n      dup1\n      dup4\n      sub\n      dup2\n      dup7\n      dup1\n      extcodesize\n      iszero\n      dup1\n      iszero\n      tag_87\n      jumpi\n      0x00\n      dup1\n      revert\n    tag_87:\n      pop\n      gas\n      staticcall\n      iszero\n      dup1\n      iszero\n      tag_89\n      jumpi\n      returndatasize\n      0x00\n      dup1\n      returndatacopy\n      revert(0x00, returndatasize)\n    tag_89:\n      pop\n      pop\n      pop\n      pop\n      mload(0x40)\n      returndatasize\n      0x20\n      dup2\n      lt\n      iszero\n      tag_90\n      jumpi\n      0x00\n      dup1\n      revert\n    tag_90:\n      dup2\n      add\n      swap1\n      dup1\n      dup1\n      mload\n      swap1\n      0x20\n      add\n      swap1\n      swap3\n      swap2\n      swap1\n      pop\n      pop\n      pop\n        /* \"Staking/Staking.sol\":7827:7864  return poker.balanceOf(address(this)) */\n      swap1\n      pop\n        /* \"Staking/Staking.sol\":7757:7872  function getDepositBalance() public view returns (uint256) {\r... */\n      swap1\n      jump\t// out\n        /* \"Staking/Staking.sol\":2056:2100  mapping(address => UserInfo) public userInfo */\n    tag_36:\n      mstore(0x20, 0x0c)\n      dup1\n      0x00\n      mstore\n      keccak256(0x00, 0x40)\n      0x00\n      swap2\n      pop\n      swap1\n      pop\n      dup1\n      0x00\n      add\n      sload\n      swap1\n      dup1\n      0x01\n      add\n      sload\n      swap1\n      dup1\n      0x02\n      add\n      sload\n      swap1\n      dup1\n      0x03\n      add\n      sload\n      swap1\n      dup1\n      0x04\n      add\n      sload\n      swap1\n      dup1\n      0x05\n      add\n      sload\n      swap1\n      pop\n      dup7\n      jump\t// out\n        /* \"Staking/Staking.sol\":1335:1365  uint256 public totalAmount = 0 */\n    tag_38:\n      sload(0x05)\n      dup2\n      jump\t// out\n        /* \"Staking/Staking.sol\":3564:5398  function withdraw(uint256 _shares) public {\r... */\n    tag_41:\n        /* \"Staking/Staking.sol\":3617:3638  UserInfo storage user */\n      0x00\n        /* \"Staking/Staking.sol\":3641:3649  userInfo */\n      0x0c\n        /* \"Staking/Staking.sol\":3641:3661  userInfo[msg.sender] */\n      0x00\n        /* \"Staking/Staking.sol\":3650:3660  msg.sender */\n      caller\n        /* \"Staking/Staking.sol\":3641:3661  userInfo[msg.sender] */\n      0xffffffffffffffffffffffffffffffffffffffff\n      and\n      0xffffffffffffffffffffffffffffffffffffffff\n      and\n      dup2\n      mstore\n      0x20\n      add\n      swap1\n      dup2\n      mstore\n      0x20\n      add\n      0x00\n      keccak256\n        /* \"Staking/Staking.sol\":3617:3661  UserInfo storage user = userInfo[msg.sender] */\n      swap1\n      pop\n        /* \"Staking/Staking.sol\":3690:3691  0 */\n      0x00\n        /* \"Staking/Staking.sol\":3680:3687  _shares */\n      dup3\n        /* \"Staking/Staking.sol\":3680:3691  _shares > 0 */\n      gt\n        /* \"Staking/Staking.sol\":3672:3715  require(_shares > 0, \"Nothing to withdraw\") */\n      tag_92\n      jumpi\n      mload(0x40)\n      0x08c379a000000000000000000000000000000000000000000000000000000000\n      dup2\n      mstore\n      0x04\n      add\n      dup1\n      dup1\n      0x20\n      add\n      dup3\n      dup2\n      sub\n      dup3\n      mstore\n      0x13\n      dup2\n      mstore\n      0x20\n      add\n      dup1\n      0x4e6f7468696e6720746f20776974686472617700000000000000000000000000\n      dup2\n      mstore\n      pop\n      0x20\n      add\n      swap2\n      pop\n      pop\n      mload(0x40)\n      dup1\n      swap2\n      sub\n      swap1\n      revert\n    tag_92:\n        /* \"Staking/Staking.sol\":3745:3749  user */\n      dup1\n        /* \"Staking/Staking.sol\":3745:3756  user.shares */\n      0x00\n      add\n      sload\n        /* \"Staking/Staking.sol\":3734:3741  _shares */\n      dup3\n        /* \"Staking/Staking.sol\":3734:3756  _shares <= user.shares */\n      gt\n      iszero\n        /* \"Staking/Staking.sol\":3726:3792  require(_shares <= user.shares, \"Withdraw amount exceeds balance\") */\n      tag_93\n      jumpi\n      mload(0x40)\n      0x08c379a000000000000000000000000000000000000000000000000000000000\n      dup2\n      mstore\n      0x04\n      add\n      dup1\n      dup1\n      0x20\n      add\n      dup3\n      dup2\n      sub\n      dup3\n      mstore\n      0x1f\n      dup2\n      mstore\n      0x20\n      add\n      dup1\n      0x576974686472617720616d6f756e7420657863656564732062616c616e636500\n      dup2\n      mstore\n      pop\n      0x20\n      add\n      swap2\n      pop\n      pop\n      mload(0x40)\n      dup1\n      swap2\n      sub\n      swap1\n      revert\n    tag_93:\n        /* \"Staking/Staking.sol\":3805:3817  updatePool() */\n      tag_94\n        /* \"Staking/Staking.sol\":3805:3815  updatePool */\n      tag_77\n        /* \"Staking/Staking.sol\":3805:3817  updatePool() */\n      jump\t// in\n    tag_94:\n        /* \"Staking/Staking.sol\":3860:3883  uint256 userTotalAmount */\n      0x00\n        /* \"Staking/Staking.sol\":3886:3989  decimalMul(user.amount, accPerShare)\r... */\n      tag_95\n        /* \"Staking/Staking.sol\":3976:3980  user */\n      dup3\n        /* \"Staking/Staking.sol\":3976:3988  user.rewards */\n      0x04\n      add\n      sload\n        /* \"Staking/Staking.sol\":3886:3957  decimalMul(user.amount, accPerShare)\r... */\n      tag_96\n        /* \"Staking/Staking.sol\":3941:3945  user */\n      dup5\n        /* \"Staking/Staking.sol\":3941:3956  user.rewardDebt */\n      0x03\n      add\n      sload\n        /* \"Staking/Staking.sol\":3886:3922  decimalMul(user.amount, accPerShare) */\n      tag_97\n        /* \"Staking/Staking.sol\":3897:3901  user */\n      dup7\n        /* \"Staking/Staking.sol\":3897:3908  user.amount */\n      0x05\n      add\n      sload\n        /* \"Staking/Staking.sol\":3910:3921  accPerShare */\n      sload(0x03)\n        /* \"Staking/Staking.sol\":3886:3896  decimalMul */\n      tag_98\n        /* \"Staking/Staking.sol\":3886:3922  decimalMul(user.amount, accPerShare) */\n      jump\t// in\n    tag_97:\n        /* \"Staking/Staking.sol\":3886:3940  decimalMul(user.amount, accPerShare)\r... */\n      tag_99\n      swap1\n        /* \"Staking/Staking.sol\":3886:3957  decimalMul(user.amount, accPerShare)\r... */\n      swap2\n      swap1\n      0xffffffff\n      and\n      jump\t// in\n    tag_96:\n        /* \"Staking/Staking.sol\":3886:3975  decimalMul(user.amount, accPerShare)\r... */\n      tag_100\n      swap1\n        /* \"Staking/Staking.sol\":3886:3989  decimalMul(user.amount, accPerShare)\r... */\n      swap2\n      swap1\n      0xffffffff\n      and\n      jump\t// in\n    tag_95:\n        /* \"Staking/Staking.sol\":3860:3989  uint256 userTotalAmount = decimalMul(user.amount, accPerShare)\r... */\n      swap1\n      pop\n        /* \"Staking/Staking.sol\":4041:4063  uint256 withdrawAmount */\n      0x00\n        /* \"Staking/Staking.sol\":4066:4111  userTotalAmount.mul(_shares).div(user.shares) */\n      tag_101\n        /* \"Staking/Staking.sol\":4099:4103  user */\n      dup4\n        /* \"Staking/Staking.sol\":4099:4110  user.shares */\n      0x00\n      add\n      sload\n        /* \"Staking/Staking.sol\":4066:4094  userTotalAmount.mul(_shares) */\n      tag_102\n        /* \"Staking/Staking.sol\":4086:4093  _shares */\n      dup7\n        /* \"Staking/Staking.sol\":4066:4081  userTotalAmount */\n      dup6\n        /* \"Staking/Staking.sol\":4066:4085  userTotalAmount.mul */\n      tag_103\n      swap1\n        /* \"Staking/Staking.sol\":4066:4094  userTotalAmount.mul(_shares) */\n      swap2\n      swap1\n      0xffffffff\n      and\n      jump\t// in\n    tag_102:\n        /* \"Staking/Staking.sol\":4066:4098  userTotalAmount.mul(_shares).div */\n      tag_104\n      swap1\n        /* \"Staking/Staking.sol\":4066:4111  userTotalAmount.mul(_shares).div(user.shares) */\n      swap2\n      swap1\n      0xffffffff\n      and\n      jump\t// in\n    tag_101:\n        /* \"Staking/Staking.sol\":4041:4111  uint256 withdrawAmount = userTotalAmount.mul(_shares).div(user.shares) */\n      swap1\n      pop\n        /* \"Staking/Staking.sol\":4163:4181  uint256 userAmount */\n      0x00\n        /* \"Staking/Staking.sol\":4184:4225  user.amount.mul(_shares).div(user.shares) */\n      tag_105\n        /* \"Staking/Staking.sol\":4213:4217  user */\n      dup5\n        /* \"Staking/Staking.sol\":4213:4224  user.shares */\n      0x00\n      add\n      sload\n        /* \"Staking/Staking.sol\":4184:4208  user.amount.mul(_shares) */\n      tag_106\n        /* \"Staking/Staking.sol\":4200:4207  _shares */\n      dup8\n        /* \"Staking/Staking.sol\":4184:4188  user */\n      dup8\n        /* \"Staking/Staking.sol\":4184:4195  user.amount */\n      0x05\n      add\n      sload\n        /* \"Staking/Staking.sol\":4184:4199  user.amount.mul */\n      tag_103\n      swap1\n        /* \"Staking/Staking.sol\":4184:4208  user.amount.mul(_shares) */\n      swap2\n      swap1\n      0xffffffff\n      and\n      jump\t// in\n    tag_106:\n        /* \"Staking/Staking.sol\":4184:4212  user.amount.mul(_shares).div */\n      tag_104\n      swap1\n        /* \"Staking/Staking.sol\":4184:4225  user.amount.mul(_shares).div(user.shares) */\n      swap2\n      swap1\n      0xffffffff\n      and\n      jump\t// in\n    tag_105:\n        /* \"Staking/Staking.sol\":4163:4225  uint256 userAmount = user.amount.mul(_shares).div(user.shares) */\n      swap1\n      pop\n        /* \"Staking/Staking.sol\":4252:4276  user.shares.sub(_shares) */\n      tag_107\n        /* \"Staking/Staking.sol\":4268:4275  _shares */\n      dup6\n        /* \"Staking/Staking.sol\":4252:4256  user */\n      dup6\n        /* \"Staking/Staking.sol\":4252:4263  user.shares */\n      0x00\n      add\n      sload\n        /* \"Staking/Staking.sol\":4252:4267  user.shares.sub */\n      tag_99\n      swap1\n        /* \"Staking/Staking.sol\":4252:4276  user.shares.sub(_shares) */\n      swap2\n      swap1\n      0xffffffff\n      and\n      jump\t// in\n    tag_107:\n        /* \"Staking/Staking.sol\":4238:4242  user */\n      dup5\n        /* \"Staking/Staking.sol\":4238:4249  user.shares */\n      0x00\n      add\n        /* \"Staking/Staking.sol\":4238:4276  user.shares = user.shares.sub(_shares) */\n      dup2\n      swap1\n      sstore\n      pop\n        /* \"Staking/Staking.sol\":4301:4325  totalShares.sub(_shares) */\n      tag_108\n        /* \"Staking/Staking.sol\":4317:4324  _shares */\n      dup6\n        /* \"Staking/Staking.sol\":4301:4312  totalShares */\n      sload(0x04)\n        /* \"Staking/Staking.sol\":4301:4316  totalShares.sub */\n      tag_99\n      swap1\n        /* \"Staking/Staking.sol\":4301:4325  totalShares.sub(_shares) */\n      swap2\n      swap1\n      0xffffffff\n      and\n      jump\t// in\n    tag_108:\n        /* \"Staking/Staking.sol\":4287:4298  totalShares */\n      0x04\n        /* \"Staking/Staking.sol\":4287:4325  totalShares = totalShares.sub(_shares) */\n      dup2\n      swap1\n      sstore\n      pop\n        /* \"Staking/Staking.sol\":4375:4389  withdrawAmount */\n      dup2\n        /* \"Staking/Staking.sol\":4360:4371  totalAmount */\n      sload(0x05)\n        /* \"Staking/Staking.sol\":4360:4389  totalAmount >= withdrawAmount */\n      lt\n      iszero\n        /* \"Staking/Staking.sol\":4338:4448  require(\r... */\n      tag_109\n      jumpi\n      mload(0x40)\n      0x08c379a000000000000000000000000000000000000000000000000000000000\n      dup2\n      mstore\n      0x04\n      add\n      dup1\n      dup1\n      0x20\n      add\n      dup3\n      dup2\n      sub\n      dup3\n      mstore\n      0x1f\n      dup2\n      mstore\n      0x20\n      add\n      dup1\n      0x576974686472617720616d6f756e7420657863656564732062616c616e636500\n      dup2\n      mstore\n      pop\n      0x20\n      add\n      swap2\n      pop\n      pop\n      mload(0x40)\n      dup1\n      swap2\n      sub\n      swap1\n      revert\n    tag_109:\n        /* \"Staking/Staking.sol\":4506:4537  totalAmount.sub(withdrawAmount) */\n      tag_110\n        /* \"Staking/Staking.sol\":4522:4536  withdrawAmount */\n      dup3\n        /* \"Staking/Staking.sol\":4506:4517  totalAmount */\n      sload(0x05)\n        /* \"Staking/Staking.sol\":4506:4521  totalAmount.sub */\n      tag_99\n      swap1\n        /* \"Staking/Staking.sol\":4506:4537  totalAmount.sub(withdrawAmount) */\n      swap2\n      swap1\n      0xffffffff\n      and\n      jump\t// in\n    tag_110:\n        /* \"Staking/Staking.sol\":4492:4503  totalAmount */\n      0x05\n        /* \"Staking/Staking.sol\":4492:4537  totalAmount = totalAmount.sub(withdrawAmount) */\n      dup2\n      swap1\n      sstore\n      pop\n        /* \"Staking/Staking.sol\":4589:4624  userTotalAmount.sub(withdrawAmount) */\n      tag_111\n        /* \"Staking/Staking.sol\":4609:4623  withdrawAmount */\n      dup3\n        /* \"Staking/Staking.sol\":4589:4604  userTotalAmount */\n      dup5\n        /* \"Staking/Staking.sol\":4589:4608  userTotalAmount.sub */\n      tag_99\n      swap1\n        /* \"Staking/Staking.sol\":4589:4624  userTotalAmount.sub(withdrawAmount) */\n      swap2\n      swap1\n      0xffffffff\n      and\n      jump\t// in\n    tag_111:\n        /* \"Staking/Staking.sol\":4574:4578  user */\n      dup5\n        /* \"Staking/Staking.sol\":4574:4586  user.rewards */\n      0x04\n      add\n        /* \"Staking/Staking.sol\":4574:4624  user.rewards = userTotalAmount.sub(withdrawAmount) */\n      dup2\n      swap1\n      sstore\n      pop\n        /* \"Staking/Staking.sol\":4684:4714  withdrawAmount.add(userAmount) */\n      tag_112\n        /* \"Staking/Staking.sol\":4703:4713  userAmount */\n      dup2\n        /* \"Staking/Staking.sol\":4684:4698  withdrawAmount */\n      dup4\n        /* \"Staking/Staking.sol\":4684:4702  withdrawAmount.add */\n      tag_100\n      swap1\n        /* \"Staking/Staking.sol\":4684:4714  withdrawAmount.add(userAmount) */\n      swap2\n      swap1\n      0xffffffff\n      and\n      jump\t// in\n    tag_112:\n        /* \"Staking/Staking.sol\":4667:4714  withdrawAmount = withdrawAmount.add(userAmount) */\n      swap2\n      pop\n        /* \"Staking/Staking.sol\":4743:4788  user.lastDepositedTime.add(withdrawFeePeriod) */\n      tag_113\n        /* \"Staking/Staking.sol\":4770:4787  withdrawFeePeriod */\n      sload(0x08)\n        /* \"Staking/Staking.sol\":4743:4747  user */\n      dup6\n        /* \"Staking/Staking.sol\":4743:4765  user.lastDepositedTime */\n      0x01\n      add\n      sload\n        /* \"Staking/Staking.sol\":4743:4769  user.lastDepositedTime.add */\n      tag_100\n      swap1\n        /* \"Staking/Staking.sol\":4743:4788  user.lastDepositedTime.add(withdrawFeePeriod) */\n      swap2\n      swap1\n      0xffffffff\n      and\n      jump\t// in\n    tag_113:\n        /* \"Staking/Staking.sol\":4731:4740  getTime() */\n      tag_114\n        /* \"Staking/Staking.sol\":4731:4738  getTime */\n      tag_47\n        /* \"Staking/Staking.sol\":4731:4740  getTime() */\n      jump\t// in\n    tag_114:\n        /* \"Staking/Staking.sol\":4731:4788  getTime() < user.lastDepositedTime.add(withdrawFeePeriod) */\n      lt\n        /* \"Staking/Staking.sol\":4727:5066  if (getTime() < user.lastDepositedTime.add(withdrawFeePeriod)) {\r... */\n      iszero\n      tag_115\n      jumpi\n        /* \"Staking/Staking.sol\":4805:4831  uint256 currentWithdrawFee */\n      0x00\n        /* \"Staking/Staking.sol\":4834:4868  withdrawAmount.mul(100).div(10000) */\n      tag_116\n        /* \"Staking/Staking.sol\":4862:4867  10000 */\n      0x2710\n        /* \"Staking/Staking.sol\":4834:4857  withdrawAmount.mul(100) */\n      tag_117\n        /* \"Staking/Staking.sol\":4853:4856  100 */\n      0x64\n        /* \"Staking/Staking.sol\":4834:4848  withdrawAmount */\n      dup7\n        /* \"Staking/Staking.sol\":4834:4852  withdrawAmount.mul */\n      tag_103\n      swap1\n        /* \"Staking/Staking.sol\":4834:4857  withdrawAmount.mul(100) */\n      swap2\n      swap1\n      0xffffffff\n      and\n      jump\t// in\n    tag_117:\n        /* \"Staking/Staking.sol\":4834:4861  withdrawAmount.mul(100).div */\n      tag_104\n      swap1\n        /* \"Staking/Staking.sol\":4834:4868  withdrawAmount.mul(100).div(10000) */\n      swap2\n      swap1\n      0xffffffff\n      and\n      jump\t// in\n    tag_116:\n        /* \"Staking/Staking.sol\":4805:4868  uint256 currentWithdrawFee = withdrawAmount.mul(100).div(10000) */\n      swap1\n      pop\n        /* \"Staking/Staking.sol\":4900:4938  withdrawAmount.sub(currentWithdrawFee) */\n      tag_118\n        /* \"Staking/Staking.sol\":4919:4937  currentWithdrawFee */\n      dup2\n        /* \"Staking/Staking.sol\":4900:4914  withdrawAmount */\n      dup5\n        /* \"Staking/Staking.sol\":4900:4918  withdrawAmount.sub */\n      tag_99\n      swap1\n        /* \"Staking/Staking.sol\":4900:4938  withdrawAmount.sub(currentWithdrawFee) */\n      swap2\n      swap1\n      0xffffffff\n      and\n      jump\t// in\n    tag_118:\n        /* \"Staking/Staking.sol\":4883:4938  withdrawAmount = withdrawAmount.sub(currentWithdrawFee) */\n      swap3\n      pop\n        /* \"Staking/Staking.sol\":4953:4958  poker */\n      0x00\n      dup1\n      sload\n      swap1\n      0x0100\n      exp\n      swap1\n      div\n      0xffffffffffffffffffffffffffffffffffffffff\n      and\n        /* \"Staking/Staking.sol\":4953:4967  poker.transfer */\n      0xffffffffffffffffffffffffffffffffffffffff\n      and\n      0xa9059cbb\n        /* \"Staking/Staking.sol\":4976:4984  burnCoin */\n      0x01\n      0x00\n      swap1\n      sload\n      swap1\n      0x0100\n      exp\n      swap1\n      div\n      0xffffffffffffffffffffffffffffffffffffffff\n      and\n        /* \"Staking/Staking.sol\":4987:5005  currentWithdrawFee */\n      dup4\n        /* \"Staking/Staking.sol\":4953:5006  poker.transfer(address(burnCoin), currentWithdrawFee) */\n      mload(0x40)\n      dup4\n      0xffffffff\n      and\n      0xe0\n      shl\n      dup2\n      mstore\n      0x04\n      add\n      dup1\n      dup4\n      0xffffffffffffffffffffffffffffffffffffffff\n      and\n      dup2\n      mstore\n      0x20\n      add\n      dup3\n      dup2\n      mstore\n      0x20\n      add\n      swap3\n      pop\n      pop\n      pop\n      0x20\n      mload(0x40)\n      dup1\n      dup4\n      sub\n      dup2\n      0x00\n      dup8\n      dup1\n      extcodesize\n      iszero\n      dup1\n      iszero\n      tag_119\n      jumpi\n      0x00\n      dup1\n      revert\n    tag_119:\n      pop\n      gas\n      call\n      iszero\n      dup1\n      iszero\n      tag_121\n      jumpi\n      returndatasize\n      0x00\n      dup1\n      returndatacopy\n      revert(0x00, returndatasize)\n    tag_121:\n      pop\n      pop\n      pop\n      pop\n      mload(0x40)\n      returndatasize\n      0x20\n      dup2\n      lt\n      iszero\n      tag_122\n      jumpi\n      0x00\n      dup1\n      revert\n    tag_122:\n      dup2\n      add\n      swap1\n      dup1\n      dup1\n      mload\n      swap1\n      0x20\n      add\n      swap1\n      swap3\n      swap2\n      swap1\n      pop\n      pop\n      pop\n      pop\n        /* \"Staking/Staking.sol\":5021:5029  burnCoin */\n      0x01\n      0x00\n      swap1\n      sload\n      swap1\n      0x0100\n      exp\n      swap1\n      div\n      0xffffffffffffffffffffffffffffffffffffffff\n      and\n        /* \"Staking/Staking.sol\":5021:5034  burnCoin.burn */\n      0xffffffffffffffffffffffffffffffffffffffff\n      and\n      0x42966c68\n        /* \"Staking/Staking.sol\":5035:5053  currentWithdrawFee */\n      dup3\n        /* \"Staking/Staking.sol\":5021:5054  burnCoin.burn(currentWithdrawFee) */\n      mload(0x40)\n      dup3\n      0xffffffff\n      and\n      0xe0\n      shl\n      dup2\n      mstore\n      0x04\n      add\n      dup1\n      dup3\n      dup2\n      mstore\n      0x20\n      add\n      swap2\n      pop\n      pop\n      0x00\n      mload(0x40)\n      dup1\n      dup4\n      sub\n      dup2\n      0x00\n      dup8\n      dup1\n      extcodesize\n      iszero\n      dup1\n      iszero\n      tag_123\n      jumpi\n      0x00\n      dup1\n      revert\n    tag_123:\n      pop\n      gas\n      call\n      iszero\n      dup1\n      iszero\n      tag_125\n      jumpi\n      returndatasize\n      0x00\n      dup1\n      returndatacopy\n      revert(0x00, returndatasize)\n    tag_125:\n      pop\n      pop\n      pop\n      pop\n        /* \"Staking/Staking.sol\":4727:5066  if (getTime() < user.lastDepositedTime.add(withdrawFeePeriod)) {\r... */\n      pop\n    tag_115:\n        /* \"Staking/Staking.sol\":5078:5083  poker */\n      0x00\n      dup1\n      sload\n      swap1\n      0x0100\n      exp\n      swap1\n      div\n      0xffffffffffffffffffffffffffffffffffffffff\n      and\n        /* \"Staking/Staking.sol\":5078:5092  poker.transfer */\n      0xffffffffffffffffffffffffffffffffffffffff\n      and\n      0xa9059cbb\n        /* \"Staking/Staking.sol\":5093:5103  msg.sender */\n      caller\n        /* \"Staking/Staking.sol\":5105:5119  withdrawAmount */\n      dup5\n        /* \"Staking/Staking.sol\":5078:5120  poker.transfer(msg.sender, withdrawAmount) */\n      mload(0x40)\n      dup4\n      0xffffffff\n      and\n      0xe0\n      shl\n      dup2\n      mstore\n      0x04\n      add\n      dup1\n      dup4\n      0xffffffffffffffffffffffffffffffffffffffff\n      and\n      dup2\n      mstore\n      0x20\n      add\n      dup3\n      dup2\n      mstore\n      0x20\n      add\n      swap3\n      pop\n      pop\n      pop\n      0x20\n      mload(0x40)\n      dup1\n      dup4\n      sub\n      dup2\n      0x00\n      dup8\n      dup1\n      extcodesize\n      iszero\n      dup1\n      iszero\n      tag_126\n      jumpi\n      0x00\n      dup1\n      revert\n    tag_126:\n      pop\n      gas\n      call\n      iszero\n      dup1\n      iszero\n      tag_128\n      jumpi\n      returndatasize\n      0x00\n      dup1\n      returndatacopy\n      revert(0x00, returndatasize)\n    tag_128:\n      pop\n      pop\n      pop\n      pop\n      mload(0x40)\n      returndatasize\n      0x20\n      dup2\n      lt\n      iszero\n      tag_129\n      jumpi\n      0x00\n      dup1\n      revert\n    tag_129:\n      dup2\n      add\n      swap1\n      dup1\n      dup1\n      mload\n      swap1\n      0x20\n      add\n      swap1\n      swap3\n      swap2\n      swap1\n      pop\n      pop\n      pop\n      pop\n        /* \"Staking/Staking.sol\":5145:5172  user.amount.sub(userAmount) */\n      tag_130\n        /* \"Staking/Staking.sol\":5161:5171  userAmount */\n      dup2\n        /* \"Staking/Staking.sol\":5145:5149  user */\n      dup6\n        /* \"Staking/Staking.sol\":5145:5156  user.amount */\n      0x05\n      add\n      sload\n        /* \"Staking/Staking.sol\":5145:5160  user.amount.sub */\n      tag_99\n      swap1\n        /* \"Staking/Staking.sol\":5145:5172  user.amount.sub(userAmount) */\n      swap2\n      swap1\n      0xffffffff\n      and\n      jump\t// in\n    tag_130:\n        /* \"Staking/Staking.sol\":5131:5135  user */\n      dup5\n        /* \"Staking/Staking.sol\":5131:5142  user.amount */\n      0x05\n      add\n        /* \"Staking/Staking.sol\":5131:5172  user.amount = user.amount.sub(userAmount) */\n      dup2\n      swap1\n      sstore\n      pop\n        /* \"Staking/Staking.sol\":5203:5204  0 */\n      0x00\n        /* \"Staking/Staking.sol\":5189:5193  user */\n      dup5\n        /* \"Staking/Staking.sol\":5189:5200  user.shares */\n      0x00\n      add\n      sload\n        /* \"Staking/Staking.sol\":5189:5204  user.shares > 0 */\n      gt\n        /* \"Staking/Staking.sol\":5185:5273  if (user.shares > 0)\r... */\n      iszero\n      tag_131\n      jumpi\n        /* \"Staking/Staking.sol\":5237:5273  decimalMul(user.amount, accPerShare) */\n      tag_132\n        /* \"Staking/Staking.sol\":5248:5252  user */\n      dup5\n        /* \"Staking/Staking.sol\":5248:5259  user.amount */\n      0x05\n      add\n      sload\n        /* \"Staking/Staking.sol\":5261:5272  accPerShare */\n      sload(0x03)\n        /* \"Staking/Staking.sol\":5237:5247  decimalMul */\n      tag_98\n        /* \"Staking/Staking.sol\":5237:5273  decimalMul(user.amount, accPerShare) */\n      jump\t// in\n    tag_132:\n        /* \"Staking/Staking.sol\":5219:5223  user */\n      dup5\n        /* \"Staking/Staking.sol\":5219:5234  user.rewardDebt */\n      0x03\n      add\n        /* \"Staking/Staking.sol\":5219:5273  user.rewardDebt = decimalMul(user.amount, accPerShare) */\n      dup2\n      swap1\n      sstore\n      pop\n        /* \"Staking/Staking.sol\":5185:5273  if (user.shares > 0)\r... */\n    tag_131:\n        /* \"Staking/Staking.sol\":5312:5327  block.timestamp */\n      timestamp\n        /* \"Staking/Staking.sol\":5286:5290  user */\n      dup5\n        /* \"Staking/Staking.sol\":5286:5309  user.lastUserActionTime */\n      0x02\n      add\n        /* \"Staking/Staking.sol\":5286:5327  user.lastUserActionTime = block.timestamp */\n      dup2\n      swap1\n      sstore\n      pop\n        /* \"Staking/Staking.sol\":5354:5364  msg.sender */\n      caller\n        /* \"Staking/Staking.sol\":5345:5390  Withdraw(msg.sender, withdrawAmount, _shares) */\n      0xffffffffffffffffffffffffffffffffffffffff\n      and\n      0xf279e6a1f5e320cca91135676d9cb6e44ca8a08c0b88342bcdb1144f6511b568\n        /* \"Staking/Staking.sol\":5366:5380  withdrawAmount */\n      dup4\n        /* \"Staking/Staking.sol\":5382:5389  _shares */\n      dup8\n        /* \"Staking/Staking.sol\":5345:5390  Withdraw(msg.sender, withdrawAmount, _shares) */\n      mload(0x40)\n      dup1\n      dup4\n      dup2\n      mstore\n      0x20\n      add\n      dup3\n      dup2\n      mstore\n      0x20\n      add\n      swap3\n      pop\n      pop\n      pop\n      mload(0x40)\n      dup1\n      swap2\n      sub\n      swap1\n      log2\n        /* \"Staking/Staking.sol\":3564:5398  function withdraw(uint256 _shares) public {\r... */\n      pop\n      pop\n      pop\n      pop\n      pop\n      jump\t// out\n        /* \"Staking/Staking.sol\":1298:1328  uint256 public totalShares = 0 */\n    tag_43:\n      sload(0x04)\n      dup2\n      jump\t// out\n        /* \"Staking/Staking.sol\":7121:7457  function myValue() public view returns (uint256) {\r... */\n    tag_45:\n        /* \"Staking/Staking.sol\":7161:7168  uint256 */\n      0x00\n        /* \"Staking/Staking.sol\":7181:7202  UserInfo storage user */\n      dup1\n        /* \"Staking/Staking.sol\":7205:7213  userInfo */\n      0x0c\n        /* \"Staking/Staking.sol\":7205:7225  userInfo[msg.sender] */\n      0x00\n        /* \"Staking/Staking.sol\":7214:7224  msg.sender */\n      caller\n        /* \"Staking/Staking.sol\":7205:7225  userInfo[msg.sender] */\n      0xffffffffffffffffffffffffffffffffffffffff\n      and\n      0xffffffffffffffffffffffffffffffffffffffff\n      and\n      dup2\n      mstore\n      0x20\n      add\n      swap1\n      dup2\n      mstore\n      0x20\n      add\n      0x00\n      keccak256\n        /* \"Staking/Staking.sol\":7181:7225  UserInfo storage user = userInfo[msg.sender] */\n      swap1\n      pop\n        /* \"Staking/Staking.sol\":7255:7256  0 */\n      0x00\n        /* \"Staking/Staking.sol\":7240:7244  user */\n      dup2\n        /* \"Staking/Staking.sol\":7240:7251  user.shares */\n      0x00\n      add\n      sload\n        /* \"Staking/Staking.sol\":7240:7256  user.shares == 0 */\n      eq\n        /* \"Staking/Staking.sol\":7236:7266  if (user.shares == 0) return 0 */\n      iszero\n      tag_134\n      jumpi\n        /* \"Staking/Staking.sol\":7265:7266  0 */\n      0x00\n        /* \"Staking/Staking.sol\":7258:7266  return 0 */\n      swap2\n      pop\n      pop\n      jump(tag_133)\n        /* \"Staking/Staking.sol\":7236:7266  if (user.shares == 0) return 0 */\n    tag_134:\n        /* \"Staking/Staking.sol\":7297:7449  decimalMul(user.amount, this.computePer())\r... */\n      tag_135\n        /* \"Staking/Staking.sol\":7437:7441  user */\n      dup2\n        /* \"Staking/Staking.sol\":7437:7448  user.amount */\n      0x05\n      add\n      sload\n        /* \"Staking/Staking.sol\":7297:7414  decimalMul(user.amount, this.computePer())\r... */\n      tag_136\n        /* \"Staking/Staking.sol\":7401:7405  user */\n      dup4\n        /* \"Staking/Staking.sol\":7401:7413  user.rewards */\n      0x04\n      add\n      sload\n        /* \"Staking/Staking.sol\":7297:7378  decimalMul(user.amount, this.computePer())\r... */\n      tag_137\n        /* \"Staking/Staking.sol\":7362:7366  user */\n      dup6\n        /* \"Staking/Staking.sol\":7362:7377  user.rewardDebt */\n      0x03\n      add\n      sload\n        /* \"Staking/Staking.sol\":7297:7339  decimalMul(user.amount, this.computePer()) */\n      tag_138\n        /* \"Staking/Staking.sol\":7308:7312  user */\n      dup8\n        /* \"Staking/Staking.sol\":7308:7319  user.amount */\n      0x05\n      add\n      sload\n        /* \"Staking/Staking.sol\":7321:7325  this */\n      address\n        /* \"Staking/Staking.sol\":7321:7336  this.computePer */\n      0xffffffffffffffffffffffffffffffffffffffff\n      and\n      0x6e5b9634\n        /* \"Staking/Staking.sol\":7321:7338  this.computePer() */\n      mload(0x40)\n      dup2\n      0xffffffff\n      and\n      0xe0\n      shl\n      dup2\n      mstore\n      0x04\n      add\n      0x20\n      mload(0x40)\n      dup1\n      dup4\n      sub\n      dup2\n      dup7\n      dup1\n      extcodesize\n      iszero\n      dup1\n      iszero\n      tag_139\n      jumpi\n      0x00\n      dup1\n      revert\n    tag_139:\n      pop\n      gas\n      staticcall\n      iszero\n      dup1\n      iszero\n      tag_141\n      jumpi\n      returndatasize\n      0x00\n      dup1\n      returndatacopy\n      revert(0x00, returndatasize)\n    tag_141:\n      pop\n      pop\n      pop\n      pop\n      mload(0x40)\n      returndatasize\n      0x20\n      dup2\n      lt\n      iszero\n      tag_142\n      jumpi\n      0x00\n      dup1\n      revert\n    tag_142:\n      dup2\n      add\n      swap1\n      dup1\n      dup1\n      mload\n      swap1\n      0x20\n      add\n      swap1\n      swap3\n      swap2\n      swap1\n      pop\n      pop\n      pop\n        /* \"Staking/Staking.sol\":7297:7307  decimalMul */\n      tag_98\n        /* \"Staking/Staking.sol\":7297:7339  decimalMul(user.amount, this.computePer()) */\n      jump\t// in\n    tag_138:\n        /* \"Staking/Staking.sol\":7297:7361  decimalMul(user.amount, this.computePer())\r... */\n      tag_99\n      swap1\n        /* \"Staking/Staking.sol\":7297:7378  decimalMul(user.amount, this.computePer())\r... */\n      swap2\n      swap1\n      0xffffffff\n      and\n      jump\t// in\n    tag_137:\n        /* \"Staking/Staking.sol\":7297:7400  decimalMul(user.amount, this.computePer())\r... */\n      tag_100\n      swap1\n        /* \"Staking/Staking.sol\":7297:7414  decimalMul(user.amount, this.computePer())\r... */\n      swap2\n      swap1\n      0xffffffff\n      and\n      jump\t// in\n    tag_136:\n        /* \"Staking/Staking.sol\":7297:7436  decimalMul(user.amount, this.computePer())\r... */\n      tag_100\n      swap1\n        /* \"Staking/Staking.sol\":7297:7449  decimalMul(user.amount, this.computePer())\r... */\n      swap2\n      swap1\n      0xffffffff\n      and\n      jump\t// in\n    tag_135:\n        /* \"Staking/Staking.sol\":7277:7449  return\r... */\n      swap2\n      pop\n      pop\n        /* \"Staking/Staking.sol\":7121:7457  function myValue() public view returns (uint256) {\r... */\n    tag_133:\n      swap1\n      jump\t// out\n        /* \"Staking/Staking.sol\":7671:7749  function getTime() public view returns (uint256) {\r... */\n    tag_47:\n        /* \"Staking/Staking.sol\":7711:7718  uint256 */\n      0x00\n        /* \"Staking/Staking.sol\":7738:7741  now */\n      timestamp\n        /* \"Staking/Staking.sol\":7731:7741  return now */\n      swap1\n      pop\n        /* \"Staking/Staking.sol\":7671:7749  function getTime() public view returns (uint256) {\r... */\n      swap1\n      jump\t// out\n        /* \"Staking/Staking.sol\":1577:1612  uint256 public stakingStartTime = 0 */\n    tag_49:\n      sload(0x09)\n      dup2\n      jump\t// out\n        /* \"Staking/Staking.sol\":6600:6759  function computePer() external view returns (uint256) {\r... */\n    tag_51:\n        /* \"Staking/Staking.sol\":6645:6652  uint256 */\n      0x00\n        /* \"Staking/Staking.sol\":6685:6751  accPerShare.add(divFloor(this.pendingCoin(), this.totalDeposit())) */\n      tag_145\n        /* \"Staking/Staking.sol\":6701:6750  divFloor(this.pendingCoin(), this.totalDeposit()) */\n      tag_146\n        /* \"Staking/Staking.sol\":6710:6714  this */\n      address\n        /* \"Staking/Staking.sol\":6710:6726  this.pendingCoin */\n      0xffffffffffffffffffffffffffffffffffffffff\n      and\n      0xfc3e532b\n        /* \"Staking/Staking.sol\":6710:6728  this.pendingCoin() */\n      mload(0x40)\n      dup2\n      0xffffffff\n      and\n      0xe0\n      shl\n      dup2\n      mstore\n      0x04\n      add\n      0x20\n      mload(0x40)\n      dup1\n      dup4\n      sub\n      dup2\n      dup7\n      dup1\n      extcodesize\n      iszero\n      dup1\n      iszero\n      tag_147\n      jumpi\n      0x00\n      dup1\n      revert\n    tag_147:\n      pop\n      gas\n      staticcall\n      iszero\n      dup1\n      iszero\n      tag_149\n      jumpi\n      returndatasize\n      0x00\n      dup1\n      returndatacopy\n      revert(0x00, returndatasize)\n    tag_149:\n      pop\n      pop\n      pop\n      pop\n      mload(0x40)\n      returndatasize\n      0x20\n      dup2\n      lt\n      iszero\n      tag_150\n      jumpi\n      0x00\n      dup1\n      revert\n    tag_150:\n      dup2\n      add\n      swap1\n      dup1\n      dup1\n      mload\n      swap1\n      0x20\n      add\n      swap1\n      swap3\n      swap2\n      swap1\n      pop\n      pop\n      pop\n        /* \"Staking/Staking.sol\":6730:6734  this */\n      address\n        /* \"Staking/Staking.sol\":6730:6747  this.totalDeposit */\n      0xffffffffffffffffffffffffffffffffffffffff\n      and\n      0xf6153ccd\n        /* \"Staking/Staking.sol\":6730:6749  this.totalDeposit() */\n      mload(0x40)\n      dup2\n      0xffffffff\n      and\n      0xe0\n      shl\n      dup2\n      mstore\n      0x04\n      add\n      0x20\n      mload(0x40)\n      dup1\n      dup4\n      sub\n      dup2\n      dup7\n      dup1\n      extcodesize\n      iszero\n      dup1\n      iszero\n      tag_151\n      jumpi\n      0x00\n      dup1\n      revert\n    tag_151:\n      pop\n      gas\n      staticcall\n      iszero\n      dup1\n      iszero\n      tag_153\n      jumpi\n      returndatasize\n      0x00\n      dup1\n      returndatacopy\n      revert(0x00, returndatasize)\n    tag_153:\n      pop\n      pop\n      pop\n      pop\n      mload(0x40)\n      returndatasize\n      0x20\n      dup2\n      lt\n      iszero\n      tag_154\n      jumpi\n      0x00\n      dup1\n      revert\n    tag_154:\n      dup2\n      add\n      swap1\n      dup1\n      dup1\n      mload\n      swap1\n      0x20\n      add\n      swap1\n      swap3\n      swap2\n      swap1\n      pop\n      pop\n      pop\n        /* \"Staking/Staking.sol\":6701:6709  divFloor */\n      tag_155\n        /* \"Staking/Staking.sol\":6701:6750  divFloor(this.pendingCoin(), this.totalDeposit()) */\n      jump\t// in\n    tag_146:\n        /* \"Staking/Staking.sol\":6685:6696  accPerShare */\n      sload(0x03)\n        /* \"Staking/Staking.sol\":6685:6700  accPerShare.add */\n      tag_100\n      swap1\n        /* \"Staking/Staking.sol\":6685:6751  accPerShare.add(divFloor(this.pendingCoin(), this.totalDeposit())) */\n      swap2\n      swap1\n      0xffffffff\n      and\n      jump\t// in\n    tag_145:\n        /* \"Staking/Staking.sol\":6665:6751  return\r... */\n      swap1\n      pop\n        /* \"Staking/Staking.sol\":6600:6759  function computePer() external view returns (uint256) {\r... */\n      swap1\n      jump\t// out\n        /* \"Staking/Staking.sol\":7465:7636  function sharesPrice() public view returns (uint256) {\r... */\n    tag_53:\n        /* \"Staking/Staking.sol\":7509:7516  uint256 */\n      0x00\n        /* \"Staking/Staking.sol\":7548:7549  0 */\n      dup1\n        /* \"Staking/Staking.sol\":7533:7544  totalShares */\n      sload(0x04)\n        /* \"Staking/Staking.sol\":7533:7549  totalShares == 0 */\n      eq\n        /* \"Staking/Staking.sol\":7529:7559  if (totalShares == 0) return 0 */\n      iszero\n      tag_157\n      jumpi\n        /* \"Staking/Staking.sol\":7558:7559  0 */\n      0x00\n        /* \"Staking/Staking.sol\":7551:7559  return 0 */\n      swap1\n      pop\n      jump(tag_156)\n        /* \"Staking/Staking.sol\":7529:7559  if (totalShares == 0) return 0 */\n    tag_157:\n        /* \"Staking/Staking.sol\":7577:7628  totalShares.mul(this.computePer()).div(totalShares) */\n      tag_158\n        /* \"Staking/Staking.sol\":7616:7627  totalShares */\n      sload(0x04)\n        /* \"Staking/Staking.sol\":7577:7611  totalShares.mul(this.computePer()) */\n      tag_159\n        /* \"Staking/Staking.sol\":7593:7597  this */\n      address\n        /* \"Staking/Staking.sol\":7593:7608  this.computePer */\n      0xffffffffffffffffffffffffffffffffffffffff\n      and\n      0x6e5b9634\n        /* \"Staking/Staking.sol\":7593:7610  this.computePer() */\n      mload(0x40)\n      dup2\n      0xffffffff\n      and\n      0xe0\n      shl\n      dup2\n      mstore\n      0x04\n      add\n      0x20\n      mload(0x40)\n      dup1\n      dup4\n      sub\n      dup2\n      dup7\n      dup1\n      extcodesize\n      iszero\n      dup1\n      iszero\n      tag_160\n      jumpi\n      0x00\n      dup1\n      revert\n    tag_160:\n      pop\n      gas\n      staticcall\n      iszero\n      dup1\n      iszero\n      tag_162\n      jumpi\n      returndatasize\n      0x00\n      dup1\n      returndatacopy\n      revert(0x00, returndatasize)\n    tag_162:\n      pop\n      pop\n      pop\n      pop\n      mload(0x40)\n      returndatasize\n      0x20\n      dup2\n      lt\n      iszero\n      tag_163\n      jumpi\n      0x00\n      dup1\n      revert\n    tag_163:\n      dup2\n      add\n      swap1\n      dup1\n      dup1\n      mload\n      swap1\n      0x20\n      add\n      swap1\n      swap3\n      swap2\n      swap1\n      pop\n      pop\n      pop\n        /* \"Staking/Staking.sol\":7577:7588  totalShares */\n      sload(0x04)\n        /* \"Staking/Staking.sol\":7577:7592  totalShares.mul */\n      tag_103\n      swap1\n        /* \"Staking/Staking.sol\":7577:7611  totalShares.mul(this.computePer()) */\n      swap2\n      swap1\n      0xffffffff\n      and\n      jump\t// in\n    tag_159:\n        /* \"Staking/Staking.sol\":7577:7615  totalShares.mul(this.computePer()).div */\n      tag_104\n      swap1\n        /* \"Staking/Staking.sol\":7577:7628  totalShares.mul(this.computePer()).div(totalShares) */\n      swap2\n      swap1\n      0xffffffff\n      and\n      jump\t// in\n    tag_158:\n        /* \"Staking/Staking.sol\":7570:7628  return totalShares.mul(this.computePer()).div(totalShares) */\n      swap1\n      pop\n        /* \"Staking/Staking.sol\":7465:7636  function sharesPrice() public view returns (uint256) {\r... */\n    tag_156:\n      swap1\n      jump\t// out\n        /* \"Staking/Staking.sol\":8958:9240  function setStakingSwitch(bool flag) public {\r... */\n    tag_56:\n        /* \"Staking/Staking.sol\":9031:9036  owner */\n      0x02\n      0x00\n      swap1\n      sload\n      swap1\n      0x0100\n      exp\n      swap1\n      div\n      0xffffffffffffffffffffffffffffffffffffffff\n      and\n        /* \"Staking/Staking.sol\":9017:9036  msg.sender == owner */\n      0xffffffffffffffffffffffffffffffffffffffff\n      and\n        /* \"Staking/Staking.sol\":9017:9027  msg.sender */\n      caller\n        /* \"Staking/Staking.sol\":9017:9036  msg.sender == owner */\n      0xffffffffffffffffffffffffffffffffffffffff\n      and\n      eq\n        /* \"Staking/Staking.sol\":9013:9233  if (msg.sender == owner) {\r... */\n      iszero\n      tag_165\n      jumpi\n        /* \"Staking/Staking.sol\":9057:9061  flag */\n      dup1\n        /* \"Staking/Staking.sol\":9053:9187  if (flag) {\r... */\n      iszero\n      tag_166\n      jumpi\n        /* \"Staking/Staking.sol\":9101:9110  getTime() */\n      tag_167\n        /* \"Staking/Staking.sol\":9101:9108  getTime */\n      tag_47\n        /* \"Staking/Staking.sol\":9101:9110  getTime() */\n      jump\t// in\n    tag_167:\n        /* \"Staking/Staking.sol\":9082:9098  stakingStartTime */\n      0x09\n        /* \"Staking/Staking.sol\":9082:9110  stakingStartTime = getTime() */\n      dup2\n      swap1\n      sstore\n      pop\n        /* \"Staking/Staking.sol\":9053:9187  if (flag) {\r... */\n      jump(tag_168)\n    tag_166:\n        /* \"Staking/Staking.sol\":9170:9171  0 */\n      0x00\n        /* \"Staking/Staking.sol\":9151:9167  stakingStartTime */\n      0x09\n        /* \"Staking/Staking.sol\":9151:9171  stakingStartTime = 0 */\n      dup2\n      swap1\n      sstore\n      pop\n        /* \"Staking/Staking.sol\":9053:9187  if (flag) {\r... */\n    tag_168:\n        /* \"Staking/Staking.sol\":9217:9221  flag */\n      dup1\n        /* \"Staking/Staking.sol\":9201:9214  stakingSwitch */\n      0x0a\n      0x00\n        /* \"Staking/Staking.sol\":9201:9221  stakingSwitch = flag */\n      0x0100\n      exp\n      dup2\n      sload\n      dup2\n      0xff\n      mul\n      not\n      and\n      swap1\n      dup4\n      iszero\n      iszero\n      mul\n      or\n      swap1\n      sstore\n      pop\n        /* \"Staking/Staking.sol\":9013:9233  if (msg.sender == owner) {\r... */\n    tag_165:\n        /* \"Staking/Staking.sol\":8958:9240  function setStakingSwitch(bool flag) public {\r... */\n      pop\n      jump\t// out\n        /* \"Staking/Staking.sol\":824:844  address public owner */\n    tag_58:\n      0x02\n      0x00\n      swap1\n      sload\n      swap1\n      0x0100\n      exp\n      swap1\n      div\n      0xffffffffffffffffffffffffffffffffffffffff\n      and\n      dup2\n      jump\t// out\n        /* \"Staking/Staking.sol\":6767:7113  function myBenefits() public view returns (uint256) {\r... */\n    tag_60:\n        /* \"Staking/Staking.sol\":6810:6817  uint256 */\n      0x00\n        /* \"Staking/Staking.sol\":6830:6851  UserInfo storage user */\n      dup1\n        /* \"Staking/Staking.sol\":6854:6862  userInfo */\n      0x0c\n        /* \"Staking/Staking.sol\":6854:6874  userInfo[msg.sender] */\n      0x00\n        /* \"Staking/Staking.sol\":6863:6873  msg.sender */\n      caller\n        /* \"Staking/Staking.sol\":6854:6874  userInfo[msg.sender] */\n      0xffffffffffffffffffffffffffffffffffffffff\n      and\n      0xffffffffffffffffffffffffffffffffffffffff\n      and\n      dup2\n      mstore\n      0x20\n      add\n      swap1\n      dup2\n      mstore\n      0x20\n      add\n      0x00\n      keccak256\n        /* \"Staking/Staking.sol\":6830:6874  UserInfo storage user = userInfo[msg.sender] */\n      swap1\n      pop\n        /* \"Staking/Staking.sol\":6904:6905  0 */\n      0x00\n        /* \"Staking/Staking.sol\":6889:6893  user */\n      dup2\n        /* \"Staking/Staking.sol\":6889:6900  user.shares */\n      0x00\n      add\n      sload\n        /* \"Staking/Staking.sol\":6889:6905  user.shares == 0 */\n      eq\n        /* \"Staking/Staking.sol\":6885:6942  if (user.shares == 0) {\r... */\n      iszero\n      tag_170\n      jumpi\n        /* \"Staking/Staking.sol\":6929:6930  0 */\n      0x00\n        /* \"Staking/Staking.sol\":6922:6930  return 0 */\n      swap2\n      pop\n      pop\n      jump(tag_169)\n        /* \"Staking/Staking.sol\":6885:6942  if (user.shares == 0) {\r... */\n    tag_170:\n        /* \"Staking/Staking.sol\":6954:6965  uint256 ben */\n      0x00\n        /* \"Staking/Staking.sol\":6968:7010  decimalMul(user.amount, this.computePer()) */\n      tag_171\n        /* \"Staking/Staking.sol\":6979:6983  user */\n      dup3\n        /* \"Staking/Staking.sol\":6979:6990  user.amount */\n      0x05\n      add\n      sload\n        /* \"Staking/Staking.sol\":6992:6996  this */\n      address\n        /* \"Staking/Staking.sol\":6992:7007  this.computePer */\n      0xffffffffffffffffffffffffffffffffffffffff\n      and\n      0x6e5b9634\n        /* \"Staking/Staking.sol\":6992:7009  this.computePer() */\n      mload(0x40)\n      dup2\n      0xffffffff\n      and\n      0xe0\n      shl\n      dup2\n      mstore\n      0x04\n      add\n      0x20\n      mload(0x40)\n      dup1\n      dup4\n      sub\n      dup2\n      dup7\n      dup1\n      extcodesize\n      iszero\n      dup1\n      iszero\n      tag_172\n      jumpi\n      0x00\n      dup1\n      revert\n    tag_172:\n      pop\n      gas\n      staticcall\n      iszero\n      dup1\n      iszero\n      tag_174\n      jumpi\n      returndatasize\n      0x00\n      dup1\n      returndatacopy\n      revert(0x00, returndatasize)\n    tag_174:\n      pop\n      pop\n      pop\n      pop\n      mload(0x40)\n      returndatasize\n      0x20\n      dup2\n      lt\n      iszero\n      tag_175\n      jumpi\n      0x00\n      dup1\n      revert\n    tag_175:\n      dup2\n      add\n      swap1\n      dup1\n      dup1\n      mload\n      swap1\n      0x20\n      add\n      swap1\n      swap3\n      swap2\n      swap1\n      pop\n      pop\n      pop\n        /* \"Staking/Staking.sol\":6968:6978  decimalMul */\n      tag_98\n        /* \"Staking/Staking.sol\":6968:7010  decimalMul(user.amount, this.computePer()) */\n      jump\t// in\n    tag_171:\n        /* \"Staking/Staking.sol\":6954:7010  uint256 ben = decimalMul(user.amount, this.computePer()) */\n      swap1\n      pop\n        /* \"Staking/Staking.sol\":7033:7037  user */\n      dup2\n        /* \"Staking/Staking.sol\":7033:7048  user.rewardDebt */\n      0x03\n      add\n      sload\n        /* \"Staking/Staking.sol\":7027:7030  ben */\n      dup2\n        /* \"Staking/Staking.sol\":7027:7048  ben > user.rewardDebt */\n      gt\n        /* \"Staking/Staking.sol\":7023:7105  if (ben > user.rewardDebt) return ben.sub(user.rewardDebt);\r... */\n      iszero\n      tag_176\n      jumpi\n        /* \"Staking/Staking.sol\":7057:7081  ben.sub(user.rewardDebt) */\n      tag_177\n        /* \"Staking/Staking.sol\":7065:7069  user */\n      dup3\n        /* \"Staking/Staking.sol\":7065:7080  user.rewardDebt */\n      0x03\n      add\n      sload\n        /* \"Staking/Staking.sol\":7057:7060  ben */\n      dup3\n        /* \"Staking/Staking.sol\":7057:7064  ben.sub */\n      tag_99\n      swap1\n        /* \"Staking/Staking.sol\":7057:7081  ben.sub(user.rewardDebt) */\n      swap2\n      swap1\n      0xffffffff\n      and\n      jump\t// in\n    tag_177:\n        /* \"Staking/Staking.sol\":7050:7081  return ben.sub(user.rewardDebt) */\n      swap3\n      pop\n      pop\n      pop\n      jump(tag_169)\n        /* \"Staking/Staking.sol\":7023:7105  if (ben > user.rewardDebt) return ben.sub(user.rewardDebt);\r... */\n    tag_176:\n        /* \"Staking/Staking.sol\":7104:7105  0 */\n      0x00\n        /* \"Staking/Staking.sol\":7097:7105  return 0 */\n      swap3\n      pop\n      pop\n      pop\n        /* \"Staking/Staking.sol\":6767:7113  function myBenefits() public view returns (uint256) {\r... */\n    tag_169:\n      swap1\n      jump\t// out\n        /* \"Staking/Staking.sol\":2334:3556  function deposit(uint256 _amount) public {\r... */\n    tag_63:\n        /* \"Staking/Staking.sol\":2404:2405  0 */\n      0x00\n        /* \"Staking/Staking.sol\":2394:2401  _amount */\n      dup2\n        /* \"Staking/Staking.sol\":2394:2405  _amount > 0 */\n      gt\n        /* \"Staking/Staking.sol\":2386:2428  require(_amount > 0, \"Nothing to deposit\") */\n      tag_180\n      jumpi\n      mload(0x40)\n      0x08c379a000000000000000000000000000000000000000000000000000000000\n      dup2\n      mstore\n      0x04\n      add\n      dup1\n      dup1\n      0x20\n      add\n      dup3\n      dup2\n      sub\n      dup3\n      mstore\n      0x12\n      dup2\n      mstore\n      0x20\n      add\n      dup1\n      0x4e6f7468696e6720746f206465706f7369740000000000000000000000000000\n      dup2\n      mstore\n      pop\n      0x20\n      add\n      swap2\n      pop\n      pop\n      mload(0x40)\n      dup1\n      swap2\n      sub\n      swap1\n      revert\n    tag_180:\n        /* \"Staking/Staking.sol\":2441:2453  updatePool() */\n      tag_181\n        /* \"Staking/Staking.sol\":2441:2451  updatePool */\n      tag_77\n        /* \"Staking/Staking.sol\":2441:2453  updatePool() */\n      jump\t// in\n    tag_181:\n        /* \"Staking/Staking.sol\":2464:2485  UserInfo storage user */\n      0x00\n        /* \"Staking/Staking.sol\":2488:2496  userInfo */\n      0x0c\n        /* \"Staking/Staking.sol\":2488:2508  userInfo[msg.sender] */\n      0x00\n        /* \"Staking/Staking.sol\":2497:2507  msg.sender */\n      caller\n        /* \"Staking/Staking.sol\":2488:2508  userInfo[msg.sender] */\n      0xffffffffffffffffffffffffffffffffffffffff\n      and\n      0xffffffffffffffffffffffffffffffffffffffff\n      and\n      dup2\n      mstore\n      0x20\n      add\n      swap1\n      dup2\n      mstore\n      0x20\n      add\n      0x00\n      keccak256\n        /* \"Staking/Staking.sol\":2464:2508  UserInfo storage user = userInfo[msg.sender] */\n      swap1\n      pop\n        /* \"Staking/Staking.sol\":2539:2540  0 */\n      0x00\n        /* \"Staking/Staking.sol\":2525:2529  user */\n      dup2\n        /* \"Staking/Staking.sol\":2525:2536  user.amount */\n      0x05\n      add\n      sload\n        /* \"Staking/Staking.sol\":2525:2540  user.amount > 0 */\n      gt\n        /* \"Staking/Staking.sol\":2521:2808  if (user.amount > 0) {\r... */\n      iszero\n      tag_182\n      jumpi\n        /* \"Staking/Staking.sol\":2557:2572  uint256 pending */\n      0x00\n        /* \"Staking/Staking.sol\":2575:2664  decimalMul(user.amount, accPerShare).sub(\r... */\n      tag_183\n        /* \"Staking/Staking.sol\":2634:2638  user */\n      dup3\n        /* \"Staking/Staking.sol\":2634:2649  user.rewardDebt */\n      0x03\n      add\n      sload\n        /* \"Staking/Staking.sol\":2575:2611  decimalMul(user.amount, accPerShare) */\n      tag_184\n        /* \"Staking/Staking.sol\":2586:2590  user */\n      dup5\n        /* \"Staking/Staking.sol\":2586:2597  user.amount */\n      0x05\n      add\n      sload\n        /* \"Staking/Staking.sol\":2599:2610  accPerShare */\n      sload(0x03)\n        /* \"Staking/Staking.sol\":2575:2585  decimalMul */\n      tag_98\n        /* \"Staking/Staking.sol\":2575:2611  decimalMul(user.amount, accPerShare) */\n      jump\t// in\n    tag_184:\n        /* \"Staking/Staking.sol\":2575:2615  decimalMul(user.amount, accPerShare).sub */\n      tag_99\n      swap1\n        /* \"Staking/Staking.sol\":2575:2664  decimalMul(user.amount, accPerShare).sub(\r... */\n      swap2\n      swap1\n      0xffffffff\n      and\n      jump\t// in\n    tag_183:\n        /* \"Staking/Staking.sol\":2557:2664  uint256 pending = decimalMul(user.amount, accPerShare).sub(\r... */\n      swap1\n      pop\n        /* \"Staking/Staking.sol\":2749:2774  user.rewards.add(pending) */\n      tag_185\n        /* \"Staking/Staking.sol\":2766:2773  pending */\n      dup2\n        /* \"Staking/Staking.sol\":2749:2753  user */\n      dup4\n        /* \"Staking/Staking.sol\":2749:2761  user.rewards */\n      0x04\n      add\n      sload\n        /* \"Staking/Staking.sol\":2749:2765  user.rewards.add */\n      tag_100\n      swap1\n        /* \"Staking/Staking.sol\":2749:2774  user.rewards.add(pending) */\n      swap2\n      swap1\n      0xffffffff\n      and\n      jump\t// in\n    tag_185:\n        /* \"Staking/Staking.sol\":2734:2738  user */\n      dup3\n        /* \"Staking/Staking.sol\":2734:2746  user.rewards */\n      0x04\n      add\n        /* \"Staking/Staking.sol\":2734:2774  user.rewards = user.rewards.add(pending) */\n      dup2\n      swap1\n      sstore\n      pop\n        /* \"Staking/Staking.sol\":2521:2808  if (user.amount > 0) {\r... */\n      pop\n      jump(tag_186)\n    tag_182:\n        /* \"Staking/Staking.sol\":2807:2808  0 */\n      0x00\n        /* \"Staking/Staking.sol\":2792:2796  user */\n      dup2\n        /* \"Staking/Staking.sol\":2792:2804  user.rewards */\n      0x04\n      add\n        /* \"Staking/Staking.sol\":2792:2808  user.rewards = 0 */\n      dup2\n      swap1\n      sstore\n      pop\n        /* \"Staking/Staking.sol\":2521:2808  if (user.amount > 0) {\r... */\n    tag_186:\n        /* \"Staking/Staking.sol\":2821:2826  poker */\n      0x00\n      dup1\n      sload\n      swap1\n      0x0100\n      exp\n      swap1\n      div\n      0xffffffffffffffffffffffffffffffffffffffff\n      and\n        /* \"Staking/Staking.sol\":2821:2839  poker.transferFrom */\n      0xffffffffffffffffffffffffffffffffffffffff\n      and\n      0x23b872dd\n        /* \"Staking/Staking.sol\":2840:2850  msg.sender */\n      caller\n        /* \"Staking/Staking.sol\":2860:2864  this */\n      address\n        /* \"Staking/Staking.sol\":2867:2874  _amount */\n      dup6\n        /* \"Staking/Staking.sol\":2821:2875  poker.transferFrom(msg.sender, address(this), _amount) */\n      mload(0x40)\n      dup5\n      0xffffffff\n      and\n      0xe0\n      shl\n      dup2\n      mstore\n      0x04\n      add\n      dup1\n      dup5\n      0xffffffffffffffffffffffffffffffffffffffff\n      and\n      dup2\n      mstore\n      0x20\n      add\n      dup4\n      0xffffffffffffffffffffffffffffffffffffffff\n      and\n      dup2\n      mstore\n      0x20\n      add\n      dup3\n      dup2\n      mstore\n      0x20\n      add\n      swap4\n      pop\n      pop\n      pop\n      pop\n      0x20\n      mload(0x40)\n      dup1\n      dup4\n      sub\n      dup2\n      0x00\n      dup8\n      dup1\n      extcodesize\n      iszero\n      dup1\n      iszero\n      tag_187\n      jumpi\n      0x00\n      dup1\n      revert\n    tag_187:\n      pop\n      gas\n      call\n      iszero\n      dup1\n      iszero\n      tag_189\n      jumpi\n      returndatasize\n      0x00\n      dup1\n      returndatacopy\n      revert(0x00, returndatasize)\n    tag_189:\n      pop\n      pop\n      pop\n      pop\n      mload(0x40)\n      returndatasize\n      0x20\n      dup2\n      lt\n      iszero\n      tag_190\n      jumpi\n      0x00\n      dup1\n      revert\n    tag_190:\n      dup2\n      add\n      swap1\n      dup1\n      dup1\n      mload\n      swap1\n      0x20\n      add\n      swap1\n      swap3\n      swap2\n      swap1\n      pop\n      pop\n      pop\n      pop\n        /* \"Staking/Staking.sol\":2888:2909  uint256 currentShares */\n      0x00\n        /* \"Staking/Staking.sol\":2912:2935  _amount.mul(getEther()) */\n      tag_191\n        /* \"Staking/Staking.sol\":2924:2934  getEther() */\n      tag_192\n        /* \"Staking/Staking.sol\":2924:2932  getEther */\n      tag_73\n        /* \"Staking/Staking.sol\":2924:2934  getEther() */\n      jump\t// in\n    tag_192:\n        /* \"Staking/Staking.sol\":2912:2919  _amount */\n      dup5\n        /* \"Staking/Staking.sol\":2912:2923  _amount.mul */\n      tag_103\n      swap1\n        /* \"Staking/Staking.sol\":2912:2935  _amount.mul(getEther()) */\n      swap2\n      swap1\n      0xffffffff\n      and\n      jump\t// in\n    tag_191:\n        /* \"Staking/Staking.sol\":2888:2935  uint256 currentShares = _amount.mul(getEther()) */\n      swap1\n      pop\n        /* \"Staking/Staking.sol\":3176:3206  user.shares.add(currentShares) */\n      tag_193\n        /* \"Staking/Staking.sol\":3192:3205  currentShares */\n      dup2\n        /* \"Staking/Staking.sol\":3176:3180  user */\n      dup4\n        /* \"Staking/Staking.sol\":3176:3187  user.shares */\n      0x00\n      add\n      sload\n        /* \"Staking/Staking.sol\":3176:3191  user.shares.add */\n      tag_100\n      swap1\n        /* \"Staking/Staking.sol\":3176:3206  user.shares.add(currentShares) */\n      swap2\n      swap1\n      0xffffffff\n      and\n      jump\t// in\n    tag_193:\n        /* \"Staking/Staking.sol\":3162:3166  user */\n      dup3\n        /* \"Staking/Staking.sol\":3162:3173  user.shares */\n      0x00\n      add\n        /* \"Staking/Staking.sol\":3162:3206  user.shares = user.shares.add(currentShares) */\n      dup2\n      swap1\n      sstore\n      pop\n        /* \"Staking/Staking.sol\":3231:3261  totalShares.add(currentShares) */\n      tag_194\n        /* \"Staking/Staking.sol\":3247:3260  currentShares */\n      dup2\n        /* \"Staking/Staking.sol\":3231:3242  totalShares */\n      sload(0x04)\n        /* \"Staking/Staking.sol\":3231:3246  totalShares.add */\n      tag_100\n      swap1\n        /* \"Staking/Staking.sol\":3231:3261  totalShares.add(currentShares) */\n      swap2\n      swap1\n      0xffffffff\n      and\n      jump\t// in\n    tag_194:\n        /* \"Staking/Staking.sol\":3217:3228  totalShares */\n      0x04\n        /* \"Staking/Staking.sol\":3217:3261  totalShares = totalShares.add(currentShares) */\n      dup2\n      swap1\n      sstore\n      pop\n        /* \"Staking/Staking.sol\":3288:3312  user.amount.add(_amount) */\n      tag_195\n        /* \"Staking/Staking.sol\":3304:3311  _amount */\n      dup4\n        /* \"Staking/Staking.sol\":3288:3292  user */\n      dup4\n        /* \"Staking/Staking.sol\":3288:3299  user.amount */\n      0x05\n      add\n      sload\n        /* \"Staking/Staking.sol\":3288:3303  user.amount.add */\n      tag_100\n      swap1\n        /* \"Staking/Staking.sol\":3288:3312  user.amount.add(_amount) */\n      swap2\n      swap1\n      0xffffffff\n      and\n      jump\t// in\n    tag_195:\n        /* \"Staking/Staking.sol\":3274:3278  user */\n      dup3\n        /* \"Staking/Staking.sol\":3274:3285  user.amount */\n      0x05\n      add\n        /* \"Staking/Staking.sol\":3274:3312  user.amount = user.amount.add(_amount) */\n      dup2\n      swap1\n      sstore\n      pop\n        /* \"Staking/Staking.sol\":3341:3377  decimalMul(user.amount, accPerShare) */\n      tag_196\n        /* \"Staking/Staking.sol\":3352:3356  user */\n      dup3\n        /* \"Staking/Staking.sol\":3352:3363  user.amount */\n      0x05\n      add\n      sload\n        /* \"Staking/Staking.sol\":3365:3376  accPerShare */\n      sload(0x03)\n        /* \"Staking/Staking.sol\":3341:3351  decimalMul */\n      tag_98\n        /* \"Staking/Staking.sol\":3341:3377  decimalMul(user.amount, accPerShare) */\n      jump\t// in\n    tag_196:\n        /* \"Staking/Staking.sol\":3323:3327  user */\n      dup3\n        /* \"Staking/Staking.sol\":3323:3338  user.rewardDebt */\n      0x03\n      add\n        /* \"Staking/Staking.sol\":3323:3377  user.rewardDebt = decimalMul(user.amount, accPerShare) */\n      dup2\n      swap1\n      sstore\n      pop\n        /* \"Staking/Staking.sol\":3416:3425  getTime() */\n      tag_197\n        /* \"Staking/Staking.sol\":3416:3423  getTime */\n      tag_47\n        /* \"Staking/Staking.sol\":3416:3425  getTime() */\n      jump\t// in\n    tag_197:\n        /* \"Staking/Staking.sol\":3390:3394  user */\n      dup3\n        /* \"Staking/Staking.sol\":3390:3413  user.lastUserActionTime */\n      0x02\n      add\n        /* \"Staking/Staking.sol\":3390:3425  user.lastUserActionTime = getTime() */\n      dup2\n      swap1\n      sstore\n      pop\n        /* \"Staking/Staking.sol\":3461:3470  getTime() */\n      tag_198\n        /* \"Staking/Staking.sol\":3461:3468  getTime */\n      tag_47\n        /* \"Staking/Staking.sol\":3461:3470  getTime() */\n      jump\t// in\n    tag_198:\n        /* \"Staking/Staking.sol\":3436:3440  user */\n      dup3\n        /* \"Staking/Staking.sol\":3436:3458  user.lastDepositedTime */\n      0x01\n      add\n        /* \"Staking/Staking.sol\":3436:3470  user.lastDepositedTime = getTime() */\n      dup2\n      swap1\n      sstore\n      pop\n        /* \"Staking/Staking.sol\":3496:3506  msg.sender */\n      caller\n        /* \"Staking/Staking.sol\":3488:3548  Deposit(msg.sender, _amount, currentShares, block.timestamp) */\n      0xffffffffffffffffffffffffffffffffffffffff\n      and\n      0x36af321ec8d3c75236829c5317affd40ddb308863a1236d2d277a4025cccee1e\n        /* \"Staking/Staking.sol\":3508:3515  _amount */\n      dup5\n        /* \"Staking/Staking.sol\":3517:3530  currentShares */\n      dup4\n        /* \"Staking/Staking.sol\":3532:3547  block.timestamp */\n      timestamp\n        /* \"Staking/Staking.sol\":3488:3548  Deposit(msg.sender, _amount, currentShares, block.timestamp) */\n      mload(0x40)\n      dup1\n      dup5\n      dup2\n      mstore\n      0x20\n      add\n      dup4\n      dup2\n      mstore\n      0x20\n      add\n      dup3\n      dup2\n      mstore\n      0x20\n      add\n      swap4\n      pop\n      pop\n      pop\n      pop\n      mload(0x40)\n      dup1\n      swap2\n      sub\n      swap1\n      log2\n        /* \"Staking/Staking.sol\":2334:3556  function deposit(uint256 _amount) public {\r... */\n      pop\n      pop\n      pop\n      jump\t// out\n        /* \"Staking/Staking.sol\":8019:8950  function getStakingCoinPerSec() public view returns (uint256) {\r... */\n    tag_65:\n        /* \"Staking/Staking.sol\":8072:8079  uint256 */\n      0x00\n        /* \"Staking/Staking.sol\":8092:8103  uint256 sec */\n      dup1\n        /* \"Staking/Staking.sol\":8106:8115  24 * 3600 */\n      0x015180\n        /* \"Staking/Staking.sol\":8092:8115  uint256 sec = 24 * 3600 */\n      swap1\n      pop\n        /* \"Staking/Staking.sol\":8126:8141  uint256 curTime */\n      0x00\n        /* \"Staking/Staking.sol\":8144:8153  getTime() */\n      tag_200\n        /* \"Staking/Staking.sol\":8144:8151  getTime */\n      tag_47\n        /* \"Staking/Staking.sol\":8144:8153  getTime() */\n      jump\t// in\n    tag_200:\n        /* \"Staking/Staking.sol\":8126:8153  uint256 curTime = getTime() */\n      swap1\n      pop\n        /* \"Staking/Staking.sol\":8164:8176  uint256 coin */\n      0x00\n        /* \"Staking/Staking.sol\":8179:8180  1 */\n      0x01\n        /* \"Staking/Staking.sol\":8164:8180  uint256 coin = 1 */\n      swap1\n      pop\n        /* \"Staking/Staking.sol\":8214:8219  false */\n      0x00\n        /* \"Staking/Staking.sol\":8197:8219  stakingSwitch == false */\n      iszero\n      iszero\n        /* \"Staking/Staking.sol\":8197:8210  stakingSwitch */\n      0x0a\n      0x00\n      swap1\n      sload\n      swap1\n      0x0100\n      exp\n      swap1\n      div\n      0xff\n      and\n        /* \"Staking/Staking.sol\":8197:8219  stakingSwitch == false */\n      iszero\n      iszero\n      eq\n        /* \"Staking/Staking.sol\":8193:8385  if (stakingSwitch == false) {\r... */\n      iszero\n      tag_201\n      jumpi\n        /* \"Staking/Staking.sol\":8284:8298  12000000000000 */\n      0x0ae9f7bcc000\n        /* \"Staking/Staking.sol\":8277:8298  coin = 12000000000000 */\n      swap1\n      pop\n        /* \"Staking/Staking.sol\":8369:8373  coin */\n      dup1\n        /* \"Staking/Staking.sol\":8362:8373  return coin */\n      swap4\n      pop\n      pop\n      pop\n      pop\n      jump(tag_199)\n        /* \"Staking/Staking.sol\":8193:8385  if (stakingSwitch == false) {\r... */\n    tag_201:\n        /* \"Staking/Staking.sol\":8461:8467  60 * 5 */\n      0x012c\n        /* \"Staking/Staking.sol\":8442:8458  stakingStartTime */\n      sload(0x09)\n        /* \"Staking/Staking.sol\":8442:8467  stakingStartTime + 60 * 5 */\n      add\n        /* \"Staking/Staking.sol\":8431:8438  curTime */\n      dup3\n        /* \"Staking/Staking.sol\":8431:8468  curTime < (stakingStartTime + 60 * 5) */\n      lt\n        /* \"Staking/Staking.sol\":8427:8921  if (curTime < (stakingStartTime + 60 * 5)) {\r... */\n      iszero\n      tag_202\n      jumpi\n        /* \"Staking/Staking.sol\":8485:8500  uint256 maxCoin */\n      0x00\n        /* \"Staking/Staking.sol\":8503:8510  2800000 */\n      0x2ab980\n        /* \"Staking/Staking.sol\":8485:8510  uint256 maxCoin = 2800000 */\n      swap1\n      pop\n        /* \"Staking/Staking.sol\":8532:8577  maxCoin.mul((10**uint256(decimals))).div(sec) */\n      tag_203\n        /* \"Staking/Staking.sol\":8573:8576  sec */\n      dup5\n        /* \"Staking/Staking.sol\":8532:8568  maxCoin.mul((10**uint256(decimals))) */\n      tag_204\n        /* \"Staking/Staking.sol\":8557:8565  decimals */\n      sload(0x0b)\n        /* \"Staking/Staking.sol\":8545:8547  10 */\n      0x0a\n        /* \"Staking/Staking.sol\":8545:8566  10**uint256(decimals) */\n      exp\n        /* \"Staking/Staking.sol\":8532:8539  maxCoin */\n      dup5\n        /* \"Staking/Staking.sol\":8532:8543  maxCoin.mul */\n      tag_103\n      swap1\n        /* \"Staking/Staking.sol\":8532:8568  maxCoin.mul((10**uint256(decimals))) */\n      swap2\n      swap1\n      0xffffffff\n      and\n      jump\t// in\n    tag_204:\n        /* \"Staking/Staking.sol\":8532:8572  maxCoin.mul((10**uint256(decimals))).div */\n      tag_104\n      swap1\n        /* \"Staking/Staking.sol\":8532:8577  maxCoin.mul((10**uint256(decimals))).div(sec) */\n      swap2\n      swap1\n      0xffffffff\n      and\n      jump\t// in\n    tag_203:\n        /* \"Staking/Staking.sol\":8525:8577  coin = maxCoin.mul((10**uint256(decimals))).div(sec) */\n      swap2\n      pop\n        /* \"Staking/Staking.sol\":8427:8921  if (curTime < (stakingStartTime + 60 * 5)) {\r... */\n      pop\n      jump(tag_205)\n    tag_202:\n        /* \"Staking/Staking.sol\":8668:8675  60 * 10 */\n      0x0258\n        /* \"Staking/Staking.sol\":8649:8665  stakingStartTime */\n      sload(0x09)\n        /* \"Staking/Staking.sol\":8649:8675  stakingStartTime + 60 * 10 */\n      add\n        /* \"Staking/Staking.sol\":8638:8645  curTime */\n      dup3\n        /* \"Staking/Staking.sol\":8638:8676  curTime < (stakingStartTime + 60 * 10) */\n      lt\n        /* \"Staking/Staking.sol\":8634:8921  if (curTime < (stakingStartTime + 60 * 10)) {\r... */\n      iszero\n      tag_206\n      jumpi\n        /* \"Staking/Staking.sol\":8693:8708  uint256 maxCoin */\n      0x00\n        /* \"Staking/Staking.sol\":8711:8718  1400000 */\n      0x155cc0\n        /* \"Staking/Staking.sol\":8693:8718  uint256 maxCoin = 1400000 */\n      swap1\n      pop\n        /* \"Staking/Staking.sol\":8740:8785  maxCoin.mul((10**uint256(decimals))).div(sec) */\n      tag_207\n        /* \"Staking/Staking.sol\":8781:8784  sec */\n      dup5\n        /* \"Staking/Staking.sol\":8740:8776  maxCoin.mul((10**uint256(decimals))) */\n      tag_208\n        /* \"Staking/Staking.sol\":8765:8773  decimals */\n      sload(0x0b)\n        /* \"Staking/Staking.sol\":8753:8755  10 */\n      0x0a\n        /* \"Staking/Staking.sol\":8753:8774  10**uint256(decimals) */\n      exp\n        /* \"Staking/Staking.sol\":8740:8747  maxCoin */\n      dup5\n        /* \"Staking/Staking.sol\":8740:8751  maxCoin.mul */\n      tag_103\n      swap1\n        /* \"Staking/Staking.sol\":8740:8776  maxCoin.mul((10**uint256(decimals))) */\n      swap2\n      swap1\n      0xffffffff\n      and\n      jump\t// in\n    tag_208:\n        /* \"Staking/Staking.sol\":8740:8780  maxCoin.mul((10**uint256(decimals))).div */\n      tag_104\n      swap1\n        /* \"Staking/Staking.sol\":8740:8785  maxCoin.mul((10**uint256(decimals))).div(sec) */\n      swap2\n      swap1\n      0xffffffff\n      and\n      jump\t// in\n    tag_207:\n        /* \"Staking/Staking.sol\":8733:8785  coin = maxCoin.mul((10**uint256(decimals))).div(sec) */\n      swap2\n      pop\n        /* \"Staking/Staking.sol\":8634:8921  if (curTime < (stakingStartTime + 60 * 10)) {\r... */\n      pop\n      jump(tag_209)\n    tag_206:\n        /* \"Staking/Staking.sol\":8818:8833  uint256 maxCoin */\n      0x00\n        /* \"Staking/Staking.sol\":8836:8842  122300 */\n      0x01ddbc\n        /* \"Staking/Staking.sol\":8818:8842  uint256 maxCoin = 122300 */\n      swap1\n      pop\n        /* \"Staking/Staking.sol\":8864:8909  maxCoin.mul((10**uint256(decimals))).div(sec) */\n      tag_210\n        /* \"Staking/Staking.sol\":8905:8908  sec */\n      dup5\n        /* \"Staking/Staking.sol\":8864:8900  maxCoin.mul((10**uint256(decimals))) */\n      tag_211\n        /* \"Staking/Staking.sol\":8889:8897  decimals */\n      sload(0x0b)\n        /* \"Staking/Staking.sol\":8877:8879  10 */\n      0x0a\n        /* \"Staking/Staking.sol\":8877:8898  10**uint256(decimals) */\n      exp\n        /* \"Staking/Staking.sol\":8864:8871  maxCoin */\n      dup5\n        /* \"Staking/Staking.sol\":8864:8875  maxCoin.mul */\n      tag_103\n      swap1\n        /* \"Staking/Staking.sol\":8864:8900  maxCoin.mul((10**uint256(decimals))) */\n      swap2\n      swap1\n      0xffffffff\n      and\n      jump\t// in\n    tag_211:\n        /* \"Staking/Staking.sol\":8864:8904  maxCoin.mul((10**uint256(decimals))).div */\n      tag_104\n      swap1\n        /* \"Staking/Staking.sol\":8864:8909  maxCoin.mul((10**uint256(decimals))).div(sec) */\n      swap2\n      swap1\n      0xffffffff\n      and\n      jump\t// in\n    tag_210:\n        /* \"Staking/Staking.sol\":8857:8909  coin = maxCoin.mul((10**uint256(decimals))).div(sec) */\n      swap2\n      pop\n        /* \"Staking/Staking.sol\":8634:8921  if (curTime < (stakingStartTime + 60 * 10)) {\r... */\n      pop\n    tag_209:\n        /* \"Staking/Staking.sol\":8427:8921  if (curTime < (stakingStartTime + 60 * 5)) {\r... */\n    tag_205:\n        /* \"Staking/Staking.sol\":8938:8942  coin */\n      dup1\n        /* \"Staking/Staking.sol\":8931:8942  return coin */\n      swap4\n      pop\n      pop\n      pop\n      pop\n        /* \"Staking/Staking.sol\":8019:8950  function getStakingCoinPerSec() public view returns (uint256) {\r... */\n    tag_199:\n      swap1\n      jump\t// out\n        /* \"Staking/Staking.sol\":1372:1405  uint256 public lastUpdateTime = 0 */\n    tag_67:\n      sload(0x06)\n      dup2\n      jump\t// out\n        /* \"Staking/Staking.sol\":6353:6482  function totalStakingAmount() public view returns (uint256) {\r... */\n    tag_69:\n        /* \"Staking/Staking.sol\":6404:6411  uint256 */\n      0x00\n        /* \"Staking/Staking.sol\":6431:6474  this.pendingCoin().add(getDepositBalance()) */\n      tag_213\n        /* \"Staking/Staking.sol\":6454:6473  getDepositBalance() */\n      tag_214\n        /* \"Staking/Staking.sol\":6454:6471  getDepositBalance */\n      tag_33\n        /* \"Staking/Staking.sol\":6454:6473  getDepositBalance() */\n      jump\t// in\n    tag_214:\n        /* \"Staking/Staking.sol\":6431:6435  this */\n      address\n        /* \"Staking/Staking.sol\":6431:6447  this.pendingCoin */\n      0xffffffffffffffffffffffffffffffffffffffff\n      and\n      0xfc3e532b\n        /* \"Staking/Staking.sol\":6431:6449  this.pendingCoin() */\n      mload(0x40)\n      dup2\n      0xffffffff\n      and\n      0xe0\n      shl\n      dup2\n      mstore\n      0x04\n      add\n      0x20\n      mload(0x40)\n      dup1\n      dup4\n      sub\n      dup2\n      dup7\n      dup1\n      extcodesize\n      iszero\n      dup1\n      iszero\n      tag_215\n      jumpi\n      0x00\n      dup1\n      revert\n    tag_215:\n      pop\n      gas\n      staticcall\n      iszero\n      dup1\n      iszero\n      tag_217\n      jumpi\n      returndatasize\n      0x00\n      dup1\n      returndatacopy\n      revert(0x00, returndatasize)\n    tag_217:\n      pop\n      pop\n      pop\n      pop\n      mload(0x40)\n      returndatasize\n      0x20\n      dup2\n      lt\n      iszero\n      tag_218\n      jumpi\n      0x00\n      dup1\n      revert\n    tag_218:\n      dup2\n      add\n      swap1\n      dup1\n      dup1\n      mload\n      swap1\n      0x20\n      add\n      swap1\n      swap3\n      swap2\n      swap1\n      pop\n      pop\n      pop\n        /* \"Staking/Staking.sol\":6431:6453  this.pendingCoin().add */\n      tag_100\n      swap1\n        /* \"Staking/Staking.sol\":6431:6474  this.pendingCoin().add(getDepositBalance()) */\n      swap2\n      swap1\n      0xffffffff\n      and\n      jump\t// in\n    tag_213:\n        /* \"Staking/Staking.sol\":6424:6474  return this.pendingCoin().add(getDepositBalance()) */\n      swap1\n      pop\n        /* \"Staking/Staking.sol\":6353:6482  function totalStakingAmount() public view returns (uint256) {\r... */\n      swap1\n      jump\t// out\n        /* \"Staking/Staking.sol\":1261:1291  uint256 public accPerShare = 0 */\n    tag_71:\n      sload(0x03)\n      dup2\n      jump\t// out\n        /* \"Staking/Staking.sol\":7880:7977  function getEther() public view returns (uint256) {\r... */\n    tag_73:\n        /* \"Staking/Staking.sol\":7921:7928  uint256 */\n      0x00\n        /* \"Staking/Staking.sol\":7960:7968  decimals */\n      sload(0x0b)\n        /* \"Staking/Staking.sol\":7948:7950  10 */\n      0x0a\n        /* \"Staking/Staking.sol\":7948:7969  10**uint256(decimals) */\n      exp\n        /* \"Staking/Staking.sol\":7941:7969  return 10**uint256(decimals) */\n      swap1\n      pop\n        /* \"Staking/Staking.sol\":7880:7977  function getEther() public view returns (uint256) {\r... */\n      swap1\n      jump\t// out\n        /* \"Staking/Staking.sol\":1452:1493  uint256 public withdrawFeePeriod = 7 days */\n    tag_75:\n      sload(0x08)\n      dup2\n      jump\t// out\n        /* \"Staking/Staking.sol\":5406:6023  function updatePool() public {\r... */\n    tag_77:\n        /* \"Staking/Staking.sol\":5446:5461  uint256 curTime */\n      0x00\n        /* \"Staking/Staking.sol\":5464:5473  getTime() */\n      tag_221\n        /* \"Staking/Staking.sol\":5464:5471  getTime */\n      tag_47\n        /* \"Staking/Staking.sol\":5464:5473  getTime() */\n      jump\t// in\n    tag_221:\n        /* \"Staking/Staking.sol\":5446:5473  uint256 curTime = getTime() */\n      swap1\n      pop\n        /* \"Staking/Staking.sol\":5499:5513  lastUpdateTime */\n      sload(0x06)\n        /* \"Staking/Staking.sol\":5488:5495  curTime */\n      dup2\n        /* \"Staking/Staking.sol\":5488:5513  curTime <= lastUpdateTime */\n      gt\n        /* \"Staking/Staking.sol\":5484:5548  if (curTime <= lastUpdateTime) {\r... */\n      tag_222\n      jumpi\n        /* \"Staking/Staking.sol\":5530:5537  return; */\n      pop\n      jump(tag_220)\n        /* \"Staking/Staking.sol\":5484:5548  if (curTime <= lastUpdateTime) {\r... */\n    tag_222:\n        /* \"Staking/Staking.sol\":5579:5580  0 */\n      0x00\n        /* \"Staking/Staking.sol\":5564:5575  totalShares */\n      sload(0x04)\n        /* \"Staking/Staking.sol\":5564:5580  totalShares <= 0 */\n      gt\n        /* \"Staking/Staking.sol\":5560:5654  if (totalShares <= 0) {\r... */\n      tag_223\n      jumpi\n        /* \"Staking/Staking.sol\":5614:5621  curTime */\n      dup1\n        /* \"Staking/Staking.sol\":5597:5611  lastUpdateTime */\n      0x06\n        /* \"Staking/Staking.sol\":5597:5621  lastUpdateTime = curTime */\n      dup2\n      swap1\n      sstore\n      pop\n        /* \"Staking/Staking.sol\":5636:5643  return; */\n      pop\n      jump(tag_220)\n        /* \"Staking/Staking.sol\":5560:5654  if (totalShares <= 0) {\r... */\n    tag_223:\n        /* \"Staking/Staking.sol\":5666:5684  uint256 multiplier */\n      0x00\n        /* \"Staking/Staking.sol\":5693:5707  lastUpdateTime */\n      sload(0x06)\n        /* \"Staking/Staking.sol\":5687:5690  now */\n      timestamp\n        /* \"Staking/Staking.sol\":5687:5707  now - lastUpdateTime */\n      sub\n        /* \"Staking/Staking.sol\":5666:5707  uint256 multiplier = now - lastUpdateTime */\n      swap1\n      pop\n        /* \"Staking/Staking.sol\":5718:5732  uint256 reward */\n      0x00\n        /* \"Staking/Staking.sol\":5735:5773  multiplier.mul(getStakingCoinPerSec()) */\n      tag_224\n        /* \"Staking/Staking.sol\":5750:5772  getStakingCoinPerSec() */\n      tag_225\n        /* \"Staking/Staking.sol\":5750:5770  getStakingCoinPerSec */\n      tag_65\n        /* \"Staking/Staking.sol\":5750:5772  getStakingCoinPerSec() */\n      jump\t// in\n    tag_225:\n        /* \"Staking/Staking.sol\":5735:5745  multiplier */\n      dup4\n        /* \"Staking/Staking.sol\":5735:5749  multiplier.mul */\n      tag_103\n      swap1\n        /* \"Staking/Staking.sol\":5735:5773  multiplier.mul(getStakingCoinPerSec()) */\n      swap2\n      swap1\n      0xffffffff\n      and\n      jump\t// in\n    tag_224:\n        /* \"Staking/Staking.sol\":5718:5773  uint256 reward = multiplier.mul(getStakingCoinPerSec()) */\n      swap1\n      pop\n        /* \"Staking/Staking.sol\":5801:5808  curTime */\n      dup3\n        /* \"Staking/Staking.sol\":5784:5798  lastUpdateTime */\n      0x06\n        /* \"Staking/Staking.sol\":5784:5808  lastUpdateTime = curTime */\n      dup2\n      swap1\n      sstore\n      pop\n        /* \"Staking/Staking.sol\":5833:5856  totalAmount.add(reward) */\n      tag_226\n        /* \"Staking/Staking.sol\":5849:5855  reward */\n      dup2\n        /* \"Staking/Staking.sol\":5833:5844  totalAmount */\n      sload(0x05)\n        /* \"Staking/Staking.sol\":5833:5848  totalAmount.add */\n      tag_100\n      swap1\n        /* \"Staking/Staking.sol\":5833:5856  totalAmount.add(reward) */\n      swap2\n      swap1\n      0xffffffff\n      and\n      jump\t// in\n    tag_226:\n        /* \"Staking/Staking.sol\":5819:5830  totalAmount */\n      0x05\n        /* \"Staking/Staking.sol\":5819:5856  totalAmount = totalAmount.add(reward) */\n      dup2\n      swap1\n      sstore\n      pop\n        /* \"Staking/Staking.sol\":5881:5935  accPerShare.add(divFloor(reward, this.totalDeposit())) */\n      tag_227\n        /* \"Staking/Staking.sol\":5897:5934  divFloor(reward, this.totalDeposit()) */\n      tag_228\n        /* \"Staking/Staking.sol\":5906:5912  reward */\n      dup3\n        /* \"Staking/Staking.sol\":5914:5918  this */\n      address\n        /* \"Staking/Staking.sol\":5914:5931  this.totalDeposit */\n      0xffffffffffffffffffffffffffffffffffffffff\n      and\n      0xf6153ccd\n        /* \"Staking/Staking.sol\":5914:5933  this.totalDeposit() */\n      mload(0x40)\n      dup2\n      0xffffffff\n      and\n      0xe0\n      shl\n      dup2\n      mstore\n      0x04\n      add\n      0x20\n      mload(0x40)\n      dup1\n      dup4\n      sub\n      dup2\n      dup7\n      dup1\n      extcodesize\n      iszero\n      dup1\n      iszero\n      tag_229\n      jumpi\n      0x00\n      dup1\n      revert\n    tag_229:\n      pop\n      gas\n      staticcall\n      iszero\n      dup1\n      iszero\n      tag_231\n      jumpi\n      returndatasize\n      0x00\n      dup1\n      returndatacopy\n      revert(0x00, returndatasize)\n    tag_231:\n      pop\n      pop\n      pop\n      pop\n      mload(0x40)\n      returndatasize\n      0x20\n      dup2\n      lt\n      iszero\n      tag_232\n      jumpi\n      0x00\n      dup1\n      revert\n    tag_232:\n      dup2\n      add\n      swap1\n      dup1\n      dup1\n      mload\n      swap1\n      0x20\n      add\n      swap1\n      swap3\n      swap2\n      swap1\n      pop\n      pop\n      pop\n        /* \"Staking/Staking.sol\":5897:5905  divFloor */\n      tag_155\n        /* \"Staking/Staking.sol\":5897:5934  divFloor(reward, this.totalDeposit()) */\n      jump\t// in\n    tag_228:\n        /* \"Staking/Staking.sol\":5881:5892  accPerShare */\n      sload(0x03)\n        /* \"Staking/Staking.sol\":5881:5896  accPerShare.add */\n      tag_100\n      swap1\n        /* \"Staking/Staking.sol\":5881:5935  accPerShare.add(divFloor(reward, this.totalDeposit())) */\n      swap2\n      swap1\n      0xffffffff\n      and\n      jump\t// in\n    tag_227:\n        /* \"Staking/Staking.sol\":5867:5878  accPerShare */\n      0x03\n        /* \"Staking/Staking.sol\":5867:5935  accPerShare = accPerShare.add(divFloor(reward, this.totalDeposit())) */\n      dup2\n      swap1\n      sstore\n      pop\n        /* \"Staking/Staking.sol\":5982:5987  poker */\n      0x00\n      dup1\n      sload\n      swap1\n      0x0100\n      exp\n      swap1\n      div\n      0xffffffffffffffffffffffffffffffffffffffff\n      and\n        /* \"Staking/Staking.sol\":5982:5992  poker.mint */\n      0xffffffffffffffffffffffffffffffffffffffff\n      and\n      0x40c10f19\n        /* \"Staking/Staking.sol\":6001:6005  this */\n      address\n        /* \"Staking/Staking.sol\":6008:6014  reward */\n      dup4\n        /* \"Staking/Staking.sol\":5982:6015  poker.mint(address(this), reward) */\n      mload(0x40)\n      dup4\n      0xffffffff\n      and\n      0xe0\n      shl\n      dup2\n      mstore\n      0x04\n      add\n      dup1\n      dup4\n      0xffffffffffffffffffffffffffffffffffffffff\n      and\n      dup2\n      mstore\n      0x20\n      add\n      dup3\n      dup2\n      mstore\n      0x20\n      add\n      swap3\n      pop\n      pop\n      pop\n      0x00\n      mload(0x40)\n      dup1\n      dup4\n      sub\n      dup2\n      0x00\n      dup8\n      dup1\n      extcodesize\n      iszero\n      dup1\n      iszero\n      tag_233\n      jumpi\n      0x00\n      dup1\n      revert\n    tag_233:\n      pop\n      gas\n      call\n      iszero\n      dup1\n      iszero\n      tag_235\n      jumpi\n      returndatasize\n      0x00\n      dup1\n      returndatacopy\n      revert(0x00, returndatasize)\n    tag_235:\n      pop\n      pop\n      pop\n      pop\n        /* \"Staking/Staking.sol\":5406:6023  function updatePool() public {\r... */\n      pop\n      pop\n      pop\n    tag_220:\n      jump\t// out\n        /* \"Staking/Staking.sol\":1619:1652  bool public stakingSwitch = false */\n    tag_79:\n      0x0a\n      0x00\n      swap1\n      sload\n      swap1\n      0x0100\n      exp\n      swap1\n      div\n      0xff\n      and\n      dup2\n      jump\t// out\n        /* \"Staking/Staking.sol\":1412:1445  uint256 public withdrawFee = 1000 */\n    tag_81:\n      sload(0x07)\n      dup2\n      jump\t// out\n        /* \"Staking/Staking.sol\":6490:6592  function totalDeposit() external view returns (uint256) {\r... */\n    tag_83:\n        /* \"Staking/Staking.sol\":6537:6544  uint256 */\n      0x00\n        /* \"Staking/Staking.sol\":6564:6584  totalShares.div(ONE) */\n      tag_237\n        /* \"Staking/Staking.sol\":1712:1718  10**18 */\n      0x0de0b6b3a7640000\n        /* \"Staking/Staking.sol\":6564:6575  totalShares */\n      sload(0x04)\n        /* \"Staking/Staking.sol\":6564:6579  totalShares.div */\n      tag_104\n      swap1\n        /* \"Staking/Staking.sol\":6564:6584  totalShares.div(ONE) */\n      swap2\n      swap1\n      0xffffffff\n      and\n      jump\t// in\n    tag_237:\n        /* \"Staking/Staking.sol\":6557:6584  return totalShares.div(ONE) */\n      swap1\n      pop\n        /* \"Staking/Staking.sol\":6490:6592  function totalDeposit() external view returns (uint256) {\r... */\n      swap1\n      jump\t// out\n        /* \"Staking/Staking.sol\":6031:6345  function pendingCoin() external view returns (uint256) {\r... */\n    tag_85:\n        /* \"Staking/Staking.sol\":6077:6084  uint256 */\n      0x00\n        /* \"Staking/Staking.sol\":6097:6112  uint256 curTime */\n      dup1\n        /* \"Staking/Staking.sol\":6115:6124  getTime() */\n      tag_239\n        /* \"Staking/Staking.sol\":6115:6122  getTime */\n      tag_47\n        /* \"Staking/Staking.sol\":6115:6124  getTime() */\n      jump\t// in\n    tag_239:\n        /* \"Staking/Staking.sol\":6097:6124  uint256 curTime = getTime() */\n      swap1\n      pop\n        /* \"Staking/Staking.sol\":6154:6155  0 */\n      0x00\n        /* \"Staking/Staking.sol\":6139:6150  totalShares */\n      sload(0x04)\n        /* \"Staking/Staking.sol\":6139:6155  totalShares <= 0 */\n      gt\n        /* \"Staking/Staking.sol\":6135:6192  if (totalShares <= 0) {\r... */\n      tag_240\n      jumpi\n        /* \"Staking/Staking.sol\":6179:6180  0 */\n      0x00\n        /* \"Staking/Staking.sol\":6172:6180  return 0 */\n      swap2\n      pop\n      pop\n      jump(tag_238)\n        /* \"Staking/Staking.sol\":6135:6192  if (totalShares <= 0) {\r... */\n    tag_240:\n        /* \"Staking/Staking.sol\":6202:6220  uint256 multiplier */\n      0x00\n        /* \"Staking/Staking.sol\":6233:6247  lastUpdateTime */\n      sload(0x06)\n        /* \"Staking/Staking.sol\":6223:6230  curTime */\n      dup3\n        /* \"Staking/Staking.sol\":6223:6247  curTime - lastUpdateTime */\n      sub\n        /* \"Staking/Staking.sol\":6202:6247  uint256 multiplier = curTime - lastUpdateTime */\n      swap1\n      pop\n        /* \"Staking/Staking.sol\":6258:6272  uint256 reward */\n      0x00\n        /* \"Staking/Staking.sol\":6275:6313  multiplier.mul(getStakingCoinPerSec()) */\n      tag_241\n        /* \"Staking/Staking.sol\":6290:6312  getStakingCoinPerSec() */\n      tag_242\n        /* \"Staking/Staking.sol\":6290:6310  getStakingCoinPerSec */\n      tag_65\n        /* \"Staking/Staking.sol\":6290:6312  getStakingCoinPerSec() */\n      jump\t// in\n    tag_242:\n        /* \"Staking/Staking.sol\":6275:6285  multiplier */\n      dup4\n        /* \"Staking/Staking.sol\":6275:6289  multiplier.mul */\n      tag_103\n      swap1\n        /* \"Staking/Staking.sol\":6275:6313  multiplier.mul(getStakingCoinPerSec()) */\n      swap2\n      swap1\n      0xffffffff\n      and\n      jump\t// in\n    tag_241:\n        /* \"Staking/Staking.sol\":6258:6313  uint256 reward = multiplier.mul(getStakingCoinPerSec()) */\n      swap1\n      pop\n        /* \"Staking/Staking.sol\":6331:6337  reward */\n      dup1\n        /* \"Staking/Staking.sol\":6324:6337  return reward */\n      swap4\n      pop\n      pop\n      pop\n      pop\n        /* \"Staking/Staking.sol\":6031:6345  function pendingCoin() external view returns (uint256) {\r... */\n    tag_238:\n      swap1\n      jump\t// out\n        /* \"Staking/Staking.sol\":1892:2048  function decimalMul(uint256 target, uint256 d)\r... */\n    tag_98:\n        /* \"Staking/Staking.sol\":1989:1996  uint256 */\n      0x00\n        /* \"Staking/Staking.sol\":1712:1718  10**18 */\n      0x0de0b6b3a7640000\n        /* \"Staking/Staking.sol\":2021:2034  target.mul(d) */\n      tag_244\n        /* \"Staking/Staking.sol\":2032:2033  d */\n      dup4\n        /* \"Staking/Staking.sol\":2021:2027  target */\n      dup6\n        /* \"Staking/Staking.sol\":2021:2031  target.mul */\n      tag_103\n      swap1\n        /* \"Staking/Staking.sol\":2021:2034  target.mul(d) */\n      swap2\n      swap1\n      0xffffffff\n      and\n      jump\t// in\n    tag_244:\n        /* \"Staking/Staking.sol\":2021:2040  target.mul(d) / ONE */\n      dup2\n      tag_245\n      jumpi\n      invalid\n    tag_245:\n      div\n        /* \"Staking/Staking.sol\":2014:2040  return target.mul(d) / ONE */\n      swap1\n      pop\n        /* \"Staking/Staking.sol\":1892:2048  function decimalMul(uint256 target, uint256 d)\r... */\n      swap3\n      swap2\n      pop\n      pop\n      jump\t// out\n        /* \"_lib/SafeMath.sol\":773:957  function sub(uint256 a, uint256 b) internal pure returns (uint256) {\r... */\n    tag_99:\n        /* \"_lib/SafeMath.sol\":831:838  uint256 */\n      0x00\n        /* \"_lib/SafeMath.sol\":864:865  a */\n      dup3\n        /* \"_lib/SafeMath.sol\":859:860  b */\n      dup3\n        /* \"_lib/SafeMath.sol\":859:865  b <= a */\n      gt\n      iszero\n        /* \"_lib/SafeMath.sol\":851:900  require(b <= a, \"SafeMath: subtraction overflow\") */\n      tag_247\n      jumpi\n      mload(0x40)\n      0x08c379a000000000000000000000000000000000000000000000000000000000\n      dup2\n      mstore\n      0x04\n      add\n      dup1\n      dup1\n      0x20\n      add\n      dup3\n      dup2\n      sub\n      dup3\n      mstore\n      0x1e\n      dup2\n      mstore\n      0x20\n      add\n      dup1\n      0x536166654d6174683a207375627472616374696f6e206f766572666c6f770000\n      dup2\n      mstore\n      pop\n      0x20\n      add\n      swap2\n      pop\n      pop\n      mload(0x40)\n      dup1\n      swap2\n      sub\n      swap1\n      revert\n    tag_247:\n        /* \"_lib/SafeMath.sol\":911:920  uint256 c */\n      0x00\n        /* \"_lib/SafeMath.sol\":927:928  b */\n      dup3\n        /* \"_lib/SafeMath.sol\":923:924  a */\n      dup5\n        /* \"_lib/SafeMath.sol\":923:928  a - b */\n      sub\n        /* \"_lib/SafeMath.sol\":911:928  uint256 c = a - b */\n      swap1\n      pop\n        /* \"_lib/SafeMath.sol\":948:949  c */\n      dup1\n        /* \"_lib/SafeMath.sol\":941:949  return c */\n      swap2\n      pop\n      pop\n        /* \"_lib/SafeMath.sol\":773:957  function sub(uint256 a, uint256 b) internal pure returns (uint256) {\r... */\n      swap3\n      swap2\n      pop\n      pop\n      jump\t// out\n        /* \"_lib/SafeMath.sol\":317:498  function add(uint256 a, uint256 b) internal pure returns (uint256) {\r... */\n    tag_100:\n        /* \"_lib/SafeMath.sol\":375:382  uint256 */\n      0x00\n        /* \"_lib/SafeMath.sol\":395:404  uint256 c */\n      dup1\n        /* \"_lib/SafeMath.sol\":411:412  b */\n      dup3\n        /* \"_lib/SafeMath.sol\":407:408  a */\n      dup5\n        /* \"_lib/SafeMath.sol\":407:412  a + b */\n      add\n        /* \"_lib/SafeMath.sol\":395:412  uint256 c = a + b */\n      swap1\n      pop\n        /* \"_lib/SafeMath.sol\":436:437  a */\n      dup4\n        /* \"_lib/SafeMath.sol\":431:432  c */\n      dup2\n        /* \"_lib/SafeMath.sol\":431:437  c >= a */\n      lt\n      iszero\n        /* \"_lib/SafeMath.sol\":423:469  require(c >= a, \"SafeMath: addition overflow\") */\n      tag_249\n      jumpi\n      mload(0x40)\n      0x08c379a000000000000000000000000000000000000000000000000000000000\n      dup2\n      mstore\n      0x04\n      add\n      dup1\n      dup1\n      0x20\n      add\n      dup3\n      dup2\n      sub\n      dup3\n      mstore\n      0x1b\n      dup2\n      mstore\n      0x20\n      add\n      dup1\n      0x536166654d6174683a206164646974696f6e206f766572666c6f770000000000\n      dup2\n      mstore\n      pop\n      0x20\n      add\n      swap2\n      pop\n      pop\n      mload(0x40)\n      dup1\n      swap2\n      sub\n      swap1\n      revert\n    tag_249:\n        /* \"_lib/SafeMath.sol\":489:490  c */\n      dup1\n        /* \"_lib/SafeMath.sol\":482:490  return c */\n      swap2\n      pop\n      pop\n        /* \"_lib/SafeMath.sol\":317:498  function add(uint256 a, uint256 b) internal pure returns (uint256) {\r... */\n      swap3\n      swap2\n      pop\n      pop\n      jump\t// out\n        /* \"_lib/SafeMath.sol\":1208:1678  function mul(uint256 a, uint256 b) internal pure returns (uint256) {\r... */\n    tag_103:\n        /* \"_lib/SafeMath.sol\":1266:1273  uint256 */\n      0x00\n        /* \"_lib/SafeMath.sol\":1515:1516  0 */\n      dup1\n        /* \"_lib/SafeMath.sol\":1510:1511  a */\n      dup4\n        /* \"_lib/SafeMath.sol\":1510:1516  a == 0 */\n      eq\n        /* \"_lib/SafeMath.sol\":1506:1553  if (a == 0) {\r... */\n      iszero\n      tag_251\n      jumpi\n        /* \"_lib/SafeMath.sol\":1540:1541  0 */\n      0x00\n        /* \"_lib/SafeMath.sol\":1533:1541  return 0 */\n      swap1\n      pop\n      jump(tag_250)\n        /* \"_lib/SafeMath.sol\":1506:1553  if (a == 0) {\r... */\n    tag_251:\n        /* \"_lib/SafeMath.sol\":1565:1574  uint256 c */\n      0x00\n        /* \"_lib/SafeMath.sol\":1581:1582  b */\n      dup3\n        /* \"_lib/SafeMath.sol\":1577:1578  a */\n      dup5\n        /* \"_lib/SafeMath.sol\":1577:1582  a * b */\n      mul\n        /* \"_lib/SafeMath.sol\":1565:1582  uint256 c = a * b */\n      swap1\n      pop\n        /* \"_lib/SafeMath.sol\":1610:1611  b */\n      dup3\n        /* \"_lib/SafeMath.sol\":1605:1606  a */\n      dup5\n        /* \"_lib/SafeMath.sol\":1601:1602  c */\n      dup3\n        /* \"_lib/SafeMath.sol\":1601:1606  c / a */\n      dup2\n      tag_252\n      jumpi\n      invalid\n    tag_252:\n      div\n        /* \"_lib/SafeMath.sol\":1601:1611  c / a == b */\n      eq\n        /* \"_lib/SafeMath.sol\":1593:1649  require(c / a == b, \"SafeMath: multiplication overflow\") */\n      tag_253\n      jumpi\n      mload(0x40)\n      0x08c379a000000000000000000000000000000000000000000000000000000000\n      dup2\n      mstore\n      0x04\n      add\n      dup1\n      dup1\n      0x20\n      add\n      dup3\n      dup2\n      sub\n      dup3\n      mstore\n      0x21\n      dup2\n      mstore\n      0x20\n      add\n      dup1\n      data_9113bb53c2876a3805b2c9242029423fc540a728243ce887ab24c82cf119fba3\n      0x21\n      swap2\n      codecopy\n      0x40\n      add\n      swap2\n      pop\n      pop\n      mload(0x40)\n      dup1\n      swap2\n      sub\n      swap1\n      revert\n    tag_253:\n        /* \"_lib/SafeMath.sol\":1669:1670  c */\n      dup1\n        /* \"_lib/SafeMath.sol\":1662:1670  return c */\n      swap2\n      pop\n      pop\n        /* \"_lib/SafeMath.sol\":1208:1678  function mul(uint256 a, uint256 b) internal pure returns (uint256) {\r... */\n    tag_250:\n      swap3\n      swap2\n      pop\n      pop\n      jump\t// out\n        /* \"_lib/SafeMath.sol\":2146:2479  function div(uint256 a, uint256 b) internal pure returns (uint256) {\r... */\n    tag_104:\n        /* \"_lib/SafeMath.sol\":2204:2211  uint256 */\n      0x00\n        /* \"_lib/SafeMath.sol\":2303:2304  0 */\n      dup1\n        /* \"_lib/SafeMath.sol\":2299:2300  b */\n      dup3\n        /* \"_lib/SafeMath.sol\":2299:2304  b > 0 */\n      gt\n        /* \"_lib/SafeMath.sol\":2291:2335  require(b > 0, \"SafeMath: division by zero\") */\n      tag_255\n      jumpi\n      mload(0x40)\n      0x08c379a000000000000000000000000000000000000000000000000000000000\n      dup2\n      mstore\n      0x04\n      add\n      dup1\n      dup1\n      0x20\n      add\n      dup3\n      dup2\n      sub\n      dup3\n      mstore\n      0x1a\n      dup2\n      mstore\n      0x20\n      add\n      dup1\n      0x536166654d6174683a206469766973696f6e206279207a65726f000000000000\n      dup2\n      mstore\n      pop\n      0x20\n      add\n      swap2\n      pop\n      pop\n      mload(0x40)\n      dup1\n      swap2\n      sub\n      swap1\n      revert\n    tag_255:\n        /* \"_lib/SafeMath.sol\":2346:2355  uint256 c */\n      0x00\n        /* \"_lib/SafeMath.sol\":2362:2363  b */\n      dup3\n        /* \"_lib/SafeMath.sol\":2358:2359  a */\n      dup5\n        /* \"_lib/SafeMath.sol\":2358:2363  a / b */\n      dup2\n      tag_256\n      jumpi\n      invalid\n    tag_256:\n      div\n        /* \"_lib/SafeMath.sol\":2346:2363  uint256 c = a / b */\n      swap1\n      pop\n        /* \"_lib/SafeMath.sol\":2470:2471  c */\n      dup1\n        /* \"_lib/SafeMath.sol\":2463:2471  return c */\n      swap2\n      pop\n      pop\n        /* \"_lib/SafeMath.sol\":2146:2479  function div(uint256 a, uint256 b) internal pure returns (uint256) {\r... */\n      swap3\n      swap2\n      pop\n      pop\n      jump\t// out\n        /* \"Staking/Staking.sol\":1727:1884  function divFloor(uint256 target, uint256 d)\r... */\n    tag_155:\n        /* \"Staking/Staking.sol\":1822:1829  uint256 */\n      0x00\n        /* \"Staking/Staking.sol\":1854:1876  target.mul(ONE).div(d) */\n      tag_258\n        /* \"Staking/Staking.sol\":1874:1875  d */\n      dup3\n        /* \"Staking/Staking.sol\":1854:1869  target.mul(ONE) */\n      tag_259\n        /* \"Staking/Staking.sol\":1712:1718  10**18 */\n      0x0de0b6b3a7640000\n        /* \"Staking/Staking.sol\":1854:1860  target */\n      dup7\n        /* \"Staking/Staking.sol\":1854:1864  target.mul */\n      tag_103\n      swap1\n        /* \"Staking/Staking.sol\":1854:1869  target.mul(ONE) */\n      swap2\n      swap1\n      0xffffffff\n      and\n      jump\t// in\n    tag_259:\n        /* \"Staking/Staking.sol\":1854:1873  target.mul(ONE).div */\n      tag_104\n      swap1\n        /* \"Staking/Staking.sol\":1854:1876  target.mul(ONE).div(d) */\n      swap2\n      swap1\n      0xffffffff\n      and\n      jump\t// in\n    tag_258:\n        /* \"Staking/Staking.sol\":1847:1876  return target.mul(ONE).div(d) */\n      swap1\n      pop\n        /* \"Staking/Staking.sol\":1727:1884  function divFloor(uint256 target, uint256 d)\r... */\n      swap3\n      swap2\n      pop\n      pop\n      jump\t// out\n    stop\n    data_9113bb53c2876a3805b2c9242029423fc540a728243ce887ab24c82cf119fba3 536166654d6174683a206d756c7469706c69636174696f6e206f766572666c6f77\n\n    auxdata: 0xa2646970667358221220c0f842b06e7dbbaaf8121ec704af3383d8ee7a6318e421d9dd7b287c7af08e3264736f6c634300060c0033\n}\n",
				"bytecode": {
					"linkReferences": {},
					"object": "608060405260006003556000600455600060055560006006556103e860075562093a8060085560006009556000600a60006101000a81548160ff0219169083151502179055506012600b5534801561005657600080fd5b50604051611d0f380380611d0f8339818101604052604081101561007957600080fd5b810190808051906020019092919080519060200190929190505050816000806101000a81548173ffffffffffffffffffffffffffffffffffffffff021916908373ffffffffffffffffffffffffffffffffffffffff16021790555033600260006101000a81548173ffffffffffffffffffffffffffffffffffffffff021916908373ffffffffffffffffffffffffffffffffffffffff16021790555061012361017160201b60201c565b60068190555080600160006101000a81548173ffffffffffffffffffffffffffffffffffffffff021916908373ffffffffffffffffffffffffffffffffffffffff1602179055505050610179565b600042905090565b611b87806101886000396000f3fe608060405234801561001057600080fd5b50600436106101735760003560e01c8063936b6cec116100de578063de0ff7c511610097578063e6fa445d11610071578063e6fa445d1461047f578063e941fa781461049f578063f6153ccd146104bd578063fc3e532b146104db57610173565b8063de0ff7c514610439578063df10b4e614610457578063e3161ddd1461047557610173565b8063936b6cec14610375578063b6b55f2514610393578063b8a3b366146103c1578063c8f33c91146103df578063d201114a146103fd578063d2890a011461041b57610173565b8063557ed1ba11610130578063557ed1ba146102995780636abfd183146102b75780636e5b9634146102d557806377926869146102f357806381ad5718146103115780638da5cb5b1461034157610173565b80630497de4a146101785780631959a002146101965780631a39d8ef146102115780632e1a7d4d1461022f5780633a98ef391461025d57806347f1aae71461027b575b600080fd5b6101806104f9565b6040518082815260200191505060405180910390f35b6101d8600480360360208110156101ac57600080fd5b81019080803573ffffffffffffffffffffffffffffffffffffffff1690602001909291905050506105c3565b60405180878152602001868152602001858152602001848152602001838152602001828152602001965050505050505060405180910390f35b6102196105ff565b6040518082815260200191505060405180910390f35b61025b6004803603602081101561024557600080fd5b8101908080359060200190929190505050610605565b005b610265610c39565b6040518082815260200191505060405180910390f35b610283610c3f565b6040518082815260200191505060405180910390f35b6102a1610d71565b6040518082815260200191505060405180910390f35b6102bf610d79565b6040518082815260200191505060405180910390f35b6102dd610d7f565b6040518082815260200191505060405180910390f35b6102fb610ea4565b6040518082815260200191505060405180910390f35b61033f6004803603602081101561032757600080fd5b81019080803515159060200190929190505050610f68565b005b610349610ffe565b604051808273ffffffffffffffffffffffffffffffffffffffff16815260200191505060405180910390f35b61037d611024565b6040518082815260200191505060405180910390f35b6103bf600480360360208110156103a957600080fd5b8101908080359060200190929190505050611147565b005b6103c961146c565b6040518082815260200191505060405180910390f35b6103e7611588565b6040518082815260200191505060405180910390f35b61040561158e565b6040518082815260200191505060405180910390f35b61042361162f565b6040518082815260200191505060405180910390f35b610441611635565b6040518082815260200191505060405180910390f35b61045f611642565b6040518082815260200191505060405180910390f35b61047d611648565b005b610487611816565b60405180821515815260200191505060405180910390f35b6104a7611829565b6040518082815260200191505060405180910390f35b6104c561182f565b6040518082815260200191505060405180910390f35b6104e3611853565b6040518082815260200191505060405180910390f35b60008060009054906101000a900473ffffffffffffffffffffffffffffffffffffffff1673ffffffffffffffffffffffffffffffffffffffff166370a08231306040518263ffffffff1660e01b8152600401808273ffffffffffffffffffffffffffffffffffffffff16815260200191505060206040518083038186803b15801561058357600080fd5b505afa158015610597573d6000803e3d6000fd5b505050506040513d60208110156105ad57600080fd5b8101908080519060200190929190505050905090565b600c6020528060005260406000206000915090508060000154908060010154908060020154908060030154908060040154908060050154905086565b60055481565b6000600c60003373ffffffffffffffffffffffffffffffffffffffff1673ffffffffffffffffffffffffffffffffffffffff1681526020019081526020016000209050600082116106be576040517f08c379a00000000000000000000000000000000000000000000000000000000081526004018080602001828103825260138152602001807f4e6f7468696e6720746f2077697468647261770000000000000000000000000081525060200191505060405180910390fd5b8060000154821115610738576040517f08c379a000000000000000000000000000000000000000000000000000000000815260040180806020018281038252601f8152602001807f576974686472617720616d6f756e7420657863656564732062616c616e63650081525060200191505060405180910390fd5b610740611648565b600061077e8260040154610770846003015461076286600501546003546118a5565b6118d390919063ffffffff16565b61195c90919063ffffffff16565b905060006107ab836000015461079d86856119e490919063ffffffff16565b611a6a90919063ffffffff16565b905060006107dc84600001546107ce8787600501546119e490919063ffffffff16565b611a6a90919063ffffffff16565b90506107f58585600001546118d390919063ffffffff16565b8460000181905550610812856004546118d390919063ffffffff16565b600481905550816005541015610890576040517f08c379a000000000000000000000000000000000000000000000000000000000815260040180806020018281038252601f8152602001807f576974686472617720616d6f756e7420657863656564732062616c616e63650081525060200191505060405180910390fd5b6108a5826005546118d390919063ffffffff16565b6005819055506108be82846118d390919063ffffffff16565b84600401819055506108d9818361195c90919063ffffffff16565b91506108f4600854856001015461195c90919063ffffffff16565b6108fc610d71565b1015610ac157600061092c61271061091e6064866119e490919063ffffffff16565b611a6a90919063ffffffff16565b905061094181846118d390919063ffffffff16565b925060008054906101000a900473ffffffffffffffffffffffffffffffffffffffff1673ffffffffffffffffffffffffffffffffffffffff1663a9059cbb600160009054906101000a900473ffffffffffffffffffffffffffffffffffffffff16836040518363ffffffff1660e01b8152600401808373ffffffffffffffffffffffffffffffffffffffff16815260200182815260200192505050602060405180830381600087803b1580156109f657600080fd5b505af1158015610a0a573d6000803e3d6000fd5b505050506040513d6020811015610a2057600080fd5b810190808051906020019092919050505050600160009054906101000a900473ffffffffffffffffffffffffffffffffffffffff1673ffffffffffffffffffffffffffffffffffffffff166342966c68826040518263ffffffff1660e01b815260040180828152602001915050600060405180830381600087803b158015610aa757600080fd5b505af1158015610abb573d6000803e3d6000fd5b50505050505b60008054906101000a900473ffffffffffffffffffffffffffffffffffffffff1673ffffffffffffffffffffffffffffffffffffffff1663a9059cbb33846040518363ffffffff1660e01b8152600401808373ffffffffffffffffffffffffffffffffffffffff16815260200182815260200192505050602060405180830381600087803b158015610b5257600080fd5b505af1158015610b66573d6000803e3d6000fd5b505050506040513d6020811015610b7c57600080fd5b810190808051906020019092919050505050610ba58185600501546118d390919063ffffffff16565b8460050181905550600084600001541115610bd357610bca84600501546003546118a5565b84600301819055505b4284600201819055503373ffffffffffffffffffffffffffffffffffffffff167ff279e6a1f5e320cca91135676d9cb6e44ca8a08c0b88342bcdb1144f6511b5688387604051808381526020018281526020019250505060405180910390a25050505050565b60045481565b600080600c60003373ffffffffffffffffffffffffffffffffffffffff1673ffffffffffffffffffffffffffffffffffffffff1681526020019081526020016000209050600081600001541415610c9a576000915050610d6e565b610d6a8160050154610d5c8360040154610d4e8560030154610d4087600501543073ffffffffffffffffffffffffffffffffffffffff16636e5b96346040518163ffffffff1660e01b815260040160206040518083038186803b158015610d0057600080fd5b505afa158015610d14573d6000803e3d6000fd5b505050506040513d6020811015610d2a57600080fd5b81019080805190602001909291905050506118a5565b6118d390919063ffffffff16565b61195c90919063ffffffff16565b61195c90919063ffffffff16565b9150505b90565b600042905090565b60095481565b6000610e9f610e8e3073ffffffffffffffffffffffffffffffffffffffff1663fc3e532b6040518163ffffffff1660e01b815260040160206040518083038186803b158015610dcd57600080fd5b505afa158015610de1573d6000803e3d6000fd5b505050506040513d6020811015610df757600080fd5b81019080805190602001909291905050503073ffffffffffffffffffffffffffffffffffffffff1663f6153ccd6040518163ffffffff1660e01b815260040160206040518083038186803b158015610e4e57600080fd5b505afa158015610e62573d6000803e3d6000fd5b505050506040513d6020811015610e7857600080fd5b8101908080519060200190929190505050611af9565b60035461195c90919063ffffffff16565b905090565b6000806004541415610eb95760009050610f65565b610f62600454610f543073ffffffffffffffffffffffffffffffffffffffff16636e5b96346040518163ffffffff1660e01b815260040160206040518083038186803b158015610f0857600080fd5b505afa158015610f1c573d6000803e3d6000fd5b505050506040513d6020811015610f3257600080fd5b81019080805190602001909291905050506004546119e490919063ffffffff16565b611a6a90919063ffffffff16565b90505b90565b600260009054906101000a900473ffffffffffffffffffffffffffffffffffffffff1673ffffffffffffffffffffffffffffffffffffffff163373ffffffffffffffffffffffffffffffffffffffff161415610ffb578015610fd757610fcc610d71565b600981905550610fe0565b60006009819055505b80600a60006101000a81548160ff0219169083151502179055505b50565b600260009054906101000a900473ffffffffffffffffffffffffffffffffffffffff1681565b600080600c60003373ffffffffffffffffffffffffffffffffffffffff1673ffffffffffffffffffffffffffffffffffffffff168152602001908152602001600020905060008160000154141561107f576000915050611144565b600061110f82600501543073ffffffffffffffffffffffffffffffffffffffff16636e5b96346040518163ffffffff1660e01b815260040160206040518083038186803b1580156110cf57600080fd5b505afa1580156110e3573d6000803e3d6000fd5b505050506040513d60208110156110f957600080fd5b81019080805190602001909291905050506118a5565b9050816003015481111561113d576111348260030154826118d390919063ffffffff16565b92505050611144565b6000925050505b90565b600081116111bd576040517f08c379a00000000000000000000000000000000000000000000000000000000081526004018080602001828103825260128152602001807f4e6f7468696e6720746f206465706f736974000000000000000000000000000081525060200191505060405180910390fd5b6111c5611648565b6000600c60003373ffffffffffffffffffffffffffffffffffffffff1673ffffffffffffffffffffffffffffffffffffffff168152602001908152602001600020905060008160050154111561126457600061123d826003015461122f84600501546003546118a5565b6118d390919063ffffffff16565b905061125681836004015461195c90919063ffffffff16565b82600401819055505061126f565b600081600401819055505b60008054906101000a900473ffffffffffffffffffffffffffffffffffffffff1673ffffffffffffffffffffffffffffffffffffffff166323b872dd3330856040518463ffffffff1660e01b8152600401808473ffffffffffffffffffffffffffffffffffffffff1681526020018373ffffffffffffffffffffffffffffffffffffffff1681526020018281526020019350505050602060405180830381600087803b15801561131e57600080fd5b505af1158015611332573d6000803e3d6000fd5b505050506040513d602081101561134857600080fd5b8101908080519060200190929190505050506000611376611367611635565b846119e490919063ffffffff16565b905061138f81836000015461195c90919063ffffffff16565b82600001819055506113ac8160045461195c90919063ffffffff16565b6004819055506113c983836005015461195c90919063ffffffff16565b82600501819055506113e182600501546003546118a5565b82600301819055506113f1610d71565b8260020181905550611401610d71565b82600101819055503373ffffffffffffffffffffffffffffffffffffffff167f36af321ec8d3c75236829c5317affd40ddb308863a1236d2d277a4025cccee1e84834260405180848152602001838152602001828152602001935050505060405180910390a2505050565b600080620151809050600061147f610d71565b905060006001905060001515600a60009054906101000a900460ff16151514156114b757650ae9f7bcc0009050809350505050611585565b61012c600954018210156114ff576000622ab98090506114f7846114e9600b54600a0a846119e490919063ffffffff16565b611a6a90919063ffffffff16565b91505061157e565b6102586009540182101561154757600062155cc0905061153f84611531600b54600a0a846119e490919063ffffffff16565b611a6a90919063ffffffff16565b91505061157d565b60006201ddbc90506115798461156b600b54600a0a846119e490919063ffffffff16565b611a6a90919063ffffffff16565b9150505b5b8093505050505b90565b60065481565b600061162a61159b6104f9565b3073ffffffffffffffffffffffffffffffffffffffff1663fc3e532b6040518163ffffffff1660e01b815260040160206040518083038186803b1580156115e157600080fd5b505afa1580156115f5573d6000803e3d6000fd5b505050506040513d602081101561160b57600080fd5b810190808051906020019092919050505061195c90919063ffffffff16565b905090565b60035481565b6000600b54600a0a905090565b60085481565b6000611652610d71565b905060065481116116635750611814565b60006004541161167a578060068190555050611814565b600060065442039050600061169f61169061146c565b836119e490919063ffffffff16565b9050826006819055506116bd8160055461195c90919063ffffffff16565b600581905550611761611750823073ffffffffffffffffffffffffffffffffffffffff1663f6153ccd6040518163ffffffff1660e01b815260040160206040518083038186803b15801561171057600080fd5b505afa158015611724573d6000803e3d6000fd5b505050506040513d602081101561173a57600080fd5b8101908080519060200190929190505050611af9565b60035461195c90919063ffffffff16565b60038190555060008054906101000a900473ffffffffffffffffffffffffffffffffffffffff1673ffffffffffffffffffffffffffffffffffffffff166340c10f1930836040518363ffffffff1660e01b8152600401808373ffffffffffffffffffffffffffffffffffffffff16815260200182815260200192505050600060405180830381600087803b1580156117f857600080fd5b505af115801561180c573d6000803e3d6000fd5b505050505050505b565b600a60009054906101000a900460ff1681565b60075481565b600061184e670de0b6b3a7640000600454611a6a90919063ffffffff16565b905090565b60008061185e610d71565b90506000600454116118745760009150506118a2565b600060065482039050600061189961188a61146c565b836119e490919063ffffffff16565b90508093505050505b90565b6000670de0b6b3a76400006118c383856119e490919063ffffffff16565b816118ca57fe5b04905092915050565b60008282111561194b576040517f08c379a000000000000000000000000000000000000000000000000000000000815260040180806020018281038252601e8152602001807f536166654d6174683a207375627472616374696f6e206f766572666c6f77000081525060200191505060405180910390fd5b600082840390508091505092915050565b6000808284019050838110156119da576040517f08c379a000000000000000000000000000000000000000000000000000000000815260040180806020018281038252601b8152602001807f536166654d6174683a206164646974696f6e206f766572666c6f77000000000081525060200191505060405180910390fd5b8091505092915050565b6000808314156119f75760009050611a64565b6000828402905082848281611a0857fe5b0414611a5f576040517f08c379a0000000000000000000000000000000000000000000000000000000008152600401808060200182810382526021815260200180611b316021913960400191505060405180910390fd5b809150505b92915050565b6000808211611ae1576040517f08c379a000000000000000000000000000000000000000000000000000000000815260040180806020018281038252601a8152602001807f536166654d6174683a206469766973696f6e206279207a65726f00000000000081525060200191505060405180910390fd5b6000828481611aec57fe5b0490508091505092915050565b6000611b2882611b1a670de0b6b3a7640000866119e490919063ffffffff16565b611a6a90919063ffffffff16565b90509291505056fe536166654d6174683a206d756c7469706c69636174696f6e206f766572666c6f77a2646970667358221220c0f842b06e7dbbaaf8121ec704af3383d8ee7a6318e421d9dd7b287c7af08e3264736f6c634300060c0033",
					"opcodes": "PUSH1 0x80 PUSH1 0x40 MSTORE PUSH1 0x0 PUSH1 0x3 SSTORE PUSH1 0x0 PUSH1 0x4 SSTORE PUSH1 0x0 PUSH1 0x5 SSTORE PUSH1 0x0 PUSH1 0x6 SSTORE PUSH2 0x3E8 PUSH1 0x7 SSTORE PUSH3 0x93A80 PUSH1 0x8 SSTORE PUSH1 0x0 PUSH1 0x9 SSTORE PUSH1 0x0 PUSH1 0xA PUSH1 0x0 PUSH2 0x100 EXP DUP2 SLOAD DUP2 PUSH1 0xFF MUL NOT AND SWAP1 DUP4 ISZERO ISZERO MUL OR SWAP1 SSTORE POP PUSH1 0x12 PUSH1 0xB SSTORE CALLVALUE DUP1 ISZERO PUSH2 0x56 JUMPI PUSH1 0x0 DUP1 REVERT JUMPDEST POP PUSH1 0x40 MLOAD PUSH2 0x1D0F CODESIZE SUB DUP1 PUSH2 0x1D0F DUP4 CODECOPY DUP2 DUP2 ADD PUSH1 0x40 MSTORE PUSH1 0x40 DUP2 LT ISZERO PUSH2 0x79 JUMPI PUSH1 0x0 DUP1 REVERT JUMPDEST DUP2 ADD SWAP1 DUP1 DUP1 MLOAD SWAP1 PUSH1 0x20 ADD SWAP1 SWAP3 SWAP2 SWAP1 DUP1 MLOAD SWAP1 PUSH1 0x20 ADD SWAP1 SWAP3 SWAP2 SWAP1 POP POP POP DUP2 PUSH1 0x0 DUP1 PUSH2 0x100 EXP DUP2 SLOAD DUP2 PUSH20 0xFFFFFFFFFFFFFFFFFFFFFFFFFFFFFFFFFFFFFFFF MUL NOT AND SWAP1 DUP4 PUSH20 0xFFFFFFFFFFFFFFFFFFFFFFFFFFFFFFFFFFFFFFFF AND MUL OR SWAP1 SSTORE POP CALLER PUSH1 0x2 PUSH1 0x0 PUSH2 0x100 EXP DUP2 SLOAD DUP2 PUSH20 0xFFFFFFFFFFFFFFFFFFFFFFFFFFFFFFFFFFFFFFFF MUL NOT AND SWAP1 DUP4 PUSH20 0xFFFFFFFFFFFFFFFFFFFFFFFFFFFFFFFFFFFFFFFF AND MUL OR SWAP1 SSTORE POP PUSH2 0x123 PUSH2 0x171 PUSH1 0x20 SHL PUSH1 0x20 SHR JUMP JUMPDEST PUSH1 0x6 DUP2 SWAP1 SSTORE POP DUP1 PUSH1 0x1 PUSH1 0x0 PUSH2 0x100 EXP DUP2 SLOAD DUP2 PUSH20 0xFFFFFFFFFFFFFFFFFFFFFFFFFFFFFFFFFFFFFFFF MUL NOT AND SWAP1 DUP4 PUSH20 0xFFFFFFFFFFFFFFFFFFFFFFFFFFFFFFFFFFFFFFFF AND MUL OR SWAP1 SSTORE POP POP POP PUSH2 0x179 JUMP JUMPDEST PUSH1 0x0 TIMESTAMP SWAP1 POP SWAP1 JUMP JUMPDEST PUSH2 0x1B87 DUP1 PUSH2 0x188 PUSH1 0x0 CODECOPY PUSH1 0x0 RETURN INVALID PUSH1 0x80 PUSH1 0x40 MSTORE CALLVALUE DUP1 ISZERO PUSH2 0x10 JUMPI PUSH1 0x0 DUP1 REVERT JUMPDEST POP PUSH1 0x4 CALLDATASIZE LT PUSH2 0x173 JUMPI PUSH1 0x0 CALLDATALOAD PUSH1 0xE0 SHR DUP1 PUSH4 0x936B6CEC GT PUSH2 0xDE JUMPI DUP1 PUSH4 0xDE0FF7C5 GT PUSH2 0x97 JUMPI DUP1 PUSH4 0xE6FA445D GT PUSH2 0x71 JUMPI DUP1 PUSH4 0xE6FA445D EQ PUSH2 0x47F JUMPI DUP1 PUSH4 0xE941FA78 EQ PUSH2 0x49F JUMPI DUP1 PUSH4 0xF6153CCD EQ PUSH2 0x4BD JUMPI DUP1 PUSH4 0xFC3E532B EQ PUSH2 0x4DB JUMPI PUSH2 0x173 JUMP JUMPDEST DUP1 PUSH4 0xDE0FF7C5 EQ PUSH2 0x439 JUMPI DUP1 PUSH4 0xDF10B4E6 EQ PUSH2 0x457 JUMPI DUP1 PUSH4 0xE3161DDD EQ PUSH2 0x475 JUMPI PUSH2 0x173 JUMP JUMPDEST DUP1 PUSH4 0x936B6CEC EQ PUSH2 0x375 JUMPI DUP1 PUSH4 0xB6B55F25 EQ PUSH2 0x393 JUMPI DUP1 PUSH4 0xB8A3B366 EQ PUSH2 0x3C1 JUMPI DUP1 PUSH4 0xC8F33C91 EQ PUSH2 0x3DF JUMPI DUP1 PUSH4 0xD201114A EQ PUSH2 0x3FD JUMPI DUP1 PUSH4 0xD2890A01 EQ PUSH2 0x41B JUMPI PUSH2 0x173 JUMP JUMPDEST DUP1 PUSH4 0x557ED1BA GT PUSH2 0x130 JUMPI DUP1 PUSH4 0x557ED1BA EQ PUSH2 0x299 JUMPI DUP1 PUSH4 0x6ABFD183 EQ PUSH2 0x2B7 JUMPI DUP1 PUSH4 0x6E5B9634 EQ PUSH2 0x2D5 JUMPI DUP1 PUSH4 0x77926869 EQ PUSH2 0x2F3 JUMPI DUP1 PUSH4 0x81AD5718 EQ PUSH2 0x311 JUMPI DUP1 PUSH4 0x8DA5CB5B EQ PUSH2 0x341 JUMPI PUSH2 0x173 JUMP JUMPDEST DUP1 PUSH4 0x497DE4A EQ PUSH2 0x178 JUMPI DUP1 PUSH4 0x1959A002 EQ PUSH2 0x196 JUMPI DUP1 PUSH4 0x1A39D8EF EQ PUSH2 0x211 JUMPI DUP1 PUSH4 0x2E1A7D4D EQ PUSH2 0x22F JUMPI DUP1 PUSH4 0x3A98EF39 EQ PUSH2 0x25D JUMPI DUP1 PUSH4 0x47F1AAE7 EQ PUSH2 0x27B JUMPI JUMPDEST PUSH1 0x0 DUP1 REVERT JUMPDEST PUSH2 0x180 PUSH2 0x4F9 JUMP JUMPDEST PUSH1 0x40 MLOAD DUP1 DUP3 DUP2 MSTORE PUSH1 0x20 ADD SWAP2 POP POP PUSH1 0x40 MLOAD DUP1 SWAP2 SUB SWAP1 RETURN JUMPDEST PUSH2 0x1D8 PUSH1 0x4 DUP1 CALLDATASIZE SUB PUSH1 0x20 DUP2 LT ISZERO PUSH2 0x1AC JUMPI PUSH1 0x0 DUP1 REVERT JUMPDEST DUP2 ADD SWAP1 DUP1 DUP1 CALLDATALOAD PUSH20 0xFFFFFFFFFFFFFFFFFFFFFFFFFFFFFFFFFFFFFFFF AND SWAP1 PUSH1 0x20 ADD SWAP1 SWAP3 SWAP2 SWAP1 POP POP POP PUSH2 0x5C3 JUMP JUMPDEST PUSH1 0x40 MLOAD DUP1 DUP8 DUP2 MSTORE PUSH1 0x20 ADD DUP7 DUP2 MSTORE PUSH1 0x20 ADD DUP6 DUP2 MSTORE PUSH1 0x20 ADD DUP5 DUP2 MSTORE PUSH1 0x20 ADD DUP4 DUP2 MSTORE PUSH1 0x20 ADD DUP3 DUP2 MSTORE PUSH1 0x20 ADD SWAP7 POP POP POP POP POP POP POP PUSH1 0x40 MLOAD DUP1 SWAP2 SUB SWAP1 RETURN JUMPDEST PUSH2 0x219 PUSH2 0x5FF JUMP JUMPDEST PUSH1 0x40 MLOAD DUP1 DUP3 DUP2 MSTORE PUSH1 0x20 ADD SWAP2 POP POP PUSH1 0x40 MLOAD DUP1 SWAP2 SUB SWAP1 RETURN JUMPDEST PUSH2 0x25B PUSH1 0x4 DUP1 CALLDATASIZE SUB PUSH1 0x20 DUP2 LT ISZERO PUSH2 0x245 JUMPI PUSH1 0x0 DUP1 REVERT JUMPDEST DUP2 ADD SWAP1 DUP1 DUP1 CALLDATALOAD SWAP1 PUSH1 0x20 ADD SWAP1 SWAP3 SWAP2 SWAP1 POP POP POP PUSH2 0x605 JUMP JUMPDEST STOP JUMPDEST PUSH2 0x265 PUSH2 0xC39 JUMP JUMPDEST PUSH1 0x40 MLOAD DUP1 DUP3 DUP2 MSTORE PUSH1 0x20 ADD SWAP2 POP POP PUSH1 0x40 MLOAD DUP1 SWAP2 SUB SWAP1 RETURN JUMPDEST PUSH2 0x283 PUSH2 0xC3F JUMP JUMPDEST PUSH1 0x40 MLOAD DUP1 DUP3 DUP2 MSTORE PUSH1 0x20 ADD SWAP2 POP POP PUSH1 0x40 MLOAD DUP1 SWAP2 SUB SWAP1 RETURN JUMPDEST PUSH2 0x2A1 PUSH2 0xD71 JUMP JUMPDEST PUSH1 0x40 MLOAD DUP1 DUP3 DUP2 MSTORE PUSH1 0x20 ADD SWAP2 POP POP PUSH1 0x40 MLOAD DUP1 SWAP2 SUB SWAP1 RETURN JUMPDEST PUSH2 0x2BF PUSH2 0xD79 JUMP JUMPDEST PUSH1 0x40 MLOAD DUP1 DUP3 DUP2 MSTORE PUSH1 0x20 ADD SWAP2 POP POP PUSH1 0x40 MLOAD DUP1 SWAP2 SUB SWAP1 RETURN JUMPDEST PUSH2 0x2DD PUSH2 0xD7F JUMP JUMPDEST PUSH1 0x40 MLOAD DUP1 DUP3 DUP2 MSTORE PUSH1 0x20 ADD SWAP2 POP POP PUSH1 0x40 MLOAD DUP1 SWAP2 SUB SWAP1 RETURN JUMPDEST PUSH2 0x2FB PUSH2 0xEA4 JUMP JUMPDEST PUSH1 0x40 MLOAD DUP1 DUP3 DUP2 MSTORE PUSH1 0x20 ADD SWAP2 POP POP PUSH1 0x40 MLOAD DUP1 SWAP2 SUB SWAP1 RETURN JUMPDEST PUSH2 0x33F PUSH1 0x4 DUP1 CALLDATASIZE SUB PUSH1 0x20 DUP2 LT ISZERO PUSH2 0x327 JUMPI PUSH1 0x0 DUP1 REVERT JUMPDEST DUP2 ADD SWAP1 DUP1 DUP1 CALLDATALOAD ISZERO ISZERO SWAP1 PUSH1 0x20 ADD SWAP1 SWAP3 SWAP2 SWAP1 POP POP POP PUSH2 0xF68 JUMP JUMPDEST STOP JUMPDEST PUSH2 0x349 PUSH2 0xFFE JUMP JUMPDEST PUSH1 0x40 MLOAD DUP1 DUP3 PUSH20 0xFFFFFFFFFFFFFFFFFFFFFFFFFFFFFFFFFFFFFFFF AND DUP2 MSTORE PUSH1 0x20 ADD SWAP2 POP POP PUSH1 0x40 MLOAD DUP1 SWAP2 SUB SWAP1 RETURN JUMPDEST PUSH2 0x37D PUSH2 0x1024 JUMP JUMPDEST PUSH1 0x40 MLOAD DUP1 DUP3 DUP2 MSTORE PUSH1 0x20 ADD SWAP2 POP POP PUSH1 0x40 MLOAD DUP1 SWAP2 SUB SWAP1 RETURN JUMPDEST PUSH2 0x3BF PUSH1 0x4 DUP1 CALLDATASIZE SUB PUSH1 0x20 DUP2 LT ISZERO PUSH2 0x3A9 JUMPI PUSH1 0x0 DUP1 REVERT JUMPDEST DUP2 ADD SWAP1 DUP1 DUP1 CALLDATALOAD SWAP1 PUSH1 0x20 ADD SWAP1 SWAP3 SWAP2 SWAP1 POP POP POP PUSH2 0x1147 JUMP JUMPDEST STOP JUMPDEST PUSH2 0x3C9 PUSH2 0x146C JUMP JUMPDEST PUSH1 0x40 MLOAD DUP1 DUP3 DUP2 MSTORE PUSH1 0x20 ADD SWAP2 POP POP PUSH1 0x40 MLOAD DUP1 SWAP2 SUB SWAP1 RETURN JUMPDEST PUSH2 0x3E7 PUSH2 0x1588 JUMP JUMPDEST PUSH1 0x40 MLOAD DUP1 DUP3 DUP2 MSTORE PUSH1 0x20 ADD SWAP2 POP POP PUSH1 0x40 MLOAD DUP1 SWAP2 SUB SWAP1 RETURN JUMPDEST PUSH2 0x405 PUSH2 0x158E JUMP JUMPDEST PUSH1 0x40 MLOAD DUP1 DUP3 DUP2 MSTORE PUSH1 0x20 ADD SWAP2 POP POP PUSH1 0x40 MLOAD DUP1 SWAP2 SUB SWAP1 RETURN JUMPDEST PUSH2 0x423 PUSH2 0x162F JUMP JUMPDEST PUSH1 0x40 MLOAD DUP1 DUP3 DUP2 MSTORE PUSH1 0x20 ADD SWAP2 POP POP PUSH1 0x40 MLOAD DUP1 SWAP2 SUB SWAP1 RETURN JUMPDEST PUSH2 0x441 PUSH2 0x1635 JUMP JUMPDEST PUSH1 0x40 MLOAD DUP1 DUP3 DUP2 MSTORE PUSH1 0x20 ADD SWAP2 POP POP PUSH1 0x40 MLOAD DUP1 SWAP2 SUB SWAP1 RETURN JUMPDEST PUSH2 0x45F PUSH2 0x1642 JUMP JUMPDEST PUSH1 0x40 MLOAD DUP1 DUP3 DUP2 MSTORE PUSH1 0x20 ADD SWAP2 POP POP PUSH1 0x40 MLOAD DUP1 SWAP2 SUB SWAP1 RETURN JUMPDEST PUSH2 0x47D PUSH2 0x1648 JUMP JUMPDEST STOP JUMPDEST PUSH2 0x487 PUSH2 0x1816 JUMP JUMPDEST PUSH1 0x40 MLOAD DUP1 DUP3 ISZERO ISZERO DUP2 MSTORE PUSH1 0x20 ADD SWAP2 POP POP PUSH1 0x40 MLOAD DUP1 SWAP2 SUB SWAP1 RETURN JUMPDEST PUSH2 0x4A7 PUSH2 0x1829 JUMP JUMPDEST PUSH1 0x40 MLOAD DUP1 DUP3 DUP2 MSTORE PUSH1 0x20 ADD SWAP2 POP POP PUSH1 0x40 MLOAD DUP1 SWAP2 SUB SWAP1 RETURN JUMPDEST PUSH2 0x4C5 PUSH2 0x182F JUMP JUMPDEST PUSH1 0x40 MLOAD DUP1 DUP3 DUP2 MSTORE PUSH1 0x20 ADD SWAP2 POP POP PUSH1 0x40 MLOAD DUP1 SWAP2 SUB SWAP1 RETURN JUMPDEST PUSH2 0x4E3 PUSH2 0x1853 JUMP JUMPDEST PUSH1 0x40 MLOAD DUP1 DUP3 DUP2 MSTORE PUSH1 0x20 ADD SWAP2 POP POP PUSH1 0x40 MLOAD DUP1 SWAP2 SUB SWAP1 RETURN JUMPDEST PUSH1 0x0 DUP1 PUSH1 0x0 SWAP1 SLOAD SWAP1 PUSH2 0x100 EXP SWAP1 DIV PUSH20 0xFFFFFFFFFFFFFFFFFFFFFFFFFFFFFFFFFFFFFFFF AND PUSH20 0xFFFFFFFFFFFFFFFFFFFFFFFFFFFFFFFFFFFFFFFF AND PUSH4 0x70A08231 ADDRESS PUSH1 0x40 MLOAD DUP3 PUSH4 0xFFFFFFFF AND PUSH1 0xE0 SHL DUP2 MSTORE PUSH1 0x4 ADD DUP1 DUP3 PUSH20 0xFFFFFFFFFFFFFFFFFFFFFFFFFFFFFFFFFFFFFFFF AND DUP2 MSTORE PUSH1 0x20 ADD SWAP2 POP POP PUSH1 0x20 PUSH1 0x40 MLOAD DUP1 DUP4 SUB DUP2 DUP7 DUP1 EXTCODESIZE ISZERO DUP1 ISZERO PUSH2 0x583 JUMPI PUSH1 0x0 DUP1 REVERT JUMPDEST POP GAS STATICCALL ISZERO DUP1 ISZERO PUSH2 0x597 JUMPI RETURNDATASIZE PUSH1 0x0 DUP1 RETURNDATACOPY RETURNDATASIZE PUSH1 0x0 REVERT JUMPDEST POP POP POP POP PUSH1 0x40 MLOAD RETURNDATASIZE PUSH1 0x20 DUP2 LT ISZERO PUSH2 0x5AD JUMPI PUSH1 0x0 DUP1 REVERT JUMPDEST DUP2 ADD SWAP1 DUP1 DUP1 MLOAD SWAP1 PUSH1 0x20 ADD SWAP1 SWAP3 SWAP2 SWAP1 POP POP POP SWAP1 POP SWAP1 JUMP JUMPDEST PUSH1 0xC PUSH1 0x20 MSTORE DUP1 PUSH1 0x0 MSTORE PUSH1 0x40 PUSH1 0x0 KECCAK256 PUSH1 0x0 SWAP2 POP SWAP1 POP DUP1 PUSH1 0x0 ADD SLOAD SWAP1 DUP1 PUSH1 0x1 ADD SLOAD SWAP1 DUP1 PUSH1 0x2 ADD SLOAD SWAP1 DUP1 PUSH1 0x3 ADD SLOAD SWAP1 DUP1 PUSH1 0x4 ADD SLOAD SWAP1 DUP1 PUSH1 0x5 ADD SLOAD SWAP1 POP DUP7 JUMP JUMPDEST PUSH1 0x5 SLOAD DUP2 JUMP JUMPDEST PUSH1 0x0 PUSH1 0xC PUSH1 0x0 CALLER PUSH20 0xFFFFFFFFFFFFFFFFFFFFFFFFFFFFFFFFFFFFFFFF AND PUSH20 0xFFFFFFFFFFFFFFFFFFFFFFFFFFFFFFFFFFFFFFFF AND DUP2 MSTORE PUSH1 0x20 ADD SWAP1 DUP2 MSTORE PUSH1 0x20 ADD PUSH1 0x0 KECCAK256 SWAP1 POP PUSH1 0x0 DUP3 GT PUSH2 0x6BE JUMPI PUSH1 0x40 MLOAD PUSH32 0x8C379A000000000000000000000000000000000000000000000000000000000 DUP2 MSTORE PUSH1 0x4 ADD DUP1 DUP1 PUSH1 0x20 ADD DUP3 DUP2 SUB DUP3 MSTORE PUSH1 0x13 DUP2 MSTORE PUSH1 0x20 ADD DUP1 PUSH32 0x4E6F7468696E6720746F20776974686472617700000000000000000000000000 DUP2 MSTORE POP PUSH1 0x20 ADD SWAP2 POP POP PUSH1 0x40 MLOAD DUP1 SWAP2 SUB SWAP1 REVERT JUMPDEST DUP1 PUSH1 0x0 ADD SLOAD DUP3 GT ISZERO PUSH2 0x738 JUMPI PUSH1 0x40 MLOAD PUSH32 0x8C379A000000000000000000000000000000000000000000000000000000000 DUP2 MSTORE PUSH1 0x4 ADD DUP1 DUP1 PUSH1 0x20 ADD DUP3 DUP2 SUB DUP3 MSTORE PUSH1 0x1F DUP2 MSTORE PUSH1 0x20 ADD DUP1 PUSH32 0x576974686472617720616D6F756E7420657863656564732062616C616E636500 DUP2 MSTORE POP PUSH1 0x20 ADD SWAP2 POP POP PUSH1 0x40 MLOAD DUP1 SWAP2 SUB SWAP1 REVERT JUMPDEST PUSH2 0x740 PUSH2 0x1648 JUMP JUMPDEST PUSH1 0x0 PUSH2 0x77E DUP3 PUSH1 0x4 ADD SLOAD PUSH2 0x770 DUP5 PUSH1 0x3 ADD SLOAD PUSH2 0x762 DUP7 PUSH1 0x5 ADD SLOAD PUSH1 0x3 SLOAD PUSH2 0x18A5 JUMP JUMPDEST PUSH2 0x18D3 SWAP1 SWAP2 SWAP1 PUSH4 0xFFFFFFFF AND JUMP JUMPDEST PUSH2 0x195C SWAP1 SWAP2 SWAP1 PUSH4 0xFFFFFFFF AND JUMP JUMPDEST SWAP1 POP PUSH1 0x0 PUSH2 0x7AB DUP4 PUSH1 0x0 ADD SLOAD PUSH2 0x79D DUP7 DUP6 PUSH2 0x19E4 SWAP1 SWAP2 SWAP1 PUSH4 0xFFFFFFFF AND JUMP JUMPDEST PUSH2 0x1A6A SWAP1 SWAP2 SWAP1 PUSH4 0xFFFFFFFF AND JUMP JUMPDEST SWAP1 POP PUSH1 0x0 PUSH2 0x7DC DUP5 PUSH1 0x0 ADD SLOAD PUSH2 0x7CE DUP8 DUP8 PUSH1 0x5 ADD SLOAD PUSH2 0x19E4 SWAP1 SWAP2 SWAP1 PUSH4 0xFFFFFFFF AND JUMP JUMPDEST PUSH2 0x1A6A SWAP1 SWAP2 SWAP1 PUSH4 0xFFFFFFFF AND JUMP JUMPDEST SWAP1 POP PUSH2 0x7F5 DUP6 DUP6 PUSH1 0x0 ADD SLOAD PUSH2 0x18D3 SWAP1 SWAP2 SWAP1 PUSH4 0xFFFFFFFF AND JUMP JUMPDEST DUP5 PUSH1 0x0 ADD DUP2 SWAP1 SSTORE POP PUSH2 0x812 DUP6 PUSH1 0x4 SLOAD PUSH2 0x18D3 SWAP1 SWAP2 SWAP1 PUSH4 0xFFFFFFFF AND JUMP JUMPDEST PUSH1 0x4 DUP2 SWAP1 SSTORE POP DUP2 PUSH1 0x5 SLOAD LT ISZERO PUSH2 0x890 JUMPI PUSH1 0x40 MLOAD PUSH32 0x8C379A000000000000000000000000000000000000000000000000000000000 DUP2 MSTORE PUSH1 0x4 ADD DUP1 DUP1 PUSH1 0x20 ADD DUP3 DUP2 SUB DUP3 MSTORE PUSH1 0x1F DUP2 MSTORE PUSH1 0x20 ADD DUP1 PUSH32 0x576974686472617720616D6F756E7420657863656564732062616C616E636500 DUP2 MSTORE POP PUSH1 0x20 ADD SWAP2 POP POP PUSH1 0x40 MLOAD DUP1 SWAP2 SUB SWAP1 REVERT JUMPDEST PUSH2 0x8A5 DUP3 PUSH1 0x5 SLOAD PUSH2 0x18D3 SWAP1 SWAP2 SWAP1 PUSH4 0xFFFFFFFF AND JUMP JUMPDEST PUSH1 0x5 DUP2 SWAP1 SSTORE POP PUSH2 0x8BE DUP3 DUP5 PUSH2 0x18D3 SWAP1 SWAP2 SWAP1 PUSH4 0xFFFFFFFF AND JUMP JUMPDEST DUP5 PUSH1 0x4 ADD DUP2 SWAP1 SSTORE POP PUSH2 0x8D9 DUP2 DUP4 PUSH2 0x195C SWAP1 SWAP2 SWAP1 PUSH4 0xFFFFFFFF AND JUMP JUMPDEST SWAP2 POP PUSH2 0x8F4 PUSH1 0x8 SLOAD DUP6 PUSH1 0x1 ADD SLOAD PUSH2 0x195C SWAP1 SWAP2 SWAP1 PUSH4 0xFFFFFFFF AND JUMP JUMPDEST PUSH2 0x8FC PUSH2 0xD71 JUMP JUMPDEST LT ISZERO PUSH2 0xAC1 JUMPI PUSH1 0x0 PUSH2 0x92C PUSH2 0x2710 PUSH2 0x91E PUSH1 0x64 DUP7 PUSH2 0x19E4 SWAP1 SWAP2 SWAP1 PUSH4 0xFFFFFFFF AND JUMP JUMPDEST PUSH2 0x1A6A SWAP1 SWAP2 SWAP1 PUSH4 0xFFFFFFFF AND JUMP JUMPDEST SWAP1 POP PUSH2 0x941 DUP2 DUP5 PUSH2 0x18D3 SWAP1 SWAP2 SWAP1 PUSH4 0xFFFFFFFF AND JUMP JUMPDEST SWAP3 POP PUSH1 0x0 DUP1 SLOAD SWAP1 PUSH2 0x100 EXP SWAP1 DIV PUSH20 0xFFFFFFFFFFFFFFFFFFFFFFFFFFFFFFFFFFFFFFFF AND PUSH20 0xFFFFFFFFFFFFFFFFFFFFFFFFFFFFFFFFFFFFFFFF AND PUSH4 0xA9059CBB PUSH1 0x1 PUSH1 0x0 SWAP1 SLOAD SWAP1 PUSH2 0x100 EXP SWAP1 DIV PUSH20 0xFFFFFFFFFFFFFFFFFFFFFFFFFFFFFFFFFFFFFFFF AND DUP4 PUSH1 0x40 MLOAD DUP4 PUSH4 0xFFFFFFFF AND PUSH1 0xE0 SHL DUP2 MSTORE PUSH1 0x4 ADD DUP1 DUP4 PUSH20 0xFFFFFFFFFFFFFFFFFFFFFFFFFFFFFFFFFFFFFFFF AND DUP2 MSTORE PUSH1 0x20 ADD DUP3 DUP2 MSTORE PUSH1 0x20 ADD SWAP3 POP POP POP PUSH1 0x20 PUSH1 0x40 MLOAD DUP1 DUP4 SUB DUP2 PUSH1 0x0 DUP8 DUP1 EXTCODESIZE ISZERO DUP1 ISZERO PUSH2 0x9F6 JUMPI PUSH1 0x0 DUP1 REVERT JUMPDEST POP GAS CALL ISZERO DUP1 ISZERO PUSH2 0xA0A JUMPI RETURNDATASIZE PUSH1 0x0 DUP1 RETURNDATACOPY RETURNDATASIZE PUSH1 0x0 REVERT JUMPDEST POP POP POP POP PUSH1 0x40 MLOAD RETURNDATASIZE PUSH1 0x20 DUP2 LT ISZERO PUSH2 0xA20 JUMPI PUSH1 0x0 DUP1 REVERT JUMPDEST DUP2 ADD SWAP1 DUP1 DUP1 MLOAD SWAP1 PUSH1 0x20 ADD SWAP1 SWAP3 SWAP2 SWAP1 POP POP POP POP PUSH1 0x1 PUSH1 0x0 SWAP1 SLOAD SWAP1 PUSH2 0x100 EXP SWAP1 DIV PUSH20 0xFFFFFFFFFFFFFFFFFFFFFFFFFFFFFFFFFFFFFFFF AND PUSH20 0xFFFFFFFFFFFFFFFFFFFFFFFFFFFFFFFFFFFFFFFF AND PUSH4 0x42966C68 DUP3 PUSH1 0x40 MLOAD DUP3 PUSH4 0xFFFFFFFF AND PUSH1 0xE0 SHL DUP2 MSTORE PUSH1 0x4 ADD DUP1 DUP3 DUP2 MSTORE PUSH1 0x20 ADD SWAP2 POP POP PUSH1 0x0 PUSH1 0x40 MLOAD DUP1 DUP4 SUB DUP2 PUSH1 0x0 DUP8 DUP1 EXTCODESIZE ISZERO DUP1 ISZERO PUSH2 0xAA7 JUMPI PUSH1 0x0 DUP1 REVERT JUMPDEST POP GAS CALL ISZERO DUP1 ISZERO PUSH2 0xABB JUMPI RETURNDATASIZE PUSH1 0x0 DUP1 RETURNDATACOPY RETURNDATASIZE PUSH1 0x0 REVERT JUMPDEST POP POP POP POP POP JUMPDEST PUSH1 0x0 DUP1 SLOAD SWAP1 PUSH2 0x100 EXP SWAP1 DIV PUSH20 0xFFFFFFFFFFFFFFFFFFFFFFFFFFFFFFFFFFFFFFFF AND PUSH20 0xFFFFFFFFFFFFFFFFFFFFFFFFFFFFFFFFFFFFFFFF AND PUSH4 0xA9059CBB CALLER DUP5 PUSH1 0x40 MLOAD DUP4 PUSH4 0xFFFFFFFF AND PUSH1 0xE0 SHL DUP2 MSTORE PUSH1 0x4 ADD DUP1 DUP4 PUSH20 0xFFFFFFFFFFFFFFFFFFFFFFFFFFFFFFFFFFFFFFFF AND DUP2 MSTORE PUSH1 0x20 ADD DUP3 DUP2 MSTORE PUSH1 0x20 ADD SWAP3 POP POP POP PUSH1 0x20 PUSH1 0x40 MLOAD DUP1 DUP4 SUB DUP2 PUSH1 0x0 DUP8 DUP1 EXTCODESIZE ISZERO DUP1 ISZERO PUSH2 0xB52 JUMPI PUSH1 0x0 DUP1 REVERT JUMPDEST POP GAS CALL ISZERO DUP1 ISZERO PUSH2 0xB66 JUMPI RETURNDATASIZE PUSH1 0x0 DUP1 RETURNDATACOPY RETURNDATASIZE PUSH1 0x0 REVERT JUMPDEST POP POP POP POP PUSH1 0x40 MLOAD RETURNDATASIZE PUSH1 0x20 DUP2 LT ISZERO PUSH2 0xB7C JUMPI PUSH1 0x0 DUP1 REVERT JUMPDEST DUP2 ADD SWAP1 DUP1 DUP1 MLOAD SWAP1 PUSH1 0x20 ADD SWAP1 SWAP3 SWAP2 SWAP1 POP POP POP POP PUSH2 0xBA5 DUP2 DUP6 PUSH1 0x5 ADD SLOAD PUSH2 0x18D3 SWAP1 SWAP2 SWAP1 PUSH4 0xFFFFFFFF AND JUMP JUMPDEST DUP5 PUSH1 0x5 ADD DUP2 SWAP1 SSTORE POP PUSH1 0x0 DUP5 PUSH1 0x0 ADD SLOAD GT ISZERO PUSH2 0xBD3 JUMPI PUSH2 0xBCA DUP5 PUSH1 0x5 ADD SLOAD PUSH1 0x3 SLOAD PUSH2 0x18A5 JUMP JUMPDEST DUP5 PUSH1 0x3 ADD DUP2 SWAP1 SSTORE POP JUMPDEST TIMESTAMP DUP5 PUSH1 0x2 ADD DUP2 SWAP1 SSTORE POP CALLER PUSH20 0xFFFFFFFFFFFFFFFFFFFFFFFFFFFFFFFFFFFFFFFF AND PUSH32 0xF279E6A1F5E320CCA91135676D9CB6E44CA8A08C0B88342BCDB1144F6511B568 DUP4 DUP8 PUSH1 0x40 MLOAD DUP1 DUP4 DUP2 MSTORE PUSH1 0x20 ADD DUP3 DUP2 MSTORE PUSH1 0x20 ADD SWAP3 POP POP POP PUSH1 0x40 MLOAD DUP1 SWAP2 SUB SWAP1 LOG2 POP POP POP POP POP JUMP JUMPDEST PUSH1 0x4 SLOAD DUP2 JUMP JUMPDEST PUSH1 0x0 DUP1 PUSH1 0xC PUSH1 0x0 CALLER PUSH20 0xFFFFFFFFFFFFFFFFFFFFFFFFFFFFFFFFFFFFFFFF AND PUSH20 0xFFFFFFFFFFFFFFFFFFFFFFFFFFFFFFFFFFFFFFFF AND DUP2 MSTORE PUSH1 0x20 ADD SWAP1 DUP2 MSTORE PUSH1 0x20 ADD PUSH1 0x0 KECCAK256 SWAP1 POP PUSH1 0x0 DUP2 PUSH1 0x0 ADD SLOAD EQ ISZERO PUSH2 0xC9A JUMPI PUSH1 0x0 SWAP2 POP POP PUSH2 0xD6E JUMP JUMPDEST PUSH2 0xD6A DUP2 PUSH1 0x5 ADD SLOAD PUSH2 0xD5C DUP4 PUSH1 0x4 ADD SLOAD PUSH2 0xD4E DUP6 PUSH1 0x3 ADD SLOAD PUSH2 0xD40 DUP8 PUSH1 0x5 ADD SLOAD ADDRESS PUSH20 0xFFFFFFFFFFFFFFFFFFFFFFFFFFFFFFFFFFFFFFFF AND PUSH4 0x6E5B9634 PUSH1 0x40 MLOAD DUP2 PUSH4 0xFFFFFFFF AND PUSH1 0xE0 SHL DUP2 MSTORE PUSH1 0x4 ADD PUSH1 0x20 PUSH1 0x40 MLOAD DUP1 DUP4 SUB DUP2 DUP7 DUP1 EXTCODESIZE ISZERO DUP1 ISZERO PUSH2 0xD00 JUMPI PUSH1 0x0 DUP1 REVERT JUMPDEST POP GAS STATICCALL ISZERO DUP1 ISZERO PUSH2 0xD14 JUMPI RETURNDATASIZE PUSH1 0x0 DUP1 RETURNDATACOPY RETURNDATASIZE PUSH1 0x0 REVERT JUMPDEST POP POP POP POP PUSH1 0x40 MLOAD RETURNDATASIZE PUSH1 0x20 DUP2 LT ISZERO PUSH2 0xD2A JUMPI PUSH1 0x0 DUP1 REVERT JUMPDEST DUP2 ADD SWAP1 DUP1 DUP1 MLOAD SWAP1 PUSH1 0x20 ADD SWAP1 SWAP3 SWAP2 SWAP1 POP POP POP PUSH2 0x18A5 JUMP JUMPDEST PUSH2 0x18D3 SWAP1 SWAP2 SWAP1 PUSH4 0xFFFFFFFF AND JUMP JUMPDEST PUSH2 0x195C SWAP1 SWAP2 SWAP1 PUSH4 0xFFFFFFFF AND JUMP JUMPDEST PUSH2 0x195C SWAP1 SWAP2 SWAP1 PUSH4 0xFFFFFFFF AND JUMP JUMPDEST SWAP2 POP POP JUMPDEST SWAP1 JUMP JUMPDEST PUSH1 0x0 TIMESTAMP SWAP1 POP SWAP1 JUMP JUMPDEST PUSH1 0x9 SLOAD DUP2 JUMP JUMPDEST PUSH1 0x0 PUSH2 0xE9F PUSH2 0xE8E ADDRESS PUSH20 0xFFFFFFFFFFFFFFFFFFFFFFFFFFFFFFFFFFFFFFFF AND PUSH4 0xFC3E532B PUSH1 0x40 MLOAD DUP2 PUSH4 0xFFFFFFFF AND PUSH1 0xE0 SHL DUP2 MSTORE PUSH1 0x4 ADD PUSH1 0x20 PUSH1 0x40 MLOAD DUP1 DUP4 SUB DUP2 DUP7 DUP1 EXTCODESIZE ISZERO DUP1 ISZERO PUSH2 0xDCD JUMPI PUSH1 0x0 DUP1 REVERT JUMPDEST POP GAS STATICCALL ISZERO DUP1 ISZERO PUSH2 0xDE1 JUMPI RETURNDATASIZE PUSH1 0x0 DUP1 RETURNDATACOPY RETURNDATASIZE PUSH1 0x0 REVERT JUMPDEST POP POP POP POP PUSH1 0x40 MLOAD RETURNDATASIZE PUSH1 0x20 DUP2 LT ISZERO PUSH2 0xDF7 JUMPI PUSH1 0x0 DUP1 REVERT JUMPDEST DUP2 ADD SWAP1 DUP1 DUP1 MLOAD SWAP1 PUSH1 0x20 ADD SWAP1 SWAP3 SWAP2 SWAP1 POP POP POP ADDRESS PUSH20 0xFFFFFFFFFFFFFFFFFFFFFFFFFFFFFFFFFFFFFFFF AND PUSH4 0xF6153CCD PUSH1 0x40 MLOAD DUP2 PUSH4 0xFFFFFFFF AND PUSH1 0xE0 SHL DUP2 MSTORE PUSH1 0x4 ADD PUSH1 0x20 PUSH1 0x40 MLOAD DUP1 DUP4 SUB DUP2 DUP7 DUP1 EXTCODESIZE ISZERO DUP1 ISZERO PUSH2 0xE4E JUMPI PUSH1 0x0 DUP1 REVERT JUMPDEST POP GAS STATICCALL ISZERO DUP1 ISZERO PUSH2 0xE62 JUMPI RETURNDATASIZE PUSH1 0x0 DUP1 RETURNDATACOPY RETURNDATASIZE PUSH1 0x0 REVERT JUMPDEST POP POP POP POP PUSH1 0x40 MLOAD RETURNDATASIZE PUSH1 0x20 DUP2 LT ISZERO PUSH2 0xE78 JUMPI PUSH1 0x0 DUP1 REVERT JUMPDEST DUP2 ADD SWAP1 DUP1 DUP1 MLOAD SWAP1 PUSH1 0x20 ADD SWAP1 SWAP3 SWAP2 SWAP1 POP POP POP PUSH2 0x1AF9 JUMP JUMPDEST PUSH1 0x3 SLOAD PUSH2 0x195C SWAP1 SWAP2 SWAP1 PUSH4 0xFFFFFFFF AND JUMP JUMPDEST SWAP1 POP SWAP1 JUMP JUMPDEST PUSH1 0x0 DUP1 PUSH1 0x4 SLOAD EQ ISZERO PUSH2 0xEB9 JUMPI PUSH1 0x0 SWAP1 POP PUSH2 0xF65 JUMP JUMPDEST PUSH2 0xF62 PUSH1 0x4 SLOAD PUSH2 0xF54 ADDRESS PUSH20 0xFFFFFFFFFFFFFFFFFFFFFFFFFFFFFFFFFFFFFFFF AND PUSH4 0x6E5B9634 PUSH1 0x40 MLOAD DUP2 PUSH4 0xFFFFFFFF AND PUSH1 0xE0 SHL DUP2 MSTORE PUSH1 0x4 ADD PUSH1 0x20 PUSH1 0x40 MLOAD DUP1 DUP4 SUB DUP2 DUP7 DUP1 EXTCODESIZE ISZERO DUP1 ISZERO PUSH2 0xF08 JUMPI PUSH1 0x0 DUP1 REVERT JUMPDEST POP GAS STATICCALL ISZERO DUP1 ISZERO PUSH2 0xF1C JUMPI RETURNDATASIZE PUSH1 0x0 DUP1 RETURNDATACOPY RETURNDATASIZE PUSH1 0x0 REVERT JUMPDEST POP POP POP POP PUSH1 0x40 MLOAD RETURNDATASIZE PUSH1 0x20 DUP2 LT ISZERO PUSH2 0xF32 JUMPI PUSH1 0x0 DUP1 REVERT JUMPDEST DUP2 ADD SWAP1 DUP1 DUP1 MLOAD SWAP1 PUSH1 0x20 ADD SWAP1 SWAP3 SWAP2 SWAP1 POP POP POP PUSH1 0x4 SLOAD PUSH2 0x19E4 SWAP1 SWAP2 SWAP1 PUSH4 0xFFFFFFFF AND JUMP JUMPDEST PUSH2 0x1A6A SWAP1 SWAP2 SWAP1 PUSH4 0xFFFFFFFF AND JUMP JUMPDEST SWAP1 POP JUMPDEST SWAP1 JUMP JUMPDEST PUSH1 0x2 PUSH1 0x0 SWAP1 SLOAD SWAP1 PUSH2 0x100 EXP SWAP1 DIV PUSH20 0xFFFFFFFFFFFFFFFFFFFFFFFFFFFFFFFFFFFFFFFF AND PUSH20 0xFFFFFFFFFFFFFFFFFFFFFFFFFFFFFFFFFFFFFFFF AND CALLER PUSH20 0xFFFFFFFFFFFFFFFFFFFFFFFFFFFFFFFFFFFFFFFF AND EQ ISZERO PUSH2 0xFFB JUMPI DUP1 ISZERO PUSH2 0xFD7 JUMPI PUSH2 0xFCC PUSH2 0xD71 JUMP JUMPDEST PUSH1 0x9 DUP2 SWAP1 SSTORE POP PUSH2 0xFE0 JUMP JUMPDEST PUSH1 0x0 PUSH1 0x9 DUP2 SWAP1 SSTORE POP JUMPDEST DUP1 PUSH1 0xA PUSH1 0x0 PUSH2 0x100 EXP DUP2 SLOAD DUP2 PUSH1 0xFF MUL NOT AND SWAP1 DUP4 ISZERO ISZERO MUL OR SWAP1 SSTORE POP JUMPDEST POP JUMP JUMPDEST PUSH1 0x2 PUSH1 0x0 SWAP1 SLOAD SWAP1 PUSH2 0x100 EXP SWAP1 DIV PUSH20 0xFFFFFFFFFFFFFFFFFFFFFFFFFFFFFFFFFFFFFFFF AND DUP2 JUMP JUMPDEST PUSH1 0x0 DUP1 PUSH1 0xC PUSH1 0x0 CALLER PUSH20 0xFFFFFFFFFFFFFFFFFFFFFFFFFFFFFFFFFFFFFFFF AND PUSH20 0xFFFFFFFFFFFFFFFFFFFFFFFFFFFFFFFFFFFFFFFF AND DUP2 MSTORE PUSH1 0x20 ADD SWAP1 DUP2 MSTORE PUSH1 0x20 ADD PUSH1 0x0 KECCAK256 SWAP1 POP PUSH1 0x0 DUP2 PUSH1 0x0 ADD SLOAD EQ ISZERO PUSH2 0x107F JUMPI PUSH1 0x0 SWAP2 POP POP PUSH2 0x1144 JUMP JUMPDEST PUSH1 0x0 PUSH2 0x110F DUP3 PUSH1 0x5 ADD SLOAD ADDRESS PUSH20 0xFFFFFFFFFFFFFFFFFFFFFFFFFFFFFFFFFFFFFFFF AND PUSH4 0x6E5B9634 PUSH1 0x40 MLOAD DUP2 PUSH4 0xFFFFFFFF AND PUSH1 0xE0 SHL DUP2 MSTORE PUSH1 0x4 ADD PUSH1 0x20 PUSH1 0x40 MLOAD DUP1 DUP4 SUB DUP2 DUP7 DUP1 EXTCODESIZE ISZERO DUP1 ISZERO PUSH2 0x10CF JUMPI PUSH1 0x0 DUP1 REVERT JUMPDEST POP GAS STATICCALL ISZERO DUP1 ISZERO PUSH2 0x10E3 JUMPI RETURNDATASIZE PUSH1 0x0 DUP1 RETURNDATACOPY RETURNDATASIZE PUSH1 0x0 REVERT JUMPDEST POP POP POP POP PUSH1 0x40 MLOAD RETURNDATASIZE PUSH1 0x20 DUP2 LT ISZERO PUSH2 0x10F9 JUMPI PUSH1 0x0 DUP1 REVERT JUMPDEST DUP2 ADD SWAP1 DUP1 DUP1 MLOAD SWAP1 PUSH1 0x20 ADD SWAP1 SWAP3 SWAP2 SWAP1 POP POP POP PUSH2 0x18A5 JUMP JUMPDEST SWAP1 POP DUP2 PUSH1 0x3 ADD SLOAD DUP2 GT ISZERO PUSH2 0x113D JUMPI PUSH2 0x1134 DUP3 PUSH1 0x3 ADD SLOAD DUP3 PUSH2 0x18D3 SWAP1 SWAP2 SWAP1 PUSH4 0xFFFFFFFF AND JUMP JUMPDEST SWAP3 POP POP POP PUSH2 0x1144 JUMP JUMPDEST PUSH1 0x0 SWAP3 POP POP POP JUMPDEST SWAP1 JUMP JUMPDEST PUSH1 0x0 DUP2 GT PUSH2 0x11BD JUMPI PUSH1 0x40 MLOAD PUSH32 0x8C379A000000000000000000000000000000000000000000000000000000000 DUP2 MSTORE PUSH1 0x4 ADD DUP1 DUP1 PUSH1 0x20 ADD DUP3 DUP2 SUB DUP3 MSTORE PUSH1 0x12 DUP2 MSTORE PUSH1 0x20 ADD DUP1 PUSH32 0x4E6F7468696E6720746F206465706F7369740000000000000000000000000000 DUP2 MSTORE POP PUSH1 0x20 ADD SWAP2 POP POP PUSH1 0x40 MLOAD DUP1 SWAP2 SUB SWAP1 REVERT JUMPDEST PUSH2 0x11C5 PUSH2 0x1648 JUMP JUMPDEST PUSH1 0x0 PUSH1 0xC PUSH1 0x0 CALLER PUSH20 0xFFFFFFFFFFFFFFFFFFFFFFFFFFFFFFFFFFFFFFFF AND PUSH20 0xFFFFFFFFFFFFFFFFFFFFFFFFFFFFFFFFFFFFFFFF AND DUP2 MSTORE PUSH1 0x20 ADD SWAP1 DUP2 MSTORE PUSH1 0x20 ADD PUSH1 0x0 KECCAK256 SWAP1 POP PUSH1 0x0 DUP2 PUSH1 0x5 ADD SLOAD GT ISZERO PUSH2 0x1264 JUMPI PUSH1 0x0 PUSH2 0x123D DUP3 PUSH1 0x3 ADD SLOAD PUSH2 0x122F DUP5 PUSH1 0x5 ADD SLOAD PUSH1 0x3 SLOAD PUSH2 0x18A5 JUMP JUMPDEST PUSH2 0x18D3 SWAP1 SWAP2 SWAP1 PUSH4 0xFFFFFFFF AND JUMP JUMPDEST SWAP1 POP PUSH2 0x1256 DUP2 DUP4 PUSH1 0x4 ADD SLOAD PUSH2 0x195C SWAP1 SWAP2 SWAP1 PUSH4 0xFFFFFFFF AND JUMP JUMPDEST DUP3 PUSH1 0x4 ADD DUP2 SWAP1 SSTORE POP POP PUSH2 0x126F JUMP JUMPDEST PUSH1 0x0 DUP2 PUSH1 0x4 ADD DUP2 SWAP1 SSTORE POP JUMPDEST PUSH1 0x0 DUP1 SLOAD SWAP1 PUSH2 0x100 EXP SWAP1 DIV PUSH20 0xFFFFFFFFFFFFFFFFFFFFFFFFFFFFFFFFFFFFFFFF AND PUSH20 0xFFFFFFFFFFFFFFFFFFFFFFFFFFFFFFFFFFFFFFFF AND PUSH4 0x23B872DD CALLER ADDRESS DUP6 PUSH1 0x40 MLOAD DUP5 PUSH4 0xFFFFFFFF AND PUSH1 0xE0 SHL DUP2 MSTORE PUSH1 0x4 ADD DUP1 DUP5 PUSH20 0xFFFFFFFFFFFFFFFFFFFFFFFFFFFFFFFFFFFFFFFF AND DUP2 MSTORE PUSH1 0x20 ADD DUP4 PUSH20 0xFFFFFFFFFFFFFFFFFFFFFFFFFFFFFFFFFFFFFFFF AND DUP2 MSTORE PUSH1 0x20 ADD DUP3 DUP2 MSTORE PUSH1 0x20 ADD SWAP4 POP POP POP POP PUSH1 0x20 PUSH1 0x40 MLOAD DUP1 DUP4 SUB DUP2 PUSH1 0x0 DUP8 DUP1 EXTCODESIZE ISZERO DUP1 ISZERO PUSH2 0x131E JUMPI PUSH1 0x0 DUP1 REVERT JUMPDEST POP GAS CALL ISZERO DUP1 ISZERO PUSH2 0x1332 JUMPI RETURNDATASIZE PUSH1 0x0 DUP1 RETURNDATACOPY RETURNDATASIZE PUSH1 0x0 REVERT JUMPDEST POP POP POP POP PUSH1 0x40 MLOAD RETURNDATASIZE PUSH1 0x20 DUP2 LT ISZERO PUSH2 0x1348 JUMPI PUSH1 0x0 DUP1 REVERT JUMPDEST DUP2 ADD SWAP1 DUP1 DUP1 MLOAD SWAP1 PUSH1 0x20 ADD SWAP1 SWAP3 SWAP2 SWAP1 POP POP POP POP PUSH1 0x0 PUSH2 0x1376 PUSH2 0x1367 PUSH2 0x1635 JUMP JUMPDEST DUP5 PUSH2 0x19E4 SWAP1 SWAP2 SWAP1 PUSH4 0xFFFFFFFF AND JUMP JUMPDEST SWAP1 POP PUSH2 0x138F DUP2 DUP4 PUSH1 0x0 ADD SLOAD PUSH2 0x195C SWAP1 SWAP2 SWAP1 PUSH4 0xFFFFFFFF AND JUMP JUMPDEST DUP3 PUSH1 0x0 ADD DUP2 SWAP1 SSTORE POP PUSH2 0x13AC DUP2 PUSH1 0x4 SLOAD PUSH2 0x195C SWAP1 SWAP2 SWAP1 PUSH4 0xFFFFFFFF AND JUMP JUMPDEST PUSH1 0x4 DUP2 SWAP1 SSTORE POP PUSH2 0x13C9 DUP4 DUP4 PUSH1 0x5 ADD SLOAD PUSH2 0x195C SWAP1 SWAP2 SWAP1 PUSH4 0xFFFFFFFF AND JUMP JUMPDEST DUP3 PUSH1 0x5 ADD DUP2 SWAP1 SSTORE POP PUSH2 0x13E1 DUP3 PUSH1 0x5 ADD SLOAD PUSH1 0x3 SLOAD PUSH2 0x18A5 JUMP JUMPDEST DUP3 PUSH1 0x3 ADD DUP2 SWAP1 SSTORE POP PUSH2 0x13F1 PUSH2 0xD71 JUMP JUMPDEST DUP3 PUSH1 0x2 ADD DUP2 SWAP1 SSTORE POP PUSH2 0x1401 PUSH2 0xD71 JUMP JUMPDEST DUP3 PUSH1 0x1 ADD DUP2 SWAP1 SSTORE POP CALLER PUSH20 0xFFFFFFFFFFFFFFFFFFFFFFFFFFFFFFFFFFFFFFFF AND PUSH32 0x36AF321EC8D3C75236829C5317AFFD40DDB308863A1236D2D277A4025CCCEE1E DUP5 DUP4 TIMESTAMP PUSH1 0x40 MLOAD DUP1 DUP5 DUP2 MSTORE PUSH1 0x20 ADD DUP4 DUP2 MSTORE PUSH1 0x20 ADD DUP3 DUP2 MSTORE PUSH1 0x20 ADD SWAP4 POP POP POP POP PUSH1 0x40 MLOAD DUP1 SWAP2 SUB SWAP1 LOG2 POP POP POP JUMP JUMPDEST PUSH1 0x0 DUP1 PUSH3 0x15180 SWAP1 POP PUSH1 0x0 PUSH2 0x147F PUSH2 0xD71 JUMP JUMPDEST SWAP1 POP PUSH1 0x0 PUSH1 0x1 SWAP1 POP PUSH1 0x0 ISZERO ISZERO PUSH1 0xA PUSH1 0x0 SWAP1 SLOAD SWAP1 PUSH2 0x100 EXP SWAP1 DIV PUSH1 0xFF AND ISZERO ISZERO EQ ISZERO PUSH2 0x14B7 JUMPI PUSH6 0xAE9F7BCC000 SWAP1 POP DUP1 SWAP4 POP POP POP POP PUSH2 0x1585 JUMP JUMPDEST PUSH2 0x12C PUSH1 0x9 SLOAD ADD DUP3 LT ISZERO PUSH2 0x14FF JUMPI PUSH1 0x0 PUSH3 0x2AB980 SWAP1 POP PUSH2 0x14F7 DUP5 PUSH2 0x14E9 PUSH1 0xB SLOAD PUSH1 0xA EXP DUP5 PUSH2 0x19E4 SWAP1 SWAP2 SWAP1 PUSH4 0xFFFFFFFF AND JUMP JUMPDEST PUSH2 0x1A6A SWAP1 SWAP2 SWAP1 PUSH4 0xFFFFFFFF AND JUMP JUMPDEST SWAP2 POP POP PUSH2 0x157E JUMP JUMPDEST PUSH2 0x258 PUSH1 0x9 SLOAD ADD DUP3 LT ISZERO PUSH2 0x1547 JUMPI PUSH1 0x0 PUSH3 0x155CC0 SWAP1 POP PUSH2 0x153F DUP5 PUSH2 0x1531 PUSH1 0xB SLOAD PUSH1 0xA EXP DUP5 PUSH2 0x19E4 SWAP1 SWAP2 SWAP1 PUSH4 0xFFFFFFFF AND JUMP JUMPDEST PUSH2 0x1A6A SWAP1 SWAP2 SWAP1 PUSH4 0xFFFFFFFF AND JUMP JUMPDEST SWAP2 POP POP PUSH2 0x157D JUMP JUMPDEST PUSH1 0x0 PUSH3 0x1DDBC SWAP1 POP PUSH2 0x1579 DUP5 PUSH2 0x156B PUSH1 0xB SLOAD PUSH1 0xA EXP DUP5 PUSH2 0x19E4 SWAP1 SWAP2 SWAP1 PUSH4 0xFFFFFFFF AND JUMP JUMPDEST PUSH2 0x1A6A SWAP1 SWAP2 SWAP1 PUSH4 0xFFFFFFFF AND JUMP JUMPDEST SWAP2 POP POP JUMPDEST JUMPDEST DUP1 SWAP4 POP POP POP POP JUMPDEST SWAP1 JUMP JUMPDEST PUSH1 0x6 SLOAD DUP2 JUMP JUMPDEST PUSH1 0x0 PUSH2 0x162A PUSH2 0x159B PUSH2 0x4F9 JUMP JUMPDEST ADDRESS PUSH20 0xFFFFFFFFFFFFFFFFFFFFFFFFFFFFFFFFFFFFFFFF AND PUSH4 0xFC3E532B PUSH1 0x40 MLOAD DUP2 PUSH4 0xFFFFFFFF AND PUSH1 0xE0 SHL DUP2 MSTORE PUSH1 0x4 ADD PUSH1 0x20 PUSH1 0x40 MLOAD DUP1 DUP4 SUB DUP2 DUP7 DUP1 EXTCODESIZE ISZERO DUP1 ISZERO PUSH2 0x15E1 JUMPI PUSH1 0x0 DUP1 REVERT JUMPDEST POP GAS STATICCALL ISZERO DUP1 ISZERO PUSH2 0x15F5 JUMPI RETURNDATASIZE PUSH1 0x0 DUP1 RETURNDATACOPY RETURNDATASIZE PUSH1 0x0 REVERT JUMPDEST POP POP POP POP PUSH1 0x40 MLOAD RETURNDATASIZE PUSH1 0x20 DUP2 LT ISZERO PUSH2 0x160B JUMPI PUSH1 0x0 DUP1 REVERT JUMPDEST DUP2 ADD SWAP1 DUP1 DUP1 MLOAD SWAP1 PUSH1 0x20 ADD SWAP1 SWAP3 SWAP2 SWAP1 POP POP POP PUSH2 0x195C SWAP1 SWAP2 SWAP1 PUSH4 0xFFFFFFFF AND JUMP JUMPDEST SWAP1 POP SWAP1 JUMP JUMPDEST PUSH1 0x3 SLOAD DUP2 JUMP JUMPDEST PUSH1 0x0 PUSH1 0xB SLOAD PUSH1 0xA EXP SWAP1 POP SWAP1 JUMP JUMPDEST PUSH1 0x8 SLOAD DUP2 JUMP JUMPDEST PUSH1 0x0 PUSH2 0x1652 PUSH2 0xD71 JUMP JUMPDEST SWAP1 POP PUSH1 0x6 SLOAD DUP2 GT PUSH2 0x1663 JUMPI POP PUSH2 0x1814 JUMP JUMPDEST PUSH1 0x0 PUSH1 0x4 SLOAD GT PUSH2 0x167A JUMPI DUP1 PUSH1 0x6 DUP2 SWAP1 SSTORE POP POP PUSH2 0x1814 JUMP JUMPDEST PUSH1 0x0 PUSH1 0x6 SLOAD TIMESTAMP SUB SWAP1 POP PUSH1 0x0 PUSH2 0x169F PUSH2 0x1690 PUSH2 0x146C JUMP JUMPDEST DUP4 PUSH2 0x19E4 SWAP1 SWAP2 SWAP1 PUSH4 0xFFFFFFFF AND JUMP JUMPDEST SWAP1 POP DUP3 PUSH1 0x6 DUP2 SWAP1 SSTORE POP PUSH2 0x16BD DUP2 PUSH1 0x5 SLOAD PUSH2 0x195C SWAP1 SWAP2 SWAP1 PUSH4 0xFFFFFFFF AND JUMP JUMPDEST PUSH1 0x5 DUP2 SWAP1 SSTORE POP PUSH2 0x1761 PUSH2 0x1750 DUP3 ADDRESS PUSH20 0xFFFFFFFFFFFFFFFFFFFFFFFFFFFFFFFFFFFFFFFF AND PUSH4 0xF6153CCD PUSH1 0x40 MLOAD DUP2 PUSH4 0xFFFFFFFF AND PUSH1 0xE0 SHL DUP2 MSTORE PUSH1 0x4 ADD PUSH1 0x20 PUSH1 0x40 MLOAD DUP1 DUP4 SUB DUP2 DUP7 DUP1 EXTCODESIZE ISZERO DUP1 ISZERO PUSH2 0x1710 JUMPI PUSH1 0x0 DUP1 REVERT JUMPDEST POP GAS STATICCALL ISZERO DUP1 ISZERO PUSH2 0x1724 JUMPI RETURNDATASIZE PUSH1 0x0 DUP1 RETURNDATACOPY RETURNDATASIZE PUSH1 0x0 REVERT JUMPDEST POP POP POP POP PUSH1 0x40 MLOAD RETURNDATASIZE PUSH1 0x20 DUP2 LT ISZERO PUSH2 0x173A JUMPI PUSH1 0x0 DUP1 REVERT JUMPDEST DUP2 ADD SWAP1 DUP1 DUP1 MLOAD SWAP1 PUSH1 0x20 ADD SWAP1 SWAP3 SWAP2 SWAP1 POP POP POP PUSH2 0x1AF9 JUMP JUMPDEST PUSH1 0x3 SLOAD PUSH2 0x195C SWAP1 SWAP2 SWAP1 PUSH4 0xFFFFFFFF AND JUMP JUMPDEST PUSH1 0x3 DUP2 SWAP1 SSTORE POP PUSH1 0x0 DUP1 SLOAD SWAP1 PUSH2 0x100 EXP SWAP1 DIV PUSH20 0xFFFFFFFFFFFFFFFFFFFFFFFFFFFFFFFFFFFFFFFF AND PUSH20 0xFFFFFFFFFFFFFFFFFFFFFFFFFFFFFFFFFFFFFFFF AND PUSH4 0x40C10F19 ADDRESS DUP4 PUSH1 0x40 MLOAD DUP4 PUSH4 0xFFFFFFFF AND PUSH1 0xE0 SHL DUP2 MSTORE PUSH1 0x4 ADD DUP1 DUP4 PUSH20 0xFFFFFFFFFFFFFFFFFFFFFFFFFFFFFFFFFFFFFFFF AND DUP2 MSTORE PUSH1 0x20 ADD DUP3 DUP2 MSTORE PUSH1 0x20 ADD SWAP3 POP POP POP PUSH1 0x0 PUSH1 0x40 MLOAD DUP1 DUP4 SUB DUP2 PUSH1 0x0 DUP8 DUP1 EXTCODESIZE ISZERO DUP1 ISZERO PUSH2 0x17F8 JUMPI PUSH1 0x0 DUP1 REVERT JUMPDEST POP GAS CALL ISZERO DUP1 ISZERO PUSH2 0x180C JUMPI RETURNDATASIZE PUSH1 0x0 DUP1 RETURNDATACOPY RETURNDATASIZE PUSH1 0x0 REVERT JUMPDEST POP POP POP POP POP POP POP JUMPDEST JUMP JUMPDEST PUSH1 0xA PUSH1 0x0 SWAP1 SLOAD SWAP1 PUSH2 0x100 EXP SWAP1 DIV PUSH1 0xFF AND DUP2 JUMP JUMPDEST PUSH1 0x7 SLOAD DUP2 JUMP JUMPDEST PUSH1 0x0 PUSH2 0x184E PUSH8 0xDE0B6B3A7640000 PUSH1 0x4 SLOAD PUSH2 0x1A6A SWAP1 SWAP2 SWAP1 PUSH4 0xFFFFFFFF AND JUMP JUMPDEST SWAP1 POP SWAP1 JUMP JUMPDEST PUSH1 0x0 DUP1 PUSH2 0x185E PUSH2 0xD71 JUMP JUMPDEST SWAP1 POP PUSH1 0x0 PUSH1 0x4 SLOAD GT PUSH2 0x1874 JUMPI PUSH1 0x0 SWAP2 POP POP PUSH2 0x18A2 JUMP JUMPDEST PUSH1 0x0 PUSH1 0x6 SLOAD DUP3 SUB SWAP1 POP PUSH1 0x0 PUSH2 0x1899 PUSH2 0x188A PUSH2 0x146C JUMP JUMPDEST DUP4 PUSH2 0x19E4 SWAP1 SWAP2 SWAP1 PUSH4 0xFFFFFFFF AND JUMP JUMPDEST SWAP1 POP DUP1 SWAP4 POP POP POP POP JUMPDEST SWAP1 JUMP JUMPDEST PUSH1 0x0 PUSH8 0xDE0B6B3A7640000 PUSH2 0x18C3 DUP4 DUP6 PUSH2 0x19E4 SWAP1 SWAP2 SWAP1 PUSH4 0xFFFFFFFF AND JUMP JUMPDEST DUP2 PUSH2 0x18CA JUMPI INVALID JUMPDEST DIV SWAP1 POP SWAP3 SWAP2 POP POP JUMP JUMPDEST PUSH1 0x0 DUP3 DUP3 GT ISZERO PUSH2 0x194B JUMPI PUSH1 0x40 MLOAD PUSH32 0x8C379A000000000000000000000000000000000000000000000000000000000 DUP2 MSTORE PUSH1 0x4 ADD DUP1 DUP1 PUSH1 0x20 ADD DUP3 DUP2 SUB DUP3 MSTORE PUSH1 0x1E DUP2 MSTORE PUSH1 0x20 ADD DUP1 PUSH32 0x536166654D6174683A207375627472616374696F6E206F766572666C6F770000 DUP2 MSTORE POP PUSH1 0x20 ADD SWAP2 POP POP PUSH1 0x40 MLOAD DUP1 SWAP2 SUB SWAP1 REVERT JUMPDEST PUSH1 0x0 DUP3 DUP5 SUB SWAP1 POP DUP1 SWAP2 POP POP SWAP3 SWAP2 POP POP JUMP JUMPDEST PUSH1 0x0 DUP1 DUP3 DUP5 ADD SWAP1 POP DUP4 DUP2 LT ISZERO PUSH2 0x19DA JUMPI PUSH1 0x40 MLOAD PUSH32 0x8C379A000000000000000000000000000000000000000000000000000000000 DUP2 MSTORE PUSH1 0x4 ADD DUP1 DUP1 PUSH1 0x20 ADD DUP3 DUP2 SUB DUP3 MSTORE PUSH1 0x1B DUP2 MSTORE PUSH1 0x20 ADD DUP1 PUSH32 0x536166654D6174683A206164646974696F6E206F766572666C6F770000000000 DUP2 MSTORE POP PUSH1 0x20 ADD SWAP2 POP POP PUSH1 0x40 MLOAD DUP1 SWAP2 SUB SWAP1 REVERT JUMPDEST DUP1 SWAP2 POP POP SWAP3 SWAP2 POP POP JUMP JUMPDEST PUSH1 0x0 DUP1 DUP4 EQ ISZERO PUSH2 0x19F7 JUMPI PUSH1 0x0 SWAP1 POP PUSH2 0x1A64 JUMP JUMPDEST PUSH1 0x0 DUP3 DUP5 MUL SWAP1 POP DUP3 DUP5 DUP3 DUP2 PUSH2 0x1A08 JUMPI INVALID JUMPDEST DIV EQ PUSH2 0x1A5F JUMPI PUSH1 0x40 MLOAD PUSH32 0x8C379A000000000000000000000000000000000000000000000000000000000 DUP2 MSTORE PUSH1 0x4 ADD DUP1 DUP1 PUSH1 0x20 ADD DUP3 DUP2 SUB DUP3 MSTORE PUSH1 0x21 DUP2 MSTORE PUSH1 0x20 ADD DUP1 PUSH2 0x1B31 PUSH1 0x21 SWAP2 CODECOPY PUSH1 0x40 ADD SWAP2 POP POP PUSH1 0x40 MLOAD DUP1 SWAP2 SUB SWAP1 REVERT JUMPDEST DUP1 SWAP2 POP POP JUMPDEST SWAP3 SWAP2 POP POP JUMP JUMPDEST PUSH1 0x0 DUP1 DUP3 GT PUSH2 0x1AE1 JUMPI PUSH1 0x40 MLOAD PUSH32 0x8C379A000000000000000000000000000000000000000000000000000000000 DUP2 MSTORE PUSH1 0x4 ADD DUP1 DUP1 PUSH1 0x20 ADD DUP3 DUP2 SUB DUP3 MSTORE PUSH1 0x1A DUP2 MSTORE PUSH1 0x20 ADD DUP1 PUSH32 0x536166654D6174683A206469766973696F6E206279207A65726F000000000000 DUP2 MSTORE POP PUSH1 0x20 ADD SWAP2 POP POP PUSH1 0x40 MLOAD DUP1 SWAP2 SUB SWAP1 REVERT JUMPDEST PUSH1 0x0 DUP3 DUP5 DUP2 PUSH2 0x1AEC JUMPI INVALID JUMPDEST DIV SWAP1 POP DUP1 SWAP2 POP POP SWAP3 SWAP2 POP POP JUMP JUMPDEST PUSH1 0x0 PUSH2 0x1B28 DUP3 PUSH2 0x1B1A PUSH8 0xDE0B6B3A7640000 DUP7 PUSH2 0x19E4 SWAP1 SWAP2 SWAP1 PUSH4 0xFFFFFFFF AND JUMP JUMPDEST PUSH2 0x1A6A SWAP1 SWAP2 SWAP1 PUSH4 0xFFFFFFFF AND JUMP JUMPDEST SWAP1 POP SWAP3 SWAP2 POP POP JUMP INVALID MSTORE8 PUSH2 0x6665 0x4D PUSH2 0x7468 GASPRICE KECCAK256 PUSH14 0x756C7469706C69636174696F6E20 PUSH16 0x766572666C6F77A26469706673582212 KECCAK256 0xC0 0xF8 TIMESTAMP 0xB0 PUSH15 0x7DBBAAF8121EC704AF3383D8EE7A63 XOR 0xE4 0x21 0xD9 0xDD PUSH28 0x287C7AF08E3264736F6C634300060C00330000000000000000000000 "
				},
				"gasEstimates": {
					"creation": {
						"codeDepositCost": "1409400",
						"executionCost": "infinite",
						"totalCost": "infinite"
					},
					"external": {
						"accPerShare()": "1138",
						"computePer()": "infinite",
						"deposit(uint256)": "infinite",
						"getDepositBalance()": "infinite",
						"getEther()": "2671",
						"getStakingCoinPerSec()": "infinite",
						"getTime()": "235",
						"lastUpdateTime()": "1094",
						"myBenefits()": "infinite",
						"myValue()": "infinite",
						"owner()": "1180",
						"pendingCoin()": "infinite",
						"setStakingSwitch(bool)": "42164",
						"sharesPrice()": "infinite",
						"stakingStartTime()": "1050",
						"stakingSwitch()": "1091",
						"totalAmount()": "1073",
						"totalDeposit()": "infinite",
						"totalShares()": "1117",
						"totalStakingAmount()": "infinite",
						"updatePool()": "infinite",
						"userInfo(address)": "5389",
						"withdraw(uint256)": "infinite",
						"withdrawFee()": "1071",
						"withdrawFeePeriod()": "1072"
					},
					"internal": {
						"decimalMul(uint256,uint256)": "infinite",
						"divFloor(uint256,uint256)": "infinite"
					}
				},
				"methodIdentifiers": {
					"accPerShare()": "d2890a01",
					"computePer()": "6e5b9634",
					"deposit(uint256)": "b6b55f25",
					"getDepositBalance()": "0497de4a",
					"getEther()": "de0ff7c5",
					"getStakingCoinPerSec()": "b8a3b366",
					"getTime()": "557ed1ba",
					"lastUpdateTime()": "c8f33c91",
					"myBenefits()": "936b6cec",
					"myValue()": "47f1aae7",
					"owner()": "8da5cb5b",
					"pendingCoin()": "fc3e532b",
					"setStakingSwitch(bool)": "81ad5718",
					"sharesPrice()": "77926869",
					"stakingStartTime()": "6abfd183",
					"stakingSwitch()": "e6fa445d",
					"totalAmount()": "1a39d8ef",
					"totalDeposit()": "f6153ccd",
					"totalShares()": "3a98ef39",
					"totalStakingAmount()": "d201114a",
					"updatePool()": "e3161ddd",
					"userInfo(address)": "1959a002",
					"withdraw(uint256)": "2e1a7d4d",
					"withdrawFee()": "e941fa78",
					"withdrawFeePeriod()": "df10b4e6"
				}
			},
			"userdoc": {
				"kind": "user",
				"methods": {},
				"version": 1
			}
		}
	}
}